{
	"simpleToken.sol": {
		"SimpleToken": {
			"abi": [
				{
					"inputs": [
						{
							"internalType": "string",
							"name": "getName",
							"type": "string"
						},
						{
							"internalType": "string",
							"name": "getSymbol",
							"type": "string"
						}
					],
					"stateMutability": "nonpayable",
					"type": "constructor"
				},
				{
					"anonymous": false,
					"inputs": [
						{
							"indexed": true,
							"internalType": "address",
							"name": "owner",
							"type": "address"
						},
						{
							"indexed": true,
							"internalType": "address",
							"name": "spender",
							"type": "address"
						},
						{
							"indexed": false,
							"internalType": "uint256",
							"name": "oldAmount",
							"type": "uint256"
						},
						{
							"indexed": false,
							"internalType": "uint256",
							"name": "amount",
							"type": "uint256"
						}
					],
					"name": "Approval",
					"type": "event"
				},
				{
					"anonymous": false,
					"inputs": [
						{
							"indexed": true,
							"internalType": "address",
							"name": "from",
							"type": "address"
						},
						{
							"indexed": true,
							"internalType": "address",
							"name": "to",
							"type": "address"
						},
						{
							"indexed": false,
							"internalType": "uint256",
							"name": "amount",
							"type": "uint256"
						}
					],
					"name": "Transfer",
					"type": "event"
				},
				{
					"anonymous": false,
					"inputs": [
						{
							"indexed": true,
							"internalType": "address",
							"name": "spender",
							"type": "address"
						},
						{
							"indexed": true,
							"internalType": "address",
							"name": "from",
							"type": "address"
						},
						{
							"indexed": true,
							"internalType": "address",
							"name": "to",
							"type": "address"
						},
						{
							"indexed": false,
							"internalType": "uint256",
							"name": "amount",
							"type": "uint256"
						}
					],
					"name": "Transfer",
					"type": "event"
				},
				{
					"inputs": [
						{
							"internalType": "address",
							"name": "",
							"type": "address"
						},
						{
							"internalType": "address",
							"name": "",
							"type": "address"
						}
					],
					"name": "_allowances",
					"outputs": [
						{
							"internalType": "uint256",
							"name": "",
							"type": "uint256"
						}
					],
					"stateMutability": "view",
					"type": "function"
				},
				{
					"inputs": [],
					"name": "_decimals",
					"outputs": [
						{
							"internalType": "uint8",
							"name": "",
							"type": "uint8"
						}
					],
					"stateMutability": "view",
					"type": "function"
				},
				{
					"inputs": [],
					"name": "_name",
					"outputs": [
						{
							"internalType": "string",
							"name": "",
							"type": "string"
						}
					],
					"stateMutability": "view",
					"type": "function"
				},
				{
					"inputs": [],
					"name": "_symbol",
					"outputs": [
						{
							"internalType": "string",
							"name": "",
							"type": "string"
						}
					],
					"stateMutability": "view",
					"type": "function"
				},
				{
					"inputs": [],
					"name": "_totalSupply",
					"outputs": [
						{
							"internalType": "uint256",
							"name": "",
							"type": "uint256"
						}
					],
					"stateMutability": "view",
					"type": "function"
				},
				{
					"inputs": [
						{
							"internalType": "address",
							"name": "owner",
							"type": "address"
						},
						{
							"internalType": "address",
							"name": "spender",
							"type": "address"
						}
					],
					"name": "allowance",
					"outputs": [
						{
							"internalType": "uint256",
							"name": "",
							"type": "uint256"
						}
					],
					"stateMutability": "view",
					"type": "function"
				},
				{
					"inputs": [
						{
							"internalType": "address",
							"name": "spender",
							"type": "address"
						},
						{
							"internalType": "uint256",
							"name": "amount",
							"type": "uint256"
						}
					],
					"name": "approve",
					"outputs": [
						{
							"internalType": "bool",
							"name": "",
							"type": "bool"
						}
					],
					"stateMutability": "nonpayable",
					"type": "function"
				},
				{
					"inputs": [
						{
							"internalType": "address",
							"name": "account",
							"type": "address"
						}
					],
					"name": "balanceOf",
					"outputs": [
						{
							"internalType": "uint256",
							"name": "",
							"type": "uint256"
						}
					],
					"stateMutability": "view",
					"type": "function"
				},
				{
					"inputs": [],
					"name": "decimals",
					"outputs": [
						{
							"internalType": "uint8",
							"name": "",
							"type": "uint8"
						}
					],
					"stateMutability": "view",
					"type": "function"
				},
				{
					"inputs": [],
					"name": "name",
					"outputs": [
						{
							"internalType": "string",
							"name": "",
							"type": "string"
						}
					],
					"stateMutability": "view",
					"type": "function"
				},
				{
					"inputs": [],
					"name": "symbol",
					"outputs": [
						{
							"internalType": "string",
							"name": "",
							"type": "string"
						}
					],
					"stateMutability": "view",
					"type": "function"
				},
				{
					"inputs": [],
					"name": "totalSupply",
					"outputs": [
						{
							"internalType": "uint256",
							"name": "",
							"type": "uint256"
						}
					],
					"stateMutability": "view",
					"type": "function"
				},
				{
					"inputs": [
						{
							"internalType": "address",
							"name": "recipient",
							"type": "address"
						},
						{
							"internalType": "uint256",
							"name": "amount",
							"type": "uint256"
						}
					],
					"name": "transfer",
					"outputs": [
						{
							"internalType": "bool",
							"name": "",
							"type": "bool"
						}
					],
					"stateMutability": "nonpayable",
					"type": "function"
				},
				{
					"inputs": [
						{
							"internalType": "address",
							"name": "sender",
							"type": "address"
						},
						{
							"internalType": "address",
							"name": "recipient",
							"type": "address"
						},
						{
							"internalType": "uint256",
							"name": "amount",
							"type": "uint256"
						}
					],
					"name": "transferFrom",
					"outputs": [
						{
							"internalType": "bool",
							"name": "",
							"type": "bool"
						}
					],
					"stateMutability": "nonpayable",
					"type": "function"
				}
			],
			"devdoc": {
				"kind": "dev",
				"methods": {},
				"version": 1
			},
			"evm": {
				"assembly": "    /* \"simpleToken.sol\":862:4181  contract SimpleToken is ERC20Interface {... */\n  mstore(0x40, 0x80)\n    /* \"simpleToken.sol\":1166:1185  1000000000000000000 */\n  0x0de0b6b3a7640000\n    /* \"simpleToken.sol\":1147:1185  uint private E18 = 1000000000000000000 */\n  0x06\n  sstore\n    /* \"simpleToken.sol\":1192:1433  constructor(string memory getName, string memory getSymbol) {... */\n  callvalue\n  dup1\n  iszero\n  tag_1\n  jumpi\n  0x00\n  dup1\n  revert\ntag_1:\n  pop\n  mload(0x40)\n  sub(codesize, bytecodeSize)\n  dup1\n  bytecodeSize\n  dup4\n  codecopy\n  dup2\n  dup2\n  add\n  0x40\n  mstore\n  dup2\n  add\n  swap1\n  tag_2\n  swap2\n  swap1\n  tag_3\n  jump\t// in\ntag_2:\n    /* \"simpleToken.sol\":1270:1277  getName */\n  dup2\n    /* \"simpleToken.sol\":1262:1267  _name */\n  0x03\n    /* \"simpleToken.sol\":1262:1277  _name = getName */\n  swap1\n  dup2\n  tag_6\n  swap2\n  swap1\n  tag_7\n  jump\t// in\ntag_6:\n  pop\n    /* \"simpleToken.sol\":1297:1306  getSymbol */\n  dup1\n    /* \"simpleToken.sol\":1287:1294  _symbol */\n  0x04\n    /* \"simpleToken.sol\":1287:1306  _symbol = getSymbol */\n  swap1\n  dup2\n  tag_8\n  swap2\n  swap1\n  tag_7\n  jump\t// in\ntag_8:\n  pop\n    /* \"simpleToken.sol\":1328:1330  18 */\n  0x12\n    /* \"simpleToken.sol\":1316:1325  _decimals */\n  0x05\n  0x00\n    /* \"simpleToken.sol\":1316:1330  _decimals = 18 */\n  0x0100\n  exp\n  dup2\n  sload\n  dup2\n  0xff\n  mul\n  not\n  and\n  swap1\n  dup4\n  0xff\n  and\n  mul\n  or\n  swap1\n  sstore\n  pop\n    /* \"simpleToken.sol\":1367:1370  E18 */\n  sload(0x06)\n    /* \"simpleToken.sol\":1355:1364  100000000 */\n  0x05f5e100\n    /* \"simpleToken.sol\":1355:1370  100000000 * E18 */\n  tag_9\n  swap2\n  swap1\n  tag_10\n  jump\t// in\ntag_9:\n    /* \"simpleToken.sol\":1340:1352  _totalSupply */\n  0x02\n    /* \"simpleToken.sol\":1340:1370  _totalSupply = 100000000 * E18 */\n  dup2\n  swap1\n  sstore\n  pop\n    /* \"simpleToken.sol\":1404:1416  _totalSupply */\n  sload(0x02)\n    /* \"simpleToken.sol\":1380:1389  _balances */\n  0x00\n    /* \"simpleToken.sol\":1380:1401  _balances[msg.sender] */\n  dup1\n    /* \"simpleToken.sol\":1390:1400  msg.sender */\n  caller\n    /* \"simpleToken.sol\":1380:1401  _balances[msg.sender] */\n  0xffffffffffffffffffffffffffffffffffffffff\n  and\n  0xffffffffffffffffffffffffffffffffffffffff\n  and\n  dup2\n  mstore\n  0x20\n  add\n  swap1\n  dup2\n  mstore\n  0x20\n  add\n  0x00\n  keccak256\n    /* \"simpleToken.sol\":1380:1416  _balances[msg.sender] = _totalSupply */\n  dup2\n  swap1\n  sstore\n  pop\n    /* \"simpleToken.sol\":1192:1433  constructor(string memory getName, string memory getSymbol) {... */\n  pop\n  pop\n    /* \"simpleToken.sol\":862:4181  contract SimpleToken is ERC20Interface {... */\n  jump(tag_11)\n    /* \"#utility.yul\":7:82   */\ntag_12:\n    /* \"#utility.yul\":40:46   */\n  0x00\n    /* \"#utility.yul\":73:75   */\n  0x40\n    /* \"#utility.yul\":67:76   */\n  mload\n    /* \"#utility.yul\":57:76   */\n  swap1\n  pop\n    /* \"#utility.yul\":7:82   */\n  swap1\n  jump\t// out\n    /* \"#utility.yul\":88:205   */\ntag_13:\n    /* \"#utility.yul\":197:198   */\n  0x00\n    /* \"#utility.yul\":194:195   */\n  dup1\n    /* \"#utility.yul\":187:199   */\n  revert\n    /* \"#utility.yul\":211:328   */\ntag_14:\n    /* \"#utility.yul\":320:321   */\n  0x00\n    /* \"#utility.yul\":317:318   */\n  dup1\n    /* \"#utility.yul\":310:322   */\n  revert\n    /* \"#utility.yul\":334:451   */\ntag_15:\n    /* \"#utility.yul\":443:444   */\n  0x00\n    /* \"#utility.yul\":440:441   */\n  dup1\n    /* \"#utility.yul\":433:445   */\n  revert\n    /* \"#utility.yul\":457:574   */\ntag_16:\n    /* \"#utility.yul\":566:567   */\n  0x00\n    /* \"#utility.yul\":563:564   */\n  dup1\n    /* \"#utility.yul\":556:568   */\n  revert\n    /* \"#utility.yul\":580:682   */\ntag_17:\n    /* \"#utility.yul\":621:627   */\n  0x00\n    /* \"#utility.yul\":672:674   */\n  0x1f\n    /* \"#utility.yul\":668:675   */\n  not\n    /* \"#utility.yul\":663:665   */\n  0x1f\n    /* \"#utility.yul\":656:661   */\n  dup4\n    /* \"#utility.yul\":652:666   */\n  add\n    /* \"#utility.yul\":648:676   */\n  and\n    /* \"#utility.yul\":638:676   */\n  swap1\n  pop\n    /* \"#utility.yul\":580:682   */\n  swap2\n  swap1\n  pop\n  jump\t// out\n    /* \"#utility.yul\":688:868   */\ntag_18:\n    /* \"#utility.yul\":736:813   */\n  0x4e487b7100000000000000000000000000000000000000000000000000000000\n    /* \"#utility.yul\":733:734   */\n  0x00\n    /* \"#utility.yul\":726:814   */\n  mstore\n    /* \"#utility.yul\":833:837   */\n  0x41\n    /* \"#utility.yul\":830:831   */\n  0x04\n    /* \"#utility.yul\":823:838   */\n  mstore\n    /* \"#utility.yul\":857:861   */\n  0x24\n    /* \"#utility.yul\":854:855   */\n  0x00\n    /* \"#utility.yul\":847:862   */\n  revert\n    /* \"#utility.yul\":874:1155   */\ntag_19:\n    /* \"#utility.yul\":957:984   */\n  tag_54\n    /* \"#utility.yul\":979:983   */\n  dup3\n    /* \"#utility.yul\":957:984   */\n  tag_17\n  jump\t// in\ntag_54:\n    /* \"#utility.yul\":949:955   */\n  dup2\n    /* \"#utility.yul\":945:985   */\n  add\n    /* \"#utility.yul\":1087:1093   */\n  dup2\n    /* \"#utility.yul\":1075:1085   */\n  dup2\n    /* \"#utility.yul\":1072:1094   */\n  lt\n    /* \"#utility.yul\":1051:1069   */\n  0xffffffffffffffff\n    /* \"#utility.yul\":1039:1049   */\n  dup3\n    /* \"#utility.yul\":1036:1070   */\n  gt\n    /* \"#utility.yul\":1033:1095   */\n  or\n    /* \"#utility.yul\":1030:1118   */\n  iszero\n  tag_55\n  jumpi\n    /* \"#utility.yul\":1098:1116   */\n  tag_56\n  tag_18\n  jump\t// in\ntag_56:\n    /* \"#utility.yul\":1030:1118   */\ntag_55:\n    /* \"#utility.yul\":1138:1148   */\n  dup1\n    /* \"#utility.yul\":1134:1136   */\n  0x40\n    /* \"#utility.yul\":1127:1149   */\n  mstore\n    /* \"#utility.yul\":917:1155   */\n  pop\n    /* \"#utility.yul\":874:1155   */\n  pop\n  pop\n  jump\t// out\n    /* \"#utility.yul\":1161:1290   */\ntag_20:\n    /* \"#utility.yul\":1195:1201   */\n  0x00\n    /* \"#utility.yul\":1222:1242   */\n  tag_58\n  tag_12\n  jump\t// in\ntag_58:\n    /* \"#utility.yul\":1212:1242   */\n  swap1\n  pop\n    /* \"#utility.yul\":1251:1284   */\n  tag_59\n    /* \"#utility.yul\":1279:1283   */\n  dup3\n    /* \"#utility.yul\":1271:1277   */\n  dup3\n    /* \"#utility.yul\":1251:1284   */\n  tag_19\n  jump\t// in\ntag_59:\n    /* \"#utility.yul\":1161:1290   */\n  swap2\n  swap1\n  pop\n  jump\t// out\n    /* \"#utility.yul\":1296:1604   */\ntag_21:\n    /* \"#utility.yul\":1358:1362   */\n  0x00\n    /* \"#utility.yul\":1448:1466   */\n  0xffffffffffffffff\n    /* \"#utility.yul\":1440:1446   */\n  dup3\n    /* \"#utility.yul\":1437:1467   */\n  gt\n    /* \"#utility.yul\":1434:1490   */\n  iszero\n  tag_61\n  jumpi\n    /* \"#utility.yul\":1470:1488   */\n  tag_62\n  tag_18\n  jump\t// in\ntag_62:\n    /* \"#utility.yul\":1434:1490   */\ntag_61:\n    /* \"#utility.yul\":1508:1537   */\n  tag_63\n    /* \"#utility.yul\":1530:1536   */\n  dup3\n    /* \"#utility.yul\":1508:1537   */\n  tag_17\n  jump\t// in\ntag_63:\n    /* \"#utility.yul\":1500:1537   */\n  swap1\n  pop\n    /* \"#utility.yul\":1592:1596   */\n  0x20\n    /* \"#utility.yul\":1586:1590   */\n  dup2\n    /* \"#utility.yul\":1582:1597   */\n  add\n    /* \"#utility.yul\":1574:1597   */\n  swap1\n  pop\n    /* \"#utility.yul\":1296:1604   */\n  swap2\n  swap1\n  pop\n  jump\t// out\n    /* \"#utility.yul\":1610:1917   */\ntag_22:\n    /* \"#utility.yul\":1678:1679   */\n  0x00\n    /* \"#utility.yul\":1688:1801   */\ntag_65:\n    /* \"#utility.yul\":1702:1708   */\n  dup4\n    /* \"#utility.yul\":1699:1700   */\n  dup2\n    /* \"#utility.yul\":1696:1709   */\n  lt\n    /* \"#utility.yul\":1688:1801   */\n  iszero\n  tag_67\n  jumpi\n    /* \"#utility.yul\":1787:1788   */\n  dup1\n    /* \"#utility.yul\":1782:1785   */\n  dup3\n    /* \"#utility.yul\":1778:1789   */\n  add\n    /* \"#utility.yul\":1772:1790   */\n  mload\n    /* \"#utility.yul\":1768:1769   */\n  dup2\n    /* \"#utility.yul\":1763:1766   */\n  dup5\n    /* \"#utility.yul\":1759:1770   */\n  add\n    /* \"#utility.yul\":1752:1791   */\n  mstore\n    /* \"#utility.yul\":1724:1726   */\n  0x20\n    /* \"#utility.yul\":1721:1722   */\n  dup2\n    /* \"#utility.yul\":1717:1727   */\n  add\n    /* \"#utility.yul\":1712:1727   */\n  swap1\n  pop\n    /* \"#utility.yul\":1688:1801   */\n  jump(tag_65)\ntag_67:\n    /* \"#utility.yul\":1819:1825   */\n  dup4\n    /* \"#utility.yul\":1816:1817   */\n  dup2\n    /* \"#utility.yul\":1813:1826   */\n  gt\n    /* \"#utility.yul\":1810:1911   */\n  iszero\n  tag_68\n  jumpi\n    /* \"#utility.yul\":1899:1900   */\n  0x00\n    /* \"#utility.yul\":1890:1896   */\n  dup5\n    /* \"#utility.yul\":1885:1888   */\n  dup5\n    /* \"#utility.yul\":1881:1897   */\n  add\n    /* \"#utility.yul\":1874:1901   */\n  mstore\n    /* \"#utility.yul\":1810:1911   */\ntag_68:\n    /* \"#utility.yul\":1659:1917   */\n  pop\n    /* \"#utility.yul\":1610:1917   */\n  pop\n  pop\n  pop\n  jump\t// out\n    /* \"#utility.yul\":1923:2344   */\ntag_23:\n    /* \"#utility.yul\":2012:2017   */\n  0x00\n    /* \"#utility.yul\":2037:2103   */\n  tag_70\n    /* \"#utility.yul\":2053:2102   */\n  tag_71\n    /* \"#utility.yul\":2095:2101   */\n  dup5\n    /* \"#utility.yul\":2053:2102   */\n  tag_21\n  jump\t// in\ntag_71:\n    /* \"#utility.yul\":2037:2103   */\n  tag_20\n  jump\t// in\ntag_70:\n    /* \"#utility.yul\":2028:2103   */\n  swap1\n  pop\n    /* \"#utility.yul\":2126:2132   */\n  dup3\n    /* \"#utility.yul\":2119:2124   */\n  dup2\n    /* \"#utility.yul\":2112:2133   */\n  mstore\n    /* \"#utility.yul\":2164:2168   */\n  0x20\n    /* \"#utility.yul\":2157:2162   */\n  dup2\n    /* \"#utility.yul\":2153:2169   */\n  add\n    /* \"#utility.yul\":2202:2205   */\n  dup5\n    /* \"#utility.yul\":2193:2199   */\n  dup5\n    /* \"#utility.yul\":2188:2191   */\n  dup5\n    /* \"#utility.yul\":2184:2200   */\n  add\n    /* \"#utility.yul\":2181:2206   */\n  gt\n    /* \"#utility.yul\":2178:2290   */\n  iszero\n  tag_72\n  jumpi\n    /* \"#utility.yul\":2209:2288   */\n  tag_73\n  tag_16\n  jump\t// in\ntag_73:\n    /* \"#utility.yul\":2178:2290   */\ntag_72:\n    /* \"#utility.yul\":2299:2338   */\n  tag_74\n    /* \"#utility.yul\":2331:2337   */\n  dup5\n    /* \"#utility.yul\":2326:2329   */\n  dup3\n    /* \"#utility.yul\":2321:2324   */\n  dup6\n    /* \"#utility.yul\":2299:2338   */\n  tag_22\n  jump\t// in\ntag_74:\n    /* \"#utility.yul\":2018:2344   */\n  pop\n    /* \"#utility.yul\":1923:2344   */\n  swap4\n  swap3\n  pop\n  pop\n  pop\n  jump\t// out\n    /* \"#utility.yul\":2364:2719   */\ntag_24:\n    /* \"#utility.yul\":2431:2436   */\n  0x00\n    /* \"#utility.yul\":2480:2483   */\n  dup3\n    /* \"#utility.yul\":2473:2477   */\n  0x1f\n    /* \"#utility.yul\":2465:2471   */\n  dup4\n    /* \"#utility.yul\":2461:2478   */\n  add\n    /* \"#utility.yul\":2457:2484   */\n  slt\n    /* \"#utility.yul\":2447:2569   */\n  tag_76\n  jumpi\n    /* \"#utility.yul\":2488:2567   */\n  tag_77\n  tag_15\n  jump\t// in\ntag_77:\n    /* \"#utility.yul\":2447:2569   */\ntag_76:\n    /* \"#utility.yul\":2598:2604   */\n  dup2\n    /* \"#utility.yul\":2592:2605   */\n  mload\n    /* \"#utility.yul\":2623:2713   */\n  tag_78\n    /* \"#utility.yul\":2709:2712   */\n  dup5\n    /* \"#utility.yul\":2701:2707   */\n  dup3\n    /* \"#utility.yul\":2694:2698   */\n  0x20\n    /* \"#utility.yul\":2686:2692   */\n  dup7\n    /* \"#utility.yul\":2682:2699   */\n  add\n    /* \"#utility.yul\":2623:2713   */\n  tag_23\n  jump\t// in\ntag_78:\n    /* \"#utility.yul\":2614:2713   */\n  swap2\n  pop\n    /* \"#utility.yul\":2437:2719   */\n  pop\n    /* \"#utility.yul\":2364:2719   */\n  swap3\n  swap2\n  pop\n  pop\n  jump\t// out\n    /* \"#utility.yul\":2725:3578   */\ntag_3:\n    /* \"#utility.yul\":2824:2830   */\n  0x00\n    /* \"#utility.yul\":2832:2838   */\n  dup1\n    /* \"#utility.yul\":2881:2883   */\n  0x40\n    /* \"#utility.yul\":2869:2878   */\n  dup4\n    /* \"#utility.yul\":2860:2867   */\n  dup6\n    /* \"#utility.yul\":2856:2879   */\n  sub\n    /* \"#utility.yul\":2852:2884   */\n  slt\n    /* \"#utility.yul\":2849:2968   */\n  iszero\n  tag_80\n  jumpi\n    /* \"#utility.yul\":2887:2966   */\n  tag_81\n  tag_13\n  jump\t// in\ntag_81:\n    /* \"#utility.yul\":2849:2968   */\ntag_80:\n    /* \"#utility.yul\":3028:3029   */\n  0x00\n    /* \"#utility.yul\":3017:3026   */\n  dup4\n    /* \"#utility.yul\":3013:3030   */\n  add\n    /* \"#utility.yul\":3007:3031   */\n  mload\n    /* \"#utility.yul\":3058:3076   */\n  0xffffffffffffffff\n    /* \"#utility.yul\":3050:3056   */\n  dup2\n    /* \"#utility.yul\":3047:3077   */\n  gt\n    /* \"#utility.yul\":3044:3161   */\n  iszero\n  tag_82\n  jumpi\n    /* \"#utility.yul\":3080:3159   */\n  tag_83\n  tag_14\n  jump\t// in\ntag_83:\n    /* \"#utility.yul\":3044:3161   */\ntag_82:\n    /* \"#utility.yul\":3185:3259   */\n  tag_84\n    /* \"#utility.yul\":3251:3258   */\n  dup6\n    /* \"#utility.yul\":3242:3248   */\n  dup3\n    /* \"#utility.yul\":3231:3240   */\n  dup7\n    /* \"#utility.yul\":3227:3249   */\n  add\n    /* \"#utility.yul\":3185:3259   */\n  tag_24\n  jump\t// in\ntag_84:\n    /* \"#utility.yul\":3175:3259   */\n  swap3\n  pop\n    /* \"#utility.yul\":2978:3269   */\n  pop\n    /* \"#utility.yul\":3329:3331   */\n  0x20\n    /* \"#utility.yul\":3318:3327   */\n  dup4\n    /* \"#utility.yul\":3314:3332   */\n  add\n    /* \"#utility.yul\":3308:3333   */\n  mload\n    /* \"#utility.yul\":3360:3378   */\n  0xffffffffffffffff\n    /* \"#utility.yul\":3352:3358   */\n  dup2\n    /* \"#utility.yul\":3349:3379   */\n  gt\n    /* \"#utility.yul\":3346:3463   */\n  iszero\n  tag_85\n  jumpi\n    /* \"#utility.yul\":3382:3461   */\n  tag_86\n  tag_14\n  jump\t// in\ntag_86:\n    /* \"#utility.yul\":3346:3463   */\ntag_85:\n    /* \"#utility.yul\":3487:3561   */\n  tag_87\n    /* \"#utility.yul\":3553:3560   */\n  dup6\n    /* \"#utility.yul\":3544:3550   */\n  dup3\n    /* \"#utility.yul\":3533:3542   */\n  dup7\n    /* \"#utility.yul\":3529:3551   */\n  add\n    /* \"#utility.yul\":3487:3561   */\n  tag_24\n  jump\t// in\ntag_87:\n    /* \"#utility.yul\":3477:3561   */\n  swap2\n  pop\n    /* \"#utility.yul\":3279:3571   */\n  pop\n    /* \"#utility.yul\":2725:3578   */\n  swap3\n  pop\n  swap3\n  swap1\n  pop\n  jump\t// out\n    /* \"#utility.yul\":3584:3683   */\ntag_25:\n    /* \"#utility.yul\":3636:3642   */\n  0x00\n    /* \"#utility.yul\":3670:3675   */\n  dup2\n    /* \"#utility.yul\":3664:3676   */\n  mload\n    /* \"#utility.yul\":3654:3676   */\n  swap1\n  pop\n    /* \"#utility.yul\":3584:3683   */\n  swap2\n  swap1\n  pop\n  jump\t// out\n    /* \"#utility.yul\":3689:3869   */\ntag_26:\n    /* \"#utility.yul\":3737:3814   */\n  0x4e487b7100000000000000000000000000000000000000000000000000000000\n    /* \"#utility.yul\":3734:3735   */\n  0x00\n    /* \"#utility.yul\":3727:3815   */\n  mstore\n    /* \"#utility.yul\":3834:3838   */\n  0x22\n    /* \"#utility.yul\":3831:3832   */\n  0x04\n    /* \"#utility.yul\":3824:3839   */\n  mstore\n    /* \"#utility.yul\":3858:3862   */\n  0x24\n    /* \"#utility.yul\":3855:3856   */\n  0x00\n    /* \"#utility.yul\":3848:3863   */\n  revert\n    /* \"#utility.yul\":3875:4195   */\ntag_27:\n    /* \"#utility.yul\":3919:3925   */\n  0x00\n    /* \"#utility.yul\":3956:3957   */\n  0x02\n    /* \"#utility.yul\":3950:3954   */\n  dup3\n    /* \"#utility.yul\":3946:3958   */\n  div\n    /* \"#utility.yul\":3936:3958   */\n  swap1\n  pop\n    /* \"#utility.yul\":4003:4004   */\n  0x01\n    /* \"#utility.yul\":3997:4001   */\n  dup3\n    /* \"#utility.yul\":3993:4005   */\n  and\n    /* \"#utility.yul\":4024:4042   */\n  dup1\n    /* \"#utility.yul\":4014:4095   */\n  tag_91\n  jumpi\n    /* \"#utility.yul\":4080:4084   */\n  0x7f\n    /* \"#utility.yul\":4072:4078   */\n  dup3\n    /* \"#utility.yul\":4068:4085   */\n  and\n    /* \"#utility.yul\":4058:4085   */\n  swap2\n  pop\n    /* \"#utility.yul\":4014:4095   */\ntag_91:\n    /* \"#utility.yul\":4142:4144   */\n  0x20\n    /* \"#utility.yul\":4134:4140   */\n  dup3\n    /* \"#utility.yul\":4131:4145   */\n  lt\n    /* \"#utility.yul\":4111:4129   */\n  dup2\n    /* \"#utility.yul\":4108:4146   */\n  sub\n    /* \"#utility.yul\":4105:4189   */\n  tag_92\n  jumpi\n    /* \"#utility.yul\":4161:4179   */\n  tag_93\n  tag_26\n  jump\t// in\ntag_93:\n    /* \"#utility.yul\":4105:4189   */\ntag_92:\n    /* \"#utility.yul\":3926:4195   */\n  pop\n    /* \"#utility.yul\":3875:4195   */\n  swap2\n  swap1\n  pop\n  jump\t// out\n    /* \"#utility.yul\":4201:4342   */\ntag_28:\n    /* \"#utility.yul\":4250:4254   */\n  0x00\n    /* \"#utility.yul\":4273:4276   */\n  dup2\n    /* \"#utility.yul\":4265:4276   */\n  swap1\n  pop\n    /* \"#utility.yul\":4296:4299   */\n  dup2\n    /* \"#utility.yul\":4293:4294   */\n  0x00\n    /* \"#utility.yul\":4286:4300   */\n  mstore\n    /* \"#utility.yul\":4330:4334   */\n  0x20\n    /* \"#utility.yul\":4327:4328   */\n  0x00\n    /* \"#utility.yul\":4317:4335   */\n  keccak256\n    /* \"#utility.yul\":4309:4335   */\n  swap1\n  pop\n    /* \"#utility.yul\":4201:4342   */\n  swap2\n  swap1\n  pop\n  jump\t// out\n    /* \"#utility.yul\":4348:4441   */\ntag_29:\n    /* \"#utility.yul\":4385:4391   */\n  0x00\n    /* \"#utility.yul\":4432:4434   */\n  0x20\n    /* \"#utility.yul\":4427:4429   */\n  0x1f\n    /* \"#utility.yul\":4420:4425   */\n  dup4\n    /* \"#utility.yul\":4416:4430   */\n  add\n    /* \"#utility.yul\":4412:4435   */\n  div\n    /* \"#utility.yul\":4402:4435   */\n  swap1\n  pop\n    /* \"#utility.yul\":4348:4441   */\n  swap2\n  swap1\n  pop\n  jump\t// out\n    /* \"#utility.yul\":4447:4554   */\ntag_30:\n    /* \"#utility.yul\":4491:4499   */\n  0x00\n    /* \"#utility.yul\":4541:4546   */\n  dup3\n    /* \"#utility.yul\":4535:4539   */\n  dup3\n    /* \"#utility.yul\":4531:4547   */\n  shl\n    /* \"#utility.yul\":4510:4547   */\n  swap1\n  pop\n    /* \"#utility.yul\":4447:4554   */\n  swap3\n  swap2\n  pop\n  pop\n  jump\t// out\n    /* \"#utility.yul\":4560:4953   */\ntag_31:\n    /* \"#utility.yul\":4629:4635   */\n  0x00\n    /* \"#utility.yul\":4679:4680   */\n  0x08\n    /* \"#utility.yul\":4667:4677   */\n  dup4\n    /* \"#utility.yul\":4663:4681   */\n  mul\n    /* \"#utility.yul\":4702:4799   */\n  tag_98\n    /* \"#utility.yul\":4732:4798   */\n  0xffffffffffffffffffffffffffffffffffffffffffffffffffffffffffffffff\n    /* \"#utility.yul\":4721:4730   */\n  dup3\n    /* \"#utility.yul\":4702:4799   */\n  tag_30\n  jump\t// in\ntag_98:\n    /* \"#utility.yul\":4820:4859   */\n  tag_99\n    /* \"#utility.yul\":4850:4858   */\n  dup7\n    /* \"#utility.yul\":4839:4848   */\n  dup4\n    /* \"#utility.yul\":4820:4859   */\n  tag_30\n  jump\t// in\ntag_99:\n    /* \"#utility.yul\":4808:4859   */\n  swap6\n  pop\n    /* \"#utility.yul\":4892:4896   */\n  dup1\n    /* \"#utility.yul\":4888:4897   */\n  not\n    /* \"#utility.yul\":4881:4886   */\n  dup5\n    /* \"#utility.yul\":4877:4898   */\n  and\n    /* \"#utility.yul\":4868:4898   */\n  swap4\n  pop\n    /* \"#utility.yul\":4941:4945   */\n  dup1\n    /* \"#utility.yul\":4931:4939   */\n  dup7\n    /* \"#utility.yul\":4927:4946   */\n  and\n    /* \"#utility.yul\":4920:4925   */\n  dup5\n    /* \"#utility.yul\":4917:4947   */\n  or\n    /* \"#utility.yul\":4907:4947   */\n  swap3\n  pop\n    /* \"#utility.yul\":4636:4953   */\n  pop\n  pop\n    /* \"#utility.yul\":4560:4953   */\n  swap4\n  swap3\n  pop\n  pop\n  pop\n  jump\t// out\n    /* \"#utility.yul\":4959:5036   */\ntag_32:\n    /* \"#utility.yul\":4996:5003   */\n  0x00\n    /* \"#utility.yul\":5025:5030   */\n  dup2\n    /* \"#utility.yul\":5014:5030   */\n  swap1\n  pop\n    /* \"#utility.yul\":4959:5036   */\n  swap2\n  swap1\n  pop\n  jump\t// out\n    /* \"#utility.yul\":5042:5102   */\ntag_33:\n    /* \"#utility.yul\":5070:5073   */\n  0x00\n    /* \"#utility.yul\":5091:5096   */\n  dup2\n    /* \"#utility.yul\":5084:5096   */\n  swap1\n  pop\n    /* \"#utility.yul\":5042:5102   */\n  swap2\n  swap1\n  pop\n  jump\t// out\n    /* \"#utility.yul\":5108:5250   */\ntag_34:\n    /* \"#utility.yul\":5158:5167   */\n  0x00\n    /* \"#utility.yul\":5191:5244   */\n  tag_103\n    /* \"#utility.yul\":5209:5243   */\n  tag_104\n    /* \"#utility.yul\":5218:5242   */\n  tag_105\n    /* \"#utility.yul\":5236:5241   */\n  dup5\n    /* \"#utility.yul\":5218:5242   */\n  tag_32\n  jump\t// in\ntag_105:\n    /* \"#utility.yul\":5209:5243   */\n  tag_33\n  jump\t// in\ntag_104:\n    /* \"#utility.yul\":5191:5244   */\n  tag_32\n  jump\t// in\ntag_103:\n    /* \"#utility.yul\":5178:5244   */\n  swap1\n  pop\n    /* \"#utility.yul\":5108:5250   */\n  swap2\n  swap1\n  pop\n  jump\t// out\n    /* \"#utility.yul\":5256:5331   */\ntag_35:\n    /* \"#utility.yul\":5299:5302   */\n  0x00\n    /* \"#utility.yul\":5320:5325   */\n  dup2\n    /* \"#utility.yul\":5313:5325   */\n  swap1\n  pop\n    /* \"#utility.yul\":5256:5331   */\n  swap2\n  swap1\n  pop\n  jump\t// out\n    /* \"#utility.yul\":5337:5606   */\ntag_36:\n    /* \"#utility.yul\":5447:5486   */\n  tag_108\n    /* \"#utility.yul\":5478:5485   */\n  dup4\n    /* \"#utility.yul\":5447:5486   */\n  tag_34\n  jump\t// in\ntag_108:\n    /* \"#utility.yul\":5508:5599   */\n  tag_109\n    /* \"#utility.yul\":5557:5598   */\n  tag_110\n    /* \"#utility.yul\":5581:5597   */\n  dup3\n    /* \"#utility.yul\":5557:5598   */\n  tag_35\n  jump\t// in\ntag_110:\n    /* \"#utility.yul\":5549:5555   */\n  dup5\n    /* \"#utility.yul\":5542:5546   */\n  dup5\n    /* \"#utility.yul\":5536:5547   */\n  sload\n    /* \"#utility.yul\":5508:5599   */\n  tag_31\n  jump\t// in\ntag_109:\n    /* \"#utility.yul\":5502:5506   */\n  dup3\n    /* \"#utility.yul\":5495:5600   */\n  sstore\n    /* \"#utility.yul\":5413:5606   */\n  pop\n    /* \"#utility.yul\":5337:5606   */\n  pop\n  pop\n  pop\n  jump\t// out\n    /* \"#utility.yul\":5612:5685   */\ntag_37:\n    /* \"#utility.yul\":5657:5660   */\n  0x00\n    /* \"#utility.yul\":5612:5685   */\n  swap1\n  jump\t// out\n    /* \"#utility.yul\":5691:5880   */\ntag_38:\n    /* \"#utility.yul\":5768:5800   */\n  tag_113\n  tag_37\n  jump\t// in\ntag_113:\n    /* \"#utility.yul\":5809:5874   */\n  tag_114\n    /* \"#utility.yul\":5867:5873   */\n  dup2\n    /* \"#utility.yul\":5859:5865   */\n  dup5\n    /* \"#utility.yul\":5853:5857   */\n  dup5\n    /* \"#utility.yul\":5809:5874   */\n  tag_36\n  jump\t// in\ntag_114:\n    /* \"#utility.yul\":5744:5880   */\n  pop\n    /* \"#utility.yul\":5691:5880   */\n  pop\n  pop\n  jump\t// out\n    /* \"#utility.yul\":5886:6072   */\ntag_39:\n    /* \"#utility.yul\":5946:6066   */\ntag_116:\n    /* \"#utility.yul\":5963:5966   */\n  dup2\n    /* \"#utility.yul\":5956:5961   */\n  dup2\n    /* \"#utility.yul\":5953:5967   */\n  lt\n    /* \"#utility.yul\":5946:6066   */\n  iszero\n  tag_118\n  jumpi\n    /* \"#utility.yul\":6017:6056   */\n  tag_119\n    /* \"#utility.yul\":6054:6055   */\n  0x00\n    /* \"#utility.yul\":6047:6052   */\n  dup3\n    /* \"#utility.yul\":6017:6056   */\n  tag_38\n  jump\t// in\ntag_119:\n    /* \"#utility.yul\":5990:5991   */\n  0x01\n    /* \"#utility.yul\":5983:5988   */\n  dup2\n    /* \"#utility.yul\":5979:5992   */\n  add\n    /* \"#utility.yul\":5970:5992   */\n  swap1\n  pop\n    /* \"#utility.yul\":5946:6066   */\n  jump(tag_116)\ntag_118:\n    /* \"#utility.yul\":5886:6072   */\n  pop\n  pop\n  jump\t// out\n    /* \"#utility.yul\":6078:6621   */\ntag_40:\n    /* \"#utility.yul\":6179:6181   */\n  0x1f\n    /* \"#utility.yul\":6174:6177   */\n  dup3\n    /* \"#utility.yul\":6171:6182   */\n  gt\n    /* \"#utility.yul\":6168:6614   */\n  iszero\n  tag_121\n  jumpi\n    /* \"#utility.yul\":6213:6251   */\n  tag_122\n    /* \"#utility.yul\":6245:6250   */\n  dup2\n    /* \"#utility.yul\":6213:6251   */\n  tag_28\n  jump\t// in\ntag_122:\n    /* \"#utility.yul\":6297:6326   */\n  tag_123\n    /* \"#utility.yul\":6315:6325   */\n  dup5\n    /* \"#utility.yul\":6297:6326   */\n  tag_29\n  jump\t// in\ntag_123:\n    /* \"#utility.yul\":6287:6295   */\n  dup2\n    /* \"#utility.yul\":6283:6327   */\n  add\n    /* \"#utility.yul\":6480:6482   */\n  0x20\n    /* \"#utility.yul\":6468:6478   */\n  dup6\n    /* \"#utility.yul\":6465:6483   */\n  lt\n    /* \"#utility.yul\":6462:6511   */\n  iszero\n  tag_124\n  jumpi\n    /* \"#utility.yul\":6501:6509   */\n  dup2\n    /* \"#utility.yul\":6486:6509   */\n  swap1\n  pop\n    /* \"#utility.yul\":6462:6511   */\ntag_124:\n    /* \"#utility.yul\":6524:6604   */\n  tag_125\n    /* \"#utility.yul\":6580:6602   */\n  tag_126\n    /* \"#utility.yul\":6598:6601   */\n  dup6\n    /* \"#utility.yul\":6580:6602   */\n  tag_29\n  jump\t// in\ntag_126:\n    /* \"#utility.yul\":6570:6578   */\n  dup4\n    /* \"#utility.yul\":6566:6603   */\n  add\n    /* \"#utility.yul\":6553:6564   */\n  dup3\n    /* \"#utility.yul\":6524:6604   */\n  tag_39\n  jump\t// in\ntag_125:\n    /* \"#utility.yul\":6183:6614   */\n  pop\n  pop\n    /* \"#utility.yul\":6168:6614   */\ntag_121:\n    /* \"#utility.yul\":6078:6621   */\n  pop\n  pop\n  pop\n  jump\t// out\n    /* \"#utility.yul\":6627:6744   */\ntag_41:\n    /* \"#utility.yul\":6681:6689   */\n  0x00\n    /* \"#utility.yul\":6731:6736   */\n  dup3\n    /* \"#utility.yul\":6725:6729   */\n  dup3\n    /* \"#utility.yul\":6721:6737   */\n  shr\n    /* \"#utility.yul\":6700:6737   */\n  swap1\n  pop\n    /* \"#utility.yul\":6627:6744   */\n  swap3\n  swap2\n  pop\n  pop\n  jump\t// out\n    /* \"#utility.yul\":6750:6919   */\ntag_42:\n    /* \"#utility.yul\":6794:6800   */\n  0x00\n    /* \"#utility.yul\":6827:6878   */\n  tag_129\n    /* \"#utility.yul\":6875:6876   */\n  0x00\n    /* \"#utility.yul\":6871:6877   */\n  not\n    /* \"#utility.yul\":6863:6868   */\n  dup5\n    /* \"#utility.yul\":6860:6861   */\n  0x08\n    /* \"#utility.yul\":6856:6869   */\n  mul\n    /* \"#utility.yul\":6827:6878   */\n  tag_41\n  jump\t// in\ntag_129:\n    /* \"#utility.yul\":6823:6879   */\n  not\n    /* \"#utility.yul\":6908:6912   */\n  dup1\n    /* \"#utility.yul\":6902:6906   */\n  dup4\n    /* \"#utility.yul\":6898:6913   */\n  and\n    /* \"#utility.yul\":6888:6913   */\n  swap2\n  pop\n    /* \"#utility.yul\":6801:6919   */\n  pop\n    /* \"#utility.yul\":6750:6919   */\n  swap3\n  swap2\n  pop\n  pop\n  jump\t// out\n    /* \"#utility.yul\":6924:7219   */\ntag_43:\n    /* \"#utility.yul\":7000:7004   */\n  0x00\n    /* \"#utility.yul\":7146:7175   */\n  tag_131\n    /* \"#utility.yul\":7171:7174   */\n  dup4\n    /* \"#utility.yul\":7165:7169   */\n  dup4\n    /* \"#utility.yul\":7146:7175   */\n  tag_42\n  jump\t// in\ntag_131:\n    /* \"#utility.yul\":7138:7175   */\n  swap2\n  pop\n    /* \"#utility.yul\":7208:7211   */\n  dup3\n    /* \"#utility.yul\":7205:7206   */\n  0x02\n    /* \"#utility.yul\":7201:7212   */\n  mul\n    /* \"#utility.yul\":7195:7199   */\n  dup3\n    /* \"#utility.yul\":7192:7213   */\n  or\n    /* \"#utility.yul\":7184:7213   */\n  swap1\n  pop\n    /* \"#utility.yul\":6924:7219   */\n  swap3\n  swap2\n  pop\n  pop\n  jump\t// out\n    /* \"#utility.yul\":7224:8619   */\ntag_7:\n    /* \"#utility.yul\":7341:7378   */\n  tag_133\n    /* \"#utility.yul\":7374:7377   */\n  dup3\n    /* \"#utility.yul\":7341:7378   */\n  tag_25\n  jump\t// in\ntag_133:\n    /* \"#utility.yul\":7443:7461   */\n  0xffffffffffffffff\n    /* \"#utility.yul\":7435:7441   */\n  dup2\n    /* \"#utility.yul\":7432:7462   */\n  gt\n    /* \"#utility.yul\":7429:7485   */\n  iszero\n  tag_134\n  jumpi\n    /* \"#utility.yul\":7465:7483   */\n  tag_135\n  tag_18\n  jump\t// in\ntag_135:\n    /* \"#utility.yul\":7429:7485   */\ntag_134:\n    /* \"#utility.yul\":7509:7547   */\n  tag_136\n    /* \"#utility.yul\":7541:7545   */\n  dup3\n    /* \"#utility.yul\":7535:7546   */\n  sload\n    /* \"#utility.yul\":7509:7547   */\n  tag_27\n  jump\t// in\ntag_136:\n    /* \"#utility.yul\":7594:7661   */\n  tag_137\n    /* \"#utility.yul\":7654:7660   */\n  dup3\n    /* \"#utility.yul\":7646:7652   */\n  dup3\n    /* \"#utility.yul\":7640:7644   */\n  dup6\n    /* \"#utility.yul\":7594:7661   */\n  tag_40\n  jump\t// in\ntag_137:\n    /* \"#utility.yul\":7688:7689   */\n  0x00\n    /* \"#utility.yul\":7712:7716   */\n  0x20\n    /* \"#utility.yul\":7699:7716   */\n  swap1\n  pop\n    /* \"#utility.yul\":7744:7746   */\n  0x1f\n    /* \"#utility.yul\":7736:7742   */\n  dup4\n    /* \"#utility.yul\":7733:7747   */\n  gt\n    /* \"#utility.yul\":7761:7762   */\n  0x01\n    /* \"#utility.yul\":7756:8374   */\n  dup2\n  eq\n  tag_139\n  jumpi\n    /* \"#utility.yul\":8418:8419   */\n  0x00\n    /* \"#utility.yul\":8435:8441   */\n  dup5\n    /* \"#utility.yul\":8432:8509   */\n  iszero\n  tag_140\n  jumpi\n    /* \"#utility.yul\":8484:8493   */\n  dup3\n    /* \"#utility.yul\":8479:8482   */\n  dup8\n    /* \"#utility.yul\":8475:8494   */\n  add\n    /* \"#utility.yul\":8469:8495   */\n  mload\n    /* \"#utility.yul\":8460:8495   */\n  swap1\n  pop\n    /* \"#utility.yul\":8432:8509   */\ntag_140:\n    /* \"#utility.yul\":8535:8602   */\n  tag_141\n    /* \"#utility.yul\":8595:8601   */\n  dup6\n    /* \"#utility.yul\":8588:8593   */\n  dup3\n    /* \"#utility.yul\":8535:8602   */\n  tag_43\n  jump\t// in\ntag_141:\n    /* \"#utility.yul\":8529:8533   */\n  dup7\n    /* \"#utility.yul\":8522:8603   */\n  sstore\n    /* \"#utility.yul\":8391:8613   */\n  pop\n    /* \"#utility.yul\":7726:8613   */\n  jump(tag_138)\n    /* \"#utility.yul\":7756:8374   */\ntag_139:\n    /* \"#utility.yul\":7808:7812   */\n  0x1f\n    /* \"#utility.yul\":7804:7813   */\n  not\n    /* \"#utility.yul\":7796:7802   */\n  dup5\n    /* \"#utility.yul\":7792:7814   */\n  and\n    /* \"#utility.yul\":7842:7879   */\n  tag_142\n    /* \"#utility.yul\":7874:7878   */\n  dup7\n    /* \"#utility.yul\":7842:7879   */\n  tag_28\n  jump\t// in\ntag_142:\n    /* \"#utility.yul\":7901:7902   */\n  0x00\n    /* \"#utility.yul\":7915:8123   */\ntag_143:\n    /* \"#utility.yul\":7929:7936   */\n  dup3\n    /* \"#utility.yul\":7926:7927   */\n  dup2\n    /* \"#utility.yul\":7923:7937   */\n  lt\n    /* \"#utility.yul\":7915:8123   */\n  iszero\n  tag_145\n  jumpi\n    /* \"#utility.yul\":8008:8017   */\n  dup5\n    /* \"#utility.yul\":8003:8006   */\n  dup10\n    /* \"#utility.yul\":7999:8018   */\n  add\n    /* \"#utility.yul\":7993:8019   */\n  mload\n    /* \"#utility.yul\":7985:7991   */\n  dup3\n    /* \"#utility.yul\":7978:8020   */\n  sstore\n    /* \"#utility.yul\":8059:8060   */\n  0x01\n    /* \"#utility.yul\":8051:8057   */\n  dup3\n    /* \"#utility.yul\":8047:8061   */\n  add\n    /* \"#utility.yul\":8037:8061   */\n  swap2\n  pop\n    /* \"#utility.yul\":8106:8108   */\n  0x20\n    /* \"#utility.yul\":8095:8104   */\n  dup6\n    /* \"#utility.yul\":8091:8109   */\n  add\n    /* \"#utility.yul\":8078:8109   */\n  swap5\n  pop\n    /* \"#utility.yul\":7952:7956   */\n  0x20\n    /* \"#utility.yul\":7949:7950   */\n  dup2\n    /* \"#utility.yul\":7945:7957   */\n  add\n    /* \"#utility.yul\":7940:7957   */\n  swap1\n  pop\n    /* \"#utility.yul\":7915:8123   */\n  jump(tag_143)\ntag_145:\n    /* \"#utility.yul\":8151:8157   */\n  dup7\n    /* \"#utility.yul\":8142:8149   */\n  dup4\n    /* \"#utility.yul\":8139:8158   */\n  lt\n    /* \"#utility.yul\":8136:8315   */\n  iszero\n  tag_146\n  jumpi\n    /* \"#utility.yul\":8209:8218   */\n  dup5\n    /* \"#utility.yul\":8204:8207   */\n  dup10\n    /* \"#utility.yul\":8200:8219   */\n  add\n    /* \"#utility.yul\":8194:8220   */\n  mload\n    /* \"#utility.yul\":8252:8300   */\n  tag_147\n    /* \"#utility.yul\":8294:8298   */\n  0x1f\n    /* \"#utility.yul\":8286:8292   */\n  dup10\n    /* \"#utility.yul\":8282:8299   */\n  and\n    /* \"#utility.yul\":8271:8280   */\n  dup3\n    /* \"#utility.yul\":8252:8300   */\n  tag_42\n  jump\t// in\ntag_147:\n    /* \"#utility.yul\":8244:8250   */\n  dup4\n    /* \"#utility.yul\":8237:8301   */\n  sstore\n    /* \"#utility.yul\":8159:8315   */\n  pop\n    /* \"#utility.yul\":8136:8315   */\ntag_146:\n    /* \"#utility.yul\":8361:8362   */\n  0x01\n    /* \"#utility.yul\":8357:8358   */\n  0x02\n    /* \"#utility.yul\":8349:8355   */\n  dup9\n    /* \"#utility.yul\":8345:8359   */\n  mul\n    /* \"#utility.yul\":8341:8363   */\n  add\n    /* \"#utility.yul\":8335:8339   */\n  dup9\n    /* \"#utility.yul\":8328:8364   */\n  sstore\n    /* \"#utility.yul\":7763:8374   */\n  pop\n  pop\n  pop\n    /* \"#utility.yul\":7726:8613   */\ntag_138:\n  pop\n    /* \"#utility.yul\":7316:8619   */\n  pop\n  pop\n  pop\n    /* \"#utility.yul\":7224:8619   */\n  pop\n  pop\n  jump\t// out\n    /* \"#utility.yul\":8625:8805   */\ntag_44:\n    /* \"#utility.yul\":8673:8750   */\n  0x4e487b7100000000000000000000000000000000000000000000000000000000\n    /* \"#utility.yul\":8670:8671   */\n  0x00\n    /* \"#utility.yul\":8663:8751   */\n  mstore\n    /* \"#utility.yul\":8770:8774   */\n  0x11\n    /* \"#utility.yul\":8767:8768   */\n  0x04\n    /* \"#utility.yul\":8760:8775   */\n  mstore\n    /* \"#utility.yul\":8794:8798   */\n  0x24\n    /* \"#utility.yul\":8791:8792   */\n  0x00\n    /* \"#utility.yul\":8784:8799   */\n  revert\n    /* \"#utility.yul\":8811:9159   */\ntag_10:\n    /* \"#utility.yul\":8851:8858   */\n  0x00\n    /* \"#utility.yul\":8874:8894   */\n  tag_150\n    /* \"#utility.yul\":8892:8893   */\n  dup3\n    /* \"#utility.yul\":8874:8894   */\n  tag_32\n  jump\t// in\ntag_150:\n    /* \"#utility.yul\":8869:8894   */\n  swap2\n  pop\n    /* \"#utility.yul\":8908:8928   */\n  tag_151\n    /* \"#utility.yul\":8926:8927   */\n  dup4\n    /* \"#utility.yul\":8908:8928   */\n  tag_32\n  jump\t// in\ntag_151:\n    /* \"#utility.yul\":8903:8928   */\n  swap3\n  pop\n    /* \"#utility.yul\":9096:9097   */\n  dup2\n    /* \"#utility.yul\":9028:9094   */\n  0xffffffffffffffffffffffffffffffffffffffffffffffffffffffffffffffff\n    /* \"#utility.yul\":9024:9098   */\n  div\n    /* \"#utility.yul\":9021:9022   */\n  dup4\n    /* \"#utility.yul\":9018:9099   */\n  gt\n    /* \"#utility.yul\":9013:9014   */\n  dup3\n    /* \"#utility.yul\":9006:9015   */\n  iszero\n    /* \"#utility.yul\":8999:9016   */\n  iszero\n    /* \"#utility.yul\":8995:9100   */\n  and\n    /* \"#utility.yul\":8992:9123   */\n  iszero\n  tag_152\n  jumpi\n    /* \"#utility.yul\":9103:9121   */\n  tag_153\n  tag_44\n  jump\t// in\ntag_153:\n    /* \"#utility.yul\":8992:9123   */\ntag_152:\n    /* \"#utility.yul\":9151:9152   */\n  dup3\n    /* \"#utility.yul\":9148:9149   */\n  dup3\n    /* \"#utility.yul\":9144:9153   */\n  mul\n    /* \"#utility.yul\":9133:9153   */\n  swap1\n  pop\n    /* \"#utility.yul\":8811:9159   */\n  swap3\n  swap2\n  pop\n  pop\n  jump\t// out\n    /* \"simpleToken.sol\":862:4181  contract SimpleToken is ERC20Interface {... */\ntag_11:\n  dataSize(sub_0)\n  dup1\n  dataOffset(sub_0)\n  0x00\n  codecopy\n  0x00\n  return\nstop\n\nsub_0: assembly {\n        /* \"simpleToken.sol\":862:4181  contract SimpleToken is ERC20Interface {... */\n      mstore(0x40, 0x80)\n      callvalue\n      dup1\n      iszero\n      tag_1\n      jumpi\n      0x00\n      dup1\n      revert\n    tag_1:\n      pop\n      jumpi(tag_2, lt(calldatasize, 0x04))\n      shr(0xe0, calldataload(0x00))\n      dup1\n      0x3eaaf86b\n      gt\n      tag_17\n      jumpi\n      dup1\n      0xa9059cbb\n      gt\n      tag_18\n      jumpi\n      dup1\n      0xa9059cbb\n      eq\n      tag_13\n      jumpi\n      dup1\n      0xb09f1266\n      eq\n      tag_14\n      jumpi\n      dup1\n      0xd28d8852\n      eq\n      tag_15\n      jumpi\n      dup1\n      0xdd62ed3e\n      eq\n      tag_16\n      jumpi\n      jump(tag_2)\n    tag_18:\n      dup1\n      0x3eaaf86b\n      eq\n      tag_10\n      jumpi\n      dup1\n      0x70a08231\n      eq\n      tag_11\n      jumpi\n      dup1\n      0x95d89b41\n      eq\n      tag_12\n      jumpi\n      jump(tag_2)\n    tag_17:\n      dup1\n      0x18160ddd\n      gt\n      tag_19\n      jumpi\n      dup1\n      0x18160ddd\n      eq\n      tag_6\n      jumpi\n      dup1\n      0x23b872dd\n      eq\n      tag_7\n      jumpi\n      dup1\n      0x313ce567\n      eq\n      tag_8\n      jumpi\n      dup1\n      0x32424aa3\n      eq\n      tag_9\n      jumpi\n      jump(tag_2)\n    tag_19:\n      dup1\n      0x024c2ddd\n      eq\n      tag_3\n      jumpi\n      dup1\n      0x06fdde03\n      eq\n      tag_4\n      jumpi\n      dup1\n      0x095ea7b3\n      eq\n      tag_5\n      jumpi\n    tag_2:\n      0x00\n      dup1\n      revert\n        /* \"simpleToken.sol\":959:1027  mapping (address => mapping (address => uint256)) public _allowances */\n    tag_3:\n      tag_20\n      0x04\n      dup1\n      calldatasize\n      sub\n      dup2\n      add\n      swap1\n      tag_21\n      swap2\n      swap1\n      tag_22\n      jump\t// in\n    tag_21:\n      tag_23\n      jump\t// in\n    tag_20:\n      mload(0x40)\n      tag_24\n      swap2\n      swap1\n      tag_25\n      jump\t// in\n    tag_24:\n      mload(0x40)\n      dup1\n      swap2\n      sub\n      swap1\n      return\n        /* \"simpleToken.sol\":1439:1520  function name() public view returns (string memory) {... */\n    tag_4:\n      tag_26\n      tag_27\n      jump\t// in\n    tag_26:\n      mload(0x40)\n      tag_28\n      swap2\n      swap1\n      tag_29\n      jump\t// in\n    tag_28:\n      mload(0x40)\n      dup1\n      swap2\n      sub\n      swap1\n      return\n        /* \"simpleToken.sol\":2327:2715  function approve(address spender, uint amount) external virtual override returns (bool) {... */\n    tag_5:\n      tag_30\n      0x04\n      dup1\n      calldatasize\n      sub\n      dup2\n      add\n      swap1\n      tag_31\n      swap2\n      swap1\n      tag_32\n      jump\t// in\n    tag_31:\n      tag_33\n      jump\t// in\n    tag_30:\n      mload(0x40)\n      tag_34\n      swap2\n      swap1\n      tag_35\n      jump\t// in\n    tag_34:\n      mload(0x40)\n      dup1\n      swap2\n      sub\n      swap1\n      return\n        /* \"simpleToken.sol\":1704:1812  function totalSupply() external view virtual override returns (uint256) {... */\n    tag_6:\n      tag_36\n      tag_37\n      jump\t// in\n    tag_36:\n      mload(0x40)\n      tag_38\n      swap2\n      swap1\n      tag_25\n      jump\t// in\n    tag_38:\n      mload(0x40)\n      dup1\n      swap2\n      sub\n      swap1\n      return\n        /* \"simpleToken.sol\":2721:3211  function transferFrom(address sender, address recipient, uint256 amount) external virtual override returns (bool) {... */\n    tag_7:\n      tag_39\n      0x04\n      dup1\n      calldatasize\n      sub\n      dup2\n      add\n      swap1\n      tag_40\n      swap2\n      swap1\n      tag_41\n      jump\t// in\n    tag_40:\n      tag_42\n      jump\t// in\n    tag_39:\n      mload(0x40)\n      tag_43\n      swap2\n      swap1\n      tag_35\n      jump\t// in\n    tag_43:\n      mload(0x40)\n      dup1\n      swap2\n      sub\n      swap1\n      return\n        /* \"simpleToken.sol\":1617:1698  function decimals() public view returns (uint8) {... */\n    tag_8:\n      tag_44\n      tag_45\n      jump\t// in\n    tag_44:\n      mload(0x40)\n      tag_46\n      swap2\n      swap1\n      tag_47\n      jump\t// in\n    tag_46:\n      mload(0x40)\n      dup1\n      swap2\n      sub\n      swap1\n      return\n        /* \"simpleToken.sol\":1119:1141  uint8 public _decimals */\n    tag_9:\n      tag_48\n      tag_49\n      jump\t// in\n    tag_48:\n      mload(0x40)\n      tag_50\n      swap2\n      swap1\n      tag_47\n      jump\t// in\n    tag_50:\n      mload(0x40)\n      dup1\n      swap2\n      sub\n      swap1\n      return\n        /* \"simpleToken.sol\":1034:1061  uint256 public _totalSupply */\n    tag_10:\n      tag_51\n      tag_52\n      jump\t// in\n    tag_51:\n      mload(0x40)\n      tag_53\n      swap2\n      swap1\n      tag_25\n      jump\t// in\n    tag_53:\n      mload(0x40)\n      dup1\n      swap2\n      sub\n      swap1\n      return\n        /* \"simpleToken.sol\":1818:1945  function balanceOf(address account) external view virtual override returns (uint256) {... */\n    tag_11:\n      tag_54\n      0x04\n      dup1\n      calldatasize\n      sub\n      dup2\n      add\n      swap1\n      tag_55\n      swap2\n      swap1\n      tag_56\n      jump\t// in\n    tag_55:\n      tag_57\n      jump\t// in\n    tag_54:\n      mload(0x40)\n      tag_58\n      swap2\n      swap1\n      tag_25\n      jump\t// in\n    tag_58:\n      mload(0x40)\n      dup1\n      swap2\n      sub\n      swap1\n      return\n        /* \"simpleToken.sol\":1526:1611  function symbol() public view returns (string memory) {... */\n    tag_12:\n      tag_59\n      tag_60\n      jump\t// in\n    tag_59:\n      mload(0x40)\n      tag_61\n      swap2\n      swap1\n      tag_29\n      jump\t// in\n    tag_61:\n      mload(0x40)\n      dup1\n      swap2\n      sub\n      swap1\n      return\n        /* \"simpleToken.sol\":1951:2172  function transfer(address recipient, uint amount) public virtual override returns (bool) {... */\n    tag_13:\n      tag_62\n      0x04\n      dup1\n      calldatasize\n      sub\n      dup2\n      add\n      swap1\n      tag_63\n      swap2\n      swap1\n      tag_32\n      jump\t// in\n    tag_63:\n      tag_64\n      jump\t// in\n    tag_62:\n      mload(0x40)\n      tag_65\n      swap2\n      swap1\n      tag_35\n      jump\t// in\n    tag_65:\n      mload(0x40)\n      dup1\n      swap2\n      sub\n      swap1\n      return\n        /* \"simpleToken.sol\":1092:1113  string public _symbol */\n    tag_14:\n      tag_66\n      tag_67\n      jump\t// in\n    tag_66:\n      mload(0x40)\n      tag_68\n      swap2\n      swap1\n      tag_29\n      jump\t// in\n    tag_68:\n      mload(0x40)\n      dup1\n      swap2\n      sub\n      swap1\n      return\n        /* \"simpleToken.sol\":1067:1086  string public _name */\n    tag_15:\n      tag_69\n      tag_70\n      jump\t// in\n    tag_69:\n      mload(0x40)\n      tag_71\n      swap2\n      swap1\n      tag_29\n      jump\t// in\n    tag_71:\n      mload(0x40)\n      dup1\n      swap2\n      sub\n      swap1\n      return\n        /* \"simpleToken.sol\":2178:2321  function allowance(address owner, address spender) external view override returns (uint256) {... */\n    tag_16:\n      tag_72\n      0x04\n      dup1\n      calldatasize\n      sub\n      dup2\n      add\n      swap1\n      tag_73\n      swap2\n      swap1\n      tag_22\n      jump\t// in\n    tag_73:\n      tag_74\n      jump\t// in\n    tag_72:\n      mload(0x40)\n      tag_75\n      swap2\n      swap1\n      tag_25\n      jump\t// in\n    tag_75:\n      mload(0x40)\n      dup1\n      swap2\n      sub\n      swap1\n      return\n        /* \"simpleToken.sol\":959:1027  mapping (address => mapping (address => uint256)) public _allowances */\n    tag_23:\n      mstore(0x20, 0x01)\n      dup2\n      0x00\n      mstore\n      mstore(0x20, keccak256(0x00, 0x40))\n      dup1\n      0x00\n      mstore\n      keccak256(0x00, 0x40)\n      0x00\n      swap2\n      pop\n      swap2\n      pop\n      pop\n      sload\n      dup2\n      jump\t// out\n        /* \"simpleToken.sol\":1439:1520  function name() public view returns (string memory) {... */\n    tag_27:\n        /* \"simpleToken.sol\":1476:1489  string memory */\n      0x60\n        /* \"simpleToken.sol\":1508:1513  _name */\n      0x03\n        /* \"simpleToken.sol\":1501:1513  return _name */\n      dup1\n      sload\n      tag_77\n      swap1\n      tag_78\n      jump\t// in\n    tag_77:\n      dup1\n      0x1f\n      add\n      0x20\n      dup1\n      swap2\n      div\n      mul\n      0x20\n      add\n      mload(0x40)\n      swap1\n      dup2\n      add\n      0x40\n      mstore\n      dup1\n      swap3\n      swap2\n      swap1\n      dup2\n      dup2\n      mstore\n      0x20\n      add\n      dup3\n      dup1\n      sload\n      tag_79\n      swap1\n      tag_78\n      jump\t// in\n    tag_79:\n      dup1\n      iszero\n      tag_80\n      jumpi\n      dup1\n      0x1f\n      lt\n      tag_81\n      jumpi\n      0x0100\n      dup1\n      dup4\n      sload\n      div\n      mul\n      dup4\n      mstore\n      swap2\n      0x20\n      add\n      swap2\n      jump(tag_80)\n    tag_81:\n      dup3\n      add\n      swap2\n      swap1\n      0x00\n      mstore\n      keccak256(0x00, 0x20)\n      swap1\n    tag_82:\n      dup2\n      sload\n      dup2\n      mstore\n      swap1\n      0x01\n      add\n      swap1\n      0x20\n      add\n      dup1\n      dup4\n      gt\n      tag_82\n      jumpi\n      dup3\n      swap1\n      sub\n      0x1f\n      and\n      dup3\n      add\n      swap2\n    tag_80:\n      pop\n      pop\n      pop\n      pop\n      pop\n      swap1\n      pop\n        /* \"simpleToken.sol\":1439:1520  function name() public view returns (string memory) {... */\n      swap1\n      jump\t// out\n        /* \"simpleToken.sol\":2327:2715  function approve(address spender, uint amount) external virtual override returns (bool) {... */\n    tag_33:\n        /* \"simpleToken.sol\":2409:2413  bool */\n      0x00\n        /* \"simpleToken.sol\":2425:2449  uint256 currentAllowance */\n      dup1\n        /* \"simpleToken.sol\":2452:2463  _allowances */\n      0x01\n        /* \"simpleToken.sol\":2452:2475  _allowances[msg.sender] */\n      0x00\n        /* \"simpleToken.sol\":2464:2474  msg.sender */\n      caller\n        /* \"simpleToken.sol\":2452:2475  _allowances[msg.sender] */\n      0xffffffffffffffffffffffffffffffffffffffff\n      and\n      0xffffffffffffffffffffffffffffffffffffffff\n      and\n      dup2\n      mstore\n      0x20\n      add\n      swap1\n      dup2\n      mstore\n      0x20\n      add\n      0x00\n      keccak256\n        /* \"simpleToken.sol\":2452:2484  _allowances[msg.sender][spender] */\n      0x00\n        /* \"simpleToken.sol\":2476:2483  spender */\n      dup6\n        /* \"simpleToken.sol\":2452:2484  _allowances[msg.sender][spender] */\n      0xffffffffffffffffffffffffffffffffffffffff\n      and\n      0xffffffffffffffffffffffffffffffffffffffff\n      and\n      dup2\n      mstore\n      0x20\n      add\n      swap1\n      dup2\n      mstore\n      0x20\n      add\n      0x00\n      keccak256\n      sload\n        /* \"simpleToken.sol\":2425:2484  uint256 currentAllowance = _allowances[msg.sender][spender] */\n      swap1\n      pop\n        /* \"simpleToken.sol\":2529:2535  amount */\n      dup3\n        /* \"simpleToken.sol\":2504:2513  _balances */\n      0x00\n        /* \"simpleToken.sol\":2504:2525  _balances[msg.sender] */\n      dup1\n        /* \"simpleToken.sol\":2514:2524  msg.sender */\n      caller\n        /* \"simpleToken.sol\":2504:2525  _balances[msg.sender] */\n      0xffffffffffffffffffffffffffffffffffffffff\n      and\n      0xffffffffffffffffffffffffffffffffffffffff\n      and\n      dup2\n      mstore\n      0x20\n      add\n      swap1\n      dup2\n      mstore\n      0x20\n      add\n      0x00\n      keccak256\n      sload\n        /* \"simpleToken.sol\":2504:2535  _balances[msg.sender] >= amount */\n      lt\n      iszero\n        /* \"simpleToken.sol\":2496:2622  require(_balances[msg.sender] >= amount,\"ERC20: The amount to be transferred exceeds the amount of tokens held by the owner.\") */\n      tag_84\n      jumpi\n      mload(0x40)\n      0x08c379a000000000000000000000000000000000000000000000000000000000\n      dup2\n      mstore\n      0x04\n      add\n      tag_85\n      swap1\n      tag_86\n      jump\t// in\n    tag_85:\n      mload(0x40)\n      dup1\n      swap2\n      sub\n      swap1\n      revert\n    tag_84:\n        /* \"simpleToken.sol\":2632:2687  _approve(msg.sender, spender, currentAllowance, amount) */\n      tag_87\n        /* \"simpleToken.sol\":2641:2651  msg.sender */\n      caller\n        /* \"simpleToken.sol\":2653:2660  spender */\n      dup6\n        /* \"simpleToken.sol\":2662:2678  currentAllowance */\n      dup4\n        /* \"simpleToken.sol\":2680:2686  amount */\n      dup7\n        /* \"simpleToken.sol\":2632:2640  _approve */\n      tag_88\n        /* \"simpleToken.sol\":2632:2687  _approve(msg.sender, spender, currentAllowance, amount) */\n      jump\t// in\n    tag_87:\n        /* \"simpleToken.sol\":2704:2708  true */\n      0x01\n        /* \"simpleToken.sol\":2697:2708  return true */\n      swap2\n      pop\n      pop\n        /* \"simpleToken.sol\":2327:2715  function approve(address spender, uint amount) external virtual override returns (bool) {... */\n      swap3\n      swap2\n      pop\n      pop\n      jump\t// out\n        /* \"simpleToken.sol\":1704:1812  function totalSupply() external view virtual override returns (uint256) {... */\n    tag_37:\n        /* \"simpleToken.sol\":1767:1774  uint256 */\n      0x00\n        /* \"simpleToken.sol\":1793:1805  _totalSupply */\n      sload(0x02)\n        /* \"simpleToken.sol\":1786:1805  return _totalSupply */\n      swap1\n      pop\n        /* \"simpleToken.sol\":1704:1812  function totalSupply() external view virtual override returns (uint256) {... */\n      swap1\n      jump\t// out\n        /* \"simpleToken.sol\":2721:3211  function transferFrom(address sender, address recipient, uint256 amount) external virtual override returns (bool) {... */\n    tag_42:\n        /* \"simpleToken.sol\":2829:2833  bool */\n      0x00\n        /* \"simpleToken.sol\":2845:2881  _transfer(sender, recipient, amount) */\n      tag_91\n        /* \"simpleToken.sol\":2855:2861  sender */\n      dup5\n        /* \"simpleToken.sol\":2863:2872  recipient */\n      dup5\n        /* \"simpleToken.sol\":2874:2880  amount */\n      dup5\n        /* \"simpleToken.sol\":2845:2854  _transfer */\n      tag_92\n        /* \"simpleToken.sol\":2845:2881  _transfer(sender, recipient, amount) */\n      jump\t// in\n    tag_91:\n        /* \"simpleToken.sol\":2925:2934  recipient */\n      dup3\n        /* \"simpleToken.sol\":2896:2943  Transfer(msg.sender, sender, recipient, amount) */\n      0xffffffffffffffffffffffffffffffffffffffff\n      and\n        /* \"simpleToken.sol\":2917:2923  sender */\n      dup5\n        /* \"simpleToken.sol\":2896:2943  Transfer(msg.sender, sender, recipient, amount) */\n      0xffffffffffffffffffffffffffffffffffffffff\n      and\n        /* \"simpleToken.sol\":2905:2915  msg.sender */\n      caller\n        /* \"simpleToken.sol\":2896:2943  Transfer(msg.sender, sender, recipient, amount) */\n      0xffffffffffffffffffffffffffffffffffffffff\n      and\n      0xd1398bee19313d6bf672ccb116e51f4a1a947e91c757907f51fbb5b5e56c698f\n        /* \"simpleToken.sol\":2936:2942  amount */\n      dup6\n        /* \"simpleToken.sol\":2896:2943  Transfer(msg.sender, sender, recipient, amount) */\n      mload(0x40)\n      tag_93\n      swap2\n      swap1\n      tag_25\n      jump\t// in\n    tag_93:\n      mload(0x40)\n      dup1\n      swap2\n      sub\n      swap1\n      log4\n        /* \"simpleToken.sol\":2953:2977  uint256 currentAllowance */\n      0x00\n        /* \"simpleToken.sol\":2980:2991  _allowances */\n      0x01\n        /* \"simpleToken.sol\":2980:2999  _allowances[sender] */\n      0x00\n        /* \"simpleToken.sol\":2992:2998  sender */\n      dup7\n        /* \"simpleToken.sol\":2980:2999  _allowances[sender] */\n      0xffffffffffffffffffffffffffffffffffffffff\n      and\n      0xffffffffffffffffffffffffffffffffffffffff\n      and\n      dup2\n      mstore\n      0x20\n      add\n      swap1\n      dup2\n      mstore\n      0x20\n      add\n      0x00\n      keccak256\n        /* \"simpleToken.sol\":2980:3011  _allowances[sender][msg.sender] */\n      0x00\n        /* \"simpleToken.sol\":3000:3010  msg.sender */\n      caller\n        /* \"simpleToken.sol\":2980:3011  _allowances[sender][msg.sender] */\n      0xffffffffffffffffffffffffffffffffffffffff\n      and\n      0xffffffffffffffffffffffffffffffffffffffff\n      and\n      dup2\n      mstore\n      0x20\n      add\n      swap1\n      dup2\n      mstore\n      0x20\n      add\n      0x00\n      keccak256\n      sload\n        /* \"simpleToken.sol\":2953:3011  uint256 currentAllowance = _allowances[sender][msg.sender] */\n      swap1\n      pop\n        /* \"simpleToken.sol\":3049:3055  amount */\n      dup3\n        /* \"simpleToken.sol\":3029:3045  currentAllowance */\n      dup2\n        /* \"simpleToken.sol\":3029:3055  currentAllowance >= amount */\n      lt\n      iszero\n        /* \"simpleToken.sol\":3021:3100  require(currentAllowance >= amount, \"ERC20: transfer amount exceeds allowance\") */\n      tag_94\n      jumpi\n      mload(0x40)\n      0x08c379a000000000000000000000000000000000000000000000000000000000\n      dup2\n      mstore\n      0x04\n      add\n      tag_95\n      swap1\n      tag_96\n      jump\t// in\n    tag_95:\n      mload(0x40)\n      dup1\n      swap2\n      sub\n      swap1\n      revert\n    tag_94:\n        /* \"simpleToken.sol\":3110:3183  _approve(sender, msg.sender, currentAllowance, currentAllowance - amount) */\n      tag_97\n        /* \"simpleToken.sol\":3119:3125  sender */\n      dup6\n        /* \"simpleToken.sol\":3127:3137  msg.sender */\n      caller\n        /* \"simpleToken.sol\":3139:3155  currentAllowance */\n      dup4\n        /* \"simpleToken.sol\":3176:3182  amount */\n      dup7\n        /* \"simpleToken.sol\":3157:3173  currentAllowance */\n      dup6\n        /* \"simpleToken.sol\":3157:3182  currentAllowance - amount */\n      tag_98\n      swap2\n      swap1\n      tag_99\n      jump\t// in\n    tag_98:\n        /* \"simpleToken.sol\":3110:3118  _approve */\n      tag_88\n        /* \"simpleToken.sol\":3110:3183  _approve(sender, msg.sender, currentAllowance, currentAllowance - amount) */\n      jump\t// in\n    tag_97:\n        /* \"simpleToken.sol\":3200:3204  true */\n      0x01\n        /* \"simpleToken.sol\":3193:3204  return true */\n      swap2\n      pop\n      pop\n        /* \"simpleToken.sol\":2721:3211  function transferFrom(address sender, address recipient, uint256 amount) external virtual override returns (bool) {... */\n      swap4\n      swap3\n      pop\n      pop\n      pop\n      jump\t// out\n        /* \"simpleToken.sol\":1617:1698  function decimals() public view returns (uint8) {... */\n    tag_45:\n        /* \"simpleToken.sol\":1658:1663  uint8 */\n      0x00\n        /* \"simpleToken.sol\":1682:1691  _decimals */\n      0x05\n      0x00\n      swap1\n      sload\n      swap1\n      0x0100\n      exp\n      swap1\n      div\n      0xff\n      and\n        /* \"simpleToken.sol\":1675:1691  return _decimals */\n      swap1\n      pop\n        /* \"simpleToken.sol\":1617:1698  function decimals() public view returns (uint8) {... */\n      swap1\n      jump\t// out\n        /* \"simpleToken.sol\":1119:1141  uint8 public _decimals */\n    tag_49:\n      0x05\n      0x00\n      swap1\n      sload\n      swap1\n      0x0100\n      exp\n      swap1\n      div\n      0xff\n      and\n      dup2\n      jump\t// out\n        /* \"simpleToken.sol\":1034:1061  uint256 public _totalSupply */\n    tag_52:\n      sload(0x02)\n      dup2\n      jump\t// out\n        /* \"simpleToken.sol\":1818:1945  function balanceOf(address account) external view virtual override returns (uint256) {... */\n    tag_57:\n        /* \"simpleToken.sol\":1894:1901  uint256 */\n      0x00\n        /* \"simpleToken.sol\":1920:1929  _balances */\n      dup1\n        /* \"simpleToken.sol\":1920:1938  _balances[account] */\n      0x00\n        /* \"simpleToken.sol\":1930:1937  account */\n      dup4\n        /* \"simpleToken.sol\":1920:1938  _balances[account] */\n      0xffffffffffffffffffffffffffffffffffffffff\n      and\n      0xffffffffffffffffffffffffffffffffffffffff\n      and\n      dup2\n      mstore\n      0x20\n      add\n      swap1\n      dup2\n      mstore\n      0x20\n      add\n      0x00\n      keccak256\n      sload\n        /* \"simpleToken.sol\":1913:1938  return _balances[account] */\n      swap1\n      pop\n        /* \"simpleToken.sol\":1818:1945  function balanceOf(address account) external view virtual override returns (uint256) {... */\n      swap2\n      swap1\n      pop\n      jump\t// out\n        /* \"simpleToken.sol\":1526:1611  function symbol() public view returns (string memory) {... */\n    tag_60:\n        /* \"simpleToken.sol\":1565:1578  string memory */\n      0x60\n        /* \"simpleToken.sol\":1597:1604  _symbol */\n      0x04\n        /* \"simpleToken.sol\":1590:1604  return _symbol */\n      dup1\n      sload\n      tag_103\n      swap1\n      tag_78\n      jump\t// in\n    tag_103:\n      dup1\n      0x1f\n      add\n      0x20\n      dup1\n      swap2\n      div\n      mul\n      0x20\n      add\n      mload(0x40)\n      swap1\n      dup2\n      add\n      0x40\n      mstore\n      dup1\n      swap3\n      swap2\n      swap1\n      dup2\n      dup2\n      mstore\n      0x20\n      add\n      dup3\n      dup1\n      sload\n      tag_104\n      swap1\n      tag_78\n      jump\t// in\n    tag_104:\n      dup1\n      iszero\n      tag_105\n      jumpi\n      dup1\n      0x1f\n      lt\n      tag_106\n      jumpi\n      0x0100\n      dup1\n      dup4\n      sload\n      div\n      mul\n      dup4\n      mstore\n      swap2\n      0x20\n      add\n      swap2\n      jump(tag_105)\n    tag_106:\n      dup3\n      add\n      swap2\n      swap1\n      0x00\n      mstore\n      keccak256(0x00, 0x20)\n      swap1\n    tag_107:\n      dup2\n      sload\n      dup2\n      mstore\n      swap1\n      0x01\n      add\n      swap1\n      0x20\n      add\n      dup1\n      dup4\n      gt\n      tag_107\n      jumpi\n      dup3\n      swap1\n      sub\n      0x1f\n      and\n      dup3\n      add\n      swap2\n    tag_105:\n      pop\n      pop\n      pop\n      pop\n      pop\n      swap1\n      pop\n        /* \"simpleToken.sol\":1526:1611  function symbol() public view returns (string memory) {... */\n      swap1\n      jump\t// out\n        /* \"simpleToken.sol\":1951:2172  function transfer(address recipient, uint amount) public virtual override returns (bool) {... */\n    tag_64:\n        /* \"simpleToken.sol\":2034:2038  bool */\n      0x00\n        /* \"simpleToken.sol\":2050:2090  _transfer(msg.sender, recipient, amount) */\n      tag_109\n        /* \"simpleToken.sol\":2060:2070  msg.sender */\n      caller\n        /* \"simpleToken.sol\":2072:2081  recipient */\n      dup5\n        /* \"simpleToken.sol\":2083:2089  amount */\n      dup5\n        /* \"simpleToken.sol\":2050:2059  _transfer */\n      tag_92\n        /* \"simpleToken.sol\":2050:2090  _transfer(msg.sender, recipient, amount) */\n      jump\t// in\n    tag_109:\n        /* \"simpleToken.sol\":2126:2135  recipient */\n      dup3\n        /* \"simpleToken.sol\":2105:2144  Transfer(msg.sender, recipient, amount) */\n      0xffffffffffffffffffffffffffffffffffffffff\n      and\n        /* \"simpleToken.sol\":2114:2124  msg.sender */\n      caller\n        /* \"simpleToken.sol\":2105:2144  Transfer(msg.sender, recipient, amount) */\n      0xffffffffffffffffffffffffffffffffffffffff\n      and\n      0xddf252ad1be2c89b69c2b068fc378daa952ba7f163c4a11628f55a4df523b3ef\n        /* \"simpleToken.sol\":2137:2143  amount */\n      dup5\n        /* \"simpleToken.sol\":2105:2144  Transfer(msg.sender, recipient, amount) */\n      mload(0x40)\n      tag_110\n      swap2\n      swap1\n      tag_25\n      jump\t// in\n    tag_110:\n      mload(0x40)\n      dup1\n      swap2\n      sub\n      swap1\n      log3\n        /* \"simpleToken.sol\":2161:2165  true */\n      0x01\n        /* \"simpleToken.sol\":2154:2165  return true */\n      swap1\n      pop\n        /* \"simpleToken.sol\":1951:2172  function transfer(address recipient, uint amount) public virtual override returns (bool) {... */\n      swap3\n      swap2\n      pop\n      pop\n      jump\t// out\n        /* \"simpleToken.sol\":1092:1113  string public _symbol */\n    tag_67:\n      0x04\n      dup1\n      sload\n      tag_111\n      swap1\n      tag_78\n      jump\t// in\n    tag_111:\n      dup1\n      0x1f\n      add\n      0x20\n      dup1\n      swap2\n      div\n      mul\n      0x20\n      add\n      mload(0x40)\n      swap1\n      dup2\n      add\n      0x40\n      mstore\n      dup1\n      swap3\n      swap2\n      swap1\n      dup2\n      dup2\n      mstore\n      0x20\n      add\n      dup3\n      dup1\n      sload\n      tag_112\n      swap1\n      tag_78\n      jump\t// in\n    tag_112:\n      dup1\n      iszero\n      tag_113\n      jumpi\n      dup1\n      0x1f\n      lt\n      tag_114\n      jumpi\n      0x0100\n      dup1\n      dup4\n      sload\n      div\n      mul\n      dup4\n      mstore\n      swap2\n      0x20\n      add\n      swap2\n      jump(tag_113)\n    tag_114:\n      dup3\n      add\n      swap2\n      swap1\n      0x00\n      mstore\n      keccak256(0x00, 0x20)\n      swap1\n    tag_115:\n      dup2\n      sload\n      dup2\n      mstore\n      swap1\n      0x01\n      add\n      swap1\n      0x20\n      add\n      dup1\n      dup4\n      gt\n      tag_115\n      jumpi\n      dup3\n      swap1\n      sub\n      0x1f\n      and\n      dup3\n      add\n      swap2\n    tag_113:\n      pop\n      pop\n      pop\n      pop\n      pop\n      dup2\n      jump\t// out\n        /* \"simpleToken.sol\":1067:1086  string public _name */\n    tag_70:\n      0x03\n      dup1\n      sload\n      tag_116\n      swap1\n      tag_78\n      jump\t// in\n    tag_116:\n      dup1\n      0x1f\n      add\n      0x20\n      dup1\n      swap2\n      div\n      mul\n      0x20\n      add\n      mload(0x40)\n      swap1\n      dup2\n      add\n      0x40\n      mstore\n      dup1\n      swap3\n      swap2\n      swap1\n      dup2\n      dup2\n      mstore\n      0x20\n      add\n      dup3\n      dup1\n      sload\n      tag_117\n      swap1\n      tag_78\n      jump\t// in\n    tag_117:\n      dup1\n      iszero\n      tag_118\n      jumpi\n      dup1\n      0x1f\n      lt\n      tag_119\n      jumpi\n      0x0100\n      dup1\n      dup4\n      sload\n      div\n      mul\n      dup4\n      mstore\n      swap2\n      0x20\n      add\n      swap2\n      jump(tag_118)\n    tag_119:\n      dup3\n      add\n      swap2\n      swap1\n      0x00\n      mstore\n      keccak256(0x00, 0x20)\n      swap1\n    tag_120:\n      dup2\n      sload\n      dup2\n      mstore\n      swap1\n      0x01\n      add\n      swap1\n      0x20\n      add\n      dup1\n      dup4\n      gt\n      tag_120\n      jumpi\n      dup3\n      swap1\n      sub\n      0x1f\n      and\n      dup3\n      add\n      swap2\n    tag_118:\n      pop\n      pop\n      pop\n      pop\n      pop\n      dup2\n      jump\t// out\n        /* \"simpleToken.sol\":2178:2321  function allowance(address owner, address spender) external view override returns (uint256) {... */\n    tag_74:\n        /* \"simpleToken.sol\":2261:2268  uint256 */\n      0x00\n        /* \"simpleToken.sol\":2287:2298  _allowances */\n      0x01\n        /* \"simpleToken.sol\":2287:2305  _allowances[owner] */\n      0x00\n        /* \"simpleToken.sol\":2299:2304  owner */\n      dup5\n        /* \"simpleToken.sol\":2287:2305  _allowances[owner] */\n      0xffffffffffffffffffffffffffffffffffffffff\n      and\n      0xffffffffffffffffffffffffffffffffffffffff\n      and\n      dup2\n      mstore\n      0x20\n      add\n      swap1\n      dup2\n      mstore\n      0x20\n      add\n      0x00\n      keccak256\n        /* \"simpleToken.sol\":2287:2314  _allowances[owner][spender] */\n      0x00\n        /* \"simpleToken.sol\":2306:2313  spender */\n      dup4\n        /* \"simpleToken.sol\":2287:2314  _allowances[owner][spender] */\n      0xffffffffffffffffffffffffffffffffffffffff\n      and\n      0xffffffffffffffffffffffffffffffffffffffff\n      and\n      dup2\n      mstore\n      0x20\n      add\n      swap1\n      dup2\n      mstore\n      0x20\n      add\n      0x00\n      keccak256\n      sload\n        /* \"simpleToken.sol\":2280:2314  return _allowances[owner][spender] */\n      swap1\n      pop\n        /* \"simpleToken.sol\":2178:2321  function allowance(address owner, address spender) external view override returns (uint256) {... */\n      swap3\n      swap2\n      pop\n      pop\n      jump\t// out\n        /* \"simpleToken.sol\":3705:4179  function _approve(address owner, address spender, uint256 currentAmount, uint256 amount) internal virtual {... */\n    tag_88:\n        /* \"simpleToken.sol\":3846:3847  0 */\n      0x00\n        /* \"simpleToken.sol\":3829:3848  owner != address(0) */\n      0xffffffffffffffffffffffffffffffffffffffff\n      and\n        /* \"simpleToken.sol\":3829:3834  owner */\n      dup5\n        /* \"simpleToken.sol\":3829:3848  owner != address(0) */\n      0xffffffffffffffffffffffffffffffffffffffff\n      and\n      sub\n        /* \"simpleToken.sol\":3821:3889  require(owner != address(0), \"ERC20: approve from the zero address\") */\n      tag_123\n      jumpi\n      mload(0x40)\n      0x08c379a000000000000000000000000000000000000000000000000000000000\n      dup2\n      mstore\n      0x04\n      add\n      tag_124\n      swap1\n      tag_125\n      jump\t// in\n    tag_124:\n      mload(0x40)\n      dup1\n      swap2\n      sub\n      swap1\n      revert\n    tag_123:\n        /* \"simpleToken.sol\":3926:3927  0 */\n      0x00\n        /* \"simpleToken.sol\":3907:3928  spender != address(0) */\n      0xffffffffffffffffffffffffffffffffffffffff\n      and\n        /* \"simpleToken.sol\":3907:3914  spender */\n      dup4\n        /* \"simpleToken.sol\":3907:3928  spender != address(0) */\n      0xffffffffffffffffffffffffffffffffffffffff\n      and\n      sub\n        /* \"simpleToken.sol\":3899:3967  require(spender != address(0), \"ERC20: approve to the zero address\") */\n      tag_126\n      jumpi\n      mload(0x40)\n      0x08c379a000000000000000000000000000000000000000000000000000000000\n      dup2\n      mstore\n      0x04\n      add\n      tag_127\n      swap1\n      tag_128\n      jump\t// in\n    tag_127:\n      mload(0x40)\n      dup1\n      swap2\n      sub\n      swap1\n      revert\n    tag_126:\n        /* \"simpleToken.sol\":4002:4013  _allowances */\n      0x01\n        /* \"simpleToken.sol\":4002:4020  _allowances[owner] */\n      0x00\n        /* \"simpleToken.sol\":4014:4019  owner */\n      dup6\n        /* \"simpleToken.sol\":4002:4020  _allowances[owner] */\n      0xffffffffffffffffffffffffffffffffffffffff\n      and\n      0xffffffffffffffffffffffffffffffffffffffff\n      and\n      dup2\n      mstore\n      0x20\n      add\n      swap1\n      dup2\n      mstore\n      0x20\n      add\n      0x00\n      keccak256\n        /* \"simpleToken.sol\":4002:4029  _allowances[owner][spender] */\n      0x00\n        /* \"simpleToken.sol\":4021:4028  spender */\n      dup5\n        /* \"simpleToken.sol\":4002:4029  _allowances[owner][spender] */\n      0xffffffffffffffffffffffffffffffffffffffff\n      and\n      0xffffffffffffffffffffffffffffffffffffffff\n      and\n      dup2\n      mstore\n      0x20\n      add\n      swap1\n      dup2\n      mstore\n      0x20\n      add\n      0x00\n      keccak256\n      sload\n        /* \"simpleToken.sol\":3985:3998  currentAmount */\n      dup3\n        /* \"simpleToken.sol\":3985:4029  currentAmount == _allowances[owner][spender] */\n      eq\n        /* \"simpleToken.sol\":3977:4062  require(currentAmount == _allowances[owner][spender], \"ERC20: invalid currentAmount\") */\n      tag_129\n      jumpi\n      mload(0x40)\n      0x08c379a000000000000000000000000000000000000000000000000000000000\n      dup2\n      mstore\n      0x04\n      add\n      tag_130\n      swap1\n      tag_131\n      jump\t// in\n    tag_130:\n      mload(0x40)\n      dup1\n      swap2\n      sub\n      swap1\n      revert\n    tag_129:\n        /* \"simpleToken.sol\":4102:4108  amount */\n      dup1\n        /* \"simpleToken.sol\":4072:4083  _allowances */\n      0x01\n        /* \"simpleToken.sol\":4072:4090  _allowances[owner] */\n      0x00\n        /* \"simpleToken.sol\":4084:4089  owner */\n      dup7\n        /* \"simpleToken.sol\":4072:4090  _allowances[owner] */\n      0xffffffffffffffffffffffffffffffffffffffff\n      and\n      0xffffffffffffffffffffffffffffffffffffffff\n      and\n      dup2\n      mstore\n      0x20\n      add\n      swap1\n      dup2\n      mstore\n      0x20\n      add\n      0x00\n      keccak256\n        /* \"simpleToken.sol\":4072:4099  _allowances[owner][spender] */\n      0x00\n        /* \"simpleToken.sol\":4091:4098  spender */\n      dup6\n        /* \"simpleToken.sol\":4072:4099  _allowances[owner][spender] */\n      0xffffffffffffffffffffffffffffffffffffffff\n      and\n      0xffffffffffffffffffffffffffffffffffffffff\n      and\n      dup2\n      mstore\n      0x20\n      add\n      swap1\n      dup2\n      mstore\n      0x20\n      add\n      0x00\n      keccak256\n        /* \"simpleToken.sol\":4072:4108  _allowances[owner][spender] = amount */\n      dup2\n      swap1\n      sstore\n      pop\n        /* \"simpleToken.sol\":4141:4148  spender */\n      dup3\n        /* \"simpleToken.sol\":4125:4172  Approval(owner, spender, currentAmount, amount) */\n      0xffffffffffffffffffffffffffffffffffffffff\n      and\n        /* \"simpleToken.sol\":4134:4139  owner */\n      dup5\n        /* \"simpleToken.sol\":4125:4172  Approval(owner, spender, currentAmount, amount) */\n      0xffffffffffffffffffffffffffffffffffffffff\n      and\n      0xb3fd5071835887567a0671151121894ddccc2842f1d10bedad13e0d17cace9a7\n        /* \"simpleToken.sol\":4150:4163  currentAmount */\n      dup5\n        /* \"simpleToken.sol\":4165:4171  amount */\n      dup5\n        /* \"simpleToken.sol\":4125:4172  Approval(owner, spender, currentAmount, amount) */\n      mload(0x40)\n      tag_132\n      swap3\n      swap2\n      swap1\n      tag_133\n      jump\t// in\n    tag_132:\n      mload(0x40)\n      dup1\n      swap2\n      sub\n      swap1\n      log3\n        /* \"simpleToken.sol\":3705:4179  function _approve(address owner, address spender, uint256 currentAmount, uint256 amount) internal virtual {... */\n      pop\n      pop\n      pop\n      pop\n      jump\t// out\n        /* \"simpleToken.sol\":3217:3699  function _transfer(address sender, address recipient, uint256 amount) internal virtual {... */\n    tag_92:\n        /* \"simpleToken.sol\":3340:3341  0 */\n      0x00\n        /* \"simpleToken.sol\":3322:3342  sender != address(0) */\n      0xffffffffffffffffffffffffffffffffffffffff\n      and\n        /* \"simpleToken.sol\":3322:3328  sender */\n      dup4\n        /* \"simpleToken.sol\":3322:3342  sender != address(0) */\n      0xffffffffffffffffffffffffffffffffffffffff\n      and\n      sub\n        /* \"simpleToken.sol\":3314:3384  require(sender != address(0), \"ERC20: transfer from the zero address\") */\n      tag_135\n      jumpi\n      mload(0x40)\n      0x08c379a000000000000000000000000000000000000000000000000000000000\n      dup2\n      mstore\n      0x04\n      add\n      tag_136\n      swap1\n      tag_137\n      jump\t// in\n    tag_136:\n      mload(0x40)\n      dup1\n      swap2\n      sub\n      swap1\n      revert\n    tag_135:\n        /* \"simpleToken.sol\":3423:3424  0 */\n      0x00\n        /* \"simpleToken.sol\":3402:3425  recipient != address(0) */\n      0xffffffffffffffffffffffffffffffffffffffff\n      and\n        /* \"simpleToken.sol\":3402:3411  recipient */\n      dup3\n        /* \"simpleToken.sol\":3402:3425  recipient != address(0) */\n      0xffffffffffffffffffffffffffffffffffffffff\n      and\n      sub\n        /* \"simpleToken.sol\":3394:3465  require(recipient != address(0), \"ERC20: transfer to the zero address\") */\n      tag_138\n      jumpi\n      mload(0x40)\n      0x08c379a000000000000000000000000000000000000000000000000000000000\n      dup2\n      mstore\n      0x04\n      add\n      tag_139\n      swap1\n      tag_140\n      jump\t// in\n    tag_139:\n      mload(0x40)\n      dup1\n      swap2\n      sub\n      swap1\n      revert\n    tag_138:\n        /* \"simpleToken.sol\":3475:3496  uint256 senderBalance */\n      0x00\n        /* \"simpleToken.sol\":3499:3508  _balances */\n      dup1\n        /* \"simpleToken.sol\":3499:3516  _balances[sender] */\n      0x00\n        /* \"simpleToken.sol\":3509:3515  sender */\n      dup6\n        /* \"simpleToken.sol\":3499:3516  _balances[sender] */\n      0xffffffffffffffffffffffffffffffffffffffff\n      and\n      0xffffffffffffffffffffffffffffffffffffffff\n      and\n      dup2\n      mstore\n      0x20\n      add\n      swap1\n      dup2\n      mstore\n      0x20\n      add\n      0x00\n      keccak256\n      sload\n        /* \"simpleToken.sol\":3475:3516  uint256 senderBalance = _balances[sender] */\n      swap1\n      pop\n        /* \"simpleToken.sol\":3551:3557  amount */\n      dup2\n        /* \"simpleToken.sol\":3534:3547  senderBalance */\n      dup2\n        /* \"simpleToken.sol\":3534:3557  senderBalance >= amount */\n      lt\n      iszero\n        /* \"simpleToken.sol\":3526:3600  require(senderBalance >= amount, \"ERC20: transfer amount exceeds balance\") */\n      tag_141\n      jumpi\n      mload(0x40)\n      0x08c379a000000000000000000000000000000000000000000000000000000000\n      dup2\n      mstore\n      0x04\n      add\n      tag_142\n      swap1\n      tag_143\n      jump\t// in\n    tag_142:\n      mload(0x40)\n      dup1\n      swap2\n      sub\n      swap1\n      revert\n    tag_141:\n        /* \"simpleToken.sol\":3646:3652  amount */\n      dup2\n        /* \"simpleToken.sol\":3630:3643  senderBalance */\n      dup2\n        /* \"simpleToken.sol\":3630:3652  senderBalance - amount */\n      tag_144\n      swap2\n      swap1\n      tag_99\n      jump\t// in\n    tag_144:\n        /* \"simpleToken.sol\":3610:3619  _balances */\n      0x00\n        /* \"simpleToken.sol\":3610:3627  _balances[sender] */\n      dup1\n        /* \"simpleToken.sol\":3620:3626  sender */\n      dup7\n        /* \"simpleToken.sol\":3610:3627  _balances[sender] */\n      0xffffffffffffffffffffffffffffffffffffffff\n      and\n      0xffffffffffffffffffffffffffffffffffffffff\n      and\n      dup2\n      mstore\n      0x20\n      add\n      swap1\n      dup2\n      mstore\n      0x20\n      add\n      0x00\n      keccak256\n        /* \"simpleToken.sol\":3610:3652  _balances[sender] = senderBalance - amount */\n      dup2\n      swap1\n      sstore\n      pop\n        /* \"simpleToken.sol\":3686:3692  amount */\n      dup2\n        /* \"simpleToken.sol\":3662:3671  _balances */\n      0x00\n        /* \"simpleToken.sol\":3662:3682  _balances[recipient] */\n      dup1\n        /* \"simpleToken.sol\":3672:3681  recipient */\n      dup6\n        /* \"simpleToken.sol\":3662:3682  _balances[recipient] */\n      0xffffffffffffffffffffffffffffffffffffffff\n      and\n      0xffffffffffffffffffffffffffffffffffffffff\n      and\n      dup2\n      mstore\n      0x20\n      add\n      swap1\n      dup2\n      mstore\n      0x20\n      add\n      0x00\n      keccak256\n      0x00\n        /* \"simpleToken.sol\":3662:3692  _balances[recipient] += amount */\n      dup3\n      dup3\n      sload\n      tag_145\n      swap2\n      swap1\n      tag_146\n      jump\t// in\n    tag_145:\n      swap3\n      pop\n      pop\n      dup2\n      swap1\n      sstore\n      pop\n        /* \"simpleToken.sol\":3304:3699  {... */\n      pop\n        /* \"simpleToken.sol\":3217:3699  function _transfer(address sender, address recipient, uint256 amount) internal virtual {... */\n      pop\n      pop\n      pop\n      jump\t// out\n        /* \"#utility.yul\":88:205   */\n    tag_148:\n        /* \"#utility.yul\":197:198   */\n      0x00\n        /* \"#utility.yul\":194:195   */\n      dup1\n        /* \"#utility.yul\":187:199   */\n      revert\n        /* \"#utility.yul\":334:460   */\n    tag_150:\n        /* \"#utility.yul\":371:378   */\n      0x00\n        /* \"#utility.yul\":411:453   */\n      0xffffffffffffffffffffffffffffffffffffffff\n        /* \"#utility.yul\":404:409   */\n      dup3\n        /* \"#utility.yul\":400:454   */\n      and\n        /* \"#utility.yul\":389:454   */\n      swap1\n      pop\n        /* \"#utility.yul\":334:460   */\n      swap2\n      swap1\n      pop\n      jump\t// out\n        /* \"#utility.yul\":466:562   */\n    tag_151:\n        /* \"#utility.yul\":503:510   */\n      0x00\n        /* \"#utility.yul\":532:556   */\n      tag_191\n        /* \"#utility.yul\":550:555   */\n      dup3\n        /* \"#utility.yul\":532:556   */\n      tag_150\n      jump\t// in\n    tag_191:\n        /* \"#utility.yul\":521:556   */\n      swap1\n      pop\n        /* \"#utility.yul\":466:562   */\n      swap2\n      swap1\n      pop\n      jump\t// out\n        /* \"#utility.yul\":568:690   */\n    tag_152:\n        /* \"#utility.yul\":641:665   */\n      tag_193\n        /* \"#utility.yul\":659:664   */\n      dup2\n        /* \"#utility.yul\":641:665   */\n      tag_151\n      jump\t// in\n    tag_193:\n        /* \"#utility.yul\":634:639   */\n      dup2\n        /* \"#utility.yul\":631:666   */\n      eq\n        /* \"#utility.yul\":621:684   */\n      tag_194\n      jumpi\n        /* \"#utility.yul\":680:681   */\n      0x00\n        /* \"#utility.yul\":677:678   */\n      dup1\n        /* \"#utility.yul\":670:682   */\n      revert\n        /* \"#utility.yul\":621:684   */\n    tag_194:\n        /* \"#utility.yul\":568:690   */\n      pop\n      jump\t// out\n        /* \"#utility.yul\":696:835   */\n    tag_153:\n        /* \"#utility.yul\":742:747   */\n      0x00\n        /* \"#utility.yul\":780:786   */\n      dup2\n        /* \"#utility.yul\":767:787   */\n      calldataload\n        /* \"#utility.yul\":758:787   */\n      swap1\n      pop\n        /* \"#utility.yul\":796:829   */\n      tag_196\n        /* \"#utility.yul\":823:828   */\n      dup2\n        /* \"#utility.yul\":796:829   */\n      tag_152\n      jump\t// in\n    tag_196:\n        /* \"#utility.yul\":696:835   */\n      swap3\n      swap2\n      pop\n      pop\n      jump\t// out\n        /* \"#utility.yul\":841:1315   */\n    tag_22:\n        /* \"#utility.yul\":909:915   */\n      0x00\n        /* \"#utility.yul\":917:923   */\n      dup1\n        /* \"#utility.yul\":966:968   */\n      0x40\n        /* \"#utility.yul\":954:963   */\n      dup4\n        /* \"#utility.yul\":945:952   */\n      dup6\n        /* \"#utility.yul\":941:964   */\n      sub\n        /* \"#utility.yul\":937:969   */\n      slt\n        /* \"#utility.yul\":934:1053   */\n      iszero\n      tag_198\n      jumpi\n        /* \"#utility.yul\":972:1051   */\n      tag_199\n      tag_148\n      jump\t// in\n    tag_199:\n        /* \"#utility.yul\":934:1053   */\n    tag_198:\n        /* \"#utility.yul\":1092:1093   */\n      0x00\n        /* \"#utility.yul\":1117:1170   */\n      tag_200\n        /* \"#utility.yul\":1162:1169   */\n      dup6\n        /* \"#utility.yul\":1153:1159   */\n      dup3\n        /* \"#utility.yul\":1142:1151   */\n      dup7\n        /* \"#utility.yul\":1138:1160   */\n      add\n        /* \"#utility.yul\":1117:1170   */\n      tag_153\n      jump\t// in\n    tag_200:\n        /* \"#utility.yul\":1107:1170   */\n      swap3\n      pop\n        /* \"#utility.yul\":1063:1180   */\n      pop\n        /* \"#utility.yul\":1219:1221   */\n      0x20\n        /* \"#utility.yul\":1245:1298   */\n      tag_201\n        /* \"#utility.yul\":1290:1297   */\n      dup6\n        /* \"#utility.yul\":1281:1287   */\n      dup3\n        /* \"#utility.yul\":1270:1279   */\n      dup7\n        /* \"#utility.yul\":1266:1288   */\n      add\n        /* \"#utility.yul\":1245:1298   */\n      tag_153\n      jump\t// in\n    tag_201:\n        /* \"#utility.yul\":1235:1298   */\n      swap2\n      pop\n        /* \"#utility.yul\":1190:1308   */\n      pop\n        /* \"#utility.yul\":841:1315   */\n      swap3\n      pop\n      swap3\n      swap1\n      pop\n      jump\t// out\n        /* \"#utility.yul\":1321:1398   */\n    tag_154:\n        /* \"#utility.yul\":1358:1365   */\n      0x00\n        /* \"#utility.yul\":1387:1392   */\n      dup2\n        /* \"#utility.yul\":1376:1392   */\n      swap1\n      pop\n        /* \"#utility.yul\":1321:1398   */\n      swap2\n      swap1\n      pop\n      jump\t// out\n        /* \"#utility.yul\":1404:1522   */\n    tag_155:\n        /* \"#utility.yul\":1491:1515   */\n      tag_204\n        /* \"#utility.yul\":1509:1514   */\n      dup2\n        /* \"#utility.yul\":1491:1515   */\n      tag_154\n      jump\t// in\n    tag_204:\n        /* \"#utility.yul\":1486:1489   */\n      dup3\n        /* \"#utility.yul\":1479:1516   */\n      mstore\n        /* \"#utility.yul\":1404:1522   */\n      pop\n      pop\n      jump\t// out\n        /* \"#utility.yul\":1528:1750   */\n    tag_25:\n        /* \"#utility.yul\":1621:1625   */\n      0x00\n        /* \"#utility.yul\":1659:1661   */\n      0x20\n        /* \"#utility.yul\":1648:1657   */\n      dup3\n        /* \"#utility.yul\":1644:1662   */\n      add\n        /* \"#utility.yul\":1636:1662   */\n      swap1\n      pop\n        /* \"#utility.yul\":1672:1743   */\n      tag_206\n        /* \"#utility.yul\":1740:1741   */\n      0x00\n        /* \"#utility.yul\":1729:1738   */\n      dup4\n        /* \"#utility.yul\":1725:1742   */\n      add\n        /* \"#utility.yul\":1716:1722   */\n      dup5\n        /* \"#utility.yul\":1672:1743   */\n      tag_155\n      jump\t// in\n    tag_206:\n        /* \"#utility.yul\":1528:1750   */\n      swap3\n      swap2\n      pop\n      pop\n      jump\t// out\n        /* \"#utility.yul\":1756:1855   */\n    tag_156:\n        /* \"#utility.yul\":1808:1814   */\n      0x00\n        /* \"#utility.yul\":1842:1847   */\n      dup2\n        /* \"#utility.yul\":1836:1848   */\n      mload\n        /* \"#utility.yul\":1826:1848   */\n      swap1\n      pop\n        /* \"#utility.yul\":1756:1855   */\n      swap2\n      swap1\n      pop\n      jump\t// out\n        /* \"#utility.yul\":1861:2030   */\n    tag_157:\n        /* \"#utility.yul\":1945:1956   */\n      0x00\n        /* \"#utility.yul\":1979:1985   */\n      dup3\n        /* \"#utility.yul\":1974:1977   */\n      dup3\n        /* \"#utility.yul\":1967:1986   */\n      mstore\n        /* \"#utility.yul\":2019:2023   */\n      0x20\n        /* \"#utility.yul\":2014:2017   */\n      dup3\n        /* \"#utility.yul\":2010:2024   */\n      add\n        /* \"#utility.yul\":1995:2024   */\n      swap1\n      pop\n        /* \"#utility.yul\":1861:2030   */\n      swap3\n      swap2\n      pop\n      pop\n      jump\t// out\n        /* \"#utility.yul\":2036:2343   */\n    tag_158:\n        /* \"#utility.yul\":2104:2105   */\n      0x00\n        /* \"#utility.yul\":2114:2227   */\n    tag_210:\n        /* \"#utility.yul\":2128:2134   */\n      dup4\n        /* \"#utility.yul\":2125:2126   */\n      dup2\n        /* \"#utility.yul\":2122:2135   */\n      lt\n        /* \"#utility.yul\":2114:2227   */\n      iszero\n      tag_212\n      jumpi\n        /* \"#utility.yul\":2213:2214   */\n      dup1\n        /* \"#utility.yul\":2208:2211   */\n      dup3\n        /* \"#utility.yul\":2204:2215   */\n      add\n        /* \"#utility.yul\":2198:2216   */\n      mload\n        /* \"#utility.yul\":2194:2195   */\n      dup2\n        /* \"#utility.yul\":2189:2192   */\n      dup5\n        /* \"#utility.yul\":2185:2196   */\n      add\n        /* \"#utility.yul\":2178:2217   */\n      mstore\n        /* \"#utility.yul\":2150:2152   */\n      0x20\n        /* \"#utility.yul\":2147:2148   */\n      dup2\n        /* \"#utility.yul\":2143:2153   */\n      add\n        /* \"#utility.yul\":2138:2153   */\n      swap1\n      pop\n        /* \"#utility.yul\":2114:2227   */\n      jump(tag_210)\n    tag_212:\n        /* \"#utility.yul\":2245:2251   */\n      dup4\n        /* \"#utility.yul\":2242:2243   */\n      dup2\n        /* \"#utility.yul\":2239:2252   */\n      gt\n        /* \"#utility.yul\":2236:2337   */\n      iszero\n      tag_213\n      jumpi\n        /* \"#utility.yul\":2325:2326   */\n      0x00\n        /* \"#utility.yul\":2316:2322   */\n      dup5\n        /* \"#utility.yul\":2311:2314   */\n      dup5\n        /* \"#utility.yul\":2307:2323   */\n      add\n        /* \"#utility.yul\":2300:2327   */\n      mstore\n        /* \"#utility.yul\":2236:2337   */\n    tag_213:\n        /* \"#utility.yul\":2085:2343   */\n      pop\n        /* \"#utility.yul\":2036:2343   */\n      pop\n      pop\n      pop\n      jump\t// out\n        /* \"#utility.yul\":2349:2451   */\n    tag_159:\n        /* \"#utility.yul\":2390:2396   */\n      0x00\n        /* \"#utility.yul\":2441:2443   */\n      0x1f\n        /* \"#utility.yul\":2437:2444   */\n      not\n        /* \"#utility.yul\":2432:2434   */\n      0x1f\n        /* \"#utility.yul\":2425:2430   */\n      dup4\n        /* \"#utility.yul\":2421:2435   */\n      add\n        /* \"#utility.yul\":2417:2445   */\n      and\n        /* \"#utility.yul\":2407:2445   */\n      swap1\n      pop\n        /* \"#utility.yul\":2349:2451   */\n      swap2\n      swap1\n      pop\n      jump\t// out\n        /* \"#utility.yul\":2457:2821   */\n    tag_160:\n        /* \"#utility.yul\":2545:2548   */\n      0x00\n        /* \"#utility.yul\":2573:2612   */\n      tag_216\n        /* \"#utility.yul\":2606:2611   */\n      dup3\n        /* \"#utility.yul\":2573:2612   */\n      tag_156\n      jump\t// in\n    tag_216:\n        /* \"#utility.yul\":2628:2699   */\n      tag_217\n        /* \"#utility.yul\":2692:2698   */\n      dup2\n        /* \"#utility.yul\":2687:2690   */\n      dup6\n        /* \"#utility.yul\":2628:2699   */\n      tag_157\n      jump\t// in\n    tag_217:\n        /* \"#utility.yul\":2621:2699   */\n      swap4\n      pop\n        /* \"#utility.yul\":2708:2760   */\n      tag_218\n        /* \"#utility.yul\":2753:2759   */\n      dup2\n        /* \"#utility.yul\":2748:2751   */\n      dup6\n        /* \"#utility.yul\":2741:2745   */\n      0x20\n        /* \"#utility.yul\":2734:2739   */\n      dup7\n        /* \"#utility.yul\":2730:2746   */\n      add\n        /* \"#utility.yul\":2708:2760   */\n      tag_158\n      jump\t// in\n    tag_218:\n        /* \"#utility.yul\":2785:2814   */\n      tag_219\n        /* \"#utility.yul\":2807:2813   */\n      dup2\n        /* \"#utility.yul\":2785:2814   */\n      tag_159\n      jump\t// in\n    tag_219:\n        /* \"#utility.yul\":2780:2783   */\n      dup5\n        /* \"#utility.yul\":2776:2815   */\n      add\n        /* \"#utility.yul\":2769:2815   */\n      swap2\n      pop\n        /* \"#utility.yul\":2549:2821   */\n      pop\n        /* \"#utility.yul\":2457:2821   */\n      swap3\n      swap2\n      pop\n      pop\n      jump\t// out\n        /* \"#utility.yul\":2827:3140   */\n    tag_29:\n        /* \"#utility.yul\":2940:2944   */\n      0x00\n        /* \"#utility.yul\":2978:2980   */\n      0x20\n        /* \"#utility.yul\":2967:2976   */\n      dup3\n        /* \"#utility.yul\":2963:2981   */\n      add\n        /* \"#utility.yul\":2955:2981   */\n      swap1\n      pop\n        /* \"#utility.yul\":3027:3036   */\n      dup2\n        /* \"#utility.yul\":3021:3025   */\n      dup2\n        /* \"#utility.yul\":3017:3037   */\n      sub\n        /* \"#utility.yul\":3013:3014   */\n      0x00\n        /* \"#utility.yul\":3002:3011   */\n      dup4\n        /* \"#utility.yul\":2998:3015   */\n      add\n        /* \"#utility.yul\":2991:3038   */\n      mstore\n        /* \"#utility.yul\":3055:3133   */\n      tag_221\n        /* \"#utility.yul\":3128:3132   */\n      dup2\n        /* \"#utility.yul\":3119:3125   */\n      dup5\n        /* \"#utility.yul\":3055:3133   */\n      tag_160\n      jump\t// in\n    tag_221:\n        /* \"#utility.yul\":3047:3133   */\n      swap1\n      pop\n        /* \"#utility.yul\":2827:3140   */\n      swap3\n      swap2\n      pop\n      pop\n      jump\t// out\n        /* \"#utility.yul\":3146:3268   */\n    tag_161:\n        /* \"#utility.yul\":3219:3243   */\n      tag_223\n        /* \"#utility.yul\":3237:3242   */\n      dup2\n        /* \"#utility.yul\":3219:3243   */\n      tag_154\n      jump\t// in\n    tag_223:\n        /* \"#utility.yul\":3212:3217   */\n      dup2\n        /* \"#utility.yul\":3209:3244   */\n      eq\n        /* \"#utility.yul\":3199:3262   */\n      tag_224\n      jumpi\n        /* \"#utility.yul\":3258:3259   */\n      0x00\n        /* \"#utility.yul\":3255:3256   */\n      dup1\n        /* \"#utility.yul\":3248:3260   */\n      revert\n        /* \"#utility.yul\":3199:3262   */\n    tag_224:\n        /* \"#utility.yul\":3146:3268   */\n      pop\n      jump\t// out\n        /* \"#utility.yul\":3274:3413   */\n    tag_162:\n        /* \"#utility.yul\":3320:3325   */\n      0x00\n        /* \"#utility.yul\":3358:3364   */\n      dup2\n        /* \"#utility.yul\":3345:3365   */\n      calldataload\n        /* \"#utility.yul\":3336:3365   */\n      swap1\n      pop\n        /* \"#utility.yul\":3374:3407   */\n      tag_226\n        /* \"#utility.yul\":3401:3406   */\n      dup2\n        /* \"#utility.yul\":3374:3407   */\n      tag_161\n      jump\t// in\n    tag_226:\n        /* \"#utility.yul\":3274:3413   */\n      swap3\n      swap2\n      pop\n      pop\n      jump\t// out\n        /* \"#utility.yul\":3419:3893   */\n    tag_32:\n        /* \"#utility.yul\":3487:3493   */\n      0x00\n        /* \"#utility.yul\":3495:3501   */\n      dup1\n        /* \"#utility.yul\":3544:3546   */\n      0x40\n        /* \"#utility.yul\":3532:3541   */\n      dup4\n        /* \"#utility.yul\":3523:3530   */\n      dup6\n        /* \"#utility.yul\":3519:3542   */\n      sub\n        /* \"#utility.yul\":3515:3547   */\n      slt\n        /* \"#utility.yul\":3512:3631   */\n      iszero\n      tag_228\n      jumpi\n        /* \"#utility.yul\":3550:3629   */\n      tag_229\n      tag_148\n      jump\t// in\n    tag_229:\n        /* \"#utility.yul\":3512:3631   */\n    tag_228:\n        /* \"#utility.yul\":3670:3671   */\n      0x00\n        /* \"#utility.yul\":3695:3748   */\n      tag_230\n        /* \"#utility.yul\":3740:3747   */\n      dup6\n        /* \"#utility.yul\":3731:3737   */\n      dup3\n        /* \"#utility.yul\":3720:3729   */\n      dup7\n        /* \"#utility.yul\":3716:3738   */\n      add\n        /* \"#utility.yul\":3695:3748   */\n      tag_153\n      jump\t// in\n    tag_230:\n        /* \"#utility.yul\":3685:3748   */\n      swap3\n      pop\n        /* \"#utility.yul\":3641:3758   */\n      pop\n        /* \"#utility.yul\":3797:3799   */\n      0x20\n        /* \"#utility.yul\":3823:3876   */\n      tag_231\n        /* \"#utility.yul\":3868:3875   */\n      dup6\n        /* \"#utility.yul\":3859:3865   */\n      dup3\n        /* \"#utility.yul\":3848:3857   */\n      dup7\n        /* \"#utility.yul\":3844:3866   */\n      add\n        /* \"#utility.yul\":3823:3876   */\n      tag_162\n      jump\t// in\n    tag_231:\n        /* \"#utility.yul\":3813:3876   */\n      swap2\n      pop\n        /* \"#utility.yul\":3768:3886   */\n      pop\n        /* \"#utility.yul\":3419:3893   */\n      swap3\n      pop\n      swap3\n      swap1\n      pop\n      jump\t// out\n        /* \"#utility.yul\":3899:3989   */\n    tag_163:\n        /* \"#utility.yul\":3933:3940   */\n      0x00\n        /* \"#utility.yul\":3976:3981   */\n      dup2\n        /* \"#utility.yul\":3969:3982   */\n      iszero\n        /* \"#utility.yul\":3962:3983   */\n      iszero\n        /* \"#utility.yul\":3951:3983   */\n      swap1\n      pop\n        /* \"#utility.yul\":3899:3989   */\n      swap2\n      swap1\n      pop\n      jump\t// out\n        /* \"#utility.yul\":3995:4104   */\n    tag_164:\n        /* \"#utility.yul\":4076:4097   */\n      tag_234\n        /* \"#utility.yul\":4091:4096   */\n      dup2\n        /* \"#utility.yul\":4076:4097   */\n      tag_163\n      jump\t// in\n    tag_234:\n        /* \"#utility.yul\":4071:4074   */\n      dup3\n        /* \"#utility.yul\":4064:4098   */\n      mstore\n        /* \"#utility.yul\":3995:4104   */\n      pop\n      pop\n      jump\t// out\n        /* \"#utility.yul\":4110:4320   */\n    tag_35:\n        /* \"#utility.yul\":4197:4201   */\n      0x00\n        /* \"#utility.yul\":4235:4237   */\n      0x20\n        /* \"#utility.yul\":4224:4233   */\n      dup3\n        /* \"#utility.yul\":4220:4238   */\n      add\n        /* \"#utility.yul\":4212:4238   */\n      swap1\n      pop\n        /* \"#utility.yul\":4248:4313   */\n      tag_236\n        /* \"#utility.yul\":4310:4311   */\n      0x00\n        /* \"#utility.yul\":4299:4308   */\n      dup4\n        /* \"#utility.yul\":4295:4312   */\n      add\n        /* \"#utility.yul\":4286:4292   */\n      dup5\n        /* \"#utility.yul\":4248:4313   */\n      tag_164\n      jump\t// in\n    tag_236:\n        /* \"#utility.yul\":4110:4320   */\n      swap3\n      swap2\n      pop\n      pop\n      jump\t// out\n        /* \"#utility.yul\":4326:4945   */\n    tag_41:\n        /* \"#utility.yul\":4403:4409   */\n      0x00\n        /* \"#utility.yul\":4411:4417   */\n      dup1\n        /* \"#utility.yul\":4419:4425   */\n      0x00\n        /* \"#utility.yul\":4468:4470   */\n      0x60\n        /* \"#utility.yul\":4456:4465   */\n      dup5\n        /* \"#utility.yul\":4447:4454   */\n      dup7\n        /* \"#utility.yul\":4443:4466   */\n      sub\n        /* \"#utility.yul\":4439:4471   */\n      slt\n        /* \"#utility.yul\":4436:4555   */\n      iszero\n      tag_238\n      jumpi\n        /* \"#utility.yul\":4474:4553   */\n      tag_239\n      tag_148\n      jump\t// in\n    tag_239:\n        /* \"#utility.yul\":4436:4555   */\n    tag_238:\n        /* \"#utility.yul\":4594:4595   */\n      0x00\n        /* \"#utility.yul\":4619:4672   */\n      tag_240\n        /* \"#utility.yul\":4664:4671   */\n      dup7\n        /* \"#utility.yul\":4655:4661   */\n      dup3\n        /* \"#utility.yul\":4644:4653   */\n      dup8\n        /* \"#utility.yul\":4640:4662   */\n      add\n        /* \"#utility.yul\":4619:4672   */\n      tag_153\n      jump\t// in\n    tag_240:\n        /* \"#utility.yul\":4609:4672   */\n      swap4\n      pop\n        /* \"#utility.yul\":4565:4682   */\n      pop\n        /* \"#utility.yul\":4721:4723   */\n      0x20\n        /* \"#utility.yul\":4747:4800   */\n      tag_241\n        /* \"#utility.yul\":4792:4799   */\n      dup7\n        /* \"#utility.yul\":4783:4789   */\n      dup3\n        /* \"#utility.yul\":4772:4781   */\n      dup8\n        /* \"#utility.yul\":4768:4790   */\n      add\n        /* \"#utility.yul\":4747:4800   */\n      tag_153\n      jump\t// in\n    tag_241:\n        /* \"#utility.yul\":4737:4800   */\n      swap3\n      pop\n        /* \"#utility.yul\":4692:4810   */\n      pop\n        /* \"#utility.yul\":4849:4851   */\n      0x40\n        /* \"#utility.yul\":4875:4928   */\n      tag_242\n        /* \"#utility.yul\":4920:4927   */\n      dup7\n        /* \"#utility.yul\":4911:4917   */\n      dup3\n        /* \"#utility.yul\":4900:4909   */\n      dup8\n        /* \"#utility.yul\":4896:4918   */\n      add\n        /* \"#utility.yul\":4875:4928   */\n      tag_162\n      jump\t// in\n    tag_242:\n        /* \"#utility.yul\":4865:4928   */\n      swap2\n      pop\n        /* \"#utility.yul\":4820:4938   */\n      pop\n        /* \"#utility.yul\":4326:4945   */\n      swap3\n      pop\n      swap3\n      pop\n      swap3\n      jump\t// out\n        /* \"#utility.yul\":4951:5037   */\n    tag_165:\n        /* \"#utility.yul\":4986:4993   */\n      0x00\n        /* \"#utility.yul\":5026:5030   */\n      0xff\n        /* \"#utility.yul\":5019:5024   */\n      dup3\n        /* \"#utility.yul\":5015:5031   */\n      and\n        /* \"#utility.yul\":5004:5031   */\n      swap1\n      pop\n        /* \"#utility.yul\":4951:5037   */\n      swap2\n      swap1\n      pop\n      jump\t// out\n        /* \"#utility.yul\":5043:5155   */\n    tag_166:\n        /* \"#utility.yul\":5126:5148   */\n      tag_245\n        /* \"#utility.yul\":5142:5147   */\n      dup2\n        /* \"#utility.yul\":5126:5148   */\n      tag_165\n      jump\t// in\n    tag_245:\n        /* \"#utility.yul\":5121:5124   */\n      dup3\n        /* \"#utility.yul\":5114:5149   */\n      mstore\n        /* \"#utility.yul\":5043:5155   */\n      pop\n      pop\n      jump\t// out\n        /* \"#utility.yul\":5161:5375   */\n    tag_47:\n        /* \"#utility.yul\":5250:5254   */\n      0x00\n        /* \"#utility.yul\":5288:5290   */\n      0x20\n        /* \"#utility.yul\":5277:5286   */\n      dup3\n        /* \"#utility.yul\":5273:5291   */\n      add\n        /* \"#utility.yul\":5265:5291   */\n      swap1\n      pop\n        /* \"#utility.yul\":5301:5368   */\n      tag_247\n        /* \"#utility.yul\":5365:5366   */\n      0x00\n        /* \"#utility.yul\":5354:5363   */\n      dup4\n        /* \"#utility.yul\":5350:5367   */\n      add\n        /* \"#utility.yul\":5341:5347   */\n      dup5\n        /* \"#utility.yul\":5301:5368   */\n      tag_166\n      jump\t// in\n    tag_247:\n        /* \"#utility.yul\":5161:5375   */\n      swap3\n      swap2\n      pop\n      pop\n      jump\t// out\n        /* \"#utility.yul\":5381:5710   */\n    tag_56:\n        /* \"#utility.yul\":5440:5446   */\n      0x00\n        /* \"#utility.yul\":5489:5491   */\n      0x20\n        /* \"#utility.yul\":5477:5486   */\n      dup3\n        /* \"#utility.yul\":5468:5475   */\n      dup5\n        /* \"#utility.yul\":5464:5487   */\n      sub\n        /* \"#utility.yul\":5460:5492   */\n      slt\n        /* \"#utility.yul\":5457:5576   */\n      iszero\n      tag_249\n      jumpi\n        /* \"#utility.yul\":5495:5574   */\n      tag_250\n      tag_148\n      jump\t// in\n    tag_250:\n        /* \"#utility.yul\":5457:5576   */\n    tag_249:\n        /* \"#utility.yul\":5615:5616   */\n      0x00\n        /* \"#utility.yul\":5640:5693   */\n      tag_251\n        /* \"#utility.yul\":5685:5692   */\n      dup5\n        /* \"#utility.yul\":5676:5682   */\n      dup3\n        /* \"#utility.yul\":5665:5674   */\n      dup6\n        /* \"#utility.yul\":5661:5683   */\n      add\n        /* \"#utility.yul\":5640:5693   */\n      tag_153\n      jump\t// in\n    tag_251:\n        /* \"#utility.yul\":5630:5693   */\n      swap2\n      pop\n        /* \"#utility.yul\":5586:5703   */\n      pop\n        /* \"#utility.yul\":5381:5710   */\n      swap3\n      swap2\n      pop\n      pop\n      jump\t// out\n        /* \"#utility.yul\":5716:5896   */\n    tag_167:\n        /* \"#utility.yul\":5764:5841   */\n      0x4e487b7100000000000000000000000000000000000000000000000000000000\n        /* \"#utility.yul\":5761:5762   */\n      0x00\n        /* \"#utility.yul\":5754:5842   */\n      mstore\n        /* \"#utility.yul\":5861:5865   */\n      0x22\n        /* \"#utility.yul\":5858:5859   */\n      0x04\n        /* \"#utility.yul\":5851:5866   */\n      mstore\n        /* \"#utility.yul\":5885:5889   */\n      0x24\n        /* \"#utility.yul\":5882:5883   */\n      0x00\n        /* \"#utility.yul\":5875:5890   */\n      revert\n        /* \"#utility.yul\":5902:6222   */\n    tag_78:\n        /* \"#utility.yul\":5946:5952   */\n      0x00\n        /* \"#utility.yul\":5983:5984   */\n      0x02\n        /* \"#utility.yul\":5977:5981   */\n      dup3\n        /* \"#utility.yul\":5973:5985   */\n      div\n        /* \"#utility.yul\":5963:5985   */\n      swap1\n      pop\n        /* \"#utility.yul\":6030:6031   */\n      0x01\n        /* \"#utility.yul\":6024:6028   */\n      dup3\n        /* \"#utility.yul\":6020:6032   */\n      and\n        /* \"#utility.yul\":6051:6069   */\n      dup1\n        /* \"#utility.yul\":6041:6122   */\n      tag_254\n      jumpi\n        /* \"#utility.yul\":6107:6111   */\n      0x7f\n        /* \"#utility.yul\":6099:6105   */\n      dup3\n        /* \"#utility.yul\":6095:6112   */\n      and\n        /* \"#utility.yul\":6085:6112   */\n      swap2\n      pop\n        /* \"#utility.yul\":6041:6122   */\n    tag_254:\n        /* \"#utility.yul\":6169:6171   */\n      0x20\n        /* \"#utility.yul\":6161:6167   */\n      dup3\n        /* \"#utility.yul\":6158:6172   */\n      lt\n        /* \"#utility.yul\":6138:6156   */\n      dup2\n        /* \"#utility.yul\":6135:6173   */\n      sub\n        /* \"#utility.yul\":6132:6216   */\n      tag_255\n      jumpi\n        /* \"#utility.yul\":6188:6206   */\n      tag_256\n      tag_167\n      jump\t// in\n    tag_256:\n        /* \"#utility.yul\":6132:6216   */\n    tag_255:\n        /* \"#utility.yul\":5953:6222   */\n      pop\n        /* \"#utility.yul\":5902:6222   */\n      swap2\n      swap1\n      pop\n      jump\t// out\n        /* \"#utility.yul\":6228:6535   */\n    tag_168:\n        /* \"#utility.yul\":6368:6402   */\n      0x45524332303a2054686520616d6f756e7420746f206265207472616e73666572\n        /* \"#utility.yul\":6364:6365   */\n      0x00\n        /* \"#utility.yul\":6356:6362   */\n      dup3\n        /* \"#utility.yul\":6352:6366   */\n      add\n        /* \"#utility.yul\":6345:6403   */\n      mstore\n        /* \"#utility.yul\":6437:6471   */\n      0x72656420657863656564732074686520616d6f756e74206f6620746f6b656e73\n        /* \"#utility.yul\":6432:6434   */\n      0x20\n        /* \"#utility.yul\":6424:6430   */\n      dup3\n        /* \"#utility.yul\":6420:6435   */\n      add\n        /* \"#utility.yul\":6413:6472   */\n      mstore\n        /* \"#utility.yul\":6506:6527   */\n      0x2068656c6420627920746865206f776e65722e00000000000000000000000000\n        /* \"#utility.yul\":6501:6503   */\n      0x40\n        /* \"#utility.yul\":6493:6499   */\n      dup3\n        /* \"#utility.yul\":6489:6504   */\n      add\n        /* \"#utility.yul\":6482:6528   */\n      mstore\n        /* \"#utility.yul\":6228:6535   */\n      pop\n      jump\t// out\n        /* \"#utility.yul\":6541:6907   */\n    tag_169:\n        /* \"#utility.yul\":6683:6686   */\n      0x00\n        /* \"#utility.yul\":6704:6771   */\n      tag_259\n        /* \"#utility.yul\":6768:6770   */\n      0x53\n        /* \"#utility.yul\":6763:6766   */\n      dup4\n        /* \"#utility.yul\":6704:6771   */\n      tag_157\n      jump\t// in\n    tag_259:\n        /* \"#utility.yul\":6697:6771   */\n      swap2\n      pop\n        /* \"#utility.yul\":6780:6873   */\n      tag_260\n        /* \"#utility.yul\":6869:6872   */\n      dup3\n        /* \"#utility.yul\":6780:6873   */\n      tag_168\n      jump\t// in\n    tag_260:\n        /* \"#utility.yul\":6898:6900   */\n      0x60\n        /* \"#utility.yul\":6893:6896   */\n      dup3\n        /* \"#utility.yul\":6889:6901   */\n      add\n        /* \"#utility.yul\":6882:6901   */\n      swap1\n      pop\n        /* \"#utility.yul\":6541:6907   */\n      swap2\n      swap1\n      pop\n      jump\t// out\n        /* \"#utility.yul\":6913:7332   */\n    tag_86:\n        /* \"#utility.yul\":7079:7083   */\n      0x00\n        /* \"#utility.yul\":7117:7119   */\n      0x20\n        /* \"#utility.yul\":7106:7115   */\n      dup3\n        /* \"#utility.yul\":7102:7120   */\n      add\n        /* \"#utility.yul\":7094:7120   */\n      swap1\n      pop\n        /* \"#utility.yul\":7166:7175   */\n      dup2\n        /* \"#utility.yul\":7160:7164   */\n      dup2\n        /* \"#utility.yul\":7156:7176   */\n      sub\n        /* \"#utility.yul\":7152:7153   */\n      0x00\n        /* \"#utility.yul\":7141:7150   */\n      dup4\n        /* \"#utility.yul\":7137:7154   */\n      add\n        /* \"#utility.yul\":7130:7177   */\n      mstore\n        /* \"#utility.yul\":7194:7325   */\n      tag_262\n        /* \"#utility.yul\":7320:7324   */\n      dup2\n        /* \"#utility.yul\":7194:7325   */\n      tag_169\n      jump\t// in\n    tag_262:\n        /* \"#utility.yul\":7186:7325   */\n      swap1\n      pop\n        /* \"#utility.yul\":6913:7332   */\n      swap2\n      swap1\n      pop\n      jump\t// out\n        /* \"#utility.yul\":7338:7565   */\n    tag_170:\n        /* \"#utility.yul\":7478:7512   */\n      0x45524332303a207472616e7366657220616d6f756e7420657863656564732061\n        /* \"#utility.yul\":7474:7475   */\n      0x00\n        /* \"#utility.yul\":7466:7472   */\n      dup3\n        /* \"#utility.yul\":7462:7476   */\n      add\n        /* \"#utility.yul\":7455:7513   */\n      mstore\n        /* \"#utility.yul\":7547:7557   */\n      0x6c6c6f77616e6365000000000000000000000000000000000000000000000000\n        /* \"#utility.yul\":7542:7544   */\n      0x20\n        /* \"#utility.yul\":7534:7540   */\n      dup3\n        /* \"#utility.yul\":7530:7545   */\n      add\n        /* \"#utility.yul\":7523:7558   */\n      mstore\n        /* \"#utility.yul\":7338:7565   */\n      pop\n      jump\t// out\n        /* \"#utility.yul\":7571:7937   */\n    tag_171:\n        /* \"#utility.yul\":7713:7716   */\n      0x00\n        /* \"#utility.yul\":7734:7801   */\n      tag_265\n        /* \"#utility.yul\":7798:7800   */\n      0x28\n        /* \"#utility.yul\":7793:7796   */\n      dup4\n        /* \"#utility.yul\":7734:7801   */\n      tag_157\n      jump\t// in\n    tag_265:\n        /* \"#utility.yul\":7727:7801   */\n      swap2\n      pop\n        /* \"#utility.yul\":7810:7903   */\n      tag_266\n        /* \"#utility.yul\":7899:7902   */\n      dup3\n        /* \"#utility.yul\":7810:7903   */\n      tag_170\n      jump\t// in\n    tag_266:\n        /* \"#utility.yul\":7928:7930   */\n      0x40\n        /* \"#utility.yul\":7923:7926   */\n      dup3\n        /* \"#utility.yul\":7919:7931   */\n      add\n        /* \"#utility.yul\":7912:7931   */\n      swap1\n      pop\n        /* \"#utility.yul\":7571:7937   */\n      swap2\n      swap1\n      pop\n      jump\t// out\n        /* \"#utility.yul\":7943:8362   */\n    tag_96:\n        /* \"#utility.yul\":8109:8113   */\n      0x00\n        /* \"#utility.yul\":8147:8149   */\n      0x20\n        /* \"#utility.yul\":8136:8145   */\n      dup3\n        /* \"#utility.yul\":8132:8150   */\n      add\n        /* \"#utility.yul\":8124:8150   */\n      swap1\n      pop\n        /* \"#utility.yul\":8196:8205   */\n      dup2\n        /* \"#utility.yul\":8190:8194   */\n      dup2\n        /* \"#utility.yul\":8186:8206   */\n      sub\n        /* \"#utility.yul\":8182:8183   */\n      0x00\n        /* \"#utility.yul\":8171:8180   */\n      dup4\n        /* \"#utility.yul\":8167:8184   */\n      add\n        /* \"#utility.yul\":8160:8207   */\n      mstore\n        /* \"#utility.yul\":8224:8355   */\n      tag_268\n        /* \"#utility.yul\":8350:8354   */\n      dup2\n        /* \"#utility.yul\":8224:8355   */\n      tag_171\n      jump\t// in\n    tag_268:\n        /* \"#utility.yul\":8216:8355   */\n      swap1\n      pop\n        /* \"#utility.yul\":7943:8362   */\n      swap2\n      swap1\n      pop\n      jump\t// out\n        /* \"#utility.yul\":8368:8548   */\n    tag_172:\n        /* \"#utility.yul\":8416:8493   */\n      0x4e487b7100000000000000000000000000000000000000000000000000000000\n        /* \"#utility.yul\":8413:8414   */\n      0x00\n        /* \"#utility.yul\":8406:8494   */\n      mstore\n        /* \"#utility.yul\":8513:8517   */\n      0x11\n        /* \"#utility.yul\":8510:8511   */\n      0x04\n        /* \"#utility.yul\":8503:8518   */\n      mstore\n        /* \"#utility.yul\":8537:8541   */\n      0x24\n        /* \"#utility.yul\":8534:8535   */\n      0x00\n        /* \"#utility.yul\":8527:8542   */\n      revert\n        /* \"#utility.yul\":8554:8745   */\n    tag_99:\n        /* \"#utility.yul\":8594:8598   */\n      0x00\n        /* \"#utility.yul\":8614:8634   */\n      tag_271\n        /* \"#utility.yul\":8632:8633   */\n      dup3\n        /* \"#utility.yul\":8614:8634   */\n      tag_154\n      jump\t// in\n    tag_271:\n        /* \"#utility.yul\":8609:8634   */\n      swap2\n      pop\n        /* \"#utility.yul\":8648:8668   */\n      tag_272\n        /* \"#utility.yul\":8666:8667   */\n      dup4\n        /* \"#utility.yul\":8648:8668   */\n      tag_154\n      jump\t// in\n    tag_272:\n        /* \"#utility.yul\":8643:8668   */\n      swap3\n      pop\n        /* \"#utility.yul\":8687:8688   */\n      dup3\n        /* \"#utility.yul\":8684:8685   */\n      dup3\n        /* \"#utility.yul\":8681:8689   */\n      lt\n        /* \"#utility.yul\":8678:8712   */\n      iszero\n      tag_273\n      jumpi\n        /* \"#utility.yul\":8692:8710   */\n      tag_274\n      tag_172\n      jump\t// in\n    tag_274:\n        /* \"#utility.yul\":8678:8712   */\n    tag_273:\n        /* \"#utility.yul\":8737:8738   */\n      dup3\n        /* \"#utility.yul\":8734:8735   */\n      dup3\n        /* \"#utility.yul\":8730:8739   */\n      sub\n        /* \"#utility.yul\":8722:8739   */\n      swap1\n      pop\n        /* \"#utility.yul\":8554:8745   */\n      swap3\n      swap2\n      pop\n      pop\n      jump\t// out\n        /* \"#utility.yul\":8751:8974   */\n    tag_173:\n        /* \"#utility.yul\":8891:8925   */\n      0x45524332303a20617070726f76652066726f6d20746865207a65726f20616464\n        /* \"#utility.yul\":8887:8888   */\n      0x00\n        /* \"#utility.yul\":8879:8885   */\n      dup3\n        /* \"#utility.yul\":8875:8889   */\n      add\n        /* \"#utility.yul\":8868:8926   */\n      mstore\n        /* \"#utility.yul\":8960:8966   */\n      0x7265737300000000000000000000000000000000000000000000000000000000\n        /* \"#utility.yul\":8955:8957   */\n      0x20\n        /* \"#utility.yul\":8947:8953   */\n      dup3\n        /* \"#utility.yul\":8943:8958   */\n      add\n        /* \"#utility.yul\":8936:8967   */\n      mstore\n        /* \"#utility.yul\":8751:8974   */\n      pop\n      jump\t// out\n        /* \"#utility.yul\":8980:9346   */\n    tag_174:\n        /* \"#utility.yul\":9122:9125   */\n      0x00\n        /* \"#utility.yul\":9143:9210   */\n      tag_277\n        /* \"#utility.yul\":9207:9209   */\n      0x24\n        /* \"#utility.yul\":9202:9205   */\n      dup4\n        /* \"#utility.yul\":9143:9210   */\n      tag_157\n      jump\t// in\n    tag_277:\n        /* \"#utility.yul\":9136:9210   */\n      swap2\n      pop\n        /* \"#utility.yul\":9219:9312   */\n      tag_278\n        /* \"#utility.yul\":9308:9311   */\n      dup3\n        /* \"#utility.yul\":9219:9312   */\n      tag_173\n      jump\t// in\n    tag_278:\n        /* \"#utility.yul\":9337:9339   */\n      0x40\n        /* \"#utility.yul\":9332:9335   */\n      dup3\n        /* \"#utility.yul\":9328:9340   */\n      add\n        /* \"#utility.yul\":9321:9340   */\n      swap1\n      pop\n        /* \"#utility.yul\":8980:9346   */\n      swap2\n      swap1\n      pop\n      jump\t// out\n        /* \"#utility.yul\":9352:9771   */\n    tag_125:\n        /* \"#utility.yul\":9518:9522   */\n      0x00\n        /* \"#utility.yul\":9556:9558   */\n      0x20\n        /* \"#utility.yul\":9545:9554   */\n      dup3\n        /* \"#utility.yul\":9541:9559   */\n      add\n        /* \"#utility.yul\":9533:9559   */\n      swap1\n      pop\n        /* \"#utility.yul\":9605:9614   */\n      dup2\n        /* \"#utility.yul\":9599:9603   */\n      dup2\n        /* \"#utility.yul\":9595:9615   */\n      sub\n        /* \"#utility.yul\":9591:9592   */\n      0x00\n        /* \"#utility.yul\":9580:9589   */\n      dup4\n        /* \"#utility.yul\":9576:9593   */\n      add\n        /* \"#utility.yul\":9569:9616   */\n      mstore\n        /* \"#utility.yul\":9633:9764   */\n      tag_280\n        /* \"#utility.yul\":9759:9763   */\n      dup2\n        /* \"#utility.yul\":9633:9764   */\n      tag_174\n      jump\t// in\n    tag_280:\n        /* \"#utility.yul\":9625:9764   */\n      swap1\n      pop\n        /* \"#utility.yul\":9352:9771   */\n      swap2\n      swap1\n      pop\n      jump\t// out\n        /* \"#utility.yul\":9777:9998   */\n    tag_175:\n        /* \"#utility.yul\":9917:9951   */\n      0x45524332303a20617070726f766520746f20746865207a65726f206164647265\n        /* \"#utility.yul\":9913:9914   */\n      0x00\n        /* \"#utility.yul\":9905:9911   */\n      dup3\n        /* \"#utility.yul\":9901:9915   */\n      add\n        /* \"#utility.yul\":9894:9952   */\n      mstore\n        /* \"#utility.yul\":9986:9990   */\n      0x7373000000000000000000000000000000000000000000000000000000000000\n        /* \"#utility.yul\":9981:9983   */\n      0x20\n        /* \"#utility.yul\":9973:9979   */\n      dup3\n        /* \"#utility.yul\":9969:9984   */\n      add\n        /* \"#utility.yul\":9962:9991   */\n      mstore\n        /* \"#utility.yul\":9777:9998   */\n      pop\n      jump\t// out\n        /* \"#utility.yul\":10004:10370   */\n    tag_176:\n        /* \"#utility.yul\":10146:10149   */\n      0x00\n        /* \"#utility.yul\":10167:10234   */\n      tag_283\n        /* \"#utility.yul\":10231:10233   */\n      0x22\n        /* \"#utility.yul\":10226:10229   */\n      dup4\n        /* \"#utility.yul\":10167:10234   */\n      tag_157\n      jump\t// in\n    tag_283:\n        /* \"#utility.yul\":10160:10234   */\n      swap2\n      pop\n        /* \"#utility.yul\":10243:10336   */\n      tag_284\n        /* \"#utility.yul\":10332:10335   */\n      dup3\n        /* \"#utility.yul\":10243:10336   */\n      tag_175\n      jump\t// in\n    tag_284:\n        /* \"#utility.yul\":10361:10363   */\n      0x40\n        /* \"#utility.yul\":10356:10359   */\n      dup3\n        /* \"#utility.yul\":10352:10364   */\n      add\n        /* \"#utility.yul\":10345:10364   */\n      swap1\n      pop\n        /* \"#utility.yul\":10004:10370   */\n      swap2\n      swap1\n      pop\n      jump\t// out\n        /* \"#utility.yul\":10376:10795   */\n    tag_128:\n        /* \"#utility.yul\":10542:10546   */\n      0x00\n        /* \"#utility.yul\":10580:10582   */\n      0x20\n        /* \"#utility.yul\":10569:10578   */\n      dup3\n        /* \"#utility.yul\":10565:10583   */\n      add\n        /* \"#utility.yul\":10557:10583   */\n      swap1\n      pop\n        /* \"#utility.yul\":10629:10638   */\n      dup2\n        /* \"#utility.yul\":10623:10627   */\n      dup2\n        /* \"#utility.yul\":10619:10639   */\n      sub\n        /* \"#utility.yul\":10615:10616   */\n      0x00\n        /* \"#utility.yul\":10604:10613   */\n      dup4\n        /* \"#utility.yul\":10600:10617   */\n      add\n        /* \"#utility.yul\":10593:10640   */\n      mstore\n        /* \"#utility.yul\":10657:10788   */\n      tag_286\n        /* \"#utility.yul\":10783:10787   */\n      dup2\n        /* \"#utility.yul\":10657:10788   */\n      tag_176\n      jump\t// in\n    tag_286:\n        /* \"#utility.yul\":10649:10788   */\n      swap1\n      pop\n        /* \"#utility.yul\":10376:10795   */\n      swap2\n      swap1\n      pop\n      jump\t// out\n        /* \"#utility.yul\":10801:10979   */\n    tag_177:\n        /* \"#utility.yul\":10941:10971   */\n      0x45524332303a20696e76616c69642063757272656e74416d6f756e7400000000\n        /* \"#utility.yul\":10937:10938   */\n      0x00\n        /* \"#utility.yul\":10929:10935   */\n      dup3\n        /* \"#utility.yul\":10925:10939   */\n      add\n        /* \"#utility.yul\":10918:10972   */\n      mstore\n        /* \"#utility.yul\":10801:10979   */\n      pop\n      jump\t// out\n        /* \"#utility.yul\":10985:11351   */\n    tag_178:\n        /* \"#utility.yul\":11127:11130   */\n      0x00\n        /* \"#utility.yul\":11148:11215   */\n      tag_289\n        /* \"#utility.yul\":11212:11214   */\n      0x1c\n        /* \"#utility.yul\":11207:11210   */\n      dup4\n        /* \"#utility.yul\":11148:11215   */\n      tag_157\n      jump\t// in\n    tag_289:\n        /* \"#utility.yul\":11141:11215   */\n      swap2\n      pop\n        /* \"#utility.yul\":11224:11317   */\n      tag_290\n        /* \"#utility.yul\":11313:11316   */\n      dup3\n        /* \"#utility.yul\":11224:11317   */\n      tag_177\n      jump\t// in\n    tag_290:\n        /* \"#utility.yul\":11342:11344   */\n      0x20\n        /* \"#utility.yul\":11337:11340   */\n      dup3\n        /* \"#utility.yul\":11333:11345   */\n      add\n        /* \"#utility.yul\":11326:11345   */\n      swap1\n      pop\n        /* \"#utility.yul\":10985:11351   */\n      swap2\n      swap1\n      pop\n      jump\t// out\n        /* \"#utility.yul\":11357:11776   */\n    tag_131:\n        /* \"#utility.yul\":11523:11527   */\n      0x00\n        /* \"#utility.yul\":11561:11563   */\n      0x20\n        /* \"#utility.yul\":11550:11559   */\n      dup3\n        /* \"#utility.yul\":11546:11564   */\n      add\n        /* \"#utility.yul\":11538:11564   */\n      swap1\n      pop\n        /* \"#utility.yul\":11610:11619   */\n      dup2\n        /* \"#utility.yul\":11604:11608   */\n      dup2\n        /* \"#utility.yul\":11600:11620   */\n      sub\n        /* \"#utility.yul\":11596:11597   */\n      0x00\n        /* \"#utility.yul\":11585:11594   */\n      dup4\n        /* \"#utility.yul\":11581:11598   */\n      add\n        /* \"#utility.yul\":11574:11621   */\n      mstore\n        /* \"#utility.yul\":11638:11769   */\n      tag_292\n        /* \"#utility.yul\":11764:11768   */\n      dup2\n        /* \"#utility.yul\":11638:11769   */\n      tag_178\n      jump\t// in\n    tag_292:\n        /* \"#utility.yul\":11630:11769   */\n      swap1\n      pop\n        /* \"#utility.yul\":11357:11776   */\n      swap2\n      swap1\n      pop\n      jump\t// out\n        /* \"#utility.yul\":11782:12114   */\n    tag_133:\n        /* \"#utility.yul\":11903:11907   */\n      0x00\n        /* \"#utility.yul\":11941:11943   */\n      0x40\n        /* \"#utility.yul\":11930:11939   */\n      dup3\n        /* \"#utility.yul\":11926:11944   */\n      add\n        /* \"#utility.yul\":11918:11944   */\n      swap1\n      pop\n        /* \"#utility.yul\":11954:12025   */\n      tag_294\n        /* \"#utility.yul\":12022:12023   */\n      0x00\n        /* \"#utility.yul\":12011:12020   */\n      dup4\n        /* \"#utility.yul\":12007:12024   */\n      add\n        /* \"#utility.yul\":11998:12004   */\n      dup6\n        /* \"#utility.yul\":11954:12025   */\n      tag_155\n      jump\t// in\n    tag_294:\n        /* \"#utility.yul\":12035:12107   */\n      tag_295\n        /* \"#utility.yul\":12103:12105   */\n      0x20\n        /* \"#utility.yul\":12092:12101   */\n      dup4\n        /* \"#utility.yul\":12088:12106   */\n      add\n        /* \"#utility.yul\":12079:12085   */\n      dup5\n        /* \"#utility.yul\":12035:12107   */\n      tag_155\n      jump\t// in\n    tag_295:\n        /* \"#utility.yul\":11782:12114   */\n      swap4\n      swap3\n      pop\n      pop\n      pop\n      jump\t// out\n        /* \"#utility.yul\":12120:12344   */\n    tag_179:\n        /* \"#utility.yul\":12260:12294   */\n      0x45524332303a207472616e736665722066726f6d20746865207a65726f206164\n        /* \"#utility.yul\":12256:12257   */\n      0x00\n        /* \"#utility.yul\":12248:12254   */\n      dup3\n        /* \"#utility.yul\":12244:12258   */\n      add\n        /* \"#utility.yul\":12237:12295   */\n      mstore\n        /* \"#utility.yul\":12329:12336   */\n      0x6472657373000000000000000000000000000000000000000000000000000000\n        /* \"#utility.yul\":12324:12326   */\n      0x20\n        /* \"#utility.yul\":12316:12322   */\n      dup3\n        /* \"#utility.yul\":12312:12327   */\n      add\n        /* \"#utility.yul\":12305:12337   */\n      mstore\n        /* \"#utility.yul\":12120:12344   */\n      pop\n      jump\t// out\n        /* \"#utility.yul\":12350:12716   */\n    tag_180:\n        /* \"#utility.yul\":12492:12495   */\n      0x00\n        /* \"#utility.yul\":12513:12580   */\n      tag_298\n        /* \"#utility.yul\":12577:12579   */\n      0x25\n        /* \"#utility.yul\":12572:12575   */\n      dup4\n        /* \"#utility.yul\":12513:12580   */\n      tag_157\n      jump\t// in\n    tag_298:\n        /* \"#utility.yul\":12506:12580   */\n      swap2\n      pop\n        /* \"#utility.yul\":12589:12682   */\n      tag_299\n        /* \"#utility.yul\":12678:12681   */\n      dup3\n        /* \"#utility.yul\":12589:12682   */\n      tag_179\n      jump\t// in\n    tag_299:\n        /* \"#utility.yul\":12707:12709   */\n      0x40\n        /* \"#utility.yul\":12702:12705   */\n      dup3\n        /* \"#utility.yul\":12698:12710   */\n      add\n        /* \"#utility.yul\":12691:12710   */\n      swap1\n      pop\n        /* \"#utility.yul\":12350:12716   */\n      swap2\n      swap1\n      pop\n      jump\t// out\n        /* \"#utility.yul\":12722:13141   */\n    tag_137:\n        /* \"#utility.yul\":12888:12892   */\n      0x00\n        /* \"#utility.yul\":12926:12928   */\n      0x20\n        /* \"#utility.yul\":12915:12924   */\n      dup3\n        /* \"#utility.yul\":12911:12929   */\n      add\n        /* \"#utility.yul\":12903:12929   */\n      swap1\n      pop\n        /* \"#utility.yul\":12975:12984   */\n      dup2\n        /* \"#utility.yul\":12969:12973   */\n      dup2\n        /* \"#utility.yul\":12965:12985   */\n      sub\n        /* \"#utility.yul\":12961:12962   */\n      0x00\n        /* \"#utility.yul\":12950:12959   */\n      dup4\n        /* \"#utility.yul\":12946:12963   */\n      add\n        /* \"#utility.yul\":12939:12986   */\n      mstore\n        /* \"#utility.yul\":13003:13134   */\n      tag_301\n        /* \"#utility.yul\":13129:13133   */\n      dup2\n        /* \"#utility.yul\":13003:13134   */\n      tag_180\n      jump\t// in\n    tag_301:\n        /* \"#utility.yul\":12995:13134   */\n      swap1\n      pop\n        /* \"#utility.yul\":12722:13141   */\n      swap2\n      swap1\n      pop\n      jump\t// out\n        /* \"#utility.yul\":13147:13369   */\n    tag_181:\n        /* \"#utility.yul\":13287:13321   */\n      0x45524332303a207472616e7366657220746f20746865207a65726f2061646472\n        /* \"#utility.yul\":13283:13284   */\n      0x00\n        /* \"#utility.yul\":13275:13281   */\n      dup3\n        /* \"#utility.yul\":13271:13285   */\n      add\n        /* \"#utility.yul\":13264:13322   */\n      mstore\n        /* \"#utility.yul\":13356:13361   */\n      0x6573730000000000000000000000000000000000000000000000000000000000\n        /* \"#utility.yul\":13351:13353   */\n      0x20\n        /* \"#utility.yul\":13343:13349   */\n      dup3\n        /* \"#utility.yul\":13339:13354   */\n      add\n        /* \"#utility.yul\":13332:13362   */\n      mstore\n        /* \"#utility.yul\":13147:13369   */\n      pop\n      jump\t// out\n        /* \"#utility.yul\":13375:13741   */\n    tag_182:\n        /* \"#utility.yul\":13517:13520   */\n      0x00\n        /* \"#utility.yul\":13538:13605   */\n      tag_304\n        /* \"#utility.yul\":13602:13604   */\n      0x23\n        /* \"#utility.yul\":13597:13600   */\n      dup4\n        /* \"#utility.yul\":13538:13605   */\n      tag_157\n      jump\t// in\n    tag_304:\n        /* \"#utility.yul\":13531:13605   */\n      swap2\n      pop\n        /* \"#utility.yul\":13614:13707   */\n      tag_305\n        /* \"#utility.yul\":13703:13706   */\n      dup3\n        /* \"#utility.yul\":13614:13707   */\n      tag_181\n      jump\t// in\n    tag_305:\n        /* \"#utility.yul\":13732:13734   */\n      0x40\n        /* \"#utility.yul\":13727:13730   */\n      dup3\n        /* \"#utility.yul\":13723:13735   */\n      add\n        /* \"#utility.yul\":13716:13735   */\n      swap1\n      pop\n        /* \"#utility.yul\":13375:13741   */\n      swap2\n      swap1\n      pop\n      jump\t// out\n        /* \"#utility.yul\":13747:14166   */\n    tag_140:\n        /* \"#utility.yul\":13913:13917   */\n      0x00\n        /* \"#utility.yul\":13951:13953   */\n      0x20\n        /* \"#utility.yul\":13940:13949   */\n      dup3\n        /* \"#utility.yul\":13936:13954   */\n      add\n        /* \"#utility.yul\":13928:13954   */\n      swap1\n      pop\n        /* \"#utility.yul\":14000:14009   */\n      dup2\n        /* \"#utility.yul\":13994:13998   */\n      dup2\n        /* \"#utility.yul\":13990:14010   */\n      sub\n        /* \"#utility.yul\":13986:13987   */\n      0x00\n        /* \"#utility.yul\":13975:13984   */\n      dup4\n        /* \"#utility.yul\":13971:13988   */\n      add\n        /* \"#utility.yul\":13964:14011   */\n      mstore\n        /* \"#utility.yul\":14028:14159   */\n      tag_307\n        /* \"#utility.yul\":14154:14158   */\n      dup2\n        /* \"#utility.yul\":14028:14159   */\n      tag_182\n      jump\t// in\n    tag_307:\n        /* \"#utility.yul\":14020:14159   */\n      swap1\n      pop\n        /* \"#utility.yul\":13747:14166   */\n      swap2\n      swap1\n      pop\n      jump\t// out\n        /* \"#utility.yul\":14172:14397   */\n    tag_183:\n        /* \"#utility.yul\":14312:14346   */\n      0x45524332303a207472616e7366657220616d6f756e7420657863656564732062\n        /* \"#utility.yul\":14308:14309   */\n      0x00\n        /* \"#utility.yul\":14300:14306   */\n      dup3\n        /* \"#utility.yul\":14296:14310   */\n      add\n        /* \"#utility.yul\":14289:14347   */\n      mstore\n        /* \"#utility.yul\":14381:14389   */\n      0x616c616e63650000000000000000000000000000000000000000000000000000\n        /* \"#utility.yul\":14376:14378   */\n      0x20\n        /* \"#utility.yul\":14368:14374   */\n      dup3\n        /* \"#utility.yul\":14364:14379   */\n      add\n        /* \"#utility.yul\":14357:14390   */\n      mstore\n        /* \"#utility.yul\":14172:14397   */\n      pop\n      jump\t// out\n        /* \"#utility.yul\":14403:14769   */\n    tag_184:\n        /* \"#utility.yul\":14545:14548   */\n      0x00\n        /* \"#utility.yul\":14566:14633   */\n      tag_310\n        /* \"#utility.yul\":14630:14632   */\n      0x26\n        /* \"#utility.yul\":14625:14628   */\n      dup4\n        /* \"#utility.yul\":14566:14633   */\n      tag_157\n      jump\t// in\n    tag_310:\n        /* \"#utility.yul\":14559:14633   */\n      swap2\n      pop\n        /* \"#utility.yul\":14642:14735   */\n      tag_311\n        /* \"#utility.yul\":14731:14734   */\n      dup3\n        /* \"#utility.yul\":14642:14735   */\n      tag_183\n      jump\t// in\n    tag_311:\n        /* \"#utility.yul\":14760:14762   */\n      0x40\n        /* \"#utility.yul\":14755:14758   */\n      dup3\n        /* \"#utility.yul\":14751:14763   */\n      add\n        /* \"#utility.yul\":14744:14763   */\n      swap1\n      pop\n        /* \"#utility.yul\":14403:14769   */\n      swap2\n      swap1\n      pop\n      jump\t// out\n        /* \"#utility.yul\":14775:15194   */\n    tag_143:\n        /* \"#utility.yul\":14941:14945   */\n      0x00\n        /* \"#utility.yul\":14979:14981   */\n      0x20\n        /* \"#utility.yul\":14968:14977   */\n      dup3\n        /* \"#utility.yul\":14964:14982   */\n      add\n        /* \"#utility.yul\":14956:14982   */\n      swap1\n      pop\n        /* \"#utility.yul\":15028:15037   */\n      dup2\n        /* \"#utility.yul\":15022:15026   */\n      dup2\n        /* \"#utility.yul\":15018:15038   */\n      sub\n        /* \"#utility.yul\":15014:15015   */\n      0x00\n        /* \"#utility.yul\":15003:15012   */\n      dup4\n        /* \"#utility.yul\":14999:15016   */\n      add\n        /* \"#utility.yul\":14992:15039   */\n      mstore\n        /* \"#utility.yul\":15056:15187   */\n      tag_313\n        /* \"#utility.yul\":15182:15186   */\n      dup2\n        /* \"#utility.yul\":15056:15187   */\n      tag_184\n      jump\t// in\n    tag_313:\n        /* \"#utility.yul\":15048:15187   */\n      swap1\n      pop\n        /* \"#utility.yul\":14775:15194   */\n      swap2\n      swap1\n      pop\n      jump\t// out\n        /* \"#utility.yul\":15200:15505   */\n    tag_146:\n        /* \"#utility.yul\":15240:15243   */\n      0x00\n        /* \"#utility.yul\":15259:15279   */\n      tag_315\n        /* \"#utility.yul\":15277:15278   */\n      dup3\n        /* \"#utility.yul\":15259:15279   */\n      tag_154\n      jump\t// in\n    tag_315:\n        /* \"#utility.yul\":15254:15279   */\n      swap2\n      pop\n        /* \"#utility.yul\":15293:15313   */\n      tag_316\n        /* \"#utility.yul\":15311:15312   */\n      dup4\n        /* \"#utility.yul\":15293:15313   */\n      tag_154\n      jump\t// in\n    tag_316:\n        /* \"#utility.yul\":15288:15313   */\n      swap3\n      pop\n        /* \"#utility.yul\":15447:15448   */\n      dup3\n        /* \"#utility.yul\":15379:15445   */\n      0xffffffffffffffffffffffffffffffffffffffffffffffffffffffffffffffff\n        /* \"#utility.yul\":15375:15449   */\n      sub\n        /* \"#utility.yul\":15372:15373   */\n      dup3\n        /* \"#utility.yul\":15369:15450   */\n      gt\n        /* \"#utility.yul\":15366:15473   */\n      iszero\n      tag_317\n      jumpi\n        /* \"#utility.yul\":15453:15471   */\n      tag_318\n      tag_172\n      jump\t// in\n    tag_318:\n        /* \"#utility.yul\":15366:15473   */\n    tag_317:\n        /* \"#utility.yul\":15497:15498   */\n      dup3\n        /* \"#utility.yul\":15494:15495   */\n      dup3\n        /* \"#utility.yul\":15490:15499   */\n      add\n        /* \"#utility.yul\":15483:15499   */\n      swap1\n      pop\n        /* \"#utility.yul\":15200:15505   */\n      swap3\n      swap2\n      pop\n      pop\n      jump\t// out\n\n    auxdata: 0xa264697066735822122076e832974abe40a009c2580b23d9b6e6b7857c3dab6c0a5aad9e28cca471fb8164736f6c634300080f0033\n}\n",
				"bytecode": {
					"linkReferences": {},
					"object": "6080604052670de0b6b3a76400006006553480156200001d57600080fd5b5060405162001ddb38038062001ddb833981810160405281019062000043919062000287565b816003908162000054919062000557565b50806004908162000066919062000557565b506012600560006101000a81548160ff021916908360ff1602179055506006546305f5e1006200009791906200066d565b6002819055506002546000803373ffffffffffffffffffffffffffffffffffffffff1673ffffffffffffffffffffffffffffffffffffffff168152602001908152602001600020819055505050620006ce565b6000604051905090565b600080fd5b600080fd5b600080fd5b600080fd5b6000601f19601f8301169050919050565b7f4e487b7100000000000000000000000000000000000000000000000000000000600052604160045260246000fd5b620001538262000108565b810181811067ffffffffffffffff8211171562000175576200017462000119565b5b80604052505050565b60006200018a620000ea565b905062000198828262000148565b919050565b600067ffffffffffffffff821115620001bb57620001ba62000119565b5b620001c68262000108565b9050602081019050919050565b60005b83811015620001f3578082015181840152602081019050620001d6565b8381111562000203576000848401525b50505050565b6000620002206200021a846200019d565b6200017e565b9050828152602081018484840111156200023f576200023e62000103565b5b6200024c848285620001d3565b509392505050565b600082601f8301126200026c576200026b620000fe565b5b81516200027e84826020860162000209565b91505092915050565b60008060408385031215620002a157620002a0620000f4565b5b600083015167ffffffffffffffff811115620002c257620002c1620000f9565b5b620002d08582860162000254565b925050602083015167ffffffffffffffff811115620002f457620002f3620000f9565b5b620003028582860162000254565b9150509250929050565b600081519050919050565b7f4e487b7100000000000000000000000000000000000000000000000000000000600052602260045260246000fd5b600060028204905060018216806200035f57607f821691505b60208210810362000375576200037462000317565b5b50919050565b60008190508160005260206000209050919050565b60006020601f8301049050919050565b600082821b905092915050565b600060088302620003df7fffffffffffffffffffffffffffffffffffffffffffffffffffffffffffffffff82620003a0565b620003eb8683620003a0565b95508019841693508086168417925050509392505050565b6000819050919050565b6000819050919050565b600062000438620004326200042c8462000403565b6200040d565b62000403565b9050919050565b6000819050919050565b620004548362000417565b6200046c62000463826200043f565b848454620003ad565b825550505050565b600090565b6200048362000474565b6200049081848462000449565b505050565b5b81811015620004b857620004ac60008262000479565b60018101905062000496565b5050565b601f8211156200050757620004d1816200037b565b620004dc8462000390565b81016020851015620004ec578190505b62000504620004fb8562000390565b83018262000495565b50505b505050565b600082821c905092915050565b60006200052c600019846008026200050c565b1980831691505092915050565b600062000547838362000519565b9150826002028217905092915050565b62000562826200030c565b67ffffffffffffffff8111156200057e576200057d62000119565b5b6200058a825462000346565b62000597828285620004bc565b600060209050601f831160018114620005cf5760008415620005ba578287015190505b620005c6858262000539565b86555062000636565b601f198416620005df866200037b565b60005b828110156200060957848901518255600182019150602085019450602081019050620005e2565b8683101562000629578489015162000625601f89168262000519565b8355505b6001600288020188555050505b505050505050565b7f4e487b7100000000000000000000000000000000000000000000000000000000600052601160045260246000fd5b60006200067a8262000403565b9150620006878362000403565b9250817fffffffffffffffffffffffffffffffffffffffffffffffffffffffffffffffff0483118215151615620006c357620006c26200063e565b5b828202905092915050565b6116fd80620006de6000396000f3fe608060405234801561001057600080fd5b50600436106100ea5760003560e01c80633eaaf86b1161008c578063a9059cbb11610066578063a9059cbb14610263578063b09f126614610293578063d28d8852146102b1578063dd62ed3e146102cf576100ea565b80633eaaf86b146101f757806370a082311461021557806395d89b4114610245576100ea565b806318160ddd116100c857806318160ddd1461016d57806323b872dd1461018b578063313ce567146101bb57806332424aa3146101d9576100ea565b8063024c2ddd146100ef57806306fdde031461011f578063095ea7b31461013d575b600080fd5b61010960048036038101906101049190610e6d565b6102ff565b6040516101169190610ec6565b60405180910390f35b610127610324565b6040516101349190610f7a565b60405180910390f35b61015760048036038101906101529190610fc8565b6103b6565b6040516101649190611023565b60405180910390f35b6101756104d0565b6040516101829190610ec6565b60405180910390f35b6101a560048036038101906101a0919061103e565b6104da565b6040516101b29190611023565b60405180910390f35b6101c361064a565b6040516101d091906110ad565b60405180910390f35b6101e1610661565b6040516101ee91906110ad565b60405180910390f35b6101ff610674565b60405161020c9190610ec6565b60405180910390f35b61022f600480360381019061022a91906110c8565b61067a565b60405161023c9190610ec6565b60405180910390f35b61024d6106c2565b60405161025a9190610f7a565b60405180910390f35b61027d60048036038101906102789190610fc8565b610754565b60405161028a9190611023565b60405180910390f35b61029b6107d0565b6040516102a89190610f7a565b60405180910390f35b6102b961085e565b6040516102c69190610f7a565b60405180910390f35b6102e960048036038101906102e49190610e6d565b6108ec565b6040516102f69190610ec6565b60405180910390f35b6001602052816000526040600020602052806000526040600020600091509150505481565b60606003805461033390611124565b80601f016020809104026020016040519081016040528092919081815260200182805461035f90611124565b80156103ac5780601f10610381576101008083540402835291602001916103ac565b820191906000526020600020905b81548152906001019060200180831161038f57829003601f168201915b5050505050905090565b600080600160003373ffffffffffffffffffffffffffffffffffffffff1673ffffffffffffffffffffffffffffffffffffffff16815260200190815260200160002060008573ffffffffffffffffffffffffffffffffffffffff1673ffffffffffffffffffffffffffffffffffffffff168152602001908152602001600020549050826000803373ffffffffffffffffffffffffffffffffffffffff1673ffffffffffffffffffffffffffffffffffffffff1681526020019081526020016000205410156104b9576040517f08c379a00000000000000000000000000000000000000000000000000000000081526004016104b0906111ed565b60405180910390fd5b6104c533858386610973565b600191505092915050565b6000600254905090565b60006104e7848484610bfd565b8273ffffffffffffffffffffffffffffffffffffffff168473ffffffffffffffffffffffffffffffffffffffff163373ffffffffffffffffffffffffffffffffffffffff167fd1398bee19313d6bf672ccb116e51f4a1a947e91c757907f51fbb5b5e56c698f8560405161055b9190610ec6565b60405180910390a46000600160008673ffffffffffffffffffffffffffffffffffffffff1673ffffffffffffffffffffffffffffffffffffffff16815260200190815260200160002060003373ffffffffffffffffffffffffffffffffffffffff1673ffffffffffffffffffffffffffffffffffffffff16815260200190815260200160002054905082811015610627576040517f08c379a000000000000000000000000000000000000000000000000000000000815260040161061e9061127f565b60405180910390fd5b61063e853383868561063991906112ce565b610973565b60019150509392505050565b6000600560009054906101000a900460ff16905090565b600560009054906101000a900460ff1681565b60025481565b60008060008373ffffffffffffffffffffffffffffffffffffffff1673ffffffffffffffffffffffffffffffffffffffff168152602001908152602001600020549050919050565b6060600480546106d190611124565b80601f01602080910402602001604051908101604052809291908181526020018280546106fd90611124565b801561074a5780601f1061071f5761010080835404028352916020019161074a565b820191906000526020600020905b81548152906001019060200180831161072d57829003601f168201915b5050505050905090565b6000610761338484610bfd565b8273ffffffffffffffffffffffffffffffffffffffff163373ffffffffffffffffffffffffffffffffffffffff167fddf252ad1be2c89b69c2b068fc378daa952ba7f163c4a11628f55a4df523b3ef846040516107be9190610ec6565b60405180910390a36001905092915050565b600480546107dd90611124565b80601f016020809104026020016040519081016040528092919081815260200182805461080990611124565b80156108565780601f1061082b57610100808354040283529160200191610856565b820191906000526020600020905b81548152906001019060200180831161083957829003601f168201915b505050505081565b6003805461086b90611124565b80601f016020809104026020016040519081016040528092919081815260200182805461089790611124565b80156108e45780601f106108b9576101008083540402835291602001916108e4565b820191906000526020600020905b8154815290600101906020018083116108c757829003601f168201915b505050505081565b6000600160008473ffffffffffffffffffffffffffffffffffffffff1673ffffffffffffffffffffffffffffffffffffffff16815260200190815260200160002060008373ffffffffffffffffffffffffffffffffffffffff1673ffffffffffffffffffffffffffffffffffffffff16815260200190815260200160002054905092915050565b600073ffffffffffffffffffffffffffffffffffffffff168473ffffffffffffffffffffffffffffffffffffffff16036109e2576040517f08c379a00000000000000000000000000000000000000000000000000000000081526004016109d990611374565b60405180910390fd5b600073ffffffffffffffffffffffffffffffffffffffff168373ffffffffffffffffffffffffffffffffffffffff1603610a51576040517f08c379a0000000000000000000000000000000000000000000000000000000008152600401610a4890611406565b60405180910390fd5b600160008573ffffffffffffffffffffffffffffffffffffffff1673ffffffffffffffffffffffffffffffffffffffff16815260200190815260200160002060008473ffffffffffffffffffffffffffffffffffffffff1673ffffffffffffffffffffffffffffffffffffffff168152602001908152602001600020548214610b0f576040517f08c379a0000000000000000000000000000000000000000000000000000000008152600401610b0690611472565b60405180910390fd5b80600160008673ffffffffffffffffffffffffffffffffffffffff1673ffffffffffffffffffffffffffffffffffffffff16815260200190815260200160002060008573ffffffffffffffffffffffffffffffffffffffff1673ffffffffffffffffffffffffffffffffffffffff168152602001908152602001600020819055508273ffffffffffffffffffffffffffffffffffffffff168473ffffffffffffffffffffffffffffffffffffffff167fb3fd5071835887567a0671151121894ddccc2842f1d10bedad13e0d17cace9a78484604051610bef929190611492565b60405180910390a350505050565b600073ffffffffffffffffffffffffffffffffffffffff168373ffffffffffffffffffffffffffffffffffffffff1603610c6c576040517f08c379a0000000000000000000000000000000000000000000000000000000008152600401610c639061152d565b60405180910390fd5b600073ffffffffffffffffffffffffffffffffffffffff168273ffffffffffffffffffffffffffffffffffffffff1603610cdb576040517f08c379a0000000000000000000000000000000000000000000000000000000008152600401610cd2906115bf565b60405180910390fd5b60008060008573ffffffffffffffffffffffffffffffffffffffff1673ffffffffffffffffffffffffffffffffffffffff16815260200190815260200160002054905081811015610d61576040517f08c379a0000000000000000000000000000000000000000000000000000000008152600401610d5890611651565b60405180910390fd5b8181610d6d91906112ce565b6000808673ffffffffffffffffffffffffffffffffffffffff1673ffffffffffffffffffffffffffffffffffffffff16815260200190815260200160002081905550816000808573ffffffffffffffffffffffffffffffffffffffff1673ffffffffffffffffffffffffffffffffffffffff1681526020019081526020016000206000828254610dfd9190611671565b9250508190555050505050565b600080fd5b600073ffffffffffffffffffffffffffffffffffffffff82169050919050565b6000610e3a82610e0f565b9050919050565b610e4a81610e2f565b8114610e5557600080fd5b50565b600081359050610e6781610e41565b92915050565b60008060408385031215610e8457610e83610e0a565b5b6000610e9285828601610e58565b9250506020610ea385828601610e58565b9150509250929050565b6000819050919050565b610ec081610ead565b82525050565b6000602082019050610edb6000830184610eb7565b92915050565b600081519050919050565b600082825260208201905092915050565b60005b83811015610f1b578082015181840152602081019050610f00565b83811115610f2a576000848401525b50505050565b6000601f19601f8301169050919050565b6000610f4c82610ee1565b610f568185610eec565b9350610f66818560208601610efd565b610f6f81610f30565b840191505092915050565b60006020820190508181036000830152610f948184610f41565b905092915050565b610fa581610ead565b8114610fb057600080fd5b50565b600081359050610fc281610f9c565b92915050565b60008060408385031215610fdf57610fde610e0a565b5b6000610fed85828601610e58565b9250506020610ffe85828601610fb3565b9150509250929050565b60008115159050919050565b61101d81611008565b82525050565b60006020820190506110386000830184611014565b92915050565b60008060006060848603121561105757611056610e0a565b5b600061106586828701610e58565b935050602061107686828701610e58565b925050604061108786828701610fb3565b9150509250925092565b600060ff82169050919050565b6110a781611091565b82525050565b60006020820190506110c2600083018461109e565b92915050565b6000602082840312156110de576110dd610e0a565b5b60006110ec84828501610e58565b91505092915050565b7f4e487b7100000000000000000000000000000000000000000000000000000000600052602260045260246000fd5b6000600282049050600182168061113c57607f821691505b60208210810361114f5761114e6110f5565b5b50919050565b7f45524332303a2054686520616d6f756e7420746f206265207472616e7366657260008201527f72656420657863656564732074686520616d6f756e74206f6620746f6b656e7360208201527f2068656c6420627920746865206f776e65722e00000000000000000000000000604082015250565b60006111d7605383610eec565b91506111e282611155565b606082019050919050565b60006020820190508181036000830152611206816111ca565b9050919050565b7f45524332303a207472616e7366657220616d6f756e742065786365656473206160008201527f6c6c6f77616e6365000000000000000000000000000000000000000000000000602082015250565b6000611269602883610eec565b91506112748261120d565b604082019050919050565b600060208201905081810360008301526112988161125c565b9050919050565b7f4e487b7100000000000000000000000000000000000000000000000000000000600052601160045260246000fd5b60006112d982610ead565b91506112e483610ead565b9250828210156112f7576112f661129f565b5b828203905092915050565b7f45524332303a20617070726f76652066726f6d20746865207a65726f2061646460008201527f7265737300000000000000000000000000000000000000000000000000000000602082015250565b600061135e602483610eec565b915061136982611302565b604082019050919050565b6000602082019050818103600083015261138d81611351565b9050919050565b7f45524332303a20617070726f766520746f20746865207a65726f20616464726560008201527f7373000000000000000000000000000000000000000000000000000000000000602082015250565b60006113f0602283610eec565b91506113fb82611394565b604082019050919050565b6000602082019050818103600083015261141f816113e3565b9050919050565b7f45524332303a20696e76616c69642063757272656e74416d6f756e7400000000600082015250565b600061145c601c83610eec565b915061146782611426565b602082019050919050565b6000602082019050818103600083015261148b8161144f565b9050919050565b60006040820190506114a76000830185610eb7565b6114b46020830184610eb7565b9392505050565b7f45524332303a207472616e736665722066726f6d20746865207a65726f20616460008201527f6472657373000000000000000000000000000000000000000000000000000000602082015250565b6000611517602583610eec565b9150611522826114bb565b604082019050919050565b600060208201905081810360008301526115468161150a565b9050919050565b7f45524332303a207472616e7366657220746f20746865207a65726f206164647260008201527f6573730000000000000000000000000000000000000000000000000000000000602082015250565b60006115a9602383610eec565b91506115b48261154d565b604082019050919050565b600060208201905081810360008301526115d88161159c565b9050919050565b7f45524332303a207472616e7366657220616d6f756e742065786365656473206260008201527f616c616e63650000000000000000000000000000000000000000000000000000602082015250565b600061163b602683610eec565b9150611646826115df565b604082019050919050565b6000602082019050818103600083015261166a8161162e565b9050919050565b600061167c82610ead565b915061168783610ead565b9250827fffffffffffffffffffffffffffffffffffffffffffffffffffffffffffffffff038211156116bc576116bb61129f565b5b82820190509291505056fea264697066735822122076e832974abe40a009c2580b23d9b6e6b7857c3dab6c0a5aad9e28cca471fb8164736f6c634300080f0033",
					"opcodes": "PUSH1 0x80 PUSH1 0x40 MSTORE PUSH8 0xDE0B6B3A7640000 PUSH1 0x6 SSTORE CALLVALUE DUP1 ISZERO PUSH3 0x1D JUMPI PUSH1 0x0 DUP1 REVERT JUMPDEST POP PUSH1 0x40 MLOAD PUSH3 0x1DDB CODESIZE SUB DUP1 PUSH3 0x1DDB DUP4 CODECOPY DUP2 DUP2 ADD PUSH1 0x40 MSTORE DUP2 ADD SWAP1 PUSH3 0x43 SWAP2 SWAP1 PUSH3 0x287 JUMP JUMPDEST DUP2 PUSH1 0x3 SWAP1 DUP2 PUSH3 0x54 SWAP2 SWAP1 PUSH3 0x557 JUMP JUMPDEST POP DUP1 PUSH1 0x4 SWAP1 DUP2 PUSH3 0x66 SWAP2 SWAP1 PUSH3 0x557 JUMP JUMPDEST POP PUSH1 0x12 PUSH1 0x5 PUSH1 0x0 PUSH2 0x100 EXP DUP2 SLOAD DUP2 PUSH1 0xFF MUL NOT AND SWAP1 DUP4 PUSH1 0xFF AND MUL OR SWAP1 SSTORE POP PUSH1 0x6 SLOAD PUSH4 0x5F5E100 PUSH3 0x97 SWAP2 SWAP1 PUSH3 0x66D JUMP JUMPDEST PUSH1 0x2 DUP2 SWAP1 SSTORE POP PUSH1 0x2 SLOAD PUSH1 0x0 DUP1 CALLER PUSH20 0xFFFFFFFFFFFFFFFFFFFFFFFFFFFFFFFFFFFFFFFF AND PUSH20 0xFFFFFFFFFFFFFFFFFFFFFFFFFFFFFFFFFFFFFFFF AND DUP2 MSTORE PUSH1 0x20 ADD SWAP1 DUP2 MSTORE PUSH1 0x20 ADD PUSH1 0x0 KECCAK256 DUP2 SWAP1 SSTORE POP POP POP PUSH3 0x6CE JUMP JUMPDEST PUSH1 0x0 PUSH1 0x40 MLOAD SWAP1 POP SWAP1 JUMP JUMPDEST PUSH1 0x0 DUP1 REVERT JUMPDEST PUSH1 0x0 DUP1 REVERT JUMPDEST PUSH1 0x0 DUP1 REVERT JUMPDEST PUSH1 0x0 DUP1 REVERT JUMPDEST PUSH1 0x0 PUSH1 0x1F NOT PUSH1 0x1F DUP4 ADD AND SWAP1 POP SWAP2 SWAP1 POP JUMP JUMPDEST PUSH32 0x4E487B7100000000000000000000000000000000000000000000000000000000 PUSH1 0x0 MSTORE PUSH1 0x41 PUSH1 0x4 MSTORE PUSH1 0x24 PUSH1 0x0 REVERT JUMPDEST PUSH3 0x153 DUP3 PUSH3 0x108 JUMP JUMPDEST DUP2 ADD DUP2 DUP2 LT PUSH8 0xFFFFFFFFFFFFFFFF DUP3 GT OR ISZERO PUSH3 0x175 JUMPI PUSH3 0x174 PUSH3 0x119 JUMP JUMPDEST JUMPDEST DUP1 PUSH1 0x40 MSTORE POP POP POP JUMP JUMPDEST PUSH1 0x0 PUSH3 0x18A PUSH3 0xEA JUMP JUMPDEST SWAP1 POP PUSH3 0x198 DUP3 DUP3 PUSH3 0x148 JUMP JUMPDEST SWAP2 SWAP1 POP JUMP JUMPDEST PUSH1 0x0 PUSH8 0xFFFFFFFFFFFFFFFF DUP3 GT ISZERO PUSH3 0x1BB JUMPI PUSH3 0x1BA PUSH3 0x119 JUMP JUMPDEST JUMPDEST PUSH3 0x1C6 DUP3 PUSH3 0x108 JUMP JUMPDEST SWAP1 POP PUSH1 0x20 DUP2 ADD SWAP1 POP SWAP2 SWAP1 POP JUMP JUMPDEST PUSH1 0x0 JUMPDEST DUP4 DUP2 LT ISZERO PUSH3 0x1F3 JUMPI DUP1 DUP3 ADD MLOAD DUP2 DUP5 ADD MSTORE PUSH1 0x20 DUP2 ADD SWAP1 POP PUSH3 0x1D6 JUMP JUMPDEST DUP4 DUP2 GT ISZERO PUSH3 0x203 JUMPI PUSH1 0x0 DUP5 DUP5 ADD MSTORE JUMPDEST POP POP POP POP JUMP JUMPDEST PUSH1 0x0 PUSH3 0x220 PUSH3 0x21A DUP5 PUSH3 0x19D JUMP JUMPDEST PUSH3 0x17E JUMP JUMPDEST SWAP1 POP DUP3 DUP2 MSTORE PUSH1 0x20 DUP2 ADD DUP5 DUP5 DUP5 ADD GT ISZERO PUSH3 0x23F JUMPI PUSH3 0x23E PUSH3 0x103 JUMP JUMPDEST JUMPDEST PUSH3 0x24C DUP5 DUP3 DUP6 PUSH3 0x1D3 JUMP JUMPDEST POP SWAP4 SWAP3 POP POP POP JUMP JUMPDEST PUSH1 0x0 DUP3 PUSH1 0x1F DUP4 ADD SLT PUSH3 0x26C JUMPI PUSH3 0x26B PUSH3 0xFE JUMP JUMPDEST JUMPDEST DUP2 MLOAD PUSH3 0x27E DUP5 DUP3 PUSH1 0x20 DUP7 ADD PUSH3 0x209 JUMP JUMPDEST SWAP2 POP POP SWAP3 SWAP2 POP POP JUMP JUMPDEST PUSH1 0x0 DUP1 PUSH1 0x40 DUP4 DUP6 SUB SLT ISZERO PUSH3 0x2A1 JUMPI PUSH3 0x2A0 PUSH3 0xF4 JUMP JUMPDEST JUMPDEST PUSH1 0x0 DUP4 ADD MLOAD PUSH8 0xFFFFFFFFFFFFFFFF DUP2 GT ISZERO PUSH3 0x2C2 JUMPI PUSH3 0x2C1 PUSH3 0xF9 JUMP JUMPDEST JUMPDEST PUSH3 0x2D0 DUP6 DUP3 DUP7 ADD PUSH3 0x254 JUMP JUMPDEST SWAP3 POP POP PUSH1 0x20 DUP4 ADD MLOAD PUSH8 0xFFFFFFFFFFFFFFFF DUP2 GT ISZERO PUSH3 0x2F4 JUMPI PUSH3 0x2F3 PUSH3 0xF9 JUMP JUMPDEST JUMPDEST PUSH3 0x302 DUP6 DUP3 DUP7 ADD PUSH3 0x254 JUMP JUMPDEST SWAP2 POP POP SWAP3 POP SWAP3 SWAP1 POP JUMP JUMPDEST PUSH1 0x0 DUP2 MLOAD SWAP1 POP SWAP2 SWAP1 POP JUMP JUMPDEST PUSH32 0x4E487B7100000000000000000000000000000000000000000000000000000000 PUSH1 0x0 MSTORE PUSH1 0x22 PUSH1 0x4 MSTORE PUSH1 0x24 PUSH1 0x0 REVERT JUMPDEST PUSH1 0x0 PUSH1 0x2 DUP3 DIV SWAP1 POP PUSH1 0x1 DUP3 AND DUP1 PUSH3 0x35F JUMPI PUSH1 0x7F DUP3 AND SWAP2 POP JUMPDEST PUSH1 0x20 DUP3 LT DUP2 SUB PUSH3 0x375 JUMPI PUSH3 0x374 PUSH3 0x317 JUMP JUMPDEST JUMPDEST POP SWAP2 SWAP1 POP JUMP JUMPDEST PUSH1 0x0 DUP2 SWAP1 POP DUP2 PUSH1 0x0 MSTORE PUSH1 0x20 PUSH1 0x0 KECCAK256 SWAP1 POP SWAP2 SWAP1 POP JUMP JUMPDEST PUSH1 0x0 PUSH1 0x20 PUSH1 0x1F DUP4 ADD DIV SWAP1 POP SWAP2 SWAP1 POP JUMP JUMPDEST PUSH1 0x0 DUP3 DUP3 SHL SWAP1 POP SWAP3 SWAP2 POP POP JUMP JUMPDEST PUSH1 0x0 PUSH1 0x8 DUP4 MUL PUSH3 0x3DF PUSH32 0xFFFFFFFFFFFFFFFFFFFFFFFFFFFFFFFFFFFFFFFFFFFFFFFFFFFFFFFFFFFFFFFF DUP3 PUSH3 0x3A0 JUMP JUMPDEST PUSH3 0x3EB DUP7 DUP4 PUSH3 0x3A0 JUMP JUMPDEST SWAP6 POP DUP1 NOT DUP5 AND SWAP4 POP DUP1 DUP7 AND DUP5 OR SWAP3 POP POP POP SWAP4 SWAP3 POP POP POP JUMP JUMPDEST PUSH1 0x0 DUP2 SWAP1 POP SWAP2 SWAP1 POP JUMP JUMPDEST PUSH1 0x0 DUP2 SWAP1 POP SWAP2 SWAP1 POP JUMP JUMPDEST PUSH1 0x0 PUSH3 0x438 PUSH3 0x432 PUSH3 0x42C DUP5 PUSH3 0x403 JUMP JUMPDEST PUSH3 0x40D JUMP JUMPDEST PUSH3 0x403 JUMP JUMPDEST SWAP1 POP SWAP2 SWAP1 POP JUMP JUMPDEST PUSH1 0x0 DUP2 SWAP1 POP SWAP2 SWAP1 POP JUMP JUMPDEST PUSH3 0x454 DUP4 PUSH3 0x417 JUMP JUMPDEST PUSH3 0x46C PUSH3 0x463 DUP3 PUSH3 0x43F JUMP JUMPDEST DUP5 DUP5 SLOAD PUSH3 0x3AD JUMP JUMPDEST DUP3 SSTORE POP POP POP POP JUMP JUMPDEST PUSH1 0x0 SWAP1 JUMP JUMPDEST PUSH3 0x483 PUSH3 0x474 JUMP JUMPDEST PUSH3 0x490 DUP2 DUP5 DUP5 PUSH3 0x449 JUMP JUMPDEST POP POP POP JUMP JUMPDEST JUMPDEST DUP2 DUP2 LT ISZERO PUSH3 0x4B8 JUMPI PUSH3 0x4AC PUSH1 0x0 DUP3 PUSH3 0x479 JUMP JUMPDEST PUSH1 0x1 DUP2 ADD SWAP1 POP PUSH3 0x496 JUMP JUMPDEST POP POP JUMP JUMPDEST PUSH1 0x1F DUP3 GT ISZERO PUSH3 0x507 JUMPI PUSH3 0x4D1 DUP2 PUSH3 0x37B JUMP JUMPDEST PUSH3 0x4DC DUP5 PUSH3 0x390 JUMP JUMPDEST DUP2 ADD PUSH1 0x20 DUP6 LT ISZERO PUSH3 0x4EC JUMPI DUP2 SWAP1 POP JUMPDEST PUSH3 0x504 PUSH3 0x4FB DUP6 PUSH3 0x390 JUMP JUMPDEST DUP4 ADD DUP3 PUSH3 0x495 JUMP JUMPDEST POP POP JUMPDEST POP POP POP JUMP JUMPDEST PUSH1 0x0 DUP3 DUP3 SHR SWAP1 POP SWAP3 SWAP2 POP POP JUMP JUMPDEST PUSH1 0x0 PUSH3 0x52C PUSH1 0x0 NOT DUP5 PUSH1 0x8 MUL PUSH3 0x50C JUMP JUMPDEST NOT DUP1 DUP4 AND SWAP2 POP POP SWAP3 SWAP2 POP POP JUMP JUMPDEST PUSH1 0x0 PUSH3 0x547 DUP4 DUP4 PUSH3 0x519 JUMP JUMPDEST SWAP2 POP DUP3 PUSH1 0x2 MUL DUP3 OR SWAP1 POP SWAP3 SWAP2 POP POP JUMP JUMPDEST PUSH3 0x562 DUP3 PUSH3 0x30C JUMP JUMPDEST PUSH8 0xFFFFFFFFFFFFFFFF DUP2 GT ISZERO PUSH3 0x57E JUMPI PUSH3 0x57D PUSH3 0x119 JUMP JUMPDEST JUMPDEST PUSH3 0x58A DUP3 SLOAD PUSH3 0x346 JUMP JUMPDEST PUSH3 0x597 DUP3 DUP3 DUP6 PUSH3 0x4BC JUMP JUMPDEST PUSH1 0x0 PUSH1 0x20 SWAP1 POP PUSH1 0x1F DUP4 GT PUSH1 0x1 DUP2 EQ PUSH3 0x5CF JUMPI PUSH1 0x0 DUP5 ISZERO PUSH3 0x5BA JUMPI DUP3 DUP8 ADD MLOAD SWAP1 POP JUMPDEST PUSH3 0x5C6 DUP6 DUP3 PUSH3 0x539 JUMP JUMPDEST DUP7 SSTORE POP PUSH3 0x636 JUMP JUMPDEST PUSH1 0x1F NOT DUP5 AND PUSH3 0x5DF DUP7 PUSH3 0x37B JUMP JUMPDEST PUSH1 0x0 JUMPDEST DUP3 DUP2 LT ISZERO PUSH3 0x609 JUMPI DUP5 DUP10 ADD MLOAD DUP3 SSTORE PUSH1 0x1 DUP3 ADD SWAP2 POP PUSH1 0x20 DUP6 ADD SWAP5 POP PUSH1 0x20 DUP2 ADD SWAP1 POP PUSH3 0x5E2 JUMP JUMPDEST DUP7 DUP4 LT ISZERO PUSH3 0x629 JUMPI DUP5 DUP10 ADD MLOAD PUSH3 0x625 PUSH1 0x1F DUP10 AND DUP3 PUSH3 0x519 JUMP JUMPDEST DUP4 SSTORE POP JUMPDEST PUSH1 0x1 PUSH1 0x2 DUP9 MUL ADD DUP9 SSTORE POP POP POP JUMPDEST POP POP POP POP POP POP JUMP JUMPDEST PUSH32 0x4E487B7100000000000000000000000000000000000000000000000000000000 PUSH1 0x0 MSTORE PUSH1 0x11 PUSH1 0x4 MSTORE PUSH1 0x24 PUSH1 0x0 REVERT JUMPDEST PUSH1 0x0 PUSH3 0x67A DUP3 PUSH3 0x403 JUMP JUMPDEST SWAP2 POP PUSH3 0x687 DUP4 PUSH3 0x403 JUMP JUMPDEST SWAP3 POP DUP2 PUSH32 0xFFFFFFFFFFFFFFFFFFFFFFFFFFFFFFFFFFFFFFFFFFFFFFFFFFFFFFFFFFFFFFFF DIV DUP4 GT DUP3 ISZERO ISZERO AND ISZERO PUSH3 0x6C3 JUMPI PUSH3 0x6C2 PUSH3 0x63E JUMP JUMPDEST JUMPDEST DUP3 DUP3 MUL SWAP1 POP SWAP3 SWAP2 POP POP JUMP JUMPDEST PUSH2 0x16FD DUP1 PUSH3 0x6DE PUSH1 0x0 CODECOPY PUSH1 0x0 RETURN INVALID PUSH1 0x80 PUSH1 0x40 MSTORE CALLVALUE DUP1 ISZERO PUSH2 0x10 JUMPI PUSH1 0x0 DUP1 REVERT JUMPDEST POP PUSH1 0x4 CALLDATASIZE LT PUSH2 0xEA JUMPI PUSH1 0x0 CALLDATALOAD PUSH1 0xE0 SHR DUP1 PUSH4 0x3EAAF86B GT PUSH2 0x8C JUMPI DUP1 PUSH4 0xA9059CBB GT PUSH2 0x66 JUMPI DUP1 PUSH4 0xA9059CBB EQ PUSH2 0x263 JUMPI DUP1 PUSH4 0xB09F1266 EQ PUSH2 0x293 JUMPI DUP1 PUSH4 0xD28D8852 EQ PUSH2 0x2B1 JUMPI DUP1 PUSH4 0xDD62ED3E EQ PUSH2 0x2CF JUMPI PUSH2 0xEA JUMP JUMPDEST DUP1 PUSH4 0x3EAAF86B EQ PUSH2 0x1F7 JUMPI DUP1 PUSH4 0x70A08231 EQ PUSH2 0x215 JUMPI DUP1 PUSH4 0x95D89B41 EQ PUSH2 0x245 JUMPI PUSH2 0xEA JUMP JUMPDEST DUP1 PUSH4 0x18160DDD GT PUSH2 0xC8 JUMPI DUP1 PUSH4 0x18160DDD EQ PUSH2 0x16D JUMPI DUP1 PUSH4 0x23B872DD EQ PUSH2 0x18B JUMPI DUP1 PUSH4 0x313CE567 EQ PUSH2 0x1BB JUMPI DUP1 PUSH4 0x32424AA3 EQ PUSH2 0x1D9 JUMPI PUSH2 0xEA JUMP JUMPDEST DUP1 PUSH4 0x24C2DDD EQ PUSH2 0xEF JUMPI DUP1 PUSH4 0x6FDDE03 EQ PUSH2 0x11F JUMPI DUP1 PUSH4 0x95EA7B3 EQ PUSH2 0x13D JUMPI JUMPDEST PUSH1 0x0 DUP1 REVERT JUMPDEST PUSH2 0x109 PUSH1 0x4 DUP1 CALLDATASIZE SUB DUP2 ADD SWAP1 PUSH2 0x104 SWAP2 SWAP1 PUSH2 0xE6D JUMP JUMPDEST PUSH2 0x2FF JUMP JUMPDEST PUSH1 0x40 MLOAD PUSH2 0x116 SWAP2 SWAP1 PUSH2 0xEC6 JUMP JUMPDEST PUSH1 0x40 MLOAD DUP1 SWAP2 SUB SWAP1 RETURN JUMPDEST PUSH2 0x127 PUSH2 0x324 JUMP JUMPDEST PUSH1 0x40 MLOAD PUSH2 0x134 SWAP2 SWAP1 PUSH2 0xF7A JUMP JUMPDEST PUSH1 0x40 MLOAD DUP1 SWAP2 SUB SWAP1 RETURN JUMPDEST PUSH2 0x157 PUSH1 0x4 DUP1 CALLDATASIZE SUB DUP2 ADD SWAP1 PUSH2 0x152 SWAP2 SWAP1 PUSH2 0xFC8 JUMP JUMPDEST PUSH2 0x3B6 JUMP JUMPDEST PUSH1 0x40 MLOAD PUSH2 0x164 SWAP2 SWAP1 PUSH2 0x1023 JUMP JUMPDEST PUSH1 0x40 MLOAD DUP1 SWAP2 SUB SWAP1 RETURN JUMPDEST PUSH2 0x175 PUSH2 0x4D0 JUMP JUMPDEST PUSH1 0x40 MLOAD PUSH2 0x182 SWAP2 SWAP1 PUSH2 0xEC6 JUMP JUMPDEST PUSH1 0x40 MLOAD DUP1 SWAP2 SUB SWAP1 RETURN JUMPDEST PUSH2 0x1A5 PUSH1 0x4 DUP1 CALLDATASIZE SUB DUP2 ADD SWAP1 PUSH2 0x1A0 SWAP2 SWAP1 PUSH2 0x103E JUMP JUMPDEST PUSH2 0x4DA JUMP JUMPDEST PUSH1 0x40 MLOAD PUSH2 0x1B2 SWAP2 SWAP1 PUSH2 0x1023 JUMP JUMPDEST PUSH1 0x40 MLOAD DUP1 SWAP2 SUB SWAP1 RETURN JUMPDEST PUSH2 0x1C3 PUSH2 0x64A JUMP JUMPDEST PUSH1 0x40 MLOAD PUSH2 0x1D0 SWAP2 SWAP1 PUSH2 0x10AD JUMP JUMPDEST PUSH1 0x40 MLOAD DUP1 SWAP2 SUB SWAP1 RETURN JUMPDEST PUSH2 0x1E1 PUSH2 0x661 JUMP JUMPDEST PUSH1 0x40 MLOAD PUSH2 0x1EE SWAP2 SWAP1 PUSH2 0x10AD JUMP JUMPDEST PUSH1 0x40 MLOAD DUP1 SWAP2 SUB SWAP1 RETURN JUMPDEST PUSH2 0x1FF PUSH2 0x674 JUMP JUMPDEST PUSH1 0x40 MLOAD PUSH2 0x20C SWAP2 SWAP1 PUSH2 0xEC6 JUMP JUMPDEST PUSH1 0x40 MLOAD DUP1 SWAP2 SUB SWAP1 RETURN JUMPDEST PUSH2 0x22F PUSH1 0x4 DUP1 CALLDATASIZE SUB DUP2 ADD SWAP1 PUSH2 0x22A SWAP2 SWAP1 PUSH2 0x10C8 JUMP JUMPDEST PUSH2 0x67A JUMP JUMPDEST PUSH1 0x40 MLOAD PUSH2 0x23C SWAP2 SWAP1 PUSH2 0xEC6 JUMP JUMPDEST PUSH1 0x40 MLOAD DUP1 SWAP2 SUB SWAP1 RETURN JUMPDEST PUSH2 0x24D PUSH2 0x6C2 JUMP JUMPDEST PUSH1 0x40 MLOAD PUSH2 0x25A SWAP2 SWAP1 PUSH2 0xF7A JUMP JUMPDEST PUSH1 0x40 MLOAD DUP1 SWAP2 SUB SWAP1 RETURN JUMPDEST PUSH2 0x27D PUSH1 0x4 DUP1 CALLDATASIZE SUB DUP2 ADD SWAP1 PUSH2 0x278 SWAP2 SWAP1 PUSH2 0xFC8 JUMP JUMPDEST PUSH2 0x754 JUMP JUMPDEST PUSH1 0x40 MLOAD PUSH2 0x28A SWAP2 SWAP1 PUSH2 0x1023 JUMP JUMPDEST PUSH1 0x40 MLOAD DUP1 SWAP2 SUB SWAP1 RETURN JUMPDEST PUSH2 0x29B PUSH2 0x7D0 JUMP JUMPDEST PUSH1 0x40 MLOAD PUSH2 0x2A8 SWAP2 SWAP1 PUSH2 0xF7A JUMP JUMPDEST PUSH1 0x40 MLOAD DUP1 SWAP2 SUB SWAP1 RETURN JUMPDEST PUSH2 0x2B9 PUSH2 0x85E JUMP JUMPDEST PUSH1 0x40 MLOAD PUSH2 0x2C6 SWAP2 SWAP1 PUSH2 0xF7A JUMP JUMPDEST PUSH1 0x40 MLOAD DUP1 SWAP2 SUB SWAP1 RETURN JUMPDEST PUSH2 0x2E9 PUSH1 0x4 DUP1 CALLDATASIZE SUB DUP2 ADD SWAP1 PUSH2 0x2E4 SWAP2 SWAP1 PUSH2 0xE6D JUMP JUMPDEST PUSH2 0x8EC JUMP JUMPDEST PUSH1 0x40 MLOAD PUSH2 0x2F6 SWAP2 SWAP1 PUSH2 0xEC6 JUMP JUMPDEST PUSH1 0x40 MLOAD DUP1 SWAP2 SUB SWAP1 RETURN JUMPDEST PUSH1 0x1 PUSH1 0x20 MSTORE DUP2 PUSH1 0x0 MSTORE PUSH1 0x40 PUSH1 0x0 KECCAK256 PUSH1 0x20 MSTORE DUP1 PUSH1 0x0 MSTORE PUSH1 0x40 PUSH1 0x0 KECCAK256 PUSH1 0x0 SWAP2 POP SWAP2 POP POP SLOAD DUP2 JUMP JUMPDEST PUSH1 0x60 PUSH1 0x3 DUP1 SLOAD PUSH2 0x333 SWAP1 PUSH2 0x1124 JUMP JUMPDEST DUP1 PUSH1 0x1F ADD PUSH1 0x20 DUP1 SWAP2 DIV MUL PUSH1 0x20 ADD PUSH1 0x40 MLOAD SWAP1 DUP2 ADD PUSH1 0x40 MSTORE DUP1 SWAP3 SWAP2 SWAP1 DUP2 DUP2 MSTORE PUSH1 0x20 ADD DUP3 DUP1 SLOAD PUSH2 0x35F SWAP1 PUSH2 0x1124 JUMP JUMPDEST DUP1 ISZERO PUSH2 0x3AC JUMPI DUP1 PUSH1 0x1F LT PUSH2 0x381 JUMPI PUSH2 0x100 DUP1 DUP4 SLOAD DIV MUL DUP4 MSTORE SWAP2 PUSH1 0x20 ADD SWAP2 PUSH2 0x3AC JUMP JUMPDEST DUP3 ADD SWAP2 SWAP1 PUSH1 0x0 MSTORE PUSH1 0x20 PUSH1 0x0 KECCAK256 SWAP1 JUMPDEST DUP2 SLOAD DUP2 MSTORE SWAP1 PUSH1 0x1 ADD SWAP1 PUSH1 0x20 ADD DUP1 DUP4 GT PUSH2 0x38F JUMPI DUP3 SWAP1 SUB PUSH1 0x1F AND DUP3 ADD SWAP2 JUMPDEST POP POP POP POP POP SWAP1 POP SWAP1 JUMP JUMPDEST PUSH1 0x0 DUP1 PUSH1 0x1 PUSH1 0x0 CALLER PUSH20 0xFFFFFFFFFFFFFFFFFFFFFFFFFFFFFFFFFFFFFFFF AND PUSH20 0xFFFFFFFFFFFFFFFFFFFFFFFFFFFFFFFFFFFFFFFF AND DUP2 MSTORE PUSH1 0x20 ADD SWAP1 DUP2 MSTORE PUSH1 0x20 ADD PUSH1 0x0 KECCAK256 PUSH1 0x0 DUP6 PUSH20 0xFFFFFFFFFFFFFFFFFFFFFFFFFFFFFFFFFFFFFFFF AND PUSH20 0xFFFFFFFFFFFFFFFFFFFFFFFFFFFFFFFFFFFFFFFF AND DUP2 MSTORE PUSH1 0x20 ADD SWAP1 DUP2 MSTORE PUSH1 0x20 ADD PUSH1 0x0 KECCAK256 SLOAD SWAP1 POP DUP3 PUSH1 0x0 DUP1 CALLER PUSH20 0xFFFFFFFFFFFFFFFFFFFFFFFFFFFFFFFFFFFFFFFF AND PUSH20 0xFFFFFFFFFFFFFFFFFFFFFFFFFFFFFFFFFFFFFFFF AND DUP2 MSTORE PUSH1 0x20 ADD SWAP1 DUP2 MSTORE PUSH1 0x20 ADD PUSH1 0x0 KECCAK256 SLOAD LT ISZERO PUSH2 0x4B9 JUMPI PUSH1 0x40 MLOAD PUSH32 0x8C379A000000000000000000000000000000000000000000000000000000000 DUP2 MSTORE PUSH1 0x4 ADD PUSH2 0x4B0 SWAP1 PUSH2 0x11ED JUMP JUMPDEST PUSH1 0x40 MLOAD DUP1 SWAP2 SUB SWAP1 REVERT JUMPDEST PUSH2 0x4C5 CALLER DUP6 DUP4 DUP7 PUSH2 0x973 JUMP JUMPDEST PUSH1 0x1 SWAP2 POP POP SWAP3 SWAP2 POP POP JUMP JUMPDEST PUSH1 0x0 PUSH1 0x2 SLOAD SWAP1 POP SWAP1 JUMP JUMPDEST PUSH1 0x0 PUSH2 0x4E7 DUP5 DUP5 DUP5 PUSH2 0xBFD JUMP JUMPDEST DUP3 PUSH20 0xFFFFFFFFFFFFFFFFFFFFFFFFFFFFFFFFFFFFFFFF AND DUP5 PUSH20 0xFFFFFFFFFFFFFFFFFFFFFFFFFFFFFFFFFFFFFFFF AND CALLER PUSH20 0xFFFFFFFFFFFFFFFFFFFFFFFFFFFFFFFFFFFFFFFF AND PUSH32 0xD1398BEE19313D6BF672CCB116E51F4A1A947E91C757907F51FBB5B5E56C698F DUP6 PUSH1 0x40 MLOAD PUSH2 0x55B SWAP2 SWAP1 PUSH2 0xEC6 JUMP JUMPDEST PUSH1 0x40 MLOAD DUP1 SWAP2 SUB SWAP1 LOG4 PUSH1 0x0 PUSH1 0x1 PUSH1 0x0 DUP7 PUSH20 0xFFFFFFFFFFFFFFFFFFFFFFFFFFFFFFFFFFFFFFFF AND PUSH20 0xFFFFFFFFFFFFFFFFFFFFFFFFFFFFFFFFFFFFFFFF AND DUP2 MSTORE PUSH1 0x20 ADD SWAP1 DUP2 MSTORE PUSH1 0x20 ADD PUSH1 0x0 KECCAK256 PUSH1 0x0 CALLER PUSH20 0xFFFFFFFFFFFFFFFFFFFFFFFFFFFFFFFFFFFFFFFF AND PUSH20 0xFFFFFFFFFFFFFFFFFFFFFFFFFFFFFFFFFFFFFFFF AND DUP2 MSTORE PUSH1 0x20 ADD SWAP1 DUP2 MSTORE PUSH1 0x20 ADD PUSH1 0x0 KECCAK256 SLOAD SWAP1 POP DUP3 DUP2 LT ISZERO PUSH2 0x627 JUMPI PUSH1 0x40 MLOAD PUSH32 0x8C379A000000000000000000000000000000000000000000000000000000000 DUP2 MSTORE PUSH1 0x4 ADD PUSH2 0x61E SWAP1 PUSH2 0x127F JUMP JUMPDEST PUSH1 0x40 MLOAD DUP1 SWAP2 SUB SWAP1 REVERT JUMPDEST PUSH2 0x63E DUP6 CALLER DUP4 DUP7 DUP6 PUSH2 0x639 SWAP2 SWAP1 PUSH2 0x12CE JUMP JUMPDEST PUSH2 0x973 JUMP JUMPDEST PUSH1 0x1 SWAP2 POP POP SWAP4 SWAP3 POP POP POP JUMP JUMPDEST PUSH1 0x0 PUSH1 0x5 PUSH1 0x0 SWAP1 SLOAD SWAP1 PUSH2 0x100 EXP SWAP1 DIV PUSH1 0xFF AND SWAP1 POP SWAP1 JUMP JUMPDEST PUSH1 0x5 PUSH1 0x0 SWAP1 SLOAD SWAP1 PUSH2 0x100 EXP SWAP1 DIV PUSH1 0xFF AND DUP2 JUMP JUMPDEST PUSH1 0x2 SLOAD DUP2 JUMP JUMPDEST PUSH1 0x0 DUP1 PUSH1 0x0 DUP4 PUSH20 0xFFFFFFFFFFFFFFFFFFFFFFFFFFFFFFFFFFFFFFFF AND PUSH20 0xFFFFFFFFFFFFFFFFFFFFFFFFFFFFFFFFFFFFFFFF AND DUP2 MSTORE PUSH1 0x20 ADD SWAP1 DUP2 MSTORE PUSH1 0x20 ADD PUSH1 0x0 KECCAK256 SLOAD SWAP1 POP SWAP2 SWAP1 POP JUMP JUMPDEST PUSH1 0x60 PUSH1 0x4 DUP1 SLOAD PUSH2 0x6D1 SWAP1 PUSH2 0x1124 JUMP JUMPDEST DUP1 PUSH1 0x1F ADD PUSH1 0x20 DUP1 SWAP2 DIV MUL PUSH1 0x20 ADD PUSH1 0x40 MLOAD SWAP1 DUP2 ADD PUSH1 0x40 MSTORE DUP1 SWAP3 SWAP2 SWAP1 DUP2 DUP2 MSTORE PUSH1 0x20 ADD DUP3 DUP1 SLOAD PUSH2 0x6FD SWAP1 PUSH2 0x1124 JUMP JUMPDEST DUP1 ISZERO PUSH2 0x74A JUMPI DUP1 PUSH1 0x1F LT PUSH2 0x71F JUMPI PUSH2 0x100 DUP1 DUP4 SLOAD DIV MUL DUP4 MSTORE SWAP2 PUSH1 0x20 ADD SWAP2 PUSH2 0x74A JUMP JUMPDEST DUP3 ADD SWAP2 SWAP1 PUSH1 0x0 MSTORE PUSH1 0x20 PUSH1 0x0 KECCAK256 SWAP1 JUMPDEST DUP2 SLOAD DUP2 MSTORE SWAP1 PUSH1 0x1 ADD SWAP1 PUSH1 0x20 ADD DUP1 DUP4 GT PUSH2 0x72D JUMPI DUP3 SWAP1 SUB PUSH1 0x1F AND DUP3 ADD SWAP2 JUMPDEST POP POP POP POP POP SWAP1 POP SWAP1 JUMP JUMPDEST PUSH1 0x0 PUSH2 0x761 CALLER DUP5 DUP5 PUSH2 0xBFD JUMP JUMPDEST DUP3 PUSH20 0xFFFFFFFFFFFFFFFFFFFFFFFFFFFFFFFFFFFFFFFF AND CALLER PUSH20 0xFFFFFFFFFFFFFFFFFFFFFFFFFFFFFFFFFFFFFFFF AND PUSH32 0xDDF252AD1BE2C89B69C2B068FC378DAA952BA7F163C4A11628F55A4DF523B3EF DUP5 PUSH1 0x40 MLOAD PUSH2 0x7BE SWAP2 SWAP1 PUSH2 0xEC6 JUMP JUMPDEST PUSH1 0x40 MLOAD DUP1 SWAP2 SUB SWAP1 LOG3 PUSH1 0x1 SWAP1 POP SWAP3 SWAP2 POP POP JUMP JUMPDEST PUSH1 0x4 DUP1 SLOAD PUSH2 0x7DD SWAP1 PUSH2 0x1124 JUMP JUMPDEST DUP1 PUSH1 0x1F ADD PUSH1 0x20 DUP1 SWAP2 DIV MUL PUSH1 0x20 ADD PUSH1 0x40 MLOAD SWAP1 DUP2 ADD PUSH1 0x40 MSTORE DUP1 SWAP3 SWAP2 SWAP1 DUP2 DUP2 MSTORE PUSH1 0x20 ADD DUP3 DUP1 SLOAD PUSH2 0x809 SWAP1 PUSH2 0x1124 JUMP JUMPDEST DUP1 ISZERO PUSH2 0x856 JUMPI DUP1 PUSH1 0x1F LT PUSH2 0x82B JUMPI PUSH2 0x100 DUP1 DUP4 SLOAD DIV MUL DUP4 MSTORE SWAP2 PUSH1 0x20 ADD SWAP2 PUSH2 0x856 JUMP JUMPDEST DUP3 ADD SWAP2 SWAP1 PUSH1 0x0 MSTORE PUSH1 0x20 PUSH1 0x0 KECCAK256 SWAP1 JUMPDEST DUP2 SLOAD DUP2 MSTORE SWAP1 PUSH1 0x1 ADD SWAP1 PUSH1 0x20 ADD DUP1 DUP4 GT PUSH2 0x839 JUMPI DUP3 SWAP1 SUB PUSH1 0x1F AND DUP3 ADD SWAP2 JUMPDEST POP POP POP POP POP DUP2 JUMP JUMPDEST PUSH1 0x3 DUP1 SLOAD PUSH2 0x86B SWAP1 PUSH2 0x1124 JUMP JUMPDEST DUP1 PUSH1 0x1F ADD PUSH1 0x20 DUP1 SWAP2 DIV MUL PUSH1 0x20 ADD PUSH1 0x40 MLOAD SWAP1 DUP2 ADD PUSH1 0x40 MSTORE DUP1 SWAP3 SWAP2 SWAP1 DUP2 DUP2 MSTORE PUSH1 0x20 ADD DUP3 DUP1 SLOAD PUSH2 0x897 SWAP1 PUSH2 0x1124 JUMP JUMPDEST DUP1 ISZERO PUSH2 0x8E4 JUMPI DUP1 PUSH1 0x1F LT PUSH2 0x8B9 JUMPI PUSH2 0x100 DUP1 DUP4 SLOAD DIV MUL DUP4 MSTORE SWAP2 PUSH1 0x20 ADD SWAP2 PUSH2 0x8E4 JUMP JUMPDEST DUP3 ADD SWAP2 SWAP1 PUSH1 0x0 MSTORE PUSH1 0x20 PUSH1 0x0 KECCAK256 SWAP1 JUMPDEST DUP2 SLOAD DUP2 MSTORE SWAP1 PUSH1 0x1 ADD SWAP1 PUSH1 0x20 ADD DUP1 DUP4 GT PUSH2 0x8C7 JUMPI DUP3 SWAP1 SUB PUSH1 0x1F AND DUP3 ADD SWAP2 JUMPDEST POP POP POP POP POP DUP2 JUMP JUMPDEST PUSH1 0x0 PUSH1 0x1 PUSH1 0x0 DUP5 PUSH20 0xFFFFFFFFFFFFFFFFFFFFFFFFFFFFFFFFFFFFFFFF AND PUSH20 0xFFFFFFFFFFFFFFFFFFFFFFFFFFFFFFFFFFFFFFFF AND DUP2 MSTORE PUSH1 0x20 ADD SWAP1 DUP2 MSTORE PUSH1 0x20 ADD PUSH1 0x0 KECCAK256 PUSH1 0x0 DUP4 PUSH20 0xFFFFFFFFFFFFFFFFFFFFFFFFFFFFFFFFFFFFFFFF AND PUSH20 0xFFFFFFFFFFFFFFFFFFFFFFFFFFFFFFFFFFFFFFFF AND DUP2 MSTORE PUSH1 0x20 ADD SWAP1 DUP2 MSTORE PUSH1 0x20 ADD PUSH1 0x0 KECCAK256 SLOAD SWAP1 POP SWAP3 SWAP2 POP POP JUMP JUMPDEST PUSH1 0x0 PUSH20 0xFFFFFFFFFFFFFFFFFFFFFFFFFFFFFFFFFFFFFFFF AND DUP5 PUSH20 0xFFFFFFFFFFFFFFFFFFFFFFFFFFFFFFFFFFFFFFFF AND SUB PUSH2 0x9E2 JUMPI PUSH1 0x40 MLOAD PUSH32 0x8C379A000000000000000000000000000000000000000000000000000000000 DUP2 MSTORE PUSH1 0x4 ADD PUSH2 0x9D9 SWAP1 PUSH2 0x1374 JUMP JUMPDEST PUSH1 0x40 MLOAD DUP1 SWAP2 SUB SWAP1 REVERT JUMPDEST PUSH1 0x0 PUSH20 0xFFFFFFFFFFFFFFFFFFFFFFFFFFFFFFFFFFFFFFFF AND DUP4 PUSH20 0xFFFFFFFFFFFFFFFFFFFFFFFFFFFFFFFFFFFFFFFF AND SUB PUSH2 0xA51 JUMPI PUSH1 0x40 MLOAD PUSH32 0x8C379A000000000000000000000000000000000000000000000000000000000 DUP2 MSTORE PUSH1 0x4 ADD PUSH2 0xA48 SWAP1 PUSH2 0x1406 JUMP JUMPDEST PUSH1 0x40 MLOAD DUP1 SWAP2 SUB SWAP1 REVERT JUMPDEST PUSH1 0x1 PUSH1 0x0 DUP6 PUSH20 0xFFFFFFFFFFFFFFFFFFFFFFFFFFFFFFFFFFFFFFFF AND PUSH20 0xFFFFFFFFFFFFFFFFFFFFFFFFFFFFFFFFFFFFFFFF AND DUP2 MSTORE PUSH1 0x20 ADD SWAP1 DUP2 MSTORE PUSH1 0x20 ADD PUSH1 0x0 KECCAK256 PUSH1 0x0 DUP5 PUSH20 0xFFFFFFFFFFFFFFFFFFFFFFFFFFFFFFFFFFFFFFFF AND PUSH20 0xFFFFFFFFFFFFFFFFFFFFFFFFFFFFFFFFFFFFFFFF AND DUP2 MSTORE PUSH1 0x20 ADD SWAP1 DUP2 MSTORE PUSH1 0x20 ADD PUSH1 0x0 KECCAK256 SLOAD DUP3 EQ PUSH2 0xB0F JUMPI PUSH1 0x40 MLOAD PUSH32 0x8C379A000000000000000000000000000000000000000000000000000000000 DUP2 MSTORE PUSH1 0x4 ADD PUSH2 0xB06 SWAP1 PUSH2 0x1472 JUMP JUMPDEST PUSH1 0x40 MLOAD DUP1 SWAP2 SUB SWAP1 REVERT JUMPDEST DUP1 PUSH1 0x1 PUSH1 0x0 DUP7 PUSH20 0xFFFFFFFFFFFFFFFFFFFFFFFFFFFFFFFFFFFFFFFF AND PUSH20 0xFFFFFFFFFFFFFFFFFFFFFFFFFFFFFFFFFFFFFFFF AND DUP2 MSTORE PUSH1 0x20 ADD SWAP1 DUP2 MSTORE PUSH1 0x20 ADD PUSH1 0x0 KECCAK256 PUSH1 0x0 DUP6 PUSH20 0xFFFFFFFFFFFFFFFFFFFFFFFFFFFFFFFFFFFFFFFF AND PUSH20 0xFFFFFFFFFFFFFFFFFFFFFFFFFFFFFFFFFFFFFFFF AND DUP2 MSTORE PUSH1 0x20 ADD SWAP1 DUP2 MSTORE PUSH1 0x20 ADD PUSH1 0x0 KECCAK256 DUP2 SWAP1 SSTORE POP DUP3 PUSH20 0xFFFFFFFFFFFFFFFFFFFFFFFFFFFFFFFFFFFFFFFF AND DUP5 PUSH20 0xFFFFFFFFFFFFFFFFFFFFFFFFFFFFFFFFFFFFFFFF AND PUSH32 0xB3FD5071835887567A0671151121894DDCCC2842F1D10BEDAD13E0D17CACE9A7 DUP5 DUP5 PUSH1 0x40 MLOAD PUSH2 0xBEF SWAP3 SWAP2 SWAP1 PUSH2 0x1492 JUMP JUMPDEST PUSH1 0x40 MLOAD DUP1 SWAP2 SUB SWAP1 LOG3 POP POP POP POP JUMP JUMPDEST PUSH1 0x0 PUSH20 0xFFFFFFFFFFFFFFFFFFFFFFFFFFFFFFFFFFFFFFFF AND DUP4 PUSH20 0xFFFFFFFFFFFFFFFFFFFFFFFFFFFFFFFFFFFFFFFF AND SUB PUSH2 0xC6C JUMPI PUSH1 0x40 MLOAD PUSH32 0x8C379A000000000000000000000000000000000000000000000000000000000 DUP2 MSTORE PUSH1 0x4 ADD PUSH2 0xC63 SWAP1 PUSH2 0x152D JUMP JUMPDEST PUSH1 0x40 MLOAD DUP1 SWAP2 SUB SWAP1 REVERT JUMPDEST PUSH1 0x0 PUSH20 0xFFFFFFFFFFFFFFFFFFFFFFFFFFFFFFFFFFFFFFFF AND DUP3 PUSH20 0xFFFFFFFFFFFFFFFFFFFFFFFFFFFFFFFFFFFFFFFF AND SUB PUSH2 0xCDB JUMPI PUSH1 0x40 MLOAD PUSH32 0x8C379A000000000000000000000000000000000000000000000000000000000 DUP2 MSTORE PUSH1 0x4 ADD PUSH2 0xCD2 SWAP1 PUSH2 0x15BF JUMP JUMPDEST PUSH1 0x40 MLOAD DUP1 SWAP2 SUB SWAP1 REVERT JUMPDEST PUSH1 0x0 DUP1 PUSH1 0x0 DUP6 PUSH20 0xFFFFFFFFFFFFFFFFFFFFFFFFFFFFFFFFFFFFFFFF AND PUSH20 0xFFFFFFFFFFFFFFFFFFFFFFFFFFFFFFFFFFFFFFFF AND DUP2 MSTORE PUSH1 0x20 ADD SWAP1 DUP2 MSTORE PUSH1 0x20 ADD PUSH1 0x0 KECCAK256 SLOAD SWAP1 POP DUP2 DUP2 LT ISZERO PUSH2 0xD61 JUMPI PUSH1 0x40 MLOAD PUSH32 0x8C379A000000000000000000000000000000000000000000000000000000000 DUP2 MSTORE PUSH1 0x4 ADD PUSH2 0xD58 SWAP1 PUSH2 0x1651 JUMP JUMPDEST PUSH1 0x40 MLOAD DUP1 SWAP2 SUB SWAP1 REVERT JUMPDEST DUP2 DUP2 PUSH2 0xD6D SWAP2 SWAP1 PUSH2 0x12CE JUMP JUMPDEST PUSH1 0x0 DUP1 DUP7 PUSH20 0xFFFFFFFFFFFFFFFFFFFFFFFFFFFFFFFFFFFFFFFF AND PUSH20 0xFFFFFFFFFFFFFFFFFFFFFFFFFFFFFFFFFFFFFFFF AND DUP2 MSTORE PUSH1 0x20 ADD SWAP1 DUP2 MSTORE PUSH1 0x20 ADD PUSH1 0x0 KECCAK256 DUP2 SWAP1 SSTORE POP DUP2 PUSH1 0x0 DUP1 DUP6 PUSH20 0xFFFFFFFFFFFFFFFFFFFFFFFFFFFFFFFFFFFFFFFF AND PUSH20 0xFFFFFFFFFFFFFFFFFFFFFFFFFFFFFFFFFFFFFFFF AND DUP2 MSTORE PUSH1 0x20 ADD SWAP1 DUP2 MSTORE PUSH1 0x20 ADD PUSH1 0x0 KECCAK256 PUSH1 0x0 DUP3 DUP3 SLOAD PUSH2 0xDFD SWAP2 SWAP1 PUSH2 0x1671 JUMP JUMPDEST SWAP3 POP POP DUP2 SWAP1 SSTORE POP POP POP POP POP JUMP JUMPDEST PUSH1 0x0 DUP1 REVERT JUMPDEST PUSH1 0x0 PUSH20 0xFFFFFFFFFFFFFFFFFFFFFFFFFFFFFFFFFFFFFFFF DUP3 AND SWAP1 POP SWAP2 SWAP1 POP JUMP JUMPDEST PUSH1 0x0 PUSH2 0xE3A DUP3 PUSH2 0xE0F JUMP JUMPDEST SWAP1 POP SWAP2 SWAP1 POP JUMP JUMPDEST PUSH2 0xE4A DUP2 PUSH2 0xE2F JUMP JUMPDEST DUP2 EQ PUSH2 0xE55 JUMPI PUSH1 0x0 DUP1 REVERT JUMPDEST POP JUMP JUMPDEST PUSH1 0x0 DUP2 CALLDATALOAD SWAP1 POP PUSH2 0xE67 DUP2 PUSH2 0xE41 JUMP JUMPDEST SWAP3 SWAP2 POP POP JUMP JUMPDEST PUSH1 0x0 DUP1 PUSH1 0x40 DUP4 DUP6 SUB SLT ISZERO PUSH2 0xE84 JUMPI PUSH2 0xE83 PUSH2 0xE0A JUMP JUMPDEST JUMPDEST PUSH1 0x0 PUSH2 0xE92 DUP6 DUP3 DUP7 ADD PUSH2 0xE58 JUMP JUMPDEST SWAP3 POP POP PUSH1 0x20 PUSH2 0xEA3 DUP6 DUP3 DUP7 ADD PUSH2 0xE58 JUMP JUMPDEST SWAP2 POP POP SWAP3 POP SWAP3 SWAP1 POP JUMP JUMPDEST PUSH1 0x0 DUP2 SWAP1 POP SWAP2 SWAP1 POP JUMP JUMPDEST PUSH2 0xEC0 DUP2 PUSH2 0xEAD JUMP JUMPDEST DUP3 MSTORE POP POP JUMP JUMPDEST PUSH1 0x0 PUSH1 0x20 DUP3 ADD SWAP1 POP PUSH2 0xEDB PUSH1 0x0 DUP4 ADD DUP5 PUSH2 0xEB7 JUMP JUMPDEST SWAP3 SWAP2 POP POP JUMP JUMPDEST PUSH1 0x0 DUP2 MLOAD SWAP1 POP SWAP2 SWAP1 POP JUMP JUMPDEST PUSH1 0x0 DUP3 DUP3 MSTORE PUSH1 0x20 DUP3 ADD SWAP1 POP SWAP3 SWAP2 POP POP JUMP JUMPDEST PUSH1 0x0 JUMPDEST DUP4 DUP2 LT ISZERO PUSH2 0xF1B JUMPI DUP1 DUP3 ADD MLOAD DUP2 DUP5 ADD MSTORE PUSH1 0x20 DUP2 ADD SWAP1 POP PUSH2 0xF00 JUMP JUMPDEST DUP4 DUP2 GT ISZERO PUSH2 0xF2A JUMPI PUSH1 0x0 DUP5 DUP5 ADD MSTORE JUMPDEST POP POP POP POP JUMP JUMPDEST PUSH1 0x0 PUSH1 0x1F NOT PUSH1 0x1F DUP4 ADD AND SWAP1 POP SWAP2 SWAP1 POP JUMP JUMPDEST PUSH1 0x0 PUSH2 0xF4C DUP3 PUSH2 0xEE1 JUMP JUMPDEST PUSH2 0xF56 DUP2 DUP6 PUSH2 0xEEC JUMP JUMPDEST SWAP4 POP PUSH2 0xF66 DUP2 DUP6 PUSH1 0x20 DUP7 ADD PUSH2 0xEFD JUMP JUMPDEST PUSH2 0xF6F DUP2 PUSH2 0xF30 JUMP JUMPDEST DUP5 ADD SWAP2 POP POP SWAP3 SWAP2 POP POP JUMP JUMPDEST PUSH1 0x0 PUSH1 0x20 DUP3 ADD SWAP1 POP DUP2 DUP2 SUB PUSH1 0x0 DUP4 ADD MSTORE PUSH2 0xF94 DUP2 DUP5 PUSH2 0xF41 JUMP JUMPDEST SWAP1 POP SWAP3 SWAP2 POP POP JUMP JUMPDEST PUSH2 0xFA5 DUP2 PUSH2 0xEAD JUMP JUMPDEST DUP2 EQ PUSH2 0xFB0 JUMPI PUSH1 0x0 DUP1 REVERT JUMPDEST POP JUMP JUMPDEST PUSH1 0x0 DUP2 CALLDATALOAD SWAP1 POP PUSH2 0xFC2 DUP2 PUSH2 0xF9C JUMP JUMPDEST SWAP3 SWAP2 POP POP JUMP JUMPDEST PUSH1 0x0 DUP1 PUSH1 0x40 DUP4 DUP6 SUB SLT ISZERO PUSH2 0xFDF JUMPI PUSH2 0xFDE PUSH2 0xE0A JUMP JUMPDEST JUMPDEST PUSH1 0x0 PUSH2 0xFED DUP6 DUP3 DUP7 ADD PUSH2 0xE58 JUMP JUMPDEST SWAP3 POP POP PUSH1 0x20 PUSH2 0xFFE DUP6 DUP3 DUP7 ADD PUSH2 0xFB3 JUMP JUMPDEST SWAP2 POP POP SWAP3 POP SWAP3 SWAP1 POP JUMP JUMPDEST PUSH1 0x0 DUP2 ISZERO ISZERO SWAP1 POP SWAP2 SWAP1 POP JUMP JUMPDEST PUSH2 0x101D DUP2 PUSH2 0x1008 JUMP JUMPDEST DUP3 MSTORE POP POP JUMP JUMPDEST PUSH1 0x0 PUSH1 0x20 DUP3 ADD SWAP1 POP PUSH2 0x1038 PUSH1 0x0 DUP4 ADD DUP5 PUSH2 0x1014 JUMP JUMPDEST SWAP3 SWAP2 POP POP JUMP JUMPDEST PUSH1 0x0 DUP1 PUSH1 0x0 PUSH1 0x60 DUP5 DUP7 SUB SLT ISZERO PUSH2 0x1057 JUMPI PUSH2 0x1056 PUSH2 0xE0A JUMP JUMPDEST JUMPDEST PUSH1 0x0 PUSH2 0x1065 DUP7 DUP3 DUP8 ADD PUSH2 0xE58 JUMP JUMPDEST SWAP4 POP POP PUSH1 0x20 PUSH2 0x1076 DUP7 DUP3 DUP8 ADD PUSH2 0xE58 JUMP JUMPDEST SWAP3 POP POP PUSH1 0x40 PUSH2 0x1087 DUP7 DUP3 DUP8 ADD PUSH2 0xFB3 JUMP JUMPDEST SWAP2 POP POP SWAP3 POP SWAP3 POP SWAP3 JUMP JUMPDEST PUSH1 0x0 PUSH1 0xFF DUP3 AND SWAP1 POP SWAP2 SWAP1 POP JUMP JUMPDEST PUSH2 0x10A7 DUP2 PUSH2 0x1091 JUMP JUMPDEST DUP3 MSTORE POP POP JUMP JUMPDEST PUSH1 0x0 PUSH1 0x20 DUP3 ADD SWAP1 POP PUSH2 0x10C2 PUSH1 0x0 DUP4 ADD DUP5 PUSH2 0x109E JUMP JUMPDEST SWAP3 SWAP2 POP POP JUMP JUMPDEST PUSH1 0x0 PUSH1 0x20 DUP3 DUP5 SUB SLT ISZERO PUSH2 0x10DE JUMPI PUSH2 0x10DD PUSH2 0xE0A JUMP JUMPDEST JUMPDEST PUSH1 0x0 PUSH2 0x10EC DUP5 DUP3 DUP6 ADD PUSH2 0xE58 JUMP JUMPDEST SWAP2 POP POP SWAP3 SWAP2 POP POP JUMP JUMPDEST PUSH32 0x4E487B7100000000000000000000000000000000000000000000000000000000 PUSH1 0x0 MSTORE PUSH1 0x22 PUSH1 0x4 MSTORE PUSH1 0x24 PUSH1 0x0 REVERT JUMPDEST PUSH1 0x0 PUSH1 0x2 DUP3 DIV SWAP1 POP PUSH1 0x1 DUP3 AND DUP1 PUSH2 0x113C JUMPI PUSH1 0x7F DUP3 AND SWAP2 POP JUMPDEST PUSH1 0x20 DUP3 LT DUP2 SUB PUSH2 0x114F JUMPI PUSH2 0x114E PUSH2 0x10F5 JUMP JUMPDEST JUMPDEST POP SWAP2 SWAP1 POP JUMP JUMPDEST PUSH32 0x45524332303A2054686520616D6F756E7420746F206265207472616E73666572 PUSH1 0x0 DUP3 ADD MSTORE PUSH32 0x72656420657863656564732074686520616D6F756E74206F6620746F6B656E73 PUSH1 0x20 DUP3 ADD MSTORE PUSH32 0x2068656C6420627920746865206F776E65722E00000000000000000000000000 PUSH1 0x40 DUP3 ADD MSTORE POP JUMP JUMPDEST PUSH1 0x0 PUSH2 0x11D7 PUSH1 0x53 DUP4 PUSH2 0xEEC JUMP JUMPDEST SWAP2 POP PUSH2 0x11E2 DUP3 PUSH2 0x1155 JUMP JUMPDEST PUSH1 0x60 DUP3 ADD SWAP1 POP SWAP2 SWAP1 POP JUMP JUMPDEST PUSH1 0x0 PUSH1 0x20 DUP3 ADD SWAP1 POP DUP2 DUP2 SUB PUSH1 0x0 DUP4 ADD MSTORE PUSH2 0x1206 DUP2 PUSH2 0x11CA JUMP JUMPDEST SWAP1 POP SWAP2 SWAP1 POP JUMP JUMPDEST PUSH32 0x45524332303A207472616E7366657220616D6F756E7420657863656564732061 PUSH1 0x0 DUP3 ADD MSTORE PUSH32 0x6C6C6F77616E6365000000000000000000000000000000000000000000000000 PUSH1 0x20 DUP3 ADD MSTORE POP JUMP JUMPDEST PUSH1 0x0 PUSH2 0x1269 PUSH1 0x28 DUP4 PUSH2 0xEEC JUMP JUMPDEST SWAP2 POP PUSH2 0x1274 DUP3 PUSH2 0x120D JUMP JUMPDEST PUSH1 0x40 DUP3 ADD SWAP1 POP SWAP2 SWAP1 POP JUMP JUMPDEST PUSH1 0x0 PUSH1 0x20 DUP3 ADD SWAP1 POP DUP2 DUP2 SUB PUSH1 0x0 DUP4 ADD MSTORE PUSH2 0x1298 DUP2 PUSH2 0x125C JUMP JUMPDEST SWAP1 POP SWAP2 SWAP1 POP JUMP JUMPDEST PUSH32 0x4E487B7100000000000000000000000000000000000000000000000000000000 PUSH1 0x0 MSTORE PUSH1 0x11 PUSH1 0x4 MSTORE PUSH1 0x24 PUSH1 0x0 REVERT JUMPDEST PUSH1 0x0 PUSH2 0x12D9 DUP3 PUSH2 0xEAD JUMP JUMPDEST SWAP2 POP PUSH2 0x12E4 DUP4 PUSH2 0xEAD JUMP JUMPDEST SWAP3 POP DUP3 DUP3 LT ISZERO PUSH2 0x12F7 JUMPI PUSH2 0x12F6 PUSH2 0x129F JUMP JUMPDEST JUMPDEST DUP3 DUP3 SUB SWAP1 POP SWAP3 SWAP2 POP POP JUMP JUMPDEST PUSH32 0x45524332303A20617070726F76652066726F6D20746865207A65726F20616464 PUSH1 0x0 DUP3 ADD MSTORE PUSH32 0x7265737300000000000000000000000000000000000000000000000000000000 PUSH1 0x20 DUP3 ADD MSTORE POP JUMP JUMPDEST PUSH1 0x0 PUSH2 0x135E PUSH1 0x24 DUP4 PUSH2 0xEEC JUMP JUMPDEST SWAP2 POP PUSH2 0x1369 DUP3 PUSH2 0x1302 JUMP JUMPDEST PUSH1 0x40 DUP3 ADD SWAP1 POP SWAP2 SWAP1 POP JUMP JUMPDEST PUSH1 0x0 PUSH1 0x20 DUP3 ADD SWAP1 POP DUP2 DUP2 SUB PUSH1 0x0 DUP4 ADD MSTORE PUSH2 0x138D DUP2 PUSH2 0x1351 JUMP JUMPDEST SWAP1 POP SWAP2 SWAP1 POP JUMP JUMPDEST PUSH32 0x45524332303A20617070726F766520746F20746865207A65726F206164647265 PUSH1 0x0 DUP3 ADD MSTORE PUSH32 0x7373000000000000000000000000000000000000000000000000000000000000 PUSH1 0x20 DUP3 ADD MSTORE POP JUMP JUMPDEST PUSH1 0x0 PUSH2 0x13F0 PUSH1 0x22 DUP4 PUSH2 0xEEC JUMP JUMPDEST SWAP2 POP PUSH2 0x13FB DUP3 PUSH2 0x1394 JUMP JUMPDEST PUSH1 0x40 DUP3 ADD SWAP1 POP SWAP2 SWAP1 POP JUMP JUMPDEST PUSH1 0x0 PUSH1 0x20 DUP3 ADD SWAP1 POP DUP2 DUP2 SUB PUSH1 0x0 DUP4 ADD MSTORE PUSH2 0x141F DUP2 PUSH2 0x13E3 JUMP JUMPDEST SWAP1 POP SWAP2 SWAP1 POP JUMP JUMPDEST PUSH32 0x45524332303A20696E76616C69642063757272656E74416D6F756E7400000000 PUSH1 0x0 DUP3 ADD MSTORE POP JUMP JUMPDEST PUSH1 0x0 PUSH2 0x145C PUSH1 0x1C DUP4 PUSH2 0xEEC JUMP JUMPDEST SWAP2 POP PUSH2 0x1467 DUP3 PUSH2 0x1426 JUMP JUMPDEST PUSH1 0x20 DUP3 ADD SWAP1 POP SWAP2 SWAP1 POP JUMP JUMPDEST PUSH1 0x0 PUSH1 0x20 DUP3 ADD SWAP1 POP DUP2 DUP2 SUB PUSH1 0x0 DUP4 ADD MSTORE PUSH2 0x148B DUP2 PUSH2 0x144F JUMP JUMPDEST SWAP1 POP SWAP2 SWAP1 POP JUMP JUMPDEST PUSH1 0x0 PUSH1 0x40 DUP3 ADD SWAP1 POP PUSH2 0x14A7 PUSH1 0x0 DUP4 ADD DUP6 PUSH2 0xEB7 JUMP JUMPDEST PUSH2 0x14B4 PUSH1 0x20 DUP4 ADD DUP5 PUSH2 0xEB7 JUMP JUMPDEST SWAP4 SWAP3 POP POP POP JUMP JUMPDEST PUSH32 0x45524332303A207472616E736665722066726F6D20746865207A65726F206164 PUSH1 0x0 DUP3 ADD MSTORE PUSH32 0x6472657373000000000000000000000000000000000000000000000000000000 PUSH1 0x20 DUP3 ADD MSTORE POP JUMP JUMPDEST PUSH1 0x0 PUSH2 0x1517 PUSH1 0x25 DUP4 PUSH2 0xEEC JUMP JUMPDEST SWAP2 POP PUSH2 0x1522 DUP3 PUSH2 0x14BB JUMP JUMPDEST PUSH1 0x40 DUP3 ADD SWAP1 POP SWAP2 SWAP1 POP JUMP JUMPDEST PUSH1 0x0 PUSH1 0x20 DUP3 ADD SWAP1 POP DUP2 DUP2 SUB PUSH1 0x0 DUP4 ADD MSTORE PUSH2 0x1546 DUP2 PUSH2 0x150A JUMP JUMPDEST SWAP1 POP SWAP2 SWAP1 POP JUMP JUMPDEST PUSH32 0x45524332303A207472616E7366657220746F20746865207A65726F2061646472 PUSH1 0x0 DUP3 ADD MSTORE PUSH32 0x6573730000000000000000000000000000000000000000000000000000000000 PUSH1 0x20 DUP3 ADD MSTORE POP JUMP JUMPDEST PUSH1 0x0 PUSH2 0x15A9 PUSH1 0x23 DUP4 PUSH2 0xEEC JUMP JUMPDEST SWAP2 POP PUSH2 0x15B4 DUP3 PUSH2 0x154D JUMP JUMPDEST PUSH1 0x40 DUP3 ADD SWAP1 POP SWAP2 SWAP1 POP JUMP JUMPDEST PUSH1 0x0 PUSH1 0x20 DUP3 ADD SWAP1 POP DUP2 DUP2 SUB PUSH1 0x0 DUP4 ADD MSTORE PUSH2 0x15D8 DUP2 PUSH2 0x159C JUMP JUMPDEST SWAP1 POP SWAP2 SWAP1 POP JUMP JUMPDEST PUSH32 0x45524332303A207472616E7366657220616D6F756E7420657863656564732062 PUSH1 0x0 DUP3 ADD MSTORE PUSH32 0x616C616E63650000000000000000000000000000000000000000000000000000 PUSH1 0x20 DUP3 ADD MSTORE POP JUMP JUMPDEST PUSH1 0x0 PUSH2 0x163B PUSH1 0x26 DUP4 PUSH2 0xEEC JUMP JUMPDEST SWAP2 POP PUSH2 0x1646 DUP3 PUSH2 0x15DF JUMP JUMPDEST PUSH1 0x40 DUP3 ADD SWAP1 POP SWAP2 SWAP1 POP JUMP JUMPDEST PUSH1 0x0 PUSH1 0x20 DUP3 ADD SWAP1 POP DUP2 DUP2 SUB PUSH1 0x0 DUP4 ADD MSTORE PUSH2 0x166A DUP2 PUSH2 0x162E JUMP JUMPDEST SWAP1 POP SWAP2 SWAP1 POP JUMP JUMPDEST PUSH1 0x0 PUSH2 0x167C DUP3 PUSH2 0xEAD JUMP JUMPDEST SWAP2 POP PUSH2 0x1687 DUP4 PUSH2 0xEAD JUMP JUMPDEST SWAP3 POP DUP3 PUSH32 0xFFFFFFFFFFFFFFFFFFFFFFFFFFFFFFFFFFFFFFFFFFFFFFFFFFFFFFFFFFFFFFFF SUB DUP3 GT ISZERO PUSH2 0x16BC JUMPI PUSH2 0x16BB PUSH2 0x129F JUMP JUMPDEST JUMPDEST DUP3 DUP3 ADD SWAP1 POP SWAP3 SWAP2 POP POP JUMP INVALID LOG2 PUSH5 0x6970667358 0x22 SLT KECCAK256 PUSH23 0xE832974ABE40A009C2580B23D9B6E6B7857C3DAB6C0A5A 0xAD SWAP15 0x28 0xCC LOG4 PUSH18 0xFB8164736F6C634300080F00330000000000 "
				},
				"gasEstimates": {
					"creation": {
						"codeDepositCost": "1177000",
						"executionCost": "infinite",
						"totalCost": "infinite"
					},
					"external": {
						"_allowances(address,address)": "infinite",
						"_decimals()": "2560",
						"_name()": "infinite",
						"_symbol()": "infinite",
						"_totalSupply()": "2452",
						"allowance(address,address)": "infinite",
						"approve(address,uint256)": "infinite",
						"balanceOf(address)": "2886",
						"decimals()": "2546",
						"name()": "infinite",
						"symbol()": "infinite",
						"totalSupply()": "2460",
						"transfer(address,uint256)": "infinite",
						"transferFrom(address,address,uint256)": "infinite"
					},
					"internal": {
						"_approve(address,address,uint256,uint256)": "infinite",
						"_transfer(address,address,uint256)": "infinite"
					}
				},
				"methodIdentifiers": {
					"_allowances(address,address)": "024c2ddd",
					"_decimals()": "32424aa3",
					"_name()": "d28d8852",
					"_symbol()": "b09f1266",
					"_totalSupply()": "3eaaf86b",
					"allowance(address,address)": "dd62ed3e",
					"approve(address,uint256)": "095ea7b3",
					"balanceOf(address)": "70a08231",
					"decimals()": "313ce567",
					"name()": "06fdde03",
					"symbol()": "95d89b41",
					"totalSupply()": "18160ddd",
					"transfer(address,uint256)": "a9059cbb",
					"transferFrom(address,address,uint256)": "23b872dd"
				}
			},
			"storageLayout": {
				"storage": [
					{
						"astId": 86,
						"contract": "simpleToken.sol:SimpleToken",
						"label": "_balances",
						"offset": 0,
						"slot": "0",
						"type": "t_mapping(t_address,t_uint256)"
					},
					{
						"astId": 92,
						"contract": "simpleToken.sol:SimpleToken",
						"label": "_allowances",
						"offset": 0,
						"slot": "1",
						"type": "t_mapping(t_address,t_mapping(t_address,t_uint256))"
					},
					{
						"astId": 94,
						"contract": "simpleToken.sol:SimpleToken",
						"label": "_totalSupply",
						"offset": 0,
						"slot": "2",
						"type": "t_uint256"
					},
					{
						"astId": 96,
						"contract": "simpleToken.sol:SimpleToken",
						"label": "_name",
						"offset": 0,
						"slot": "3",
						"type": "t_string_storage"
					},
					{
						"astId": 98,
						"contract": "simpleToken.sol:SimpleToken",
						"label": "_symbol",
						"offset": 0,
						"slot": "4",
						"type": "t_string_storage"
					},
					{
						"astId": 100,
						"contract": "simpleToken.sol:SimpleToken",
						"label": "_decimals",
						"offset": 0,
						"slot": "5",
						"type": "t_uint8"
					},
					{
						"astId": 103,
						"contract": "simpleToken.sol:SimpleToken",
						"label": "E18",
						"offset": 0,
						"slot": "6",
						"type": "t_uint256"
					}
				],
				"types": {
					"t_address": {
						"encoding": "inplace",
						"label": "address",
						"numberOfBytes": "20"
					},
					"t_mapping(t_address,t_mapping(t_address,t_uint256))": {
						"encoding": "mapping",
						"key": "t_address",
						"label": "mapping(address => mapping(address => uint256))",
						"numberOfBytes": "32",
						"value": "t_mapping(t_address,t_uint256)"
					},
					"t_mapping(t_address,t_uint256)": {
						"encoding": "mapping",
						"key": "t_address",
						"label": "mapping(address => uint256)",
						"numberOfBytes": "32",
						"value": "t_uint256"
					},
					"t_string_storage": {
						"encoding": "bytes",
						"label": "string",
						"numberOfBytes": "32"
					},
					"t_uint256": {
						"encoding": "inplace",
						"label": "uint256",
						"numberOfBytes": "32"
					},
					"t_uint8": {
						"encoding": "inplace",
						"label": "uint8",
						"numberOfBytes": "1"
					}
				}
			},
			"userdoc": {
				"kind": "user",
				"methods": {},
				"version": 1
			}
		}
	}
}