{
	"simpleToken.sol": {
		"SimpleToken": {
			"abi": [
				{
					"inputs": [
						{
							"internalType": "string",
							"name": "getName",
							"type": "string"
						},
						{
							"internalType": "string",
							"name": "getSymbol",
							"type": "string"
						}
					],
					"stateMutability": "nonpayable",
					"type": "constructor"
				},
				{
					"anonymous": false,
					"inputs": [
						{
							"indexed": true,
							"internalType": "address",
							"name": "owner",
							"type": "address"
						},
						{
							"indexed": true,
							"internalType": "address",
							"name": "spender",
							"type": "address"
						},
						{
							"indexed": false,
							"internalType": "uint256",
							"name": "oldAmount",
							"type": "uint256"
						},
						{
							"indexed": false,
							"internalType": "uint256",
							"name": "amount",
							"type": "uint256"
						}
					],
					"name": "Approval",
					"type": "event"
				},
				{
					"anonymous": false,
					"inputs": [
						{
							"indexed": true,
							"internalType": "address",
							"name": "preOwner",
							"type": "address"
						},
						{
							"indexed": true,
							"internalType": "address",
							"name": "nextOwner",
							"type": "address"
						}
					],
					"name": "OwnershipTransferred",
					"type": "event"
				},
				{
					"anonymous": false,
					"inputs": [
						{
							"indexed": true,
							"internalType": "address",
							"name": "from",
							"type": "address"
						},
						{
							"indexed": true,
							"internalType": "address",
							"name": "to",
							"type": "address"
						},
						{
							"indexed": false,
							"internalType": "uint256",
							"name": "amount",
							"type": "uint256"
						}
					],
					"name": "Transfer",
					"type": "event"
				},
				{
					"anonymous": false,
					"inputs": [
						{
							"indexed": true,
							"internalType": "address",
							"name": "spender",
							"type": "address"
						},
						{
							"indexed": true,
							"internalType": "address",
							"name": "from",
							"type": "address"
						},
						{
							"indexed": true,
							"internalType": "address",
							"name": "to",
							"type": "address"
						},
						{
							"indexed": false,
							"internalType": "uint256",
							"name": "amount",
							"type": "uint256"
						}
					],
					"name": "Transfer",
					"type": "event"
				},
				{
					"inputs": [
						{
							"internalType": "address",
							"name": "",
							"type": "address"
						},
						{
							"internalType": "address",
							"name": "",
							"type": "address"
						}
					],
					"name": "_allowances",
					"outputs": [
						{
							"internalType": "uint256",
							"name": "",
							"type": "uint256"
						}
					],
					"stateMutability": "view",
					"type": "function"
				},
				{
					"inputs": [],
					"name": "_decimals",
					"outputs": [
						{
							"internalType": "uint8",
							"name": "",
							"type": "uint8"
						}
					],
					"stateMutability": "view",
					"type": "function"
				},
				{
					"inputs": [],
					"name": "_name",
					"outputs": [
						{
							"internalType": "string",
							"name": "",
							"type": "string"
						}
					],
					"stateMutability": "view",
					"type": "function"
				},
				{
					"inputs": [
						{
							"internalType": "address",
							"name": "",
							"type": "address"
						}
					],
					"name": "_personalTokenLock",
					"outputs": [
						{
							"internalType": "bool",
							"name": "",
							"type": "bool"
						}
					],
					"stateMutability": "view",
					"type": "function"
				},
				{
					"inputs": [],
					"name": "_symbol",
					"outputs": [
						{
							"internalType": "string",
							"name": "",
							"type": "string"
						}
					],
					"stateMutability": "view",
					"type": "function"
				},
				{
					"inputs": [],
					"name": "_tokenLock",
					"outputs": [
						{
							"internalType": "bool",
							"name": "",
							"type": "bool"
						}
					],
					"stateMutability": "view",
					"type": "function"
				},
				{
					"inputs": [],
					"name": "_totalSupply",
					"outputs": [
						{
							"internalType": "uint256",
							"name": "",
							"type": "uint256"
						}
					],
					"stateMutability": "view",
					"type": "function"
				},
				{
					"inputs": [
						{
							"internalType": "address",
							"name": "owner",
							"type": "address"
						},
						{
							"internalType": "address",
							"name": "spender",
							"type": "address"
						}
					],
					"name": "allowance",
					"outputs": [
						{
							"internalType": "uint256",
							"name": "",
							"type": "uint256"
						}
					],
					"stateMutability": "view",
					"type": "function"
				},
				{
					"inputs": [
						{
							"internalType": "address",
							"name": "spender",
							"type": "address"
						},
						{
							"internalType": "uint256",
							"name": "amount",
							"type": "uint256"
						}
					],
					"name": "approve",
					"outputs": [
						{
							"internalType": "bool",
							"name": "",
							"type": "bool"
						}
					],
					"stateMutability": "nonpayable",
					"type": "function"
				},
				{
					"inputs": [
						{
							"internalType": "address",
							"name": "account",
							"type": "address"
						}
					],
					"name": "balanceOf",
					"outputs": [
						{
							"internalType": "uint256",
							"name": "",
							"type": "uint256"
						}
					],
					"stateMutability": "view",
					"type": "function"
				},
				{
					"inputs": [],
					"name": "decimals",
					"outputs": [
						{
							"internalType": "uint8",
							"name": "",
							"type": "uint8"
						}
					],
					"stateMutability": "view",
					"type": "function"
				},
				{
					"inputs": [
						{
							"internalType": "address",
							"name": "from",
							"type": "address"
						},
						{
							"internalType": "address",
							"name": "to",
							"type": "address"
						}
					],
					"name": "isTokenLock",
					"outputs": [
						{
							"internalType": "bool",
							"name": "lock",
							"type": "bool"
						}
					],
					"stateMutability": "view",
					"type": "function"
				},
				{
					"inputs": [],
					"name": "name",
					"outputs": [
						{
							"internalType": "string",
							"name": "",
							"type": "string"
						}
					],
					"stateMutability": "view",
					"type": "function"
				},
				{
					"inputs": [],
					"name": "owner",
					"outputs": [
						{
							"internalType": "address",
							"name": "",
							"type": "address"
						}
					],
					"stateMutability": "view",
					"type": "function"
				},
				{
					"inputs": [
						{
							"internalType": "address",
							"name": "_who",
							"type": "address"
						}
					],
					"name": "removePersonalTokenLock",
					"outputs": [],
					"stateMutability": "nonpayable",
					"type": "function"
				},
				{
					"inputs": [],
					"name": "removeTokenLock",
					"outputs": [],
					"stateMutability": "nonpayable",
					"type": "function"
				},
				{
					"inputs": [],
					"name": "symbol",
					"outputs": [
						{
							"internalType": "string",
							"name": "",
							"type": "string"
						}
					],
					"stateMutability": "view",
					"type": "function"
				},
				{
					"inputs": [],
					"name": "totalSupply",
					"outputs": [
						{
							"internalType": "uint256",
							"name": "",
							"type": "uint256"
						}
					],
					"stateMutability": "view",
					"type": "function"
				},
				{
					"inputs": [
						{
							"internalType": "address",
							"name": "recipient",
							"type": "address"
						},
						{
							"internalType": "uint256",
							"name": "amount",
							"type": "uint256"
						}
					],
					"name": "transfer",
					"outputs": [
						{
							"internalType": "bool",
							"name": "",
							"type": "bool"
						}
					],
					"stateMutability": "nonpayable",
					"type": "function"
				},
				{
					"inputs": [
						{
							"internalType": "address",
							"name": "sender",
							"type": "address"
						},
						{
							"internalType": "address",
							"name": "recipient",
							"type": "address"
						},
						{
							"internalType": "uint256",
							"name": "amount",
							"type": "uint256"
						}
					],
					"name": "transferFrom",
					"outputs": [
						{
							"internalType": "bool",
							"name": "",
							"type": "bool"
						}
					],
					"stateMutability": "nonpayable",
					"type": "function"
				},
				{
					"inputs": [
						{
							"internalType": "address",
							"name": "newOwner",
							"type": "address"
						}
					],
					"name": "transferOwnership",
					"outputs": [],
					"stateMutability": "nonpayable",
					"type": "function"
				}
			],
			"devdoc": {
				"kind": "dev",
				"methods": {},
				"version": 1
			},
			"evm": {
				"assembly": "    /* \"simpleToken.sol\":2044:6089  contract SimpleToken is ERC20Interface, OwnerHelper {... */\n  mstore(0x40, 0x80)\n    /* \"simpleToken.sol\":2462:2705  constructor(string memory getName, string memory getSymbol) {... */\n  callvalue\n  dup1\n  iszero\n  tag_1\n  jumpi\n  0x00\n  dup1\n  revert\ntag_1:\n  pop\n  mload(0x40)\n  sub(codesize, bytecodeSize)\n  dup1\n  bytecodeSize\n  dup4\n  codecopy\n  dup2\n  dup2\n  add\n  0x40\n  mstore\n  dup2\n  add\n  swap1\n  tag_2\n  swap2\n  swap1\n  tag_3\n  jump\t// in\ntag_2:\n    /* \"simpleToken.sol\":1677:1687  msg.sender */\n  caller\n    /* \"simpleToken.sol\":1668:1674  _owner */\n  0x00\n  dup1\n    /* \"simpleToken.sol\":1668:1687  _owner = msg.sender */\n  0x0100\n  exp\n  dup2\n  sload\n  dup2\n  0xffffffffffffffffffffffffffffffffffffffff\n  mul\n  not\n  and\n  swap1\n  dup4\n  0xffffffffffffffffffffffffffffffffffffffff\n  and\n  mul\n  or\n  swap1\n  sstore\n  pop\n    /* \"simpleToken.sol\":2538:2545  getName */\n  dup2\n    /* \"simpleToken.sol\":2530:2535  _name */\n  0x04\n    /* \"simpleToken.sol\":2530:2545  _name = getName */\n  swap1\n  dup2\n  tag_8\n  swap2\n  swap1\n  tag_9\n  jump\t// in\ntag_8:\n  pop\n    /* \"simpleToken.sol\":2563:2572  getSymbol */\n  dup1\n    /* \"simpleToken.sol\":2553:2560  _symbol */\n  0x05\n    /* \"simpleToken.sol\":2553:2572  _symbol = getSymbol */\n  swap1\n  dup2\n  tag_10\n  swap2\n  swap1\n  tag_9\n  jump\t// in\ntag_10:\n  pop\n    /* \"simpleToken.sol\":2592:2594  18 */\n  0x12\n    /* \"simpleToken.sol\":2580:2589  _decimals */\n  0x06\n  0x00\n    /* \"simpleToken.sol\":2580:2594  _decimals = 18 */\n  0x0100\n  exp\n  dup2\n  sload\n  dup2\n  0xff\n  mul\n  not\n  and\n  swap1\n  dup4\n  0xff\n  and\n  mul\n  or\n  swap1\n  sstore\n  pop\n    /* \"simpleToken.sol\":2617:2629  100000000e18 */\n  0x52b7d2dcc80cd2e4000000\n    /* \"simpleToken.sol\":2602:2614  _totalSupply */\n  0x03\n    /* \"simpleToken.sol\":2602:2629  _totalSupply = 100000000e18 */\n  dup2\n  swap1\n  sstore\n  pop\n    /* \"simpleToken.sol\":2661:2673  _totalSupply */\n  sload(0x03)\n    /* \"simpleToken.sol\":2637:2646  _balances */\n  0x01\n    /* \"simpleToken.sol\":2637:2658  _balances[msg.sender] */\n  0x00\n    /* \"simpleToken.sol\":2647:2657  msg.sender */\n  caller\n    /* \"simpleToken.sol\":2637:2658  _balances[msg.sender] */\n  0xffffffffffffffffffffffffffffffffffffffff\n  and\n  0xffffffffffffffffffffffffffffffffffffffff\n  and\n  dup2\n  mstore\n  0x20\n  add\n  swap1\n  dup2\n  mstore\n  0x20\n  add\n  0x00\n  keccak256\n    /* \"simpleToken.sol\":2637:2673  _balances[msg.sender] = _totalSupply */\n  dup2\n  swap1\n  sstore\n  pop\n    /* \"simpleToken.sol\":2694:2698  true */\n  0x01\n    /* \"simpleToken.sol\":2681:2691  _tokenLock */\n  0x06\n  0x01\n    /* \"simpleToken.sol\":2681:2698  _tokenLock = true */\n  0x0100\n  exp\n  dup2\n  sload\n  dup2\n  0xff\n  mul\n  not\n  and\n  swap1\n  dup4\n  iszero\n  iszero\n  mul\n  or\n  swap1\n  sstore\n  pop\n    /* \"simpleToken.sol\":2462:2705  constructor(string memory getName, string memory getSymbol) {... */\n  pop\n  pop\n    /* \"simpleToken.sol\":2044:6089  contract SimpleToken is ERC20Interface, OwnerHelper {... */\n  jump(tag_11)\n    /* \"#utility.yul\":7:82   */\ntag_12:\n    /* \"#utility.yul\":40:46   */\n  0x00\n    /* \"#utility.yul\":73:75   */\n  0x40\n    /* \"#utility.yul\":67:76   */\n  mload\n    /* \"#utility.yul\":57:76   */\n  swap1\n  pop\n    /* \"#utility.yul\":7:82   */\n  swap1\n  jump\t// out\n    /* \"#utility.yul\":88:205   */\ntag_13:\n    /* \"#utility.yul\":197:198   */\n  0x00\n    /* \"#utility.yul\":194:195   */\n  dup1\n    /* \"#utility.yul\":187:199   */\n  revert\n    /* \"#utility.yul\":211:328   */\ntag_14:\n    /* \"#utility.yul\":320:321   */\n  0x00\n    /* \"#utility.yul\":317:318   */\n  dup1\n    /* \"#utility.yul\":310:322   */\n  revert\n    /* \"#utility.yul\":334:451   */\ntag_15:\n    /* \"#utility.yul\":443:444   */\n  0x00\n    /* \"#utility.yul\":440:441   */\n  dup1\n    /* \"#utility.yul\":433:445   */\n  revert\n    /* \"#utility.yul\":457:574   */\ntag_16:\n    /* \"#utility.yul\":566:567   */\n  0x00\n    /* \"#utility.yul\":563:564   */\n  dup1\n    /* \"#utility.yul\":556:568   */\n  revert\n    /* \"#utility.yul\":580:682   */\ntag_17:\n    /* \"#utility.yul\":621:627   */\n  0x00\n    /* \"#utility.yul\":672:674   */\n  0x1f\n    /* \"#utility.yul\":668:675   */\n  not\n    /* \"#utility.yul\":663:665   */\n  0x1f\n    /* \"#utility.yul\":656:661   */\n  dup4\n    /* \"#utility.yul\":652:666   */\n  add\n    /* \"#utility.yul\":648:676   */\n  and\n    /* \"#utility.yul\":638:676   */\n  swap1\n  pop\n    /* \"#utility.yul\":580:682   */\n  swap2\n  swap1\n  pop\n  jump\t// out\n    /* \"#utility.yul\":688:868   */\ntag_18:\n    /* \"#utility.yul\":736:813   */\n  0x4e487b7100000000000000000000000000000000000000000000000000000000\n    /* \"#utility.yul\":733:734   */\n  0x00\n    /* \"#utility.yul\":726:814   */\n  mstore\n    /* \"#utility.yul\":833:837   */\n  0x41\n    /* \"#utility.yul\":830:831   */\n  0x04\n    /* \"#utility.yul\":823:838   */\n  mstore\n    /* \"#utility.yul\":857:861   */\n  0x24\n    /* \"#utility.yul\":854:855   */\n  0x00\n    /* \"#utility.yul\":847:862   */\n  revert\n    /* \"#utility.yul\":874:1155   */\ntag_19:\n    /* \"#utility.yul\":957:984   */\n  tag_53\n    /* \"#utility.yul\":979:983   */\n  dup3\n    /* \"#utility.yul\":957:984   */\n  tag_17\n  jump\t// in\ntag_53:\n    /* \"#utility.yul\":949:955   */\n  dup2\n    /* \"#utility.yul\":945:985   */\n  add\n    /* \"#utility.yul\":1087:1093   */\n  dup2\n    /* \"#utility.yul\":1075:1085   */\n  dup2\n    /* \"#utility.yul\":1072:1094   */\n  lt\n    /* \"#utility.yul\":1051:1069   */\n  0xffffffffffffffff\n    /* \"#utility.yul\":1039:1049   */\n  dup3\n    /* \"#utility.yul\":1036:1070   */\n  gt\n    /* \"#utility.yul\":1033:1095   */\n  or\n    /* \"#utility.yul\":1030:1118   */\n  iszero\n  tag_54\n  jumpi\n    /* \"#utility.yul\":1098:1116   */\n  tag_55\n  tag_18\n  jump\t// in\ntag_55:\n    /* \"#utility.yul\":1030:1118   */\ntag_54:\n    /* \"#utility.yul\":1138:1148   */\n  dup1\n    /* \"#utility.yul\":1134:1136   */\n  0x40\n    /* \"#utility.yul\":1127:1149   */\n  mstore\n    /* \"#utility.yul\":917:1155   */\n  pop\n    /* \"#utility.yul\":874:1155   */\n  pop\n  pop\n  jump\t// out\n    /* \"#utility.yul\":1161:1290   */\ntag_20:\n    /* \"#utility.yul\":1195:1201   */\n  0x00\n    /* \"#utility.yul\":1222:1242   */\n  tag_57\n  tag_12\n  jump\t// in\ntag_57:\n    /* \"#utility.yul\":1212:1242   */\n  swap1\n  pop\n    /* \"#utility.yul\":1251:1284   */\n  tag_58\n    /* \"#utility.yul\":1279:1283   */\n  dup3\n    /* \"#utility.yul\":1271:1277   */\n  dup3\n    /* \"#utility.yul\":1251:1284   */\n  tag_19\n  jump\t// in\ntag_58:\n    /* \"#utility.yul\":1161:1290   */\n  swap2\n  swap1\n  pop\n  jump\t// out\n    /* \"#utility.yul\":1296:1604   */\ntag_21:\n    /* \"#utility.yul\":1358:1362   */\n  0x00\n    /* \"#utility.yul\":1448:1466   */\n  0xffffffffffffffff\n    /* \"#utility.yul\":1440:1446   */\n  dup3\n    /* \"#utility.yul\":1437:1467   */\n  gt\n    /* \"#utility.yul\":1434:1490   */\n  iszero\n  tag_60\n  jumpi\n    /* \"#utility.yul\":1470:1488   */\n  tag_61\n  tag_18\n  jump\t// in\ntag_61:\n    /* \"#utility.yul\":1434:1490   */\ntag_60:\n    /* \"#utility.yul\":1508:1537   */\n  tag_62\n    /* \"#utility.yul\":1530:1536   */\n  dup3\n    /* \"#utility.yul\":1508:1537   */\n  tag_17\n  jump\t// in\ntag_62:\n    /* \"#utility.yul\":1500:1537   */\n  swap1\n  pop\n    /* \"#utility.yul\":1592:1596   */\n  0x20\n    /* \"#utility.yul\":1586:1590   */\n  dup2\n    /* \"#utility.yul\":1582:1597   */\n  add\n    /* \"#utility.yul\":1574:1597   */\n  swap1\n  pop\n    /* \"#utility.yul\":1296:1604   */\n  swap2\n  swap1\n  pop\n  jump\t// out\n    /* \"#utility.yul\":1610:1917   */\ntag_22:\n    /* \"#utility.yul\":1678:1679   */\n  0x00\n    /* \"#utility.yul\":1688:1801   */\ntag_64:\n    /* \"#utility.yul\":1702:1708   */\n  dup4\n    /* \"#utility.yul\":1699:1700   */\n  dup2\n    /* \"#utility.yul\":1696:1709   */\n  lt\n    /* \"#utility.yul\":1688:1801   */\n  iszero\n  tag_66\n  jumpi\n    /* \"#utility.yul\":1787:1788   */\n  dup1\n    /* \"#utility.yul\":1782:1785   */\n  dup3\n    /* \"#utility.yul\":1778:1789   */\n  add\n    /* \"#utility.yul\":1772:1790   */\n  mload\n    /* \"#utility.yul\":1768:1769   */\n  dup2\n    /* \"#utility.yul\":1763:1766   */\n  dup5\n    /* \"#utility.yul\":1759:1770   */\n  add\n    /* \"#utility.yul\":1752:1791   */\n  mstore\n    /* \"#utility.yul\":1724:1726   */\n  0x20\n    /* \"#utility.yul\":1721:1722   */\n  dup2\n    /* \"#utility.yul\":1717:1727   */\n  add\n    /* \"#utility.yul\":1712:1727   */\n  swap1\n  pop\n    /* \"#utility.yul\":1688:1801   */\n  jump(tag_64)\ntag_66:\n    /* \"#utility.yul\":1819:1825   */\n  dup4\n    /* \"#utility.yul\":1816:1817   */\n  dup2\n    /* \"#utility.yul\":1813:1826   */\n  gt\n    /* \"#utility.yul\":1810:1911   */\n  iszero\n  tag_67\n  jumpi\n    /* \"#utility.yul\":1899:1900   */\n  0x00\n    /* \"#utility.yul\":1890:1896   */\n  dup5\n    /* \"#utility.yul\":1885:1888   */\n  dup5\n    /* \"#utility.yul\":1881:1897   */\n  add\n    /* \"#utility.yul\":1874:1901   */\n  mstore\n    /* \"#utility.yul\":1810:1911   */\ntag_67:\n    /* \"#utility.yul\":1659:1917   */\n  pop\n    /* \"#utility.yul\":1610:1917   */\n  pop\n  pop\n  pop\n  jump\t// out\n    /* \"#utility.yul\":1923:2344   */\ntag_23:\n    /* \"#utility.yul\":2012:2017   */\n  0x00\n    /* \"#utility.yul\":2037:2103   */\n  tag_69\n    /* \"#utility.yul\":2053:2102   */\n  tag_70\n    /* \"#utility.yul\":2095:2101   */\n  dup5\n    /* \"#utility.yul\":2053:2102   */\n  tag_21\n  jump\t// in\ntag_70:\n    /* \"#utility.yul\":2037:2103   */\n  tag_20\n  jump\t// in\ntag_69:\n    /* \"#utility.yul\":2028:2103   */\n  swap1\n  pop\n    /* \"#utility.yul\":2126:2132   */\n  dup3\n    /* \"#utility.yul\":2119:2124   */\n  dup2\n    /* \"#utility.yul\":2112:2133   */\n  mstore\n    /* \"#utility.yul\":2164:2168   */\n  0x20\n    /* \"#utility.yul\":2157:2162   */\n  dup2\n    /* \"#utility.yul\":2153:2169   */\n  add\n    /* \"#utility.yul\":2202:2205   */\n  dup5\n    /* \"#utility.yul\":2193:2199   */\n  dup5\n    /* \"#utility.yul\":2188:2191   */\n  dup5\n    /* \"#utility.yul\":2184:2200   */\n  add\n    /* \"#utility.yul\":2181:2206   */\n  gt\n    /* \"#utility.yul\":2178:2290   */\n  iszero\n  tag_71\n  jumpi\n    /* \"#utility.yul\":2209:2288   */\n  tag_72\n  tag_16\n  jump\t// in\ntag_72:\n    /* \"#utility.yul\":2178:2290   */\ntag_71:\n    /* \"#utility.yul\":2299:2338   */\n  tag_73\n    /* \"#utility.yul\":2331:2337   */\n  dup5\n    /* \"#utility.yul\":2326:2329   */\n  dup3\n    /* \"#utility.yul\":2321:2324   */\n  dup6\n    /* \"#utility.yul\":2299:2338   */\n  tag_22\n  jump\t// in\ntag_73:\n    /* \"#utility.yul\":2018:2344   */\n  pop\n    /* \"#utility.yul\":1923:2344   */\n  swap4\n  swap3\n  pop\n  pop\n  pop\n  jump\t// out\n    /* \"#utility.yul\":2364:2719   */\ntag_24:\n    /* \"#utility.yul\":2431:2436   */\n  0x00\n    /* \"#utility.yul\":2480:2483   */\n  dup3\n    /* \"#utility.yul\":2473:2477   */\n  0x1f\n    /* \"#utility.yul\":2465:2471   */\n  dup4\n    /* \"#utility.yul\":2461:2478   */\n  add\n    /* \"#utility.yul\":2457:2484   */\n  slt\n    /* \"#utility.yul\":2447:2569   */\n  tag_75\n  jumpi\n    /* \"#utility.yul\":2488:2567   */\n  tag_76\n  tag_15\n  jump\t// in\ntag_76:\n    /* \"#utility.yul\":2447:2569   */\ntag_75:\n    /* \"#utility.yul\":2598:2604   */\n  dup2\n    /* \"#utility.yul\":2592:2605   */\n  mload\n    /* \"#utility.yul\":2623:2713   */\n  tag_77\n    /* \"#utility.yul\":2709:2712   */\n  dup5\n    /* \"#utility.yul\":2701:2707   */\n  dup3\n    /* \"#utility.yul\":2694:2698   */\n  0x20\n    /* \"#utility.yul\":2686:2692   */\n  dup7\n    /* \"#utility.yul\":2682:2699   */\n  add\n    /* \"#utility.yul\":2623:2713   */\n  tag_23\n  jump\t// in\ntag_77:\n    /* \"#utility.yul\":2614:2713   */\n  swap2\n  pop\n    /* \"#utility.yul\":2437:2719   */\n  pop\n    /* \"#utility.yul\":2364:2719   */\n  swap3\n  swap2\n  pop\n  pop\n  jump\t// out\n    /* \"#utility.yul\":2725:3578   */\ntag_3:\n    /* \"#utility.yul\":2824:2830   */\n  0x00\n    /* \"#utility.yul\":2832:2838   */\n  dup1\n    /* \"#utility.yul\":2881:2883   */\n  0x40\n    /* \"#utility.yul\":2869:2878   */\n  dup4\n    /* \"#utility.yul\":2860:2867   */\n  dup6\n    /* \"#utility.yul\":2856:2879   */\n  sub\n    /* \"#utility.yul\":2852:2884   */\n  slt\n    /* \"#utility.yul\":2849:2968   */\n  iszero\n  tag_79\n  jumpi\n    /* \"#utility.yul\":2887:2966   */\n  tag_80\n  tag_13\n  jump\t// in\ntag_80:\n    /* \"#utility.yul\":2849:2968   */\ntag_79:\n    /* \"#utility.yul\":3028:3029   */\n  0x00\n    /* \"#utility.yul\":3017:3026   */\n  dup4\n    /* \"#utility.yul\":3013:3030   */\n  add\n    /* \"#utility.yul\":3007:3031   */\n  mload\n    /* \"#utility.yul\":3058:3076   */\n  0xffffffffffffffff\n    /* \"#utility.yul\":3050:3056   */\n  dup2\n    /* \"#utility.yul\":3047:3077   */\n  gt\n    /* \"#utility.yul\":3044:3161   */\n  iszero\n  tag_81\n  jumpi\n    /* \"#utility.yul\":3080:3159   */\n  tag_82\n  tag_14\n  jump\t// in\ntag_82:\n    /* \"#utility.yul\":3044:3161   */\ntag_81:\n    /* \"#utility.yul\":3185:3259   */\n  tag_83\n    /* \"#utility.yul\":3251:3258   */\n  dup6\n    /* \"#utility.yul\":3242:3248   */\n  dup3\n    /* \"#utility.yul\":3231:3240   */\n  dup7\n    /* \"#utility.yul\":3227:3249   */\n  add\n    /* \"#utility.yul\":3185:3259   */\n  tag_24\n  jump\t// in\ntag_83:\n    /* \"#utility.yul\":3175:3259   */\n  swap3\n  pop\n    /* \"#utility.yul\":2978:3269   */\n  pop\n    /* \"#utility.yul\":3329:3331   */\n  0x20\n    /* \"#utility.yul\":3318:3327   */\n  dup4\n    /* \"#utility.yul\":3314:3332   */\n  add\n    /* \"#utility.yul\":3308:3333   */\n  mload\n    /* \"#utility.yul\":3360:3378   */\n  0xffffffffffffffff\n    /* \"#utility.yul\":3352:3358   */\n  dup2\n    /* \"#utility.yul\":3349:3379   */\n  gt\n    /* \"#utility.yul\":3346:3463   */\n  iszero\n  tag_84\n  jumpi\n    /* \"#utility.yul\":3382:3461   */\n  tag_85\n  tag_14\n  jump\t// in\ntag_85:\n    /* \"#utility.yul\":3346:3463   */\ntag_84:\n    /* \"#utility.yul\":3487:3561   */\n  tag_86\n    /* \"#utility.yul\":3553:3560   */\n  dup6\n    /* \"#utility.yul\":3544:3550   */\n  dup3\n    /* \"#utility.yul\":3533:3542   */\n  dup7\n    /* \"#utility.yul\":3529:3551   */\n  add\n    /* \"#utility.yul\":3487:3561   */\n  tag_24\n  jump\t// in\ntag_86:\n    /* \"#utility.yul\":3477:3561   */\n  swap2\n  pop\n    /* \"#utility.yul\":3279:3571   */\n  pop\n    /* \"#utility.yul\":2725:3578   */\n  swap3\n  pop\n  swap3\n  swap1\n  pop\n  jump\t// out\n    /* \"#utility.yul\":3584:3683   */\ntag_25:\n    /* \"#utility.yul\":3636:3642   */\n  0x00\n    /* \"#utility.yul\":3670:3675   */\n  dup2\n    /* \"#utility.yul\":3664:3676   */\n  mload\n    /* \"#utility.yul\":3654:3676   */\n  swap1\n  pop\n    /* \"#utility.yul\":3584:3683   */\n  swap2\n  swap1\n  pop\n  jump\t// out\n    /* \"#utility.yul\":3689:3869   */\ntag_26:\n    /* \"#utility.yul\":3737:3814   */\n  0x4e487b7100000000000000000000000000000000000000000000000000000000\n    /* \"#utility.yul\":3734:3735   */\n  0x00\n    /* \"#utility.yul\":3727:3815   */\n  mstore\n    /* \"#utility.yul\":3834:3838   */\n  0x22\n    /* \"#utility.yul\":3831:3832   */\n  0x04\n    /* \"#utility.yul\":3824:3839   */\n  mstore\n    /* \"#utility.yul\":3858:3862   */\n  0x24\n    /* \"#utility.yul\":3855:3856   */\n  0x00\n    /* \"#utility.yul\":3848:3863   */\n  revert\n    /* \"#utility.yul\":3875:4195   */\ntag_27:\n    /* \"#utility.yul\":3919:3925   */\n  0x00\n    /* \"#utility.yul\":3956:3957   */\n  0x02\n    /* \"#utility.yul\":3950:3954   */\n  dup3\n    /* \"#utility.yul\":3946:3958   */\n  div\n    /* \"#utility.yul\":3936:3958   */\n  swap1\n  pop\n    /* \"#utility.yul\":4003:4004   */\n  0x01\n    /* \"#utility.yul\":3997:4001   */\n  dup3\n    /* \"#utility.yul\":3993:4005   */\n  and\n    /* \"#utility.yul\":4024:4042   */\n  dup1\n    /* \"#utility.yul\":4014:4095   */\n  tag_90\n  jumpi\n    /* \"#utility.yul\":4080:4084   */\n  0x7f\n    /* \"#utility.yul\":4072:4078   */\n  dup3\n    /* \"#utility.yul\":4068:4085   */\n  and\n    /* \"#utility.yul\":4058:4085   */\n  swap2\n  pop\n    /* \"#utility.yul\":4014:4095   */\ntag_90:\n    /* \"#utility.yul\":4142:4144   */\n  0x20\n    /* \"#utility.yul\":4134:4140   */\n  dup3\n    /* \"#utility.yul\":4131:4145   */\n  lt\n    /* \"#utility.yul\":4111:4129   */\n  dup2\n    /* \"#utility.yul\":4108:4146   */\n  sub\n    /* \"#utility.yul\":4105:4189   */\n  tag_91\n  jumpi\n    /* \"#utility.yul\":4161:4179   */\n  tag_92\n  tag_26\n  jump\t// in\ntag_92:\n    /* \"#utility.yul\":4105:4189   */\ntag_91:\n    /* \"#utility.yul\":3926:4195   */\n  pop\n    /* \"#utility.yul\":3875:4195   */\n  swap2\n  swap1\n  pop\n  jump\t// out\n    /* \"#utility.yul\":4201:4342   */\ntag_28:\n    /* \"#utility.yul\":4250:4254   */\n  0x00\n    /* \"#utility.yul\":4273:4276   */\n  dup2\n    /* \"#utility.yul\":4265:4276   */\n  swap1\n  pop\n    /* \"#utility.yul\":4296:4299   */\n  dup2\n    /* \"#utility.yul\":4293:4294   */\n  0x00\n    /* \"#utility.yul\":4286:4300   */\n  mstore\n    /* \"#utility.yul\":4330:4334   */\n  0x20\n    /* \"#utility.yul\":4327:4328   */\n  0x00\n    /* \"#utility.yul\":4317:4335   */\n  keccak256\n    /* \"#utility.yul\":4309:4335   */\n  swap1\n  pop\n    /* \"#utility.yul\":4201:4342   */\n  swap2\n  swap1\n  pop\n  jump\t// out\n    /* \"#utility.yul\":4348:4441   */\ntag_29:\n    /* \"#utility.yul\":4385:4391   */\n  0x00\n    /* \"#utility.yul\":4432:4434   */\n  0x20\n    /* \"#utility.yul\":4427:4429   */\n  0x1f\n    /* \"#utility.yul\":4420:4425   */\n  dup4\n    /* \"#utility.yul\":4416:4430   */\n  add\n    /* \"#utility.yul\":4412:4435   */\n  div\n    /* \"#utility.yul\":4402:4435   */\n  swap1\n  pop\n    /* \"#utility.yul\":4348:4441   */\n  swap2\n  swap1\n  pop\n  jump\t// out\n    /* \"#utility.yul\":4447:4554   */\ntag_30:\n    /* \"#utility.yul\":4491:4499   */\n  0x00\n    /* \"#utility.yul\":4541:4546   */\n  dup3\n    /* \"#utility.yul\":4535:4539   */\n  dup3\n    /* \"#utility.yul\":4531:4547   */\n  shl\n    /* \"#utility.yul\":4510:4547   */\n  swap1\n  pop\n    /* \"#utility.yul\":4447:4554   */\n  swap3\n  swap2\n  pop\n  pop\n  jump\t// out\n    /* \"#utility.yul\":4560:4953   */\ntag_31:\n    /* \"#utility.yul\":4629:4635   */\n  0x00\n    /* \"#utility.yul\":4679:4680   */\n  0x08\n    /* \"#utility.yul\":4667:4677   */\n  dup4\n    /* \"#utility.yul\":4663:4681   */\n  mul\n    /* \"#utility.yul\":4702:4799   */\n  tag_97\n    /* \"#utility.yul\":4732:4798   */\n  0xffffffffffffffffffffffffffffffffffffffffffffffffffffffffffffffff\n    /* \"#utility.yul\":4721:4730   */\n  dup3\n    /* \"#utility.yul\":4702:4799   */\n  tag_30\n  jump\t// in\ntag_97:\n    /* \"#utility.yul\":4820:4859   */\n  tag_98\n    /* \"#utility.yul\":4850:4858   */\n  dup7\n    /* \"#utility.yul\":4839:4848   */\n  dup4\n    /* \"#utility.yul\":4820:4859   */\n  tag_30\n  jump\t// in\ntag_98:\n    /* \"#utility.yul\":4808:4859   */\n  swap6\n  pop\n    /* \"#utility.yul\":4892:4896   */\n  dup1\n    /* \"#utility.yul\":4888:4897   */\n  not\n    /* \"#utility.yul\":4881:4886   */\n  dup5\n    /* \"#utility.yul\":4877:4898   */\n  and\n    /* \"#utility.yul\":4868:4898   */\n  swap4\n  pop\n    /* \"#utility.yul\":4941:4945   */\n  dup1\n    /* \"#utility.yul\":4931:4939   */\n  dup7\n    /* \"#utility.yul\":4927:4946   */\n  and\n    /* \"#utility.yul\":4920:4925   */\n  dup5\n    /* \"#utility.yul\":4917:4947   */\n  or\n    /* \"#utility.yul\":4907:4947   */\n  swap3\n  pop\n    /* \"#utility.yul\":4636:4953   */\n  pop\n  pop\n    /* \"#utility.yul\":4560:4953   */\n  swap4\n  swap3\n  pop\n  pop\n  pop\n  jump\t// out\n    /* \"#utility.yul\":4959:5036   */\ntag_32:\n    /* \"#utility.yul\":4996:5003   */\n  0x00\n    /* \"#utility.yul\":5025:5030   */\n  dup2\n    /* \"#utility.yul\":5014:5030   */\n  swap1\n  pop\n    /* \"#utility.yul\":4959:5036   */\n  swap2\n  swap1\n  pop\n  jump\t// out\n    /* \"#utility.yul\":5042:5102   */\ntag_33:\n    /* \"#utility.yul\":5070:5073   */\n  0x00\n    /* \"#utility.yul\":5091:5096   */\n  dup2\n    /* \"#utility.yul\":5084:5096   */\n  swap1\n  pop\n    /* \"#utility.yul\":5042:5102   */\n  swap2\n  swap1\n  pop\n  jump\t// out\n    /* \"#utility.yul\":5108:5250   */\ntag_34:\n    /* \"#utility.yul\":5158:5167   */\n  0x00\n    /* \"#utility.yul\":5191:5244   */\n  tag_102\n    /* \"#utility.yul\":5209:5243   */\n  tag_103\n    /* \"#utility.yul\":5218:5242   */\n  tag_104\n    /* \"#utility.yul\":5236:5241   */\n  dup5\n    /* \"#utility.yul\":5218:5242   */\n  tag_32\n  jump\t// in\ntag_104:\n    /* \"#utility.yul\":5209:5243   */\n  tag_33\n  jump\t// in\ntag_103:\n    /* \"#utility.yul\":5191:5244   */\n  tag_32\n  jump\t// in\ntag_102:\n    /* \"#utility.yul\":5178:5244   */\n  swap1\n  pop\n    /* \"#utility.yul\":5108:5250   */\n  swap2\n  swap1\n  pop\n  jump\t// out\n    /* \"#utility.yul\":5256:5331   */\ntag_35:\n    /* \"#utility.yul\":5299:5302   */\n  0x00\n    /* \"#utility.yul\":5320:5325   */\n  dup2\n    /* \"#utility.yul\":5313:5325   */\n  swap1\n  pop\n    /* \"#utility.yul\":5256:5331   */\n  swap2\n  swap1\n  pop\n  jump\t// out\n    /* \"#utility.yul\":5337:5606   */\ntag_36:\n    /* \"#utility.yul\":5447:5486   */\n  tag_107\n    /* \"#utility.yul\":5478:5485   */\n  dup4\n    /* \"#utility.yul\":5447:5486   */\n  tag_34\n  jump\t// in\ntag_107:\n    /* \"#utility.yul\":5508:5599   */\n  tag_108\n    /* \"#utility.yul\":5557:5598   */\n  tag_109\n    /* \"#utility.yul\":5581:5597   */\n  dup3\n    /* \"#utility.yul\":5557:5598   */\n  tag_35\n  jump\t// in\ntag_109:\n    /* \"#utility.yul\":5549:5555   */\n  dup5\n    /* \"#utility.yul\":5542:5546   */\n  dup5\n    /* \"#utility.yul\":5536:5547   */\n  sload\n    /* \"#utility.yul\":5508:5599   */\n  tag_31\n  jump\t// in\ntag_108:\n    /* \"#utility.yul\":5502:5506   */\n  dup3\n    /* \"#utility.yul\":5495:5600   */\n  sstore\n    /* \"#utility.yul\":5413:5606   */\n  pop\n    /* \"#utility.yul\":5337:5606   */\n  pop\n  pop\n  pop\n  jump\t// out\n    /* \"#utility.yul\":5612:5685   */\ntag_37:\n    /* \"#utility.yul\":5657:5660   */\n  0x00\n    /* \"#utility.yul\":5612:5685   */\n  swap1\n  jump\t// out\n    /* \"#utility.yul\":5691:5880   */\ntag_38:\n    /* \"#utility.yul\":5768:5800   */\n  tag_112\n  tag_37\n  jump\t// in\ntag_112:\n    /* \"#utility.yul\":5809:5874   */\n  tag_113\n    /* \"#utility.yul\":5867:5873   */\n  dup2\n    /* \"#utility.yul\":5859:5865   */\n  dup5\n    /* \"#utility.yul\":5853:5857   */\n  dup5\n    /* \"#utility.yul\":5809:5874   */\n  tag_36\n  jump\t// in\ntag_113:\n    /* \"#utility.yul\":5744:5880   */\n  pop\n    /* \"#utility.yul\":5691:5880   */\n  pop\n  pop\n  jump\t// out\n    /* \"#utility.yul\":5886:6072   */\ntag_39:\n    /* \"#utility.yul\":5946:6066   */\ntag_115:\n    /* \"#utility.yul\":5963:5966   */\n  dup2\n    /* \"#utility.yul\":5956:5961   */\n  dup2\n    /* \"#utility.yul\":5953:5967   */\n  lt\n    /* \"#utility.yul\":5946:6066   */\n  iszero\n  tag_117\n  jumpi\n    /* \"#utility.yul\":6017:6056   */\n  tag_118\n    /* \"#utility.yul\":6054:6055   */\n  0x00\n    /* \"#utility.yul\":6047:6052   */\n  dup3\n    /* \"#utility.yul\":6017:6056   */\n  tag_38\n  jump\t// in\ntag_118:\n    /* \"#utility.yul\":5990:5991   */\n  0x01\n    /* \"#utility.yul\":5983:5988   */\n  dup2\n    /* \"#utility.yul\":5979:5992   */\n  add\n    /* \"#utility.yul\":5970:5992   */\n  swap1\n  pop\n    /* \"#utility.yul\":5946:6066   */\n  jump(tag_115)\ntag_117:\n    /* \"#utility.yul\":5886:6072   */\n  pop\n  pop\n  jump\t// out\n    /* \"#utility.yul\":6078:6621   */\ntag_40:\n    /* \"#utility.yul\":6179:6181   */\n  0x1f\n    /* \"#utility.yul\":6174:6177   */\n  dup3\n    /* \"#utility.yul\":6171:6182   */\n  gt\n    /* \"#utility.yul\":6168:6614   */\n  iszero\n  tag_120\n  jumpi\n    /* \"#utility.yul\":6213:6251   */\n  tag_121\n    /* \"#utility.yul\":6245:6250   */\n  dup2\n    /* \"#utility.yul\":6213:6251   */\n  tag_28\n  jump\t// in\ntag_121:\n    /* \"#utility.yul\":6297:6326   */\n  tag_122\n    /* \"#utility.yul\":6315:6325   */\n  dup5\n    /* \"#utility.yul\":6297:6326   */\n  tag_29\n  jump\t// in\ntag_122:\n    /* \"#utility.yul\":6287:6295   */\n  dup2\n    /* \"#utility.yul\":6283:6327   */\n  add\n    /* \"#utility.yul\":6480:6482   */\n  0x20\n    /* \"#utility.yul\":6468:6478   */\n  dup6\n    /* \"#utility.yul\":6465:6483   */\n  lt\n    /* \"#utility.yul\":6462:6511   */\n  iszero\n  tag_123\n  jumpi\n    /* \"#utility.yul\":6501:6509   */\n  dup2\n    /* \"#utility.yul\":6486:6509   */\n  swap1\n  pop\n    /* \"#utility.yul\":6462:6511   */\ntag_123:\n    /* \"#utility.yul\":6524:6604   */\n  tag_124\n    /* \"#utility.yul\":6580:6602   */\n  tag_125\n    /* \"#utility.yul\":6598:6601   */\n  dup6\n    /* \"#utility.yul\":6580:6602   */\n  tag_29\n  jump\t// in\ntag_125:\n    /* \"#utility.yul\":6570:6578   */\n  dup4\n    /* \"#utility.yul\":6566:6603   */\n  add\n    /* \"#utility.yul\":6553:6564   */\n  dup3\n    /* \"#utility.yul\":6524:6604   */\n  tag_39\n  jump\t// in\ntag_124:\n    /* \"#utility.yul\":6183:6614   */\n  pop\n  pop\n    /* \"#utility.yul\":6168:6614   */\ntag_120:\n    /* \"#utility.yul\":6078:6621   */\n  pop\n  pop\n  pop\n  jump\t// out\n    /* \"#utility.yul\":6627:6744   */\ntag_41:\n    /* \"#utility.yul\":6681:6689   */\n  0x00\n    /* \"#utility.yul\":6731:6736   */\n  dup3\n    /* \"#utility.yul\":6725:6729   */\n  dup3\n    /* \"#utility.yul\":6721:6737   */\n  shr\n    /* \"#utility.yul\":6700:6737   */\n  swap1\n  pop\n    /* \"#utility.yul\":6627:6744   */\n  swap3\n  swap2\n  pop\n  pop\n  jump\t// out\n    /* \"#utility.yul\":6750:6919   */\ntag_42:\n    /* \"#utility.yul\":6794:6800   */\n  0x00\n    /* \"#utility.yul\":6827:6878   */\n  tag_128\n    /* \"#utility.yul\":6875:6876   */\n  0x00\n    /* \"#utility.yul\":6871:6877   */\n  not\n    /* \"#utility.yul\":6863:6868   */\n  dup5\n    /* \"#utility.yul\":6860:6861   */\n  0x08\n    /* \"#utility.yul\":6856:6869   */\n  mul\n    /* \"#utility.yul\":6827:6878   */\n  tag_41\n  jump\t// in\ntag_128:\n    /* \"#utility.yul\":6823:6879   */\n  not\n    /* \"#utility.yul\":6908:6912   */\n  dup1\n    /* \"#utility.yul\":6902:6906   */\n  dup4\n    /* \"#utility.yul\":6898:6913   */\n  and\n    /* \"#utility.yul\":6888:6913   */\n  swap2\n  pop\n    /* \"#utility.yul\":6801:6919   */\n  pop\n    /* \"#utility.yul\":6750:6919   */\n  swap3\n  swap2\n  pop\n  pop\n  jump\t// out\n    /* \"#utility.yul\":6924:7219   */\ntag_43:\n    /* \"#utility.yul\":7000:7004   */\n  0x00\n    /* \"#utility.yul\":7146:7175   */\n  tag_130\n    /* \"#utility.yul\":7171:7174   */\n  dup4\n    /* \"#utility.yul\":7165:7169   */\n  dup4\n    /* \"#utility.yul\":7146:7175   */\n  tag_42\n  jump\t// in\ntag_130:\n    /* \"#utility.yul\":7138:7175   */\n  swap2\n  pop\n    /* \"#utility.yul\":7208:7211   */\n  dup3\n    /* \"#utility.yul\":7205:7206   */\n  0x02\n    /* \"#utility.yul\":7201:7212   */\n  mul\n    /* \"#utility.yul\":7195:7199   */\n  dup3\n    /* \"#utility.yul\":7192:7213   */\n  or\n    /* \"#utility.yul\":7184:7213   */\n  swap1\n  pop\n    /* \"#utility.yul\":6924:7219   */\n  swap3\n  swap2\n  pop\n  pop\n  jump\t// out\n    /* \"#utility.yul\":7224:8619   */\ntag_9:\n    /* \"#utility.yul\":7341:7378   */\n  tag_132\n    /* \"#utility.yul\":7374:7377   */\n  dup3\n    /* \"#utility.yul\":7341:7378   */\n  tag_25\n  jump\t// in\ntag_132:\n    /* \"#utility.yul\":7443:7461   */\n  0xffffffffffffffff\n    /* \"#utility.yul\":7435:7441   */\n  dup2\n    /* \"#utility.yul\":7432:7462   */\n  gt\n    /* \"#utility.yul\":7429:7485   */\n  iszero\n  tag_133\n  jumpi\n    /* \"#utility.yul\":7465:7483   */\n  tag_134\n  tag_18\n  jump\t// in\ntag_134:\n    /* \"#utility.yul\":7429:7485   */\ntag_133:\n    /* \"#utility.yul\":7509:7547   */\n  tag_135\n    /* \"#utility.yul\":7541:7545   */\n  dup3\n    /* \"#utility.yul\":7535:7546   */\n  sload\n    /* \"#utility.yul\":7509:7547   */\n  tag_27\n  jump\t// in\ntag_135:\n    /* \"#utility.yul\":7594:7661   */\n  tag_136\n    /* \"#utility.yul\":7654:7660   */\n  dup3\n    /* \"#utility.yul\":7646:7652   */\n  dup3\n    /* \"#utility.yul\":7640:7644   */\n  dup6\n    /* \"#utility.yul\":7594:7661   */\n  tag_40\n  jump\t// in\ntag_136:\n    /* \"#utility.yul\":7688:7689   */\n  0x00\n    /* \"#utility.yul\":7712:7716   */\n  0x20\n    /* \"#utility.yul\":7699:7716   */\n  swap1\n  pop\n    /* \"#utility.yul\":7744:7746   */\n  0x1f\n    /* \"#utility.yul\":7736:7742   */\n  dup4\n    /* \"#utility.yul\":7733:7747   */\n  gt\n    /* \"#utility.yul\":7761:7762   */\n  0x01\n    /* \"#utility.yul\":7756:8374   */\n  dup2\n  eq\n  tag_138\n  jumpi\n    /* \"#utility.yul\":8418:8419   */\n  0x00\n    /* \"#utility.yul\":8435:8441   */\n  dup5\n    /* \"#utility.yul\":8432:8509   */\n  iszero\n  tag_139\n  jumpi\n    /* \"#utility.yul\":8484:8493   */\n  dup3\n    /* \"#utility.yul\":8479:8482   */\n  dup8\n    /* \"#utility.yul\":8475:8494   */\n  add\n    /* \"#utility.yul\":8469:8495   */\n  mload\n    /* \"#utility.yul\":8460:8495   */\n  swap1\n  pop\n    /* \"#utility.yul\":8432:8509   */\ntag_139:\n    /* \"#utility.yul\":8535:8602   */\n  tag_140\n    /* \"#utility.yul\":8595:8601   */\n  dup6\n    /* \"#utility.yul\":8588:8593   */\n  dup3\n    /* \"#utility.yul\":8535:8602   */\n  tag_43\n  jump\t// in\ntag_140:\n    /* \"#utility.yul\":8529:8533   */\n  dup7\n    /* \"#utility.yul\":8522:8603   */\n  sstore\n    /* \"#utility.yul\":8391:8613   */\n  pop\n    /* \"#utility.yul\":7726:8613   */\n  jump(tag_137)\n    /* \"#utility.yul\":7756:8374   */\ntag_138:\n    /* \"#utility.yul\":7808:7812   */\n  0x1f\n    /* \"#utility.yul\":7804:7813   */\n  not\n    /* \"#utility.yul\":7796:7802   */\n  dup5\n    /* \"#utility.yul\":7792:7814   */\n  and\n    /* \"#utility.yul\":7842:7879   */\n  tag_141\n    /* \"#utility.yul\":7874:7878   */\n  dup7\n    /* \"#utility.yul\":7842:7879   */\n  tag_28\n  jump\t// in\ntag_141:\n    /* \"#utility.yul\":7901:7902   */\n  0x00\n    /* \"#utility.yul\":7915:8123   */\ntag_142:\n    /* \"#utility.yul\":7929:7936   */\n  dup3\n    /* \"#utility.yul\":7926:7927   */\n  dup2\n    /* \"#utility.yul\":7923:7937   */\n  lt\n    /* \"#utility.yul\":7915:8123   */\n  iszero\n  tag_144\n  jumpi\n    /* \"#utility.yul\":8008:8017   */\n  dup5\n    /* \"#utility.yul\":8003:8006   */\n  dup10\n    /* \"#utility.yul\":7999:8018   */\n  add\n    /* \"#utility.yul\":7993:8019   */\n  mload\n    /* \"#utility.yul\":7985:7991   */\n  dup3\n    /* \"#utility.yul\":7978:8020   */\n  sstore\n    /* \"#utility.yul\":8059:8060   */\n  0x01\n    /* \"#utility.yul\":8051:8057   */\n  dup3\n    /* \"#utility.yul\":8047:8061   */\n  add\n    /* \"#utility.yul\":8037:8061   */\n  swap2\n  pop\n    /* \"#utility.yul\":8106:8108   */\n  0x20\n    /* \"#utility.yul\":8095:8104   */\n  dup6\n    /* \"#utility.yul\":8091:8109   */\n  add\n    /* \"#utility.yul\":8078:8109   */\n  swap5\n  pop\n    /* \"#utility.yul\":7952:7956   */\n  0x20\n    /* \"#utility.yul\":7949:7950   */\n  dup2\n    /* \"#utility.yul\":7945:7957   */\n  add\n    /* \"#utility.yul\":7940:7957   */\n  swap1\n  pop\n    /* \"#utility.yul\":7915:8123   */\n  jump(tag_142)\ntag_144:\n    /* \"#utility.yul\":8151:8157   */\n  dup7\n    /* \"#utility.yul\":8142:8149   */\n  dup4\n    /* \"#utility.yul\":8139:8158   */\n  lt\n    /* \"#utility.yul\":8136:8315   */\n  iszero\n  tag_145\n  jumpi\n    /* \"#utility.yul\":8209:8218   */\n  dup5\n    /* \"#utility.yul\":8204:8207   */\n  dup10\n    /* \"#utility.yul\":8200:8219   */\n  add\n    /* \"#utility.yul\":8194:8220   */\n  mload\n    /* \"#utility.yul\":8252:8300   */\n  tag_146\n    /* \"#utility.yul\":8294:8298   */\n  0x1f\n    /* \"#utility.yul\":8286:8292   */\n  dup10\n    /* \"#utility.yul\":8282:8299   */\n  and\n    /* \"#utility.yul\":8271:8280   */\n  dup3\n    /* \"#utility.yul\":8252:8300   */\n  tag_42\n  jump\t// in\ntag_146:\n    /* \"#utility.yul\":8244:8250   */\n  dup4\n    /* \"#utility.yul\":8237:8301   */\n  sstore\n    /* \"#utility.yul\":8159:8315   */\n  pop\n    /* \"#utility.yul\":8136:8315   */\ntag_145:\n    /* \"#utility.yul\":8361:8362   */\n  0x01\n    /* \"#utility.yul\":8357:8358   */\n  0x02\n    /* \"#utility.yul\":8349:8355   */\n  dup9\n    /* \"#utility.yul\":8345:8359   */\n  mul\n    /* \"#utility.yul\":8341:8363   */\n  add\n    /* \"#utility.yul\":8335:8339   */\n  dup9\n    /* \"#utility.yul\":8328:8364   */\n  sstore\n    /* \"#utility.yul\":7763:8374   */\n  pop\n  pop\n  pop\n    /* \"#utility.yul\":7726:8613   */\ntag_137:\n  pop\n    /* \"#utility.yul\":7316:8619   */\n  pop\n  pop\n  pop\n    /* \"#utility.yul\":7224:8619   */\n  pop\n  pop\n  jump\t// out\n    /* \"simpleToken.sol\":2044:6089  contract SimpleToken is ERC20Interface, OwnerHelper {... */\ntag_11:\n  dataSize(sub_0)\n  dup1\n  dataOffset(sub_0)\n  0x00\n  codecopy\n  0x00\n  return\nstop\n\nsub_0: assembly {\n        /* \"simpleToken.sol\":2044:6089  contract SimpleToken is ERC20Interface, OwnerHelper {... */\n      mstore(0x40, 0x80)\n      callvalue\n      dup1\n      iszero\n      tag_1\n      jumpi\n      0x00\n      dup1\n      revert\n    tag_1:\n      pop\n      jumpi(tag_2, lt(calldatasize, 0x04))\n      shr(0xe0, calldataload(0x00))\n      dup1\n      0x69712ffa\n      gt\n      tag_24\n      jumpi\n      dup1\n      0xb09f1266\n      gt\n      tag_25\n      jumpi\n      dup1\n      0xb09f1266\n      eq\n      tag_18\n      jumpi\n      dup1\n      0xd27ac65b\n      eq\n      tag_19\n      jumpi\n      dup1\n      0xd28d8852\n      eq\n      tag_20\n      jumpi\n      dup1\n      0xdd62ed3e\n      eq\n      tag_21\n      jumpi\n      dup1\n      0xf2fde38b\n      eq\n      tag_22\n      jumpi\n      dup1\n      0xf9ca2561\n      eq\n      tag_23\n      jumpi\n      jump(tag_2)\n    tag_25:\n      dup1\n      0x69712ffa\n      eq\n      tag_13\n      jumpi\n      dup1\n      0x70a08231\n      eq\n      tag_14\n      jumpi\n      dup1\n      0x8da5cb5b\n      eq\n      tag_15\n      jumpi\n      dup1\n      0x95d89b41\n      eq\n      tag_16\n      jumpi\n      dup1\n      0xa9059cbb\n      eq\n      tag_17\n      jumpi\n      jump(tag_2)\n    tag_24:\n      dup1\n      0x23b872dd\n      gt\n      tag_26\n      jumpi\n      dup1\n      0x23b872dd\n      eq\n      tag_8\n      jumpi\n      dup1\n      0x313ce567\n      eq\n      tag_9\n      jumpi\n      dup1\n      0x32424aa3\n      eq\n      tag_10\n      jumpi\n      dup1\n      0x3eaaf86b\n      eq\n      tag_11\n      jumpi\n      dup1\n      0x43e204b3\n      eq\n      tag_12\n      jumpi\n      jump(tag_2)\n    tag_26:\n      dup1\n      0x024c2ddd\n      eq\n      tag_3\n      jumpi\n      dup1\n      0x06fdde03\n      eq\n      tag_4\n      jumpi\n      dup1\n      0x095ea7b3\n      eq\n      tag_5\n      jumpi\n      dup1\n      0x130a39b1\n      eq\n      tag_6\n      jumpi\n      dup1\n      0x18160ddd\n      eq\n      tag_7\n      jumpi\n    tag_2:\n      0x00\n      dup1\n      revert\n        /* \"simpleToken.sol\":2188:2256  mapping (address => mapping (address => uint256)) public _allowances */\n    tag_3:\n      tag_27\n      0x04\n      dup1\n      calldatasize\n      sub\n      dup2\n      add\n      swap1\n      tag_28\n      swap2\n      swap1\n      tag_29\n      jump\t// in\n    tag_28:\n      tag_30\n      jump\t// in\n    tag_27:\n      mload(0x40)\n      tag_31\n      swap2\n      swap1\n      tag_32\n      jump\t// in\n    tag_31:\n      mload(0x40)\n      dup1\n      swap2\n      sub\n      swap1\n      return\n        /* \"simpleToken.sol\":2711:2790  function name() public view returns (string memory) {... */\n    tag_4:\n      tag_33\n      tag_34\n      jump\t// in\n    tag_33:\n      mload(0x40)\n      tag_35\n      swap2\n      swap1\n      tag_36\n      jump\t// in\n    tag_35:\n      mload(0x40)\n      dup1\n      swap2\n      sub\n      swap1\n      return\n        /* \"simpleToken.sol\":3581:3959  function approve(address spender, uint amount) external virtual override returns (bool) {... */\n    tag_5:\n      tag_37\n      0x04\n      dup1\n      calldatasize\n      sub\n      dup2\n      add\n      swap1\n      tag_38\n      swap2\n      swap1\n      tag_39\n      jump\t// in\n    tag_38:\n      tag_40\n      jump\t// in\n    tag_37:\n      mload(0x40)\n      tag_41\n      swap2\n      swap1\n      tag_42\n      jump\t// in\n    tag_41:\n      mload(0x40)\n      dup1\n      swap2\n      sub\n      swap1\n      return\n        /* \"simpleToken.sol\":5458:5618  function removePersonalTokenLock(address _who) onlyOwner public {... */\n    tag_6:\n      tag_43\n      0x04\n      dup1\n      calldatasize\n      sub\n      dup2\n      add\n      swap1\n      tag_44\n      swap2\n      swap1\n      tag_45\n      jump\t// in\n    tag_44:\n      tag_46\n      jump\t// in\n    tag_43:\n      stop\n        /* \"simpleToken.sol\":2970:3076  function totalSupply() external view virtual override returns (uint256) {... */\n    tag_7:\n      tag_47\n      tag_48\n      jump\t// in\n    tag_47:\n      mload(0x40)\n      tag_49\n      swap2\n      swap1\n      tag_32\n      jump\t// in\n    tag_49:\n      mload(0x40)\n      dup1\n      swap2\n      sub\n      swap1\n      return\n        /* \"simpleToken.sol\":3965:4443  function transferFrom(address sender, address recipient, uint256 amount) external virtual override returns (bool) {... */\n    tag_8:\n      tag_50\n      0x04\n      dup1\n      calldatasize\n      sub\n      dup2\n      add\n      swap1\n      tag_51\n      swap2\n      swap1\n      tag_52\n      jump\t// in\n    tag_51:\n      tag_53\n      jump\t// in\n    tag_50:\n      mload(0x40)\n      tag_54\n      swap2\n      swap1\n      tag_42\n      jump\t// in\n    tag_54:\n      mload(0x40)\n      dup1\n      swap2\n      sub\n      swap1\n      return\n        /* \"simpleToken.sol\":2885:2964  function decimals() public view returns (uint8) {... */\n    tag_9:\n      tag_55\n      tag_56\n      jump\t// in\n    tag_55:\n      mload(0x40)\n      tag_57\n      swap2\n      swap1\n      tag_58\n      jump\t// in\n    tag_57:\n      mload(0x40)\n      dup1\n      swap2\n      sub\n      swap1\n      return\n        /* \"simpleToken.sol\":2348:2370  uint8 public _decimals */\n    tag_10:\n      tag_59\n      tag_60\n      jump\t// in\n    tag_59:\n      mload(0x40)\n      tag_61\n      swap2\n      swap1\n      tag_58\n      jump\t// in\n    tag_61:\n      mload(0x40)\n      dup1\n      swap2\n      sub\n      swap1\n      return\n        /* \"simpleToken.sol\":2263:2290  uint256 public _totalSupply */\n    tag_11:\n      tag_62\n      tag_63\n      jump\t// in\n    tag_62:\n      mload(0x40)\n      tag_64\n      swap2\n      swap1\n      tag_32\n      jump\t// in\n    tag_64:\n      mload(0x40)\n      dup1\n      swap2\n      sub\n      swap1\n      return\n        /* \"simpleToken.sol\":5046:5334  function isTokenLock(address from, address to) public view returns (bool lock) {... */\n    tag_12:\n      tag_65\n      0x04\n      dup1\n      calldatasize\n      sub\n      dup2\n      add\n      swap1\n      tag_66\n      swap2\n      swap1\n      tag_29\n      jump\t// in\n    tag_66:\n      tag_67\n      jump\t// in\n    tag_65:\n      mload(0x40)\n      tag_68\n      swap2\n      swap1\n      tag_42\n      jump\t// in\n    tag_68:\n      mload(0x40)\n      dup1\n      swap2\n      sub\n      swap1\n      return\n        /* \"simpleToken.sol\":5340:5452  function removeTokenLock() onlyOwner public {... */\n    tag_13:\n      tag_69\n      tag_70\n      jump\t// in\n    tag_69:\n      stop\n        /* \"simpleToken.sol\":3082:3207  function balanceOf(address account) external view virtual override returns (uint256) {... */\n    tag_14:\n      tag_71\n      0x04\n      dup1\n      calldatasize\n      sub\n      dup2\n      add\n      swap1\n      tag_72\n      swap2\n      swap1\n      tag_45\n      jump\t// in\n    tag_72:\n      tag_73\n      jump\t// in\n    tag_71:\n      mload(0x40)\n      tag_74\n      swap2\n      swap1\n      tag_32\n      jump\t// in\n    tag_74:\n      mload(0x40)\n      dup1\n      swap2\n      sub\n      swap1\n      return\n        /* \"simpleToken.sol\":1699:1782  function owner() public view virtual returns (address) {... */\n    tag_15:\n      tag_75\n      tag_76\n      jump\t// in\n    tag_75:\n      mload(0x40)\n      tag_77\n      swap2\n      swap1\n      tag_78\n      jump\t// in\n    tag_77:\n      mload(0x40)\n      dup1\n      swap2\n      sub\n      swap1\n      return\n        /* \"simpleToken.sol\":2796:2879  function symbol() public view returns (string memory) {... */\n    tag_16:\n      tag_79\n      tag_80\n      jump\t// in\n    tag_79:\n      mload(0x40)\n      tag_81\n      swap2\n      swap1\n      tag_36\n      jump\t// in\n    tag_81:\n      mload(0x40)\n      dup1\n      swap2\n      sub\n      swap1\n      return\n        /* \"simpleToken.sol\":3213:3428  function transfer(address recipient, uint amount) public virtual override returns (bool) {... */\n    tag_17:\n      tag_82\n      0x04\n      dup1\n      calldatasize\n      sub\n      dup2\n      add\n      swap1\n      tag_83\n      swap2\n      swap1\n      tag_39\n      jump\t// in\n    tag_83:\n      tag_84\n      jump\t// in\n    tag_82:\n      mload(0x40)\n      tag_85\n      swap2\n      swap1\n      tag_42\n      jump\t// in\n    tag_85:\n      mload(0x40)\n      dup1\n      swap2\n      sub\n      swap1\n      return\n        /* \"simpleToken.sol\":2321:2342  string public _symbol */\n    tag_18:\n      tag_86\n      tag_87\n      jump\t// in\n    tag_86:\n      mload(0x40)\n      tag_88\n      swap2\n      swap1\n      tag_36\n      jump\t// in\n    tag_88:\n      mload(0x40)\n      dup1\n      swap2\n      sub\n      swap1\n      return\n        /* \"simpleToken.sol\":2404:2455  mapping (address => bool) public _personalTokenLock */\n    tag_19:\n      tag_89\n      0x04\n      dup1\n      calldatasize\n      sub\n      dup2\n      add\n      swap1\n      tag_90\n      swap2\n      swap1\n      tag_45\n      jump\t// in\n    tag_90:\n      tag_91\n      jump\t// in\n    tag_89:\n      mload(0x40)\n      tag_92\n      swap2\n      swap1\n      tag_42\n      jump\t// in\n    tag_92:\n      mload(0x40)\n      dup1\n      swap2\n      sub\n      swap1\n      return\n        /* \"simpleToken.sol\":2296:2315  string public _name */\n    tag_20:\n      tag_93\n      tag_94\n      jump\t// in\n    tag_93:\n      mload(0x40)\n      tag_95\n      swap2\n      swap1\n      tag_36\n      jump\t// in\n    tag_95:\n      mload(0x40)\n      dup1\n      swap2\n      sub\n      swap1\n      return\n        /* \"simpleToken.sol\":3434:3575  function allowance(address owner, address spender) external view override returns (uint256) {... */\n    tag_21:\n      tag_96\n      0x04\n      dup1\n      calldatasize\n      sub\n      dup2\n      add\n      swap1\n      tag_97\n      swap2\n      swap1\n      tag_29\n      jump\t// in\n    tag_97:\n      tag_98\n      jump\t// in\n    tag_96:\n      mload(0x40)\n      tag_99\n      swap2\n      swap1\n      tag_32\n      jump\t// in\n    tag_99:\n      mload(0x40)\n      dup1\n      swap2\n      sub\n      swap1\n      return\n        /* \"simpleToken.sol\":1787:2040  function transferOwnership(address newOwner) onlyOwner public {... */\n    tag_22:\n      tag_100\n      0x04\n      dup1\n      calldatasize\n      sub\n      dup2\n      add\n      swap1\n      tag_101\n      swap2\n      swap1\n      tag_45\n      jump\t// in\n    tag_101:\n      tag_102\n      jump\t// in\n    tag_100:\n      stop\n        /* \"simpleToken.sol\":2376:2398  bool public _tokenLock */\n    tag_23:\n      tag_103\n      tag_104\n      jump\t// in\n    tag_103:\n      mload(0x40)\n      tag_105\n      swap2\n      swap1\n      tag_42\n      jump\t// in\n    tag_105:\n      mload(0x40)\n      dup1\n      swap2\n      sub\n      swap1\n      return\n        /* \"simpleToken.sol\":2188:2256  mapping (address => mapping (address => uint256)) public _allowances */\n    tag_30:\n      mstore(0x20, 0x02)\n      dup2\n      0x00\n      mstore\n      mstore(0x20, keccak256(0x00, 0x40))\n      dup1\n      0x00\n      mstore\n      keccak256(0x00, 0x40)\n      0x00\n      swap2\n      pop\n      swap2\n      pop\n      pop\n      sload\n      dup2\n      jump\t// out\n        /* \"simpleToken.sol\":2711:2790  function name() public view returns (string memory) {... */\n    tag_34:\n        /* \"simpleToken.sol\":2748:2761  string memory */\n      0x60\n        /* \"simpleToken.sol\":2778:2783  _name */\n      0x04\n        /* \"simpleToken.sol\":2771:2783  return _name */\n      dup1\n      sload\n      tag_107\n      swap1\n      tag_108\n      jump\t// in\n    tag_107:\n      dup1\n      0x1f\n      add\n      0x20\n      dup1\n      swap2\n      div\n      mul\n      0x20\n      add\n      mload(0x40)\n      swap1\n      dup2\n      add\n      0x40\n      mstore\n      dup1\n      swap3\n      swap2\n      swap1\n      dup2\n      dup2\n      mstore\n      0x20\n      add\n      dup3\n      dup1\n      sload\n      tag_109\n      swap1\n      tag_108\n      jump\t// in\n    tag_109:\n      dup1\n      iszero\n      tag_110\n      jumpi\n      dup1\n      0x1f\n      lt\n      tag_111\n      jumpi\n      0x0100\n      dup1\n      dup4\n      sload\n      div\n      mul\n      dup4\n      mstore\n      swap2\n      0x20\n      add\n      swap2\n      jump(tag_110)\n    tag_111:\n      dup3\n      add\n      swap2\n      swap1\n      0x00\n      mstore\n      keccak256(0x00, 0x20)\n      swap1\n    tag_112:\n      dup2\n      sload\n      dup2\n      mstore\n      swap1\n      0x01\n      add\n      swap1\n      0x20\n      add\n      dup1\n      dup4\n      gt\n      tag_112\n      jumpi\n      dup3\n      swap1\n      sub\n      0x1f\n      and\n      dup3\n      add\n      swap2\n    tag_110:\n      pop\n      pop\n      pop\n      pop\n      pop\n      swap1\n      pop\n        /* \"simpleToken.sol\":2711:2790  function name() public view returns (string memory) {... */\n      swap1\n      jump\t// out\n        /* \"simpleToken.sol\":3581:3959  function approve(address spender, uint amount) external virtual override returns (bool) {... */\n    tag_40:\n        /* \"simpleToken.sol\":3663:3667  bool */\n      0x00\n        /* \"simpleToken.sol\":3677:3701  uint256 currentAllowance */\n      dup1\n        /* \"simpleToken.sol\":3704:3715  _allowances */\n      0x02\n        /* \"simpleToken.sol\":3704:3727  _allowances[msg.sender] */\n      0x00\n        /* \"simpleToken.sol\":3716:3726  msg.sender */\n      caller\n        /* \"simpleToken.sol\":3704:3727  _allowances[msg.sender] */\n      0xffffffffffffffffffffffffffffffffffffffff\n      and\n      0xffffffffffffffffffffffffffffffffffffffff\n      and\n      dup2\n      mstore\n      0x20\n      add\n      swap1\n      dup2\n      mstore\n      0x20\n      add\n      0x00\n      keccak256\n        /* \"simpleToken.sol\":3704:3736  _allowances[msg.sender][spender] */\n      0x00\n        /* \"simpleToken.sol\":3728:3735  spender */\n      dup6\n        /* \"simpleToken.sol\":3704:3736  _allowances[msg.sender][spender] */\n      0xffffffffffffffffffffffffffffffffffffffff\n      and\n      0xffffffffffffffffffffffffffffffffffffffff\n      and\n      dup2\n      mstore\n      0x20\n      add\n      swap1\n      dup2\n      mstore\n      0x20\n      add\n      0x00\n      keccak256\n      sload\n        /* \"simpleToken.sol\":3677:3736  uint256 currentAllowance = _allowances[msg.sender][spender] */\n      swap1\n      pop\n        /* \"simpleToken.sol\":3777:3783  amount */\n      dup3\n        /* \"simpleToken.sol\":3752:3761  _balances */\n      0x01\n        /* \"simpleToken.sol\":3752:3773  _balances[msg.sender] */\n      0x00\n        /* \"simpleToken.sol\":3762:3772  msg.sender */\n      caller\n        /* \"simpleToken.sol\":3752:3773  _balances[msg.sender] */\n      0xffffffffffffffffffffffffffffffffffffffff\n      and\n      0xffffffffffffffffffffffffffffffffffffffff\n      and\n      dup2\n      mstore\n      0x20\n      add\n      swap1\n      dup2\n      mstore\n      0x20\n      add\n      0x00\n      keccak256\n      sload\n        /* \"simpleToken.sol\":3752:3783  _balances[msg.sender] >= amount */\n      lt\n      iszero\n        /* \"simpleToken.sol\":3744:3870  require(_balances[msg.sender] >= amount,\"ERC20: The amount to be transferred exceeds the amount of tokens held by the owner.\") */\n      tag_114\n      jumpi\n      mload(0x40)\n      0x08c379a000000000000000000000000000000000000000000000000000000000\n      dup2\n      mstore\n      0x04\n      add\n      tag_115\n      swap1\n      tag_116\n      jump\t// in\n    tag_115:\n      mload(0x40)\n      dup1\n      swap2\n      sub\n      swap1\n      revert\n    tag_114:\n        /* \"simpleToken.sol\":3878:3933  _approve(msg.sender, spender, currentAllowance, amount) */\n      tag_117\n        /* \"simpleToken.sol\":3887:3897  msg.sender */\n      caller\n        /* \"simpleToken.sol\":3899:3906  spender */\n      dup6\n        /* \"simpleToken.sol\":3908:3924  currentAllowance */\n      dup4\n        /* \"simpleToken.sol\":3926:3932  amount */\n      dup7\n        /* \"simpleToken.sol\":3878:3886  _approve */\n      tag_118\n        /* \"simpleToken.sol\":3878:3933  _approve(msg.sender, spender, currentAllowance, amount) */\n      jump\t// in\n    tag_117:\n        /* \"simpleToken.sol\":3948:3952  true */\n      0x01\n        /* \"simpleToken.sol\":3941:3952  return true */\n      swap2\n      pop\n      pop\n        /* \"simpleToken.sol\":3581:3959  function approve(address spender, uint amount) external virtual override returns (bool) {... */\n      swap3\n      swap2\n      pop\n      pop\n      jump\t// out\n        /* \"simpleToken.sol\":5458:5618  function removePersonalTokenLock(address _who) onlyOwner public {... */\n    tag_46:\n        /* \"simpleToken.sol\":1582:1588  _owner */\n      0x00\n      dup1\n      sload\n      swap1\n      0x0100\n      exp\n      swap1\n      div\n      0xffffffffffffffffffffffffffffffffffffffff\n      and\n        /* \"simpleToken.sol\":1568:1588  msg.sender == _owner */\n      0xffffffffffffffffffffffffffffffffffffffff\n      and\n        /* \"simpleToken.sol\":1568:1578  msg.sender */\n      caller\n        /* \"simpleToken.sol\":1568:1588  msg.sender == _owner */\n      0xffffffffffffffffffffffffffffffffffffffff\n      and\n      eq\n        /* \"simpleToken.sol\":1560:1625  require(msg.sender == _owner, \"OwnerHelper: caller is not owner\") */\n      tag_120\n      jumpi\n      mload(0x40)\n      0x08c379a000000000000000000000000000000000000000000000000000000000\n      dup2\n      mstore\n      0x04\n      add\n      tag_121\n      swap1\n      tag_122\n      jump\t// in\n    tag_121:\n      mload(0x40)\n      dup1\n      swap2\n      sub\n      swap1\n      revert\n    tag_120:\n        /* \"simpleToken.sol\":5566:5570  true */\n      0x01\n        /* \"simpleToken.sol\":5538:5570  _personalTokenLock[_who] == true */\n      iszero\n      iszero\n        /* \"simpleToken.sol\":5538:5556  _personalTokenLock */\n      0x07\n        /* \"simpleToken.sol\":5538:5562  _personalTokenLock[_who] */\n      0x00\n        /* \"simpleToken.sol\":5557:5561  _who */\n      dup4\n        /* \"simpleToken.sol\":5538:5562  _personalTokenLock[_who] */\n      0xffffffffffffffffffffffffffffffffffffffff\n      and\n      0xffffffffffffffffffffffffffffffffffffffff\n      and\n      dup2\n      mstore\n      0x20\n      add\n      swap1\n      dup2\n      mstore\n      0x20\n      add\n      0x00\n      keccak256\n      0x00\n      swap1\n      sload\n      swap1\n      0x0100\n      exp\n      swap1\n      div\n      0xff\n      and\n        /* \"simpleToken.sol\":5538:5570  _personalTokenLock[_who] == true */\n      iszero\n      iszero\n      eq\n        /* \"simpleToken.sol\":5530:5571  require(_personalTokenLock[_who] == true) */\n      tag_124\n      jumpi\n      0x00\n      dup1\n      revert\n    tag_124:\n        /* \"simpleToken.sol\":5606:5611  false */\n      0x00\n        /* \"simpleToken.sol\":5579:5597  _personalTokenLock */\n      0x07\n        /* \"simpleToken.sol\":5579:5603  _personalTokenLock[_who] */\n      0x00\n        /* \"simpleToken.sol\":5598:5602  _who */\n      dup4\n        /* \"simpleToken.sol\":5579:5603  _personalTokenLock[_who] */\n      0xffffffffffffffffffffffffffffffffffffffff\n      and\n      0xffffffffffffffffffffffffffffffffffffffff\n      and\n      dup2\n      mstore\n      0x20\n      add\n      swap1\n      dup2\n      mstore\n      0x20\n      add\n      0x00\n      keccak256\n      0x00\n        /* \"simpleToken.sol\":5579:5611  _personalTokenLock[_who] = false */\n      0x0100\n      exp\n      dup2\n      sload\n      dup2\n      0xff\n      mul\n      not\n      and\n      swap1\n      dup4\n      iszero\n      iszero\n      mul\n      or\n      swap1\n      sstore\n      pop\n        /* \"simpleToken.sol\":5458:5618  function removePersonalTokenLock(address _who) onlyOwner public {... */\n      pop\n      jump\t// out\n        /* \"simpleToken.sol\":2970:3076  function totalSupply() external view virtual override returns (uint256) {... */\n    tag_48:\n        /* \"simpleToken.sol\":3033:3040  uint256 */\n      0x00\n        /* \"simpleToken.sol\":3057:3069  _totalSupply */\n      sload(0x03)\n        /* \"simpleToken.sol\":3050:3069  return _totalSupply */\n      swap1\n      pop\n        /* \"simpleToken.sol\":2970:3076  function totalSupply() external view virtual override returns (uint256) {... */\n      swap1\n      jump\t// out\n        /* \"simpleToken.sol\":3965:4443  function transferFrom(address sender, address recipient, uint256 amount) external virtual override returns (bool) {... */\n    tag_53:\n        /* \"simpleToken.sol\":4073:4077  bool */\n      0x00\n        /* \"simpleToken.sol\":4087:4123  _transfer(sender, recipient, amount) */\n      tag_127\n        /* \"simpleToken.sol\":4097:4103  sender */\n      dup5\n        /* \"simpleToken.sol\":4105:4114  recipient */\n      dup5\n        /* \"simpleToken.sol\":4116:4122  amount */\n      dup5\n        /* \"simpleToken.sol\":4087:4096  _transfer */\n      tag_128\n        /* \"simpleToken.sol\":4087:4123  _transfer(sender, recipient, amount) */\n      jump\t// in\n    tag_127:\n        /* \"simpleToken.sol\":4165:4174  recipient */\n      dup3\n        /* \"simpleToken.sol\":4136:4183  Transfer(msg.sender, sender, recipient, amount) */\n      0xffffffffffffffffffffffffffffffffffffffff\n      and\n        /* \"simpleToken.sol\":4157:4163  sender */\n      dup5\n        /* \"simpleToken.sol\":4136:4183  Transfer(msg.sender, sender, recipient, amount) */\n      0xffffffffffffffffffffffffffffffffffffffff\n      and\n        /* \"simpleToken.sol\":4145:4155  msg.sender */\n      caller\n        /* \"simpleToken.sol\":4136:4183  Transfer(msg.sender, sender, recipient, amount) */\n      0xffffffffffffffffffffffffffffffffffffffff\n      and\n      0xd1398bee19313d6bf672ccb116e51f4a1a947e91c757907f51fbb5b5e56c698f\n        /* \"simpleToken.sol\":4176:4182  amount */\n      dup6\n        /* \"simpleToken.sol\":4136:4183  Transfer(msg.sender, sender, recipient, amount) */\n      mload(0x40)\n      tag_129\n      swap2\n      swap1\n      tag_32\n      jump\t// in\n    tag_129:\n      mload(0x40)\n      dup1\n      swap2\n      sub\n      swap1\n      log4\n        /* \"simpleToken.sol\":4191:4215  uint256 currentAllowance */\n      0x00\n        /* \"simpleToken.sol\":4218:4229  _allowances */\n      0x02\n        /* \"simpleToken.sol\":4218:4237  _allowances[sender] */\n      0x00\n        /* \"simpleToken.sol\":4230:4236  sender */\n      dup7\n        /* \"simpleToken.sol\":4218:4237  _allowances[sender] */\n      0xffffffffffffffffffffffffffffffffffffffff\n      and\n      0xffffffffffffffffffffffffffffffffffffffff\n      and\n      dup2\n      mstore\n      0x20\n      add\n      swap1\n      dup2\n      mstore\n      0x20\n      add\n      0x00\n      keccak256\n        /* \"simpleToken.sol\":4218:4249  _allowances[sender][msg.sender] */\n      0x00\n        /* \"simpleToken.sol\":4238:4248  msg.sender */\n      caller\n        /* \"simpleToken.sol\":4218:4249  _allowances[sender][msg.sender] */\n      0xffffffffffffffffffffffffffffffffffffffff\n      and\n      0xffffffffffffffffffffffffffffffffffffffff\n      and\n      dup2\n      mstore\n      0x20\n      add\n      swap1\n      dup2\n      mstore\n      0x20\n      add\n      0x00\n      keccak256\n      sload\n        /* \"simpleToken.sol\":4191:4249  uint256 currentAllowance = _allowances[sender][msg.sender] */\n      swap1\n      pop\n        /* \"simpleToken.sol\":4285:4291  amount */\n      dup3\n        /* \"simpleToken.sol\":4265:4281  currentAllowance */\n      dup2\n        /* \"simpleToken.sol\":4265:4291  currentAllowance >= amount */\n      lt\n      iszero\n        /* \"simpleToken.sol\":4257:4336  require(currentAllowance >= amount, \"ERC20: transfer amount exceeds allowance\") */\n      tag_130\n      jumpi\n      mload(0x40)\n      0x08c379a000000000000000000000000000000000000000000000000000000000\n      dup2\n      mstore\n      0x04\n      add\n      tag_131\n      swap1\n      tag_132\n      jump\t// in\n    tag_131:\n      mload(0x40)\n      dup1\n      swap2\n      sub\n      swap1\n      revert\n    tag_130:\n        /* \"simpleToken.sol\":4344:4417  _approve(sender, msg.sender, currentAllowance, currentAllowance - amount) */\n      tag_133\n        /* \"simpleToken.sol\":4353:4359  sender */\n      dup6\n        /* \"simpleToken.sol\":4361:4371  msg.sender */\n      caller\n        /* \"simpleToken.sol\":4373:4389  currentAllowance */\n      dup4\n        /* \"simpleToken.sol\":4410:4416  amount */\n      dup7\n        /* \"simpleToken.sol\":4391:4407  currentAllowance */\n      dup6\n        /* \"simpleToken.sol\":4391:4416  currentAllowance - amount */\n      tag_134\n      swap2\n      swap1\n      tag_135\n      jump\t// in\n    tag_134:\n        /* \"simpleToken.sol\":4344:4352  _approve */\n      tag_118\n        /* \"simpleToken.sol\":4344:4417  _approve(sender, msg.sender, currentAllowance, currentAllowance - amount) */\n      jump\t// in\n    tag_133:\n        /* \"simpleToken.sol\":4432:4436  true */\n      0x01\n        /* \"simpleToken.sol\":4425:4436  return true */\n      swap2\n      pop\n      pop\n        /* \"simpleToken.sol\":3965:4443  function transferFrom(address sender, address recipient, uint256 amount) external virtual override returns (bool) {... */\n      swap4\n      swap3\n      pop\n      pop\n      pop\n      jump\t// out\n        /* \"simpleToken.sol\":2885:2964  function decimals() public view returns (uint8) {... */\n    tag_56:\n        /* \"simpleToken.sol\":2926:2931  uint8 */\n      0x00\n        /* \"simpleToken.sol\":2948:2957  _decimals */\n      0x06\n      0x00\n      swap1\n      sload\n      swap1\n      0x0100\n      exp\n      swap1\n      div\n      0xff\n      and\n        /* \"simpleToken.sol\":2941:2957  return _decimals */\n      swap1\n      pop\n        /* \"simpleToken.sol\":2885:2964  function decimals() public view returns (uint8) {... */\n      swap1\n      jump\t// out\n        /* \"simpleToken.sol\":2348:2370  uint8 public _decimals */\n    tag_60:\n      0x06\n      0x00\n      swap1\n      sload\n      swap1\n      0x0100\n      exp\n      swap1\n      div\n      0xff\n      and\n      dup2\n      jump\t// out\n        /* \"simpleToken.sol\":2263:2290  uint256 public _totalSupply */\n    tag_63:\n      sload(0x03)\n      dup2\n      jump\t// out\n        /* \"simpleToken.sol\":5046:5334  function isTokenLock(address from, address to) public view returns (bool lock) {... */\n    tag_67:\n        /* \"simpleToken.sol\":5114:5123  bool lock */\n      0x00\n        /* \"simpleToken.sol\":5171:5175  true */\n      0x01\n        /* \"simpleToken.sol\":5157:5175  _tokenLock == true */\n      iszero\n      iszero\n        /* \"simpleToken.sol\":5157:5167  _tokenLock */\n      0x06\n      0x01\n      swap1\n      sload\n      swap1\n      0x0100\n      exp\n      swap1\n      div\n      0xff\n      and\n        /* \"simpleToken.sol\":5157:5175  _tokenLock == true */\n      iszero\n      iszero\n      sub\n        /* \"simpleToken.sol\":5154:5216  if(_tokenLock == true)... */\n      tag_138\n      jumpi\n        /* \"simpleToken.sol\":5203:5207  true */\n      0x01\n        /* \"simpleToken.sol\":5196:5207  lock = true */\n      swap1\n      pop\n        /* \"simpleToken.sol\":5154:5216  if(_tokenLock == true)... */\n    tag_138:\n        /* \"simpleToken.sol\":5255:5259  true */\n      0x01\n        /* \"simpleToken.sol\":5227:5259  _personalTokenLock[from] == true */\n      iszero\n      iszero\n        /* \"simpleToken.sol\":5227:5245  _personalTokenLock */\n      0x07\n        /* \"simpleToken.sol\":5227:5251  _personalTokenLock[from] */\n      0x00\n        /* \"simpleToken.sol\":5246:5250  from */\n      dup6\n        /* \"simpleToken.sol\":5227:5251  _personalTokenLock[from] */\n      0xffffffffffffffffffffffffffffffffffffffff\n      and\n      0xffffffffffffffffffffffffffffffffffffffff\n      and\n      dup2\n      mstore\n      0x20\n      add\n      swap1\n      dup2\n      mstore\n      0x20\n      add\n      0x00\n      keccak256\n      0x00\n      swap1\n      sload\n      swap1\n      0x0100\n      exp\n      swap1\n      div\n      0xff\n      and\n        /* \"simpleToken.sol\":5227:5259  _personalTokenLock[from] == true */\n      iszero\n      iszero\n      eq\n        /* \"simpleToken.sol\":5227:5293  _personalTokenLock[from] == true || _personalTokenLock[to] == true */\n      dup1\n      tag_139\n      jumpi\n      pop\n        /* \"simpleToken.sol\":5289:5293  true */\n      0x01\n        /* \"simpleToken.sol\":5263:5293  _personalTokenLock[to] == true */\n      iszero\n      iszero\n        /* \"simpleToken.sol\":5263:5281  _personalTokenLock */\n      0x07\n        /* \"simpleToken.sol\":5263:5285  _personalTokenLock[to] */\n      0x00\n        /* \"simpleToken.sol\":5282:5284  to */\n      dup5\n        /* \"simpleToken.sol\":5263:5285  _personalTokenLock[to] */\n      0xffffffffffffffffffffffffffffffffffffffff\n      and\n      0xffffffffffffffffffffffffffffffffffffffff\n      and\n      dup2\n      mstore\n      0x20\n      add\n      swap1\n      dup2\n      mstore\n      0x20\n      add\n      0x00\n      keccak256\n      0x00\n      swap1\n      sload\n      swap1\n      0x0100\n      exp\n      swap1\n      div\n      0xff\n      and\n        /* \"simpleToken.sol\":5263:5293  _personalTokenLock[to] == true */\n      iszero\n      iszero\n      eq\n        /* \"simpleToken.sol\":5227:5293  _personalTokenLock[from] == true || _personalTokenLock[to] == true */\n    tag_139:\n        /* \"simpleToken.sol\":5224:5328  if(_personalTokenLock[from] == true || _personalTokenLock[to] == true) {... */\n      iszero\n      tag_140\n      jumpi\n        /* \"simpleToken.sol\":5315:5319  true */\n      0x01\n        /* \"simpleToken.sol\":5308:5319  lock = true */\n      swap1\n      pop\n        /* \"simpleToken.sol\":5224:5328  if(_personalTokenLock[from] == true || _personalTokenLock[to] == true) {... */\n    tag_140:\n        /* \"simpleToken.sol\":5046:5334  function isTokenLock(address from, address to) public view returns (bool lock) {... */\n      swap3\n      swap2\n      pop\n      pop\n      jump\t// out\n        /* \"simpleToken.sol\":5340:5452  function removeTokenLock() onlyOwner public {... */\n    tag_70:\n        /* \"simpleToken.sol\":1582:1588  _owner */\n      0x00\n      dup1\n      sload\n      swap1\n      0x0100\n      exp\n      swap1\n      div\n      0xffffffffffffffffffffffffffffffffffffffff\n      and\n        /* \"simpleToken.sol\":1568:1588  msg.sender == _owner */\n      0xffffffffffffffffffffffffffffffffffffffff\n      and\n        /* \"simpleToken.sol\":1568:1578  msg.sender */\n      caller\n        /* \"simpleToken.sol\":1568:1588  msg.sender == _owner */\n      0xffffffffffffffffffffffffffffffffffffffff\n      and\n      eq\n        /* \"simpleToken.sol\":1560:1625  require(msg.sender == _owner, \"OwnerHelper: caller is not owner\") */\n      tag_142\n      jumpi\n      mload(0x40)\n      0x08c379a000000000000000000000000000000000000000000000000000000000\n      dup2\n      mstore\n      0x04\n      add\n      tag_143\n      swap1\n      tag_122\n      jump\t// in\n    tag_143:\n      mload(0x40)\n      dup1\n      swap2\n      sub\n      swap1\n      revert\n    tag_142:\n        /* \"simpleToken.sol\":5414:5418  true */\n      0x01\n        /* \"simpleToken.sol\":5400:5418  _tokenLock == true */\n      iszero\n      iszero\n        /* \"simpleToken.sol\":5400:5410  _tokenLock */\n      0x06\n      0x01\n      swap1\n      sload\n      swap1\n      0x0100\n      exp\n      swap1\n      div\n      0xff\n      and\n        /* \"simpleToken.sol\":5400:5418  _tokenLock == true */\n      iszero\n      iszero\n      eq\n        /* \"simpleToken.sol\":5392:5419  require(_tokenLock == true) */\n      tag_145\n      jumpi\n      0x00\n      dup1\n      revert\n    tag_145:\n        /* \"simpleToken.sol\":5440:5445  false */\n      0x00\n        /* \"simpleToken.sol\":5427:5437  _tokenLock */\n      0x06\n      0x01\n        /* \"simpleToken.sol\":5427:5445  _tokenLock = false */\n      0x0100\n      exp\n      dup2\n      sload\n      dup2\n      0xff\n      mul\n      not\n      and\n      swap1\n      dup4\n      iszero\n      iszero\n      mul\n      or\n      swap1\n      sstore\n      pop\n        /* \"simpleToken.sol\":5340:5452  function removeTokenLock() onlyOwner public {... */\n      jump\t// out\n        /* \"simpleToken.sol\":3082:3207  function balanceOf(address account) external view virtual override returns (uint256) {... */\n    tag_73:\n        /* \"simpleToken.sol\":3158:3165  uint256 */\n      0x00\n        /* \"simpleToken.sol\":3182:3191  _balances */\n      0x01\n        /* \"simpleToken.sol\":3182:3200  _balances[account] */\n      0x00\n        /* \"simpleToken.sol\":3192:3199  account */\n      dup4\n        /* \"simpleToken.sol\":3182:3200  _balances[account] */\n      0xffffffffffffffffffffffffffffffffffffffff\n      and\n      0xffffffffffffffffffffffffffffffffffffffff\n      and\n      dup2\n      mstore\n      0x20\n      add\n      swap1\n      dup2\n      mstore\n      0x20\n      add\n      0x00\n      keccak256\n      sload\n        /* \"simpleToken.sol\":3175:3200  return _balances[account] */\n      swap1\n      pop\n        /* \"simpleToken.sol\":3082:3207  function balanceOf(address account) external view virtual override returns (uint256) {... */\n      swap2\n      swap1\n      pop\n      jump\t// out\n        /* \"simpleToken.sol\":1699:1782  function owner() public view virtual returns (address) {... */\n    tag_76:\n        /* \"simpleToken.sol\":1745:1752  address */\n      0x00\n        /* \"simpleToken.sol\":1769:1775  _owner */\n      dup1\n      0x00\n      swap1\n      sload\n      swap1\n      0x0100\n      exp\n      swap1\n      div\n      0xffffffffffffffffffffffffffffffffffffffff\n      and\n        /* \"simpleToken.sol\":1762:1775  return _owner */\n      swap1\n      pop\n        /* \"simpleToken.sol\":1699:1782  function owner() public view virtual returns (address) {... */\n      swap1\n      jump\t// out\n        /* \"simpleToken.sol\":2796:2879  function symbol() public view returns (string memory) {... */\n    tag_80:\n        /* \"simpleToken.sol\":2835:2848  string memory */\n      0x60\n        /* \"simpleToken.sol\":2865:2872  _symbol */\n      0x05\n        /* \"simpleToken.sol\":2858:2872  return _symbol */\n      dup1\n      sload\n      tag_149\n      swap1\n      tag_108\n      jump\t// in\n    tag_149:\n      dup1\n      0x1f\n      add\n      0x20\n      dup1\n      swap2\n      div\n      mul\n      0x20\n      add\n      mload(0x40)\n      swap1\n      dup2\n      add\n      0x40\n      mstore\n      dup1\n      swap3\n      swap2\n      swap1\n      dup2\n      dup2\n      mstore\n      0x20\n      add\n      dup3\n      dup1\n      sload\n      tag_150\n      swap1\n      tag_108\n      jump\t// in\n    tag_150:\n      dup1\n      iszero\n      tag_151\n      jumpi\n      dup1\n      0x1f\n      lt\n      tag_152\n      jumpi\n      0x0100\n      dup1\n      dup4\n      sload\n      div\n      mul\n      dup4\n      mstore\n      swap2\n      0x20\n      add\n      swap2\n      jump(tag_151)\n    tag_152:\n      dup3\n      add\n      swap2\n      swap1\n      0x00\n      mstore\n      keccak256(0x00, 0x20)\n      swap1\n    tag_153:\n      dup2\n      sload\n      dup2\n      mstore\n      swap1\n      0x01\n      add\n      swap1\n      0x20\n      add\n      dup1\n      dup4\n      gt\n      tag_153\n      jumpi\n      dup3\n      swap1\n      sub\n      0x1f\n      and\n      dup3\n      add\n      swap2\n    tag_151:\n      pop\n      pop\n      pop\n      pop\n      pop\n      swap1\n      pop\n        /* \"simpleToken.sol\":2796:2879  function symbol() public view returns (string memory) {... */\n      swap1\n      jump\t// out\n        /* \"simpleToken.sol\":3213:3428  function transfer(address recipient, uint amount) public virtual override returns (bool) {... */\n    tag_84:\n        /* \"simpleToken.sol\":3296:3300  bool */\n      0x00\n        /* \"simpleToken.sol\":3310:3350  _transfer(msg.sender, recipient, amount) */\n      tag_155\n        /* \"simpleToken.sol\":3320:3330  msg.sender */\n      caller\n        /* \"simpleToken.sol\":3332:3341  recipient */\n      dup5\n        /* \"simpleToken.sol\":3343:3349  amount */\n      dup5\n        /* \"simpleToken.sol\":3310:3319  _transfer */\n      tag_128\n        /* \"simpleToken.sol\":3310:3350  _transfer(msg.sender, recipient, amount) */\n      jump\t// in\n    tag_155:\n        /* \"simpleToken.sol\":3384:3393  recipient */\n      dup3\n        /* \"simpleToken.sol\":3363:3402  Transfer(msg.sender, recipient, amount) */\n      0xffffffffffffffffffffffffffffffffffffffff\n      and\n        /* \"simpleToken.sol\":3372:3382  msg.sender */\n      caller\n        /* \"simpleToken.sol\":3363:3402  Transfer(msg.sender, recipient, amount) */\n      0xffffffffffffffffffffffffffffffffffffffff\n      and\n      0xddf252ad1be2c89b69c2b068fc378daa952ba7f163c4a11628f55a4df523b3ef\n        /* \"simpleToken.sol\":3395:3401  amount */\n      dup5\n        /* \"simpleToken.sol\":3363:3402  Transfer(msg.sender, recipient, amount) */\n      mload(0x40)\n      tag_156\n      swap2\n      swap1\n      tag_32\n      jump\t// in\n    tag_156:\n      mload(0x40)\n      dup1\n      swap2\n      sub\n      swap1\n      log3\n        /* \"simpleToken.sol\":3417:3421  true */\n      0x01\n        /* \"simpleToken.sol\":3410:3421  return true */\n      swap1\n      pop\n        /* \"simpleToken.sol\":3213:3428  function transfer(address recipient, uint amount) public virtual override returns (bool) {... */\n      swap3\n      swap2\n      pop\n      pop\n      jump\t// out\n        /* \"simpleToken.sol\":2321:2342  string public _symbol */\n    tag_87:\n      0x05\n      dup1\n      sload\n      tag_157\n      swap1\n      tag_108\n      jump\t// in\n    tag_157:\n      dup1\n      0x1f\n      add\n      0x20\n      dup1\n      swap2\n      div\n      mul\n      0x20\n      add\n      mload(0x40)\n      swap1\n      dup2\n      add\n      0x40\n      mstore\n      dup1\n      swap3\n      swap2\n      swap1\n      dup2\n      dup2\n      mstore\n      0x20\n      add\n      dup3\n      dup1\n      sload\n      tag_158\n      swap1\n      tag_108\n      jump\t// in\n    tag_158:\n      dup1\n      iszero\n      tag_159\n      jumpi\n      dup1\n      0x1f\n      lt\n      tag_160\n      jumpi\n      0x0100\n      dup1\n      dup4\n      sload\n      div\n      mul\n      dup4\n      mstore\n      swap2\n      0x20\n      add\n      swap2\n      jump(tag_159)\n    tag_160:\n      dup3\n      add\n      swap2\n      swap1\n      0x00\n      mstore\n      keccak256(0x00, 0x20)\n      swap1\n    tag_161:\n      dup2\n      sload\n      dup2\n      mstore\n      swap1\n      0x01\n      add\n      swap1\n      0x20\n      add\n      dup1\n      dup4\n      gt\n      tag_161\n      jumpi\n      dup3\n      swap1\n      sub\n      0x1f\n      and\n      dup3\n      add\n      swap2\n    tag_159:\n      pop\n      pop\n      pop\n      pop\n      pop\n      dup2\n      jump\t// out\n        /* \"simpleToken.sol\":2404:2455  mapping (address => bool) public _personalTokenLock */\n    tag_91:\n      mstore(0x20, 0x07)\n      dup1\n      0x00\n      mstore\n      keccak256(0x00, 0x40)\n      0x00\n      swap2\n      pop\n      sload\n      swap1\n      0x0100\n      exp\n      swap1\n      div\n      0xff\n      and\n      dup2\n      jump\t// out\n        /* \"simpleToken.sol\":2296:2315  string public _name */\n    tag_94:\n      0x04\n      dup1\n      sload\n      tag_162\n      swap1\n      tag_108\n      jump\t// in\n    tag_162:\n      dup1\n      0x1f\n      add\n      0x20\n      dup1\n      swap2\n      div\n      mul\n      0x20\n      add\n      mload(0x40)\n      swap1\n      dup2\n      add\n      0x40\n      mstore\n      dup1\n      swap3\n      swap2\n      swap1\n      dup2\n      dup2\n      mstore\n      0x20\n      add\n      dup3\n      dup1\n      sload\n      tag_163\n      swap1\n      tag_108\n      jump\t// in\n    tag_163:\n      dup1\n      iszero\n      tag_164\n      jumpi\n      dup1\n      0x1f\n      lt\n      tag_165\n      jumpi\n      0x0100\n      dup1\n      dup4\n      sload\n      div\n      mul\n      dup4\n      mstore\n      swap2\n      0x20\n      add\n      swap2\n      jump(tag_164)\n    tag_165:\n      dup3\n      add\n      swap2\n      swap1\n      0x00\n      mstore\n      keccak256(0x00, 0x20)\n      swap1\n    tag_166:\n      dup2\n      sload\n      dup2\n      mstore\n      swap1\n      0x01\n      add\n      swap1\n      0x20\n      add\n      dup1\n      dup4\n      gt\n      tag_166\n      jumpi\n      dup3\n      swap1\n      sub\n      0x1f\n      and\n      dup3\n      add\n      swap2\n    tag_164:\n      pop\n      pop\n      pop\n      pop\n      pop\n      dup2\n      jump\t// out\n        /* \"simpleToken.sol\":3434:3575  function allowance(address owner, address spender) external view override returns (uint256) {... */\n    tag_98:\n        /* \"simpleToken.sol\":3517:3524  uint256 */\n      0x00\n        /* \"simpleToken.sol\":3541:3552  _allowances */\n      0x02\n        /* \"simpleToken.sol\":3541:3559  _allowances[owner] */\n      0x00\n        /* \"simpleToken.sol\":3553:3558  owner */\n      dup5\n        /* \"simpleToken.sol\":3541:3559  _allowances[owner] */\n      0xffffffffffffffffffffffffffffffffffffffff\n      and\n      0xffffffffffffffffffffffffffffffffffffffff\n      and\n      dup2\n      mstore\n      0x20\n      add\n      swap1\n      dup2\n      mstore\n      0x20\n      add\n      0x00\n      keccak256\n        /* \"simpleToken.sol\":3541:3568  _allowances[owner][spender] */\n      0x00\n        /* \"simpleToken.sol\":3560:3567  spender */\n      dup4\n        /* \"simpleToken.sol\":3541:3568  _allowances[owner][spender] */\n      0xffffffffffffffffffffffffffffffffffffffff\n      and\n      0xffffffffffffffffffffffffffffffffffffffff\n      and\n      dup2\n      mstore\n      0x20\n      add\n      swap1\n      dup2\n      mstore\n      0x20\n      add\n      0x00\n      keccak256\n      sload\n        /* \"simpleToken.sol\":3534:3568  return _allowances[owner][spender] */\n      swap1\n      pop\n        /* \"simpleToken.sol\":3434:3575  function allowance(address owner, address spender) external view override returns (uint256) {... */\n      swap3\n      swap2\n      pop\n      pop\n      jump\t// out\n        /* \"simpleToken.sol\":1787:2040  function transferOwnership(address newOwner) onlyOwner public {... */\n    tag_102:\n        /* \"simpleToken.sol\":1582:1588  _owner */\n      0x00\n      dup1\n      sload\n      swap1\n      0x0100\n      exp\n      swap1\n      div\n      0xffffffffffffffffffffffffffffffffffffffff\n      and\n        /* \"simpleToken.sol\":1568:1588  msg.sender == _owner */\n      0xffffffffffffffffffffffffffffffffffffffff\n      and\n        /* \"simpleToken.sol\":1568:1578  msg.sender */\n      caller\n        /* \"simpleToken.sol\":1568:1588  msg.sender == _owner */\n      0xffffffffffffffffffffffffffffffffffffffff\n      and\n      eq\n        /* \"simpleToken.sol\":1560:1625  require(msg.sender == _owner, \"OwnerHelper: caller is not owner\") */\n      tag_169\n      jumpi\n      mload(0x40)\n      0x08c379a000000000000000000000000000000000000000000000000000000000\n      dup2\n      mstore\n      0x04\n      add\n      tag_170\n      swap1\n      tag_122\n      jump\t// in\n    tag_170:\n      mload(0x40)\n      dup1\n      swap2\n      sub\n      swap1\n      revert\n    tag_169:\n        /* \"simpleToken.sol\":1877:1883  _owner */\n      0x00\n      dup1\n      sload\n      swap1\n      0x0100\n      exp\n      swap1\n      div\n      0xffffffffffffffffffffffffffffffffffffffff\n      and\n        /* \"simpleToken.sol\":1865:1883  newOwner != _owner */\n      0xffffffffffffffffffffffffffffffffffffffff\n      and\n        /* \"simpleToken.sol\":1865:1873  newOwner */\n      dup2\n        /* \"simpleToken.sol\":1865:1883  newOwner != _owner */\n      0xffffffffffffffffffffffffffffffffffffffff\n      and\n      sub\n        /* \"simpleToken.sol\":1857:1884  require(newOwner != _owner) */\n      tag_172\n      jumpi\n      0x00\n      dup1\n      revert\n    tag_172:\n        /* \"simpleToken.sol\":1920:1923  0x0 */\n      0x00\n        /* \"simpleToken.sol\":1900:1924  newOwner != address(0x0) */\n      0xffffffffffffffffffffffffffffffffffffffff\n      and\n        /* \"simpleToken.sol\":1900:1908  newOwner */\n      dup2\n        /* \"simpleToken.sol\":1900:1924  newOwner != address(0x0) */\n      0xffffffffffffffffffffffffffffffffffffffff\n      and\n      sub\n        /* \"simpleToken.sol\":1892:1925  require(newOwner != address(0x0)) */\n      tag_173\n      jumpi\n      0x00\n      dup1\n      revert\n    tag_173:\n        /* \"simpleToken.sol\":1933:1949  address preOwner */\n      0x00\n        /* \"simpleToken.sol\":1952:1958  _owner */\n      dup1\n      0x00\n      swap1\n      sload\n      swap1\n      0x0100\n      exp\n      swap1\n      div\n      0xffffffffffffffffffffffffffffffffffffffff\n      and\n        /* \"simpleToken.sol\":1933:1958  address preOwner = _owner */\n      swap1\n      pop\n        /* \"simpleToken.sol\":1974:1982  newOwner */\n      dup2\n        /* \"simpleToken.sol\":1965:1971  _owner */\n      0x00\n      dup1\n        /* \"simpleToken.sol\":1965:1982  _owner = newOwner */\n      0x0100\n      exp\n      dup2\n      sload\n      dup2\n      0xffffffffffffffffffffffffffffffffffffffff\n      mul\n      not\n      and\n      swap1\n      dup4\n      0xffffffffffffffffffffffffffffffffffffffff\n      and\n      mul\n      or\n      swap1\n      sstore\n      pop\n        /* \"simpleToken.sol\":2025:2033  newOwner */\n      dup2\n        /* \"simpleToken.sol\":1994:2034  OwnershipTransferred(preOwner, newOwner) */\n      0xffffffffffffffffffffffffffffffffffffffff\n      and\n        /* \"simpleToken.sol\":2015:2023  preOwner */\n      dup2\n        /* \"simpleToken.sol\":1994:2034  OwnershipTransferred(preOwner, newOwner) */\n      0xffffffffffffffffffffffffffffffffffffffff\n      and\n      0x8be0079c531659141344cd1fd0a4f28419497f9722a3daafe3b4186f6b6457e0\n      mload(0x40)\n      mload(0x40)\n      dup1\n      swap2\n      sub\n      swap1\n      log3\n        /* \"simpleToken.sol\":1849:2040  {... */\n      pop\n        /* \"simpleToken.sol\":1787:2040  function transferOwnership(address newOwner) onlyOwner public {... */\n      pop\n      jump\t// out\n        /* \"simpleToken.sol\":2376:2398  bool public _tokenLock */\n    tag_104:\n      0x06\n      0x01\n      swap1\n      sload\n      swap1\n      0x0100\n      exp\n      swap1\n      div\n      0xff\n      and\n      dup2\n      jump\t// out\n        /* \"simpleToken.sol\":5624:6087  function _approve(address owner, address spender, uint256 currentAmount, uint256 amount) internal virtual {... */\n    tag_118:\n        /* \"simpleToken.sol\":5763:5764  0 */\n      0x00\n        /* \"simpleToken.sol\":5746:5765  owner != address(0) */\n      0xffffffffffffffffffffffffffffffffffffffff\n      and\n        /* \"simpleToken.sol\":5746:5751  owner */\n      dup5\n        /* \"simpleToken.sol\":5746:5765  owner != address(0) */\n      0xffffffffffffffffffffffffffffffffffffffff\n      and\n      sub\n        /* \"simpleToken.sol\":5738:5806  require(owner != address(0), \"ERC20: approve from the zero address\") */\n      tag_175\n      jumpi\n      mload(0x40)\n      0x08c379a000000000000000000000000000000000000000000000000000000000\n      dup2\n      mstore\n      0x04\n      add\n      tag_176\n      swap1\n      tag_177\n      jump\t// in\n    tag_176:\n      mload(0x40)\n      dup1\n      swap2\n      sub\n      swap1\n      revert\n    tag_175:\n        /* \"simpleToken.sol\":5841:5842  0 */\n      0x00\n        /* \"simpleToken.sol\":5822:5843  spender != address(0) */\n      0xffffffffffffffffffffffffffffffffffffffff\n      and\n        /* \"simpleToken.sol\":5822:5829  spender */\n      dup4\n        /* \"simpleToken.sol\":5822:5843  spender != address(0) */\n      0xffffffffffffffffffffffffffffffffffffffff\n      and\n      sub\n        /* \"simpleToken.sol\":5814:5882  require(spender != address(0), \"ERC20: approve to the zero address\") */\n      tag_178\n      jumpi\n      mload(0x40)\n      0x08c379a000000000000000000000000000000000000000000000000000000000\n      dup2\n      mstore\n      0x04\n      add\n      tag_179\n      swap1\n      tag_180\n      jump\t// in\n    tag_179:\n      mload(0x40)\n      dup1\n      swap2\n      sub\n      swap1\n      revert\n    tag_178:\n        /* \"simpleToken.sol\":5915:5926  _allowances */\n      0x02\n        /* \"simpleToken.sol\":5915:5933  _allowances[owner] */\n      0x00\n        /* \"simpleToken.sol\":5927:5932  owner */\n      dup6\n        /* \"simpleToken.sol\":5915:5933  _allowances[owner] */\n      0xffffffffffffffffffffffffffffffffffffffff\n      and\n      0xffffffffffffffffffffffffffffffffffffffff\n      and\n      dup2\n      mstore\n      0x20\n      add\n      swap1\n      dup2\n      mstore\n      0x20\n      add\n      0x00\n      keccak256\n        /* \"simpleToken.sol\":5915:5942  _allowances[owner][spender] */\n      0x00\n        /* \"simpleToken.sol\":5934:5941  spender */\n      dup5\n        /* \"simpleToken.sol\":5915:5942  _allowances[owner][spender] */\n      0xffffffffffffffffffffffffffffffffffffffff\n      and\n      0xffffffffffffffffffffffffffffffffffffffff\n      and\n      dup2\n      mstore\n      0x20\n      add\n      swap1\n      dup2\n      mstore\n      0x20\n      add\n      0x00\n      keccak256\n      sload\n        /* \"simpleToken.sol\":5898:5911  currentAmount */\n      dup3\n        /* \"simpleToken.sol\":5898:5942  currentAmount == _allowances[owner][spender] */\n      eq\n        /* \"simpleToken.sol\":5890:5975  require(currentAmount == _allowances[owner][spender], \"ERC20: invalid currentAmount\") */\n      tag_181\n      jumpi\n      mload(0x40)\n      0x08c379a000000000000000000000000000000000000000000000000000000000\n      dup2\n      mstore\n      0x04\n      add\n      tag_182\n      swap1\n      tag_183\n      jump\t// in\n    tag_182:\n      mload(0x40)\n      dup1\n      swap2\n      sub\n      swap1\n      revert\n    tag_181:\n        /* \"simpleToken.sol\":6013:6019  amount */\n      dup1\n        /* \"simpleToken.sol\":5983:5994  _allowances */\n      0x02\n        /* \"simpleToken.sol\":5983:6001  _allowances[owner] */\n      0x00\n        /* \"simpleToken.sol\":5995:6000  owner */\n      dup7\n        /* \"simpleToken.sol\":5983:6001  _allowances[owner] */\n      0xffffffffffffffffffffffffffffffffffffffff\n      and\n      0xffffffffffffffffffffffffffffffffffffffff\n      and\n      dup2\n      mstore\n      0x20\n      add\n      swap1\n      dup2\n      mstore\n      0x20\n      add\n      0x00\n      keccak256\n        /* \"simpleToken.sol\":5983:6010  _allowances[owner][spender] */\n      0x00\n        /* \"simpleToken.sol\":6002:6009  spender */\n      dup6\n        /* \"simpleToken.sol\":5983:6010  _allowances[owner][spender] */\n      0xffffffffffffffffffffffffffffffffffffffff\n      and\n      0xffffffffffffffffffffffffffffffffffffffff\n      and\n      dup2\n      mstore\n      0x20\n      add\n      swap1\n      dup2\n      mstore\n      0x20\n      add\n      0x00\n      keccak256\n        /* \"simpleToken.sol\":5983:6019  _allowances[owner][spender] = amount */\n      dup2\n      swap1\n      sstore\n      pop\n        /* \"simpleToken.sol\":6049:6056  spender */\n      dup3\n        /* \"simpleToken.sol\":6033:6080  Approval(owner, spender, currentAmount, amount) */\n      0xffffffffffffffffffffffffffffffffffffffff\n      and\n        /* \"simpleToken.sol\":6042:6047  owner */\n      dup5\n        /* \"simpleToken.sol\":6033:6080  Approval(owner, spender, currentAmount, amount) */\n      0xffffffffffffffffffffffffffffffffffffffff\n      and\n      0xb3fd5071835887567a0671151121894ddccc2842f1d10bedad13e0d17cace9a7\n        /* \"simpleToken.sol\":6058:6071  currentAmount */\n      dup5\n        /* \"simpleToken.sol\":6073:6079  amount */\n      dup5\n        /* \"simpleToken.sol\":6033:6080  Approval(owner, spender, currentAmount, amount) */\n      mload(0x40)\n      tag_184\n      swap3\n      swap2\n      swap1\n      tag_185\n      jump\t// in\n    tag_184:\n      mload(0x40)\n      dup1\n      swap2\n      sub\n      swap1\n      log3\n        /* \"simpleToken.sol\":5624:6087  function _approve(address owner, address spender, uint256 currentAmount, uint256 amount) internal virtual {... */\n      pop\n      pop\n      pop\n      pop\n      jump\t// out\n        /* \"simpleToken.sol\":4449:5040  function _transfer(address sender, address recipient, uint256 amount) internal virtual {... */\n    tag_128:\n        /* \"simpleToken.sol\":4570:4571  0 */\n      0x00\n        /* \"simpleToken.sol\":4552:4572  sender != address(0) */\n      0xffffffffffffffffffffffffffffffffffffffff\n      and\n        /* \"simpleToken.sol\":4552:4558  sender */\n      dup4\n        /* \"simpleToken.sol\":4552:4572  sender != address(0) */\n      0xffffffffffffffffffffffffffffffffffffffff\n      and\n      sub\n        /* \"simpleToken.sol\":4544:4614  require(sender != address(0), \"ERC20: transfer from the zero address\") */\n      tag_187\n      jumpi\n      mload(0x40)\n      0x08c379a000000000000000000000000000000000000000000000000000000000\n      dup2\n      mstore\n      0x04\n      add\n      tag_188\n      swap1\n      tag_189\n      jump\t// in\n    tag_188:\n      mload(0x40)\n      dup1\n      swap2\n      sub\n      swap1\n      revert\n    tag_187:\n        /* \"simpleToken.sol\":4651:4652  0 */\n      0x00\n        /* \"simpleToken.sol\":4630:4653  recipient != address(0) */\n      0xffffffffffffffffffffffffffffffffffffffff\n      and\n        /* \"simpleToken.sol\":4630:4639  recipient */\n      dup3\n        /* \"simpleToken.sol\":4630:4653  recipient != address(0) */\n      0xffffffffffffffffffffffffffffffffffffffff\n      and\n      sub\n        /* \"simpleToken.sol\":4622:4693  require(recipient != address(0), \"ERC20: transfer to the zero address\") */\n      tag_190\n      jumpi\n      mload(0x40)\n      0x08c379a000000000000000000000000000000000000000000000000000000000\n      dup2\n      mstore\n      0x04\n      add\n      tag_191\n      swap1\n      tag_192\n      jump\t// in\n    tag_191:\n      mload(0x40)\n      dup1\n      swap2\n      sub\n      swap1\n      revert\n    tag_190:\n        /* \"simpleToken.sol\":4743:4748  false */\n      0x00\n        /* \"simpleToken.sol\":4709:4748  isTokenLock(sender, recipient) == false */\n      iszero\n      iszero\n        /* \"simpleToken.sol\":4709:4739  isTokenLock(sender, recipient) */\n      tag_193\n        /* \"simpleToken.sol\":4721:4727  sender */\n      dup5\n        /* \"simpleToken.sol\":4729:4738  recipient */\n      dup5\n        /* \"simpleToken.sol\":4709:4720  isTokenLock */\n      tag_67\n        /* \"simpleToken.sol\":4709:4739  isTokenLock(sender, recipient) */\n      jump\t// in\n    tag_193:\n        /* \"simpleToken.sol\":4709:4748  isTokenLock(sender, recipient) == false */\n      iszero\n      iszero\n      eq\n        /* \"simpleToken.sol\":4701:4786  require(isTokenLock(sender, recipient) == false, \"TokenLock: invalid token transfer\") */\n      tag_194\n      jumpi\n      mload(0x40)\n      0x08c379a000000000000000000000000000000000000000000000000000000000\n      dup2\n      mstore\n      0x04\n      add\n      tag_195\n      swap1\n      tag_196\n      jump\t// in\n    tag_195:\n      mload(0x40)\n      dup1\n      swap2\n      sub\n      swap1\n      revert\n    tag_194:\n        /* \"simpleToken.sol\":4794:4815  uint256 senderBalance */\n      0x00\n        /* \"simpleToken.sol\":4818:4827  _balances */\n      0x01\n        /* \"simpleToken.sol\":4818:4835  _balances[sender] */\n      0x00\n        /* \"simpleToken.sol\":4828:4834  sender */\n      dup6\n        /* \"simpleToken.sol\":4818:4835  _balances[sender] */\n      0xffffffffffffffffffffffffffffffffffffffff\n      and\n      0xffffffffffffffffffffffffffffffffffffffff\n      and\n      dup2\n      mstore\n      0x20\n      add\n      swap1\n      dup2\n      mstore\n      0x20\n      add\n      0x00\n      keccak256\n      sload\n        /* \"simpleToken.sol\":4794:4835  uint256 senderBalance = _balances[sender] */\n      swap1\n      pop\n        /* \"simpleToken.sol\":4868:4874  amount */\n      dup2\n        /* \"simpleToken.sol\":4851:4864  senderBalance */\n      dup2\n        /* \"simpleToken.sol\":4851:4874  senderBalance >= amount */\n      lt\n      iszero\n        /* \"simpleToken.sol\":4843:4917  require(senderBalance >= amount, \"ERC20: transfer amount exceeds balance\") */\n      tag_197\n      jumpi\n      mload(0x40)\n      0x08c379a000000000000000000000000000000000000000000000000000000000\n      dup2\n      mstore\n      0x04\n      add\n      tag_198\n      swap1\n      tag_199\n      jump\t// in\n    tag_198:\n      mload(0x40)\n      dup1\n      swap2\n      sub\n      swap1\n      revert\n    tag_197:\n        /* \"simpleToken.sol\":4945:4970  senderBalance.sub(amount) */\n      tag_200\n        /* \"simpleToken.sol\":4963:4969  amount */\n      dup3\n        /* \"simpleToken.sol\":4945:4958  senderBalance */\n      dup3\n        /* \"simpleToken.sol\":4945:4962  senderBalance.sub */\n      tag_201\n      swap1\n        /* \"simpleToken.sol\":4945:4970  senderBalance.sub(amount) */\n      swap2\n      swap1\n      0xffffffff\n      and\n      jump\t// in\n    tag_200:\n        /* \"simpleToken.sol\":4925:4934  _balances */\n      0x01\n        /* \"simpleToken.sol\":4925:4942  _balances[sender] */\n      0x00\n        /* \"simpleToken.sol\":4935:4941  sender */\n      dup7\n        /* \"simpleToken.sol\":4925:4942  _balances[sender] */\n      0xffffffffffffffffffffffffffffffffffffffff\n      and\n      0xffffffffffffffffffffffffffffffffffffffff\n      and\n      dup2\n      mstore\n      0x20\n      add\n      swap1\n      dup2\n      mstore\n      0x20\n      add\n      0x00\n      keccak256\n        /* \"simpleToken.sol\":4925:4970  _balances[sender] = senderBalance.sub(amount) */\n      dup2\n      swap1\n      sstore\n      pop\n        /* \"simpleToken.sol\":5001:5033  _balances[recipient].add(amount) */\n      tag_202\n        /* \"simpleToken.sol\":5026:5032  amount */\n      dup3\n        /* \"simpleToken.sol\":5001:5010  _balances */\n      0x01\n        /* \"simpleToken.sol\":5001:5021  _balances[recipient] */\n      0x00\n        /* \"simpleToken.sol\":5011:5020  recipient */\n      dup7\n        /* \"simpleToken.sol\":5001:5021  _balances[recipient] */\n      0xffffffffffffffffffffffffffffffffffffffff\n      and\n      0xffffffffffffffffffffffffffffffffffffffff\n      and\n      dup2\n      mstore\n      0x20\n      add\n      swap1\n      dup2\n      mstore\n      0x20\n      add\n      0x00\n      keccak256\n      sload\n        /* \"simpleToken.sol\":5001:5025  _balances[recipient].add */\n      tag_203\n      swap1\n        /* \"simpleToken.sol\":5001:5033  _balances[recipient].add(amount) */\n      swap2\n      swap1\n      0xffffffff\n      and\n      jump\t// in\n    tag_202:\n        /* \"simpleToken.sol\":4978:4987  _balances */\n      0x01\n        /* \"simpleToken.sol\":4978:4998  _balances[recipient] */\n      0x00\n        /* \"simpleToken.sol\":4988:4997  recipient */\n      dup6\n        /* \"simpleToken.sol\":4978:4998  _balances[recipient] */\n      0xffffffffffffffffffffffffffffffffffffffff\n      and\n      0xffffffffffffffffffffffffffffffffffffffff\n      and\n      dup2\n      mstore\n      0x20\n      add\n      swap1\n      dup2\n      mstore\n      0x20\n      add\n      0x00\n      keccak256\n        /* \"simpleToken.sol\":4978:5033  _balances[recipient] = _balances[recipient].add(amount) */\n      dup2\n      swap1\n      sstore\n      pop\n        /* \"simpleToken.sol\":4536:5040  {... */\n      pop\n        /* \"simpleToken.sol\":4449:5040  function _transfer(address sender, address recipient, uint256 amount) internal virtual {... */\n      pop\n      pop\n      pop\n      jump\t// out\n        /* \"simpleToken.sol\":1145:1254  function sub(uint256 a, uint256 b) internal pure returns (uint256) {... */\n    tag_201:\n        /* \"simpleToken.sol\":1203:1210  uint256 */\n      0x00\n        /* \"simpleToken.sol\":1229:1230  a */\n      dup3\n        /* \"simpleToken.sol\":1224:1225  b */\n      dup3\n        /* \"simpleToken.sol\":1224:1230  b <= a */\n      gt\n      iszero\n        /* \"simpleToken.sol\":1217:1231  assert(b <= a) */\n      tag_205\n      jumpi\n      tag_206\n      tag_207\n      jump\t// in\n    tag_206:\n    tag_205:\n        /* \"simpleToken.sol\":1247:1248  b */\n      dup2\n        /* \"simpleToken.sol\":1243:1244  a */\n      dup4\n        /* \"simpleToken.sol\":1243:1248  a - b */\n      tag_208\n      swap2\n      swap1\n      tag_135\n      jump\t// in\n    tag_208:\n        /* \"simpleToken.sol\":1236:1248  return a - b */\n      swap1\n      pop\n        /* \"simpleToken.sol\":1145:1254  function sub(uint256 a, uint256 b) internal pure returns (uint256) {... */\n      swap3\n      swap2\n      pop\n      pop\n      jump\t// out\n        /* \"simpleToken.sol\":1259:1384  function add(uint256 a, uint256 b) internal pure returns (uint256) {... */\n    tag_203:\n        /* \"simpleToken.sol\":1317:1324  uint256 */\n      0x00\n        /* \"simpleToken.sol\":1331:1340  uint256 c */\n      dup1\n        /* \"simpleToken.sol\":1347:1348  b */\n      dup3\n        /* \"simpleToken.sol\":1343:1344  a */\n      dup5\n        /* \"simpleToken.sol\":1343:1348  a + b */\n      tag_210\n      swap2\n      swap1\n      tag_211\n      jump\t// in\n    tag_210:\n        /* \"simpleToken.sol\":1331:1348  uint256 c = a + b */\n      swap1\n      pop\n        /* \"simpleToken.sol\":1365:1366  a */\n      dup4\n        /* \"simpleToken.sol\":1360:1361  c */\n      dup2\n        /* \"simpleToken.sol\":1360:1366  c >= a */\n      lt\n      iszero\n        /* \"simpleToken.sol\":1353:1367  assert(c >= a) */\n      tag_212\n      jumpi\n      tag_213\n      tag_207\n      jump\t// in\n    tag_213:\n    tag_212:\n        /* \"simpleToken.sol\":1379:1380  c */\n      dup1\n        /* \"simpleToken.sol\":1372:1380  return c */\n      swap2\n      pop\n      pop\n        /* \"simpleToken.sol\":1259:1384  function add(uint256 a, uint256 b) internal pure returns (uint256) {... */\n      swap3\n      swap2\n      pop\n      pop\n      jump\t// out\n        /* \"#utility.yul\":88:205   */\n    tag_215:\n        /* \"#utility.yul\":197:198   */\n      0x00\n        /* \"#utility.yul\":194:195   */\n      dup1\n        /* \"#utility.yul\":187:199   */\n      revert\n        /* \"#utility.yul\":334:460   */\n    tag_217:\n        /* \"#utility.yul\":371:378   */\n      0x00\n        /* \"#utility.yul\":411:453   */\n      0xffffffffffffffffffffffffffffffffffffffff\n        /* \"#utility.yul\":404:409   */\n      dup3\n        /* \"#utility.yul\":400:454   */\n      and\n        /* \"#utility.yul\":389:454   */\n      swap1\n      pop\n        /* \"#utility.yul\":334:460   */\n      swap2\n      swap1\n      pop\n      jump\t// out\n        /* \"#utility.yul\":466:562   */\n    tag_218:\n        /* \"#utility.yul\":503:510   */\n      0x00\n        /* \"#utility.yul\":532:556   */\n      tag_263\n        /* \"#utility.yul\":550:555   */\n      dup3\n        /* \"#utility.yul\":532:556   */\n      tag_217\n      jump\t// in\n    tag_263:\n        /* \"#utility.yul\":521:556   */\n      swap1\n      pop\n        /* \"#utility.yul\":466:562   */\n      swap2\n      swap1\n      pop\n      jump\t// out\n        /* \"#utility.yul\":568:690   */\n    tag_219:\n        /* \"#utility.yul\":641:665   */\n      tag_265\n        /* \"#utility.yul\":659:664   */\n      dup2\n        /* \"#utility.yul\":641:665   */\n      tag_218\n      jump\t// in\n    tag_265:\n        /* \"#utility.yul\":634:639   */\n      dup2\n        /* \"#utility.yul\":631:666   */\n      eq\n        /* \"#utility.yul\":621:684   */\n      tag_266\n      jumpi\n        /* \"#utility.yul\":680:681   */\n      0x00\n        /* \"#utility.yul\":677:678   */\n      dup1\n        /* \"#utility.yul\":670:682   */\n      revert\n        /* \"#utility.yul\":621:684   */\n    tag_266:\n        /* \"#utility.yul\":568:690   */\n      pop\n      jump\t// out\n        /* \"#utility.yul\":696:835   */\n    tag_220:\n        /* \"#utility.yul\":742:747   */\n      0x00\n        /* \"#utility.yul\":780:786   */\n      dup2\n        /* \"#utility.yul\":767:787   */\n      calldataload\n        /* \"#utility.yul\":758:787   */\n      swap1\n      pop\n        /* \"#utility.yul\":796:829   */\n      tag_268\n        /* \"#utility.yul\":823:828   */\n      dup2\n        /* \"#utility.yul\":796:829   */\n      tag_219\n      jump\t// in\n    tag_268:\n        /* \"#utility.yul\":696:835   */\n      swap3\n      swap2\n      pop\n      pop\n      jump\t// out\n        /* \"#utility.yul\":841:1315   */\n    tag_29:\n        /* \"#utility.yul\":909:915   */\n      0x00\n        /* \"#utility.yul\":917:923   */\n      dup1\n        /* \"#utility.yul\":966:968   */\n      0x40\n        /* \"#utility.yul\":954:963   */\n      dup4\n        /* \"#utility.yul\":945:952   */\n      dup6\n        /* \"#utility.yul\":941:964   */\n      sub\n        /* \"#utility.yul\":937:969   */\n      slt\n        /* \"#utility.yul\":934:1053   */\n      iszero\n      tag_270\n      jumpi\n        /* \"#utility.yul\":972:1051   */\n      tag_271\n      tag_215\n      jump\t// in\n    tag_271:\n        /* \"#utility.yul\":934:1053   */\n    tag_270:\n        /* \"#utility.yul\":1092:1093   */\n      0x00\n        /* \"#utility.yul\":1117:1170   */\n      tag_272\n        /* \"#utility.yul\":1162:1169   */\n      dup6\n        /* \"#utility.yul\":1153:1159   */\n      dup3\n        /* \"#utility.yul\":1142:1151   */\n      dup7\n        /* \"#utility.yul\":1138:1160   */\n      add\n        /* \"#utility.yul\":1117:1170   */\n      tag_220\n      jump\t// in\n    tag_272:\n        /* \"#utility.yul\":1107:1170   */\n      swap3\n      pop\n        /* \"#utility.yul\":1063:1180   */\n      pop\n        /* \"#utility.yul\":1219:1221   */\n      0x20\n        /* \"#utility.yul\":1245:1298   */\n      tag_273\n        /* \"#utility.yul\":1290:1297   */\n      dup6\n        /* \"#utility.yul\":1281:1287   */\n      dup3\n        /* \"#utility.yul\":1270:1279   */\n      dup7\n        /* \"#utility.yul\":1266:1288   */\n      add\n        /* \"#utility.yul\":1245:1298   */\n      tag_220\n      jump\t// in\n    tag_273:\n        /* \"#utility.yul\":1235:1298   */\n      swap2\n      pop\n        /* \"#utility.yul\":1190:1308   */\n      pop\n        /* \"#utility.yul\":841:1315   */\n      swap3\n      pop\n      swap3\n      swap1\n      pop\n      jump\t// out\n        /* \"#utility.yul\":1321:1398   */\n    tag_221:\n        /* \"#utility.yul\":1358:1365   */\n      0x00\n        /* \"#utility.yul\":1387:1392   */\n      dup2\n        /* \"#utility.yul\":1376:1392   */\n      swap1\n      pop\n        /* \"#utility.yul\":1321:1398   */\n      swap2\n      swap1\n      pop\n      jump\t// out\n        /* \"#utility.yul\":1404:1522   */\n    tag_222:\n        /* \"#utility.yul\":1491:1515   */\n      tag_276\n        /* \"#utility.yul\":1509:1514   */\n      dup2\n        /* \"#utility.yul\":1491:1515   */\n      tag_221\n      jump\t// in\n    tag_276:\n        /* \"#utility.yul\":1486:1489   */\n      dup3\n        /* \"#utility.yul\":1479:1516   */\n      mstore\n        /* \"#utility.yul\":1404:1522   */\n      pop\n      pop\n      jump\t// out\n        /* \"#utility.yul\":1528:1750   */\n    tag_32:\n        /* \"#utility.yul\":1621:1625   */\n      0x00\n        /* \"#utility.yul\":1659:1661   */\n      0x20\n        /* \"#utility.yul\":1648:1657   */\n      dup3\n        /* \"#utility.yul\":1644:1662   */\n      add\n        /* \"#utility.yul\":1636:1662   */\n      swap1\n      pop\n        /* \"#utility.yul\":1672:1743   */\n      tag_278\n        /* \"#utility.yul\":1740:1741   */\n      0x00\n        /* \"#utility.yul\":1729:1738   */\n      dup4\n        /* \"#utility.yul\":1725:1742   */\n      add\n        /* \"#utility.yul\":1716:1722   */\n      dup5\n        /* \"#utility.yul\":1672:1743   */\n      tag_222\n      jump\t// in\n    tag_278:\n        /* \"#utility.yul\":1528:1750   */\n      swap3\n      swap2\n      pop\n      pop\n      jump\t// out\n        /* \"#utility.yul\":1756:1855   */\n    tag_223:\n        /* \"#utility.yul\":1808:1814   */\n      0x00\n        /* \"#utility.yul\":1842:1847   */\n      dup2\n        /* \"#utility.yul\":1836:1848   */\n      mload\n        /* \"#utility.yul\":1826:1848   */\n      swap1\n      pop\n        /* \"#utility.yul\":1756:1855   */\n      swap2\n      swap1\n      pop\n      jump\t// out\n        /* \"#utility.yul\":1861:2030   */\n    tag_224:\n        /* \"#utility.yul\":1945:1956   */\n      0x00\n        /* \"#utility.yul\":1979:1985   */\n      dup3\n        /* \"#utility.yul\":1974:1977   */\n      dup3\n        /* \"#utility.yul\":1967:1986   */\n      mstore\n        /* \"#utility.yul\":2019:2023   */\n      0x20\n        /* \"#utility.yul\":2014:2017   */\n      dup3\n        /* \"#utility.yul\":2010:2024   */\n      add\n        /* \"#utility.yul\":1995:2024   */\n      swap1\n      pop\n        /* \"#utility.yul\":1861:2030   */\n      swap3\n      swap2\n      pop\n      pop\n      jump\t// out\n        /* \"#utility.yul\":2036:2343   */\n    tag_225:\n        /* \"#utility.yul\":2104:2105   */\n      0x00\n        /* \"#utility.yul\":2114:2227   */\n    tag_282:\n        /* \"#utility.yul\":2128:2134   */\n      dup4\n        /* \"#utility.yul\":2125:2126   */\n      dup2\n        /* \"#utility.yul\":2122:2135   */\n      lt\n        /* \"#utility.yul\":2114:2227   */\n      iszero\n      tag_284\n      jumpi\n        /* \"#utility.yul\":2213:2214   */\n      dup1\n        /* \"#utility.yul\":2208:2211   */\n      dup3\n        /* \"#utility.yul\":2204:2215   */\n      add\n        /* \"#utility.yul\":2198:2216   */\n      mload\n        /* \"#utility.yul\":2194:2195   */\n      dup2\n        /* \"#utility.yul\":2189:2192   */\n      dup5\n        /* \"#utility.yul\":2185:2196   */\n      add\n        /* \"#utility.yul\":2178:2217   */\n      mstore\n        /* \"#utility.yul\":2150:2152   */\n      0x20\n        /* \"#utility.yul\":2147:2148   */\n      dup2\n        /* \"#utility.yul\":2143:2153   */\n      add\n        /* \"#utility.yul\":2138:2153   */\n      swap1\n      pop\n        /* \"#utility.yul\":2114:2227   */\n      jump(tag_282)\n    tag_284:\n        /* \"#utility.yul\":2245:2251   */\n      dup4\n        /* \"#utility.yul\":2242:2243   */\n      dup2\n        /* \"#utility.yul\":2239:2252   */\n      gt\n        /* \"#utility.yul\":2236:2337   */\n      iszero\n      tag_285\n      jumpi\n        /* \"#utility.yul\":2325:2326   */\n      0x00\n        /* \"#utility.yul\":2316:2322   */\n      dup5\n        /* \"#utility.yul\":2311:2314   */\n      dup5\n        /* \"#utility.yul\":2307:2323   */\n      add\n        /* \"#utility.yul\":2300:2327   */\n      mstore\n        /* \"#utility.yul\":2236:2337   */\n    tag_285:\n        /* \"#utility.yul\":2085:2343   */\n      pop\n        /* \"#utility.yul\":2036:2343   */\n      pop\n      pop\n      pop\n      jump\t// out\n        /* \"#utility.yul\":2349:2451   */\n    tag_226:\n        /* \"#utility.yul\":2390:2396   */\n      0x00\n        /* \"#utility.yul\":2441:2443   */\n      0x1f\n        /* \"#utility.yul\":2437:2444   */\n      not\n        /* \"#utility.yul\":2432:2434   */\n      0x1f\n        /* \"#utility.yul\":2425:2430   */\n      dup4\n        /* \"#utility.yul\":2421:2435   */\n      add\n        /* \"#utility.yul\":2417:2445   */\n      and\n        /* \"#utility.yul\":2407:2445   */\n      swap1\n      pop\n        /* \"#utility.yul\":2349:2451   */\n      swap2\n      swap1\n      pop\n      jump\t// out\n        /* \"#utility.yul\":2457:2821   */\n    tag_227:\n        /* \"#utility.yul\":2545:2548   */\n      0x00\n        /* \"#utility.yul\":2573:2612   */\n      tag_288\n        /* \"#utility.yul\":2606:2611   */\n      dup3\n        /* \"#utility.yul\":2573:2612   */\n      tag_223\n      jump\t// in\n    tag_288:\n        /* \"#utility.yul\":2628:2699   */\n      tag_289\n        /* \"#utility.yul\":2692:2698   */\n      dup2\n        /* \"#utility.yul\":2687:2690   */\n      dup6\n        /* \"#utility.yul\":2628:2699   */\n      tag_224\n      jump\t// in\n    tag_289:\n        /* \"#utility.yul\":2621:2699   */\n      swap4\n      pop\n        /* \"#utility.yul\":2708:2760   */\n      tag_290\n        /* \"#utility.yul\":2753:2759   */\n      dup2\n        /* \"#utility.yul\":2748:2751   */\n      dup6\n        /* \"#utility.yul\":2741:2745   */\n      0x20\n        /* \"#utility.yul\":2734:2739   */\n      dup7\n        /* \"#utility.yul\":2730:2746   */\n      add\n        /* \"#utility.yul\":2708:2760   */\n      tag_225\n      jump\t// in\n    tag_290:\n        /* \"#utility.yul\":2785:2814   */\n      tag_291\n        /* \"#utility.yul\":2807:2813   */\n      dup2\n        /* \"#utility.yul\":2785:2814   */\n      tag_226\n      jump\t// in\n    tag_291:\n        /* \"#utility.yul\":2780:2783   */\n      dup5\n        /* \"#utility.yul\":2776:2815   */\n      add\n        /* \"#utility.yul\":2769:2815   */\n      swap2\n      pop\n        /* \"#utility.yul\":2549:2821   */\n      pop\n        /* \"#utility.yul\":2457:2821   */\n      swap3\n      swap2\n      pop\n      pop\n      jump\t// out\n        /* \"#utility.yul\":2827:3140   */\n    tag_36:\n        /* \"#utility.yul\":2940:2944   */\n      0x00\n        /* \"#utility.yul\":2978:2980   */\n      0x20\n        /* \"#utility.yul\":2967:2976   */\n      dup3\n        /* \"#utility.yul\":2963:2981   */\n      add\n        /* \"#utility.yul\":2955:2981   */\n      swap1\n      pop\n        /* \"#utility.yul\":3027:3036   */\n      dup2\n        /* \"#utility.yul\":3021:3025   */\n      dup2\n        /* \"#utility.yul\":3017:3037   */\n      sub\n        /* \"#utility.yul\":3013:3014   */\n      0x00\n        /* \"#utility.yul\":3002:3011   */\n      dup4\n        /* \"#utility.yul\":2998:3015   */\n      add\n        /* \"#utility.yul\":2991:3038   */\n      mstore\n        /* \"#utility.yul\":3055:3133   */\n      tag_293\n        /* \"#utility.yul\":3128:3132   */\n      dup2\n        /* \"#utility.yul\":3119:3125   */\n      dup5\n        /* \"#utility.yul\":3055:3133   */\n      tag_227\n      jump\t// in\n    tag_293:\n        /* \"#utility.yul\":3047:3133   */\n      swap1\n      pop\n        /* \"#utility.yul\":2827:3140   */\n      swap3\n      swap2\n      pop\n      pop\n      jump\t// out\n        /* \"#utility.yul\":3146:3268   */\n    tag_228:\n        /* \"#utility.yul\":3219:3243   */\n      tag_295\n        /* \"#utility.yul\":3237:3242   */\n      dup2\n        /* \"#utility.yul\":3219:3243   */\n      tag_221\n      jump\t// in\n    tag_295:\n        /* \"#utility.yul\":3212:3217   */\n      dup2\n        /* \"#utility.yul\":3209:3244   */\n      eq\n        /* \"#utility.yul\":3199:3262   */\n      tag_296\n      jumpi\n        /* \"#utility.yul\":3258:3259   */\n      0x00\n        /* \"#utility.yul\":3255:3256   */\n      dup1\n        /* \"#utility.yul\":3248:3260   */\n      revert\n        /* \"#utility.yul\":3199:3262   */\n    tag_296:\n        /* \"#utility.yul\":3146:3268   */\n      pop\n      jump\t// out\n        /* \"#utility.yul\":3274:3413   */\n    tag_229:\n        /* \"#utility.yul\":3320:3325   */\n      0x00\n        /* \"#utility.yul\":3358:3364   */\n      dup2\n        /* \"#utility.yul\":3345:3365   */\n      calldataload\n        /* \"#utility.yul\":3336:3365   */\n      swap1\n      pop\n        /* \"#utility.yul\":3374:3407   */\n      tag_298\n        /* \"#utility.yul\":3401:3406   */\n      dup2\n        /* \"#utility.yul\":3374:3407   */\n      tag_228\n      jump\t// in\n    tag_298:\n        /* \"#utility.yul\":3274:3413   */\n      swap3\n      swap2\n      pop\n      pop\n      jump\t// out\n        /* \"#utility.yul\":3419:3893   */\n    tag_39:\n        /* \"#utility.yul\":3487:3493   */\n      0x00\n        /* \"#utility.yul\":3495:3501   */\n      dup1\n        /* \"#utility.yul\":3544:3546   */\n      0x40\n        /* \"#utility.yul\":3532:3541   */\n      dup4\n        /* \"#utility.yul\":3523:3530   */\n      dup6\n        /* \"#utility.yul\":3519:3542   */\n      sub\n        /* \"#utility.yul\":3515:3547   */\n      slt\n        /* \"#utility.yul\":3512:3631   */\n      iszero\n      tag_300\n      jumpi\n        /* \"#utility.yul\":3550:3629   */\n      tag_301\n      tag_215\n      jump\t// in\n    tag_301:\n        /* \"#utility.yul\":3512:3631   */\n    tag_300:\n        /* \"#utility.yul\":3670:3671   */\n      0x00\n        /* \"#utility.yul\":3695:3748   */\n      tag_302\n        /* \"#utility.yul\":3740:3747   */\n      dup6\n        /* \"#utility.yul\":3731:3737   */\n      dup3\n        /* \"#utility.yul\":3720:3729   */\n      dup7\n        /* \"#utility.yul\":3716:3738   */\n      add\n        /* \"#utility.yul\":3695:3748   */\n      tag_220\n      jump\t// in\n    tag_302:\n        /* \"#utility.yul\":3685:3748   */\n      swap3\n      pop\n        /* \"#utility.yul\":3641:3758   */\n      pop\n        /* \"#utility.yul\":3797:3799   */\n      0x20\n        /* \"#utility.yul\":3823:3876   */\n      tag_303\n        /* \"#utility.yul\":3868:3875   */\n      dup6\n        /* \"#utility.yul\":3859:3865   */\n      dup3\n        /* \"#utility.yul\":3848:3857   */\n      dup7\n        /* \"#utility.yul\":3844:3866   */\n      add\n        /* \"#utility.yul\":3823:3876   */\n      tag_229\n      jump\t// in\n    tag_303:\n        /* \"#utility.yul\":3813:3876   */\n      swap2\n      pop\n        /* \"#utility.yul\":3768:3886   */\n      pop\n        /* \"#utility.yul\":3419:3893   */\n      swap3\n      pop\n      swap3\n      swap1\n      pop\n      jump\t// out\n        /* \"#utility.yul\":3899:3989   */\n    tag_230:\n        /* \"#utility.yul\":3933:3940   */\n      0x00\n        /* \"#utility.yul\":3976:3981   */\n      dup2\n        /* \"#utility.yul\":3969:3982   */\n      iszero\n        /* \"#utility.yul\":3962:3983   */\n      iszero\n        /* \"#utility.yul\":3951:3983   */\n      swap1\n      pop\n        /* \"#utility.yul\":3899:3989   */\n      swap2\n      swap1\n      pop\n      jump\t// out\n        /* \"#utility.yul\":3995:4104   */\n    tag_231:\n        /* \"#utility.yul\":4076:4097   */\n      tag_306\n        /* \"#utility.yul\":4091:4096   */\n      dup2\n        /* \"#utility.yul\":4076:4097   */\n      tag_230\n      jump\t// in\n    tag_306:\n        /* \"#utility.yul\":4071:4074   */\n      dup3\n        /* \"#utility.yul\":4064:4098   */\n      mstore\n        /* \"#utility.yul\":3995:4104   */\n      pop\n      pop\n      jump\t// out\n        /* \"#utility.yul\":4110:4320   */\n    tag_42:\n        /* \"#utility.yul\":4197:4201   */\n      0x00\n        /* \"#utility.yul\":4235:4237   */\n      0x20\n        /* \"#utility.yul\":4224:4233   */\n      dup3\n        /* \"#utility.yul\":4220:4238   */\n      add\n        /* \"#utility.yul\":4212:4238   */\n      swap1\n      pop\n        /* \"#utility.yul\":4248:4313   */\n      tag_308\n        /* \"#utility.yul\":4310:4311   */\n      0x00\n        /* \"#utility.yul\":4299:4308   */\n      dup4\n        /* \"#utility.yul\":4295:4312   */\n      add\n        /* \"#utility.yul\":4286:4292   */\n      dup5\n        /* \"#utility.yul\":4248:4313   */\n      tag_231\n      jump\t// in\n    tag_308:\n        /* \"#utility.yul\":4110:4320   */\n      swap3\n      swap2\n      pop\n      pop\n      jump\t// out\n        /* \"#utility.yul\":4326:4655   */\n    tag_45:\n        /* \"#utility.yul\":4385:4391   */\n      0x00\n        /* \"#utility.yul\":4434:4436   */\n      0x20\n        /* \"#utility.yul\":4422:4431   */\n      dup3\n        /* \"#utility.yul\":4413:4420   */\n      dup5\n        /* \"#utility.yul\":4409:4432   */\n      sub\n        /* \"#utility.yul\":4405:4437   */\n      slt\n        /* \"#utility.yul\":4402:4521   */\n      iszero\n      tag_310\n      jumpi\n        /* \"#utility.yul\":4440:4519   */\n      tag_311\n      tag_215\n      jump\t// in\n    tag_311:\n        /* \"#utility.yul\":4402:4521   */\n    tag_310:\n        /* \"#utility.yul\":4560:4561   */\n      0x00\n        /* \"#utility.yul\":4585:4638   */\n      tag_312\n        /* \"#utility.yul\":4630:4637   */\n      dup5\n        /* \"#utility.yul\":4621:4627   */\n      dup3\n        /* \"#utility.yul\":4610:4619   */\n      dup6\n        /* \"#utility.yul\":4606:4628   */\n      add\n        /* \"#utility.yul\":4585:4638   */\n      tag_220\n      jump\t// in\n    tag_312:\n        /* \"#utility.yul\":4575:4638   */\n      swap2\n      pop\n        /* \"#utility.yul\":4531:4648   */\n      pop\n        /* \"#utility.yul\":4326:4655   */\n      swap3\n      swap2\n      pop\n      pop\n      jump\t// out\n        /* \"#utility.yul\":4661:5280   */\n    tag_52:\n        /* \"#utility.yul\":4738:4744   */\n      0x00\n        /* \"#utility.yul\":4746:4752   */\n      dup1\n        /* \"#utility.yul\":4754:4760   */\n      0x00\n        /* \"#utility.yul\":4803:4805   */\n      0x60\n        /* \"#utility.yul\":4791:4800   */\n      dup5\n        /* \"#utility.yul\":4782:4789   */\n      dup7\n        /* \"#utility.yul\":4778:4801   */\n      sub\n        /* \"#utility.yul\":4774:4806   */\n      slt\n        /* \"#utility.yul\":4771:4890   */\n      iszero\n      tag_314\n      jumpi\n        /* \"#utility.yul\":4809:4888   */\n      tag_315\n      tag_215\n      jump\t// in\n    tag_315:\n        /* \"#utility.yul\":4771:4890   */\n    tag_314:\n        /* \"#utility.yul\":4929:4930   */\n      0x00\n        /* \"#utility.yul\":4954:5007   */\n      tag_316\n        /* \"#utility.yul\":4999:5006   */\n      dup7\n        /* \"#utility.yul\":4990:4996   */\n      dup3\n        /* \"#utility.yul\":4979:4988   */\n      dup8\n        /* \"#utility.yul\":4975:4997   */\n      add\n        /* \"#utility.yul\":4954:5007   */\n      tag_220\n      jump\t// in\n    tag_316:\n        /* \"#utility.yul\":4944:5007   */\n      swap4\n      pop\n        /* \"#utility.yul\":4900:5017   */\n      pop\n        /* \"#utility.yul\":5056:5058   */\n      0x20\n        /* \"#utility.yul\":5082:5135   */\n      tag_317\n        /* \"#utility.yul\":5127:5134   */\n      dup7\n        /* \"#utility.yul\":5118:5124   */\n      dup3\n        /* \"#utility.yul\":5107:5116   */\n      dup8\n        /* \"#utility.yul\":5103:5125   */\n      add\n        /* \"#utility.yul\":5082:5135   */\n      tag_220\n      jump\t// in\n    tag_317:\n        /* \"#utility.yul\":5072:5135   */\n      swap3\n      pop\n        /* \"#utility.yul\":5027:5145   */\n      pop\n        /* \"#utility.yul\":5184:5186   */\n      0x40\n        /* \"#utility.yul\":5210:5263   */\n      tag_318\n        /* \"#utility.yul\":5255:5262   */\n      dup7\n        /* \"#utility.yul\":5246:5252   */\n      dup3\n        /* \"#utility.yul\":5235:5244   */\n      dup8\n        /* \"#utility.yul\":5231:5253   */\n      add\n        /* \"#utility.yul\":5210:5263   */\n      tag_229\n      jump\t// in\n    tag_318:\n        /* \"#utility.yul\":5200:5263   */\n      swap2\n      pop\n        /* \"#utility.yul\":5155:5273   */\n      pop\n        /* \"#utility.yul\":4661:5280   */\n      swap3\n      pop\n      swap3\n      pop\n      swap3\n      jump\t// out\n        /* \"#utility.yul\":5286:5372   */\n    tag_232:\n        /* \"#utility.yul\":5321:5328   */\n      0x00\n        /* \"#utility.yul\":5361:5365   */\n      0xff\n        /* \"#utility.yul\":5354:5359   */\n      dup3\n        /* \"#utility.yul\":5350:5366   */\n      and\n        /* \"#utility.yul\":5339:5366   */\n      swap1\n      pop\n        /* \"#utility.yul\":5286:5372   */\n      swap2\n      swap1\n      pop\n      jump\t// out\n        /* \"#utility.yul\":5378:5490   */\n    tag_233:\n        /* \"#utility.yul\":5461:5483   */\n      tag_321\n        /* \"#utility.yul\":5477:5482   */\n      dup2\n        /* \"#utility.yul\":5461:5483   */\n      tag_232\n      jump\t// in\n    tag_321:\n        /* \"#utility.yul\":5456:5459   */\n      dup3\n        /* \"#utility.yul\":5449:5484   */\n      mstore\n        /* \"#utility.yul\":5378:5490   */\n      pop\n      pop\n      jump\t// out\n        /* \"#utility.yul\":5496:5710   */\n    tag_58:\n        /* \"#utility.yul\":5585:5589   */\n      0x00\n        /* \"#utility.yul\":5623:5625   */\n      0x20\n        /* \"#utility.yul\":5612:5621   */\n      dup3\n        /* \"#utility.yul\":5608:5626   */\n      add\n        /* \"#utility.yul\":5600:5626   */\n      swap1\n      pop\n        /* \"#utility.yul\":5636:5703   */\n      tag_323\n        /* \"#utility.yul\":5700:5701   */\n      0x00\n        /* \"#utility.yul\":5689:5698   */\n      dup4\n        /* \"#utility.yul\":5685:5702   */\n      add\n        /* \"#utility.yul\":5676:5682   */\n      dup5\n        /* \"#utility.yul\":5636:5703   */\n      tag_233\n      jump\t// in\n    tag_323:\n        /* \"#utility.yul\":5496:5710   */\n      swap3\n      swap2\n      pop\n      pop\n      jump\t// out\n        /* \"#utility.yul\":5716:5834   */\n    tag_234:\n        /* \"#utility.yul\":5803:5827   */\n      tag_325\n        /* \"#utility.yul\":5821:5826   */\n      dup2\n        /* \"#utility.yul\":5803:5827   */\n      tag_218\n      jump\t// in\n    tag_325:\n        /* \"#utility.yul\":5798:5801   */\n      dup3\n        /* \"#utility.yul\":5791:5828   */\n      mstore\n        /* \"#utility.yul\":5716:5834   */\n      pop\n      pop\n      jump\t// out\n        /* \"#utility.yul\":5840:6062   */\n    tag_78:\n        /* \"#utility.yul\":5933:5937   */\n      0x00\n        /* \"#utility.yul\":5971:5973   */\n      0x20\n        /* \"#utility.yul\":5960:5969   */\n      dup3\n        /* \"#utility.yul\":5956:5974   */\n      add\n        /* \"#utility.yul\":5948:5974   */\n      swap1\n      pop\n        /* \"#utility.yul\":5984:6055   */\n      tag_327\n        /* \"#utility.yul\":6052:6053   */\n      0x00\n        /* \"#utility.yul\":6041:6050   */\n      dup4\n        /* \"#utility.yul\":6037:6054   */\n      add\n        /* \"#utility.yul\":6028:6034   */\n      dup5\n        /* \"#utility.yul\":5984:6055   */\n      tag_234\n      jump\t// in\n    tag_327:\n        /* \"#utility.yul\":5840:6062   */\n      swap3\n      swap2\n      pop\n      pop\n      jump\t// out\n        /* \"#utility.yul\":6068:6248   */\n    tag_235:\n        /* \"#utility.yul\":6116:6193   */\n      0x4e487b7100000000000000000000000000000000000000000000000000000000\n        /* \"#utility.yul\":6113:6114   */\n      0x00\n        /* \"#utility.yul\":6106:6194   */\n      mstore\n        /* \"#utility.yul\":6213:6217   */\n      0x22\n        /* \"#utility.yul\":6210:6211   */\n      0x04\n        /* \"#utility.yul\":6203:6218   */\n      mstore\n        /* \"#utility.yul\":6237:6241   */\n      0x24\n        /* \"#utility.yul\":6234:6235   */\n      0x00\n        /* \"#utility.yul\":6227:6242   */\n      revert\n        /* \"#utility.yul\":6254:6574   */\n    tag_108:\n        /* \"#utility.yul\":6298:6304   */\n      0x00\n        /* \"#utility.yul\":6335:6336   */\n      0x02\n        /* \"#utility.yul\":6329:6333   */\n      dup3\n        /* \"#utility.yul\":6325:6337   */\n      div\n        /* \"#utility.yul\":6315:6337   */\n      swap1\n      pop\n        /* \"#utility.yul\":6382:6383   */\n      0x01\n        /* \"#utility.yul\":6376:6380   */\n      dup3\n        /* \"#utility.yul\":6372:6384   */\n      and\n        /* \"#utility.yul\":6403:6421   */\n      dup1\n        /* \"#utility.yul\":6393:6474   */\n      tag_330\n      jumpi\n        /* \"#utility.yul\":6459:6463   */\n      0x7f\n        /* \"#utility.yul\":6451:6457   */\n      dup3\n        /* \"#utility.yul\":6447:6464   */\n      and\n        /* \"#utility.yul\":6437:6464   */\n      swap2\n      pop\n        /* \"#utility.yul\":6393:6474   */\n    tag_330:\n        /* \"#utility.yul\":6521:6523   */\n      0x20\n        /* \"#utility.yul\":6513:6519   */\n      dup3\n        /* \"#utility.yul\":6510:6524   */\n      lt\n        /* \"#utility.yul\":6490:6508   */\n      dup2\n        /* \"#utility.yul\":6487:6525   */\n      sub\n        /* \"#utility.yul\":6484:6568   */\n      tag_331\n      jumpi\n        /* \"#utility.yul\":6540:6558   */\n      tag_332\n      tag_235\n      jump\t// in\n    tag_332:\n        /* \"#utility.yul\":6484:6568   */\n    tag_331:\n        /* \"#utility.yul\":6305:6574   */\n      pop\n        /* \"#utility.yul\":6254:6574   */\n      swap2\n      swap1\n      pop\n      jump\t// out\n        /* \"#utility.yul\":6580:6887   */\n    tag_236:\n        /* \"#utility.yul\":6720:6754   */\n      0x45524332303a2054686520616d6f756e7420746f206265207472616e73666572\n        /* \"#utility.yul\":6716:6717   */\n      0x00\n        /* \"#utility.yul\":6708:6714   */\n      dup3\n        /* \"#utility.yul\":6704:6718   */\n      add\n        /* \"#utility.yul\":6697:6755   */\n      mstore\n        /* \"#utility.yul\":6789:6823   */\n      0x72656420657863656564732074686520616d6f756e74206f6620746f6b656e73\n        /* \"#utility.yul\":6784:6786   */\n      0x20\n        /* \"#utility.yul\":6776:6782   */\n      dup3\n        /* \"#utility.yul\":6772:6787   */\n      add\n        /* \"#utility.yul\":6765:6824   */\n      mstore\n        /* \"#utility.yul\":6858:6879   */\n      0x2068656c6420627920746865206f776e65722e00000000000000000000000000\n        /* \"#utility.yul\":6853:6855   */\n      0x40\n        /* \"#utility.yul\":6845:6851   */\n      dup3\n        /* \"#utility.yul\":6841:6856   */\n      add\n        /* \"#utility.yul\":6834:6880   */\n      mstore\n        /* \"#utility.yul\":6580:6887   */\n      pop\n      jump\t// out\n        /* \"#utility.yul\":6893:7259   */\n    tag_237:\n        /* \"#utility.yul\":7035:7038   */\n      0x00\n        /* \"#utility.yul\":7056:7123   */\n      tag_335\n        /* \"#utility.yul\":7120:7122   */\n      0x53\n        /* \"#utility.yul\":7115:7118   */\n      dup4\n        /* \"#utility.yul\":7056:7123   */\n      tag_224\n      jump\t// in\n    tag_335:\n        /* \"#utility.yul\":7049:7123   */\n      swap2\n      pop\n        /* \"#utility.yul\":7132:7225   */\n      tag_336\n        /* \"#utility.yul\":7221:7224   */\n      dup3\n        /* \"#utility.yul\":7132:7225   */\n      tag_236\n      jump\t// in\n    tag_336:\n        /* \"#utility.yul\":7250:7252   */\n      0x60\n        /* \"#utility.yul\":7245:7248   */\n      dup3\n        /* \"#utility.yul\":7241:7253   */\n      add\n        /* \"#utility.yul\":7234:7253   */\n      swap1\n      pop\n        /* \"#utility.yul\":6893:7259   */\n      swap2\n      swap1\n      pop\n      jump\t// out\n        /* \"#utility.yul\":7265:7684   */\n    tag_116:\n        /* \"#utility.yul\":7431:7435   */\n      0x00\n        /* \"#utility.yul\":7469:7471   */\n      0x20\n        /* \"#utility.yul\":7458:7467   */\n      dup3\n        /* \"#utility.yul\":7454:7472   */\n      add\n        /* \"#utility.yul\":7446:7472   */\n      swap1\n      pop\n        /* \"#utility.yul\":7518:7527   */\n      dup2\n        /* \"#utility.yul\":7512:7516   */\n      dup2\n        /* \"#utility.yul\":7508:7528   */\n      sub\n        /* \"#utility.yul\":7504:7505   */\n      0x00\n        /* \"#utility.yul\":7493:7502   */\n      dup4\n        /* \"#utility.yul\":7489:7506   */\n      add\n        /* \"#utility.yul\":7482:7529   */\n      mstore\n        /* \"#utility.yul\":7546:7677   */\n      tag_338\n        /* \"#utility.yul\":7672:7676   */\n      dup2\n        /* \"#utility.yul\":7546:7677   */\n      tag_237\n      jump\t// in\n    tag_338:\n        /* \"#utility.yul\":7538:7677   */\n      swap1\n      pop\n        /* \"#utility.yul\":7265:7684   */\n      swap2\n      swap1\n      pop\n      jump\t// out\n        /* \"#utility.yul\":7690:7872   */\n    tag_238:\n        /* \"#utility.yul\":7830:7864   */\n      0x4f776e657248656c7065723a2063616c6c6572206973206e6f74206f776e6572\n        /* \"#utility.yul\":7826:7827   */\n      0x00\n        /* \"#utility.yul\":7818:7824   */\n      dup3\n        /* \"#utility.yul\":7814:7828   */\n      add\n        /* \"#utility.yul\":7807:7865   */\n      mstore\n        /* \"#utility.yul\":7690:7872   */\n      pop\n      jump\t// out\n        /* \"#utility.yul\":7878:8244   */\n    tag_239:\n        /* \"#utility.yul\":8020:8023   */\n      0x00\n        /* \"#utility.yul\":8041:8108   */\n      tag_341\n        /* \"#utility.yul\":8105:8107   */\n      0x20\n        /* \"#utility.yul\":8100:8103   */\n      dup4\n        /* \"#utility.yul\":8041:8108   */\n      tag_224\n      jump\t// in\n    tag_341:\n        /* \"#utility.yul\":8034:8108   */\n      swap2\n      pop\n        /* \"#utility.yul\":8117:8210   */\n      tag_342\n        /* \"#utility.yul\":8206:8209   */\n      dup3\n        /* \"#utility.yul\":8117:8210   */\n      tag_238\n      jump\t// in\n    tag_342:\n        /* \"#utility.yul\":8235:8237   */\n      0x20\n        /* \"#utility.yul\":8230:8233   */\n      dup3\n        /* \"#utility.yul\":8226:8238   */\n      add\n        /* \"#utility.yul\":8219:8238   */\n      swap1\n      pop\n        /* \"#utility.yul\":7878:8244   */\n      swap2\n      swap1\n      pop\n      jump\t// out\n        /* \"#utility.yul\":8250:8669   */\n    tag_122:\n        /* \"#utility.yul\":8416:8420   */\n      0x00\n        /* \"#utility.yul\":8454:8456   */\n      0x20\n        /* \"#utility.yul\":8443:8452   */\n      dup3\n        /* \"#utility.yul\":8439:8457   */\n      add\n        /* \"#utility.yul\":8431:8457   */\n      swap1\n      pop\n        /* \"#utility.yul\":8503:8512   */\n      dup2\n        /* \"#utility.yul\":8497:8501   */\n      dup2\n        /* \"#utility.yul\":8493:8513   */\n      sub\n        /* \"#utility.yul\":8489:8490   */\n      0x00\n        /* \"#utility.yul\":8478:8487   */\n      dup4\n        /* \"#utility.yul\":8474:8491   */\n      add\n        /* \"#utility.yul\":8467:8514   */\n      mstore\n        /* \"#utility.yul\":8531:8662   */\n      tag_344\n        /* \"#utility.yul\":8657:8661   */\n      dup2\n        /* \"#utility.yul\":8531:8662   */\n      tag_239\n      jump\t// in\n    tag_344:\n        /* \"#utility.yul\":8523:8662   */\n      swap1\n      pop\n        /* \"#utility.yul\":8250:8669   */\n      swap2\n      swap1\n      pop\n      jump\t// out\n        /* \"#utility.yul\":8675:8902   */\n    tag_240:\n        /* \"#utility.yul\":8815:8849   */\n      0x45524332303a207472616e7366657220616d6f756e7420657863656564732061\n        /* \"#utility.yul\":8811:8812   */\n      0x00\n        /* \"#utility.yul\":8803:8809   */\n      dup3\n        /* \"#utility.yul\":8799:8813   */\n      add\n        /* \"#utility.yul\":8792:8850   */\n      mstore\n        /* \"#utility.yul\":8884:8894   */\n      0x6c6c6f77616e6365000000000000000000000000000000000000000000000000\n        /* \"#utility.yul\":8879:8881   */\n      0x20\n        /* \"#utility.yul\":8871:8877   */\n      dup3\n        /* \"#utility.yul\":8867:8882   */\n      add\n        /* \"#utility.yul\":8860:8895   */\n      mstore\n        /* \"#utility.yul\":8675:8902   */\n      pop\n      jump\t// out\n        /* \"#utility.yul\":8908:9274   */\n    tag_241:\n        /* \"#utility.yul\":9050:9053   */\n      0x00\n        /* \"#utility.yul\":9071:9138   */\n      tag_347\n        /* \"#utility.yul\":9135:9137   */\n      0x28\n        /* \"#utility.yul\":9130:9133   */\n      dup4\n        /* \"#utility.yul\":9071:9138   */\n      tag_224\n      jump\t// in\n    tag_347:\n        /* \"#utility.yul\":9064:9138   */\n      swap2\n      pop\n        /* \"#utility.yul\":9147:9240   */\n      tag_348\n        /* \"#utility.yul\":9236:9239   */\n      dup3\n        /* \"#utility.yul\":9147:9240   */\n      tag_240\n      jump\t// in\n    tag_348:\n        /* \"#utility.yul\":9265:9267   */\n      0x40\n        /* \"#utility.yul\":9260:9263   */\n      dup3\n        /* \"#utility.yul\":9256:9268   */\n      add\n        /* \"#utility.yul\":9249:9268   */\n      swap1\n      pop\n        /* \"#utility.yul\":8908:9274   */\n      swap2\n      swap1\n      pop\n      jump\t// out\n        /* \"#utility.yul\":9280:9699   */\n    tag_132:\n        /* \"#utility.yul\":9446:9450   */\n      0x00\n        /* \"#utility.yul\":9484:9486   */\n      0x20\n        /* \"#utility.yul\":9473:9482   */\n      dup3\n        /* \"#utility.yul\":9469:9487   */\n      add\n        /* \"#utility.yul\":9461:9487   */\n      swap1\n      pop\n        /* \"#utility.yul\":9533:9542   */\n      dup2\n        /* \"#utility.yul\":9527:9531   */\n      dup2\n        /* \"#utility.yul\":9523:9543   */\n      sub\n        /* \"#utility.yul\":9519:9520   */\n      0x00\n        /* \"#utility.yul\":9508:9517   */\n      dup4\n        /* \"#utility.yul\":9504:9521   */\n      add\n        /* \"#utility.yul\":9497:9544   */\n      mstore\n        /* \"#utility.yul\":9561:9692   */\n      tag_350\n        /* \"#utility.yul\":9687:9691   */\n      dup2\n        /* \"#utility.yul\":9561:9692   */\n      tag_241\n      jump\t// in\n    tag_350:\n        /* \"#utility.yul\":9553:9692   */\n      swap1\n      pop\n        /* \"#utility.yul\":9280:9699   */\n      swap2\n      swap1\n      pop\n      jump\t// out\n        /* \"#utility.yul\":9705:9885   */\n    tag_242:\n        /* \"#utility.yul\":9753:9830   */\n      0x4e487b7100000000000000000000000000000000000000000000000000000000\n        /* \"#utility.yul\":9750:9751   */\n      0x00\n        /* \"#utility.yul\":9743:9831   */\n      mstore\n        /* \"#utility.yul\":9850:9854   */\n      0x11\n        /* \"#utility.yul\":9847:9848   */\n      0x04\n        /* \"#utility.yul\":9840:9855   */\n      mstore\n        /* \"#utility.yul\":9874:9878   */\n      0x24\n        /* \"#utility.yul\":9871:9872   */\n      0x00\n        /* \"#utility.yul\":9864:9879   */\n      revert\n        /* \"#utility.yul\":9891:10082   */\n    tag_135:\n        /* \"#utility.yul\":9931:9935   */\n      0x00\n        /* \"#utility.yul\":9951:9971   */\n      tag_353\n        /* \"#utility.yul\":9969:9970   */\n      dup3\n        /* \"#utility.yul\":9951:9971   */\n      tag_221\n      jump\t// in\n    tag_353:\n        /* \"#utility.yul\":9946:9971   */\n      swap2\n      pop\n        /* \"#utility.yul\":9985:10005   */\n      tag_354\n        /* \"#utility.yul\":10003:10004   */\n      dup4\n        /* \"#utility.yul\":9985:10005   */\n      tag_221\n      jump\t// in\n    tag_354:\n        /* \"#utility.yul\":9980:10005   */\n      swap3\n      pop\n        /* \"#utility.yul\":10024:10025   */\n      dup3\n        /* \"#utility.yul\":10021:10022   */\n      dup3\n        /* \"#utility.yul\":10018:10026   */\n      lt\n        /* \"#utility.yul\":10015:10049   */\n      iszero\n      tag_355\n      jumpi\n        /* \"#utility.yul\":10029:10047   */\n      tag_356\n      tag_242\n      jump\t// in\n    tag_356:\n        /* \"#utility.yul\":10015:10049   */\n    tag_355:\n        /* \"#utility.yul\":10074:10075   */\n      dup3\n        /* \"#utility.yul\":10071:10072   */\n      dup3\n        /* \"#utility.yul\":10067:10076   */\n      sub\n        /* \"#utility.yul\":10059:10076   */\n      swap1\n      pop\n        /* \"#utility.yul\":9891:10082   */\n      swap3\n      swap2\n      pop\n      pop\n      jump\t// out\n        /* \"#utility.yul\":10088:10311   */\n    tag_243:\n        /* \"#utility.yul\":10228:10262   */\n      0x45524332303a20617070726f76652066726f6d20746865207a65726f20616464\n        /* \"#utility.yul\":10224:10225   */\n      0x00\n        /* \"#utility.yul\":10216:10222   */\n      dup3\n        /* \"#utility.yul\":10212:10226   */\n      add\n        /* \"#utility.yul\":10205:10263   */\n      mstore\n        /* \"#utility.yul\":10297:10303   */\n      0x7265737300000000000000000000000000000000000000000000000000000000\n        /* \"#utility.yul\":10292:10294   */\n      0x20\n        /* \"#utility.yul\":10284:10290   */\n      dup3\n        /* \"#utility.yul\":10280:10295   */\n      add\n        /* \"#utility.yul\":10273:10304   */\n      mstore\n        /* \"#utility.yul\":10088:10311   */\n      pop\n      jump\t// out\n        /* \"#utility.yul\":10317:10683   */\n    tag_244:\n        /* \"#utility.yul\":10459:10462   */\n      0x00\n        /* \"#utility.yul\":10480:10547   */\n      tag_359\n        /* \"#utility.yul\":10544:10546   */\n      0x24\n        /* \"#utility.yul\":10539:10542   */\n      dup4\n        /* \"#utility.yul\":10480:10547   */\n      tag_224\n      jump\t// in\n    tag_359:\n        /* \"#utility.yul\":10473:10547   */\n      swap2\n      pop\n        /* \"#utility.yul\":10556:10649   */\n      tag_360\n        /* \"#utility.yul\":10645:10648   */\n      dup3\n        /* \"#utility.yul\":10556:10649   */\n      tag_243\n      jump\t// in\n    tag_360:\n        /* \"#utility.yul\":10674:10676   */\n      0x40\n        /* \"#utility.yul\":10669:10672   */\n      dup3\n        /* \"#utility.yul\":10665:10677   */\n      add\n        /* \"#utility.yul\":10658:10677   */\n      swap1\n      pop\n        /* \"#utility.yul\":10317:10683   */\n      swap2\n      swap1\n      pop\n      jump\t// out\n        /* \"#utility.yul\":10689:11108   */\n    tag_177:\n        /* \"#utility.yul\":10855:10859   */\n      0x00\n        /* \"#utility.yul\":10893:10895   */\n      0x20\n        /* \"#utility.yul\":10882:10891   */\n      dup3\n        /* \"#utility.yul\":10878:10896   */\n      add\n        /* \"#utility.yul\":10870:10896   */\n      swap1\n      pop\n        /* \"#utility.yul\":10942:10951   */\n      dup2\n        /* \"#utility.yul\":10936:10940   */\n      dup2\n        /* \"#utility.yul\":10932:10952   */\n      sub\n        /* \"#utility.yul\":10928:10929   */\n      0x00\n        /* \"#utility.yul\":10917:10926   */\n      dup4\n        /* \"#utility.yul\":10913:10930   */\n      add\n        /* \"#utility.yul\":10906:10953   */\n      mstore\n        /* \"#utility.yul\":10970:11101   */\n      tag_362\n        /* \"#utility.yul\":11096:11100   */\n      dup2\n        /* \"#utility.yul\":10970:11101   */\n      tag_244\n      jump\t// in\n    tag_362:\n        /* \"#utility.yul\":10962:11101   */\n      swap1\n      pop\n        /* \"#utility.yul\":10689:11108   */\n      swap2\n      swap1\n      pop\n      jump\t// out\n        /* \"#utility.yul\":11114:11335   */\n    tag_245:\n        /* \"#utility.yul\":11254:11288   */\n      0x45524332303a20617070726f766520746f20746865207a65726f206164647265\n        /* \"#utility.yul\":11250:11251   */\n      0x00\n        /* \"#utility.yul\":11242:11248   */\n      dup3\n        /* \"#utility.yul\":11238:11252   */\n      add\n        /* \"#utility.yul\":11231:11289   */\n      mstore\n        /* \"#utility.yul\":11323:11327   */\n      0x7373000000000000000000000000000000000000000000000000000000000000\n        /* \"#utility.yul\":11318:11320   */\n      0x20\n        /* \"#utility.yul\":11310:11316   */\n      dup3\n        /* \"#utility.yul\":11306:11321   */\n      add\n        /* \"#utility.yul\":11299:11328   */\n      mstore\n        /* \"#utility.yul\":11114:11335   */\n      pop\n      jump\t// out\n        /* \"#utility.yul\":11341:11707   */\n    tag_246:\n        /* \"#utility.yul\":11483:11486   */\n      0x00\n        /* \"#utility.yul\":11504:11571   */\n      tag_365\n        /* \"#utility.yul\":11568:11570   */\n      0x22\n        /* \"#utility.yul\":11563:11566   */\n      dup4\n        /* \"#utility.yul\":11504:11571   */\n      tag_224\n      jump\t// in\n    tag_365:\n        /* \"#utility.yul\":11497:11571   */\n      swap2\n      pop\n        /* \"#utility.yul\":11580:11673   */\n      tag_366\n        /* \"#utility.yul\":11669:11672   */\n      dup3\n        /* \"#utility.yul\":11580:11673   */\n      tag_245\n      jump\t// in\n    tag_366:\n        /* \"#utility.yul\":11698:11700   */\n      0x40\n        /* \"#utility.yul\":11693:11696   */\n      dup3\n        /* \"#utility.yul\":11689:11701   */\n      add\n        /* \"#utility.yul\":11682:11701   */\n      swap1\n      pop\n        /* \"#utility.yul\":11341:11707   */\n      swap2\n      swap1\n      pop\n      jump\t// out\n        /* \"#utility.yul\":11713:12132   */\n    tag_180:\n        /* \"#utility.yul\":11879:11883   */\n      0x00\n        /* \"#utility.yul\":11917:11919   */\n      0x20\n        /* \"#utility.yul\":11906:11915   */\n      dup3\n        /* \"#utility.yul\":11902:11920   */\n      add\n        /* \"#utility.yul\":11894:11920   */\n      swap1\n      pop\n        /* \"#utility.yul\":11966:11975   */\n      dup2\n        /* \"#utility.yul\":11960:11964   */\n      dup2\n        /* \"#utility.yul\":11956:11976   */\n      sub\n        /* \"#utility.yul\":11952:11953   */\n      0x00\n        /* \"#utility.yul\":11941:11950   */\n      dup4\n        /* \"#utility.yul\":11937:11954   */\n      add\n        /* \"#utility.yul\":11930:11977   */\n      mstore\n        /* \"#utility.yul\":11994:12125   */\n      tag_368\n        /* \"#utility.yul\":12120:12124   */\n      dup2\n        /* \"#utility.yul\":11994:12125   */\n      tag_246\n      jump\t// in\n    tag_368:\n        /* \"#utility.yul\":11986:12125   */\n      swap1\n      pop\n        /* \"#utility.yul\":11713:12132   */\n      swap2\n      swap1\n      pop\n      jump\t// out\n        /* \"#utility.yul\":12138:12316   */\n    tag_247:\n        /* \"#utility.yul\":12278:12308   */\n      0x45524332303a20696e76616c69642063757272656e74416d6f756e7400000000\n        /* \"#utility.yul\":12274:12275   */\n      0x00\n        /* \"#utility.yul\":12266:12272   */\n      dup3\n        /* \"#utility.yul\":12262:12276   */\n      add\n        /* \"#utility.yul\":12255:12309   */\n      mstore\n        /* \"#utility.yul\":12138:12316   */\n      pop\n      jump\t// out\n        /* \"#utility.yul\":12322:12688   */\n    tag_248:\n        /* \"#utility.yul\":12464:12467   */\n      0x00\n        /* \"#utility.yul\":12485:12552   */\n      tag_371\n        /* \"#utility.yul\":12549:12551   */\n      0x1c\n        /* \"#utility.yul\":12544:12547   */\n      dup4\n        /* \"#utility.yul\":12485:12552   */\n      tag_224\n      jump\t// in\n    tag_371:\n        /* \"#utility.yul\":12478:12552   */\n      swap2\n      pop\n        /* \"#utility.yul\":12561:12654   */\n      tag_372\n        /* \"#utility.yul\":12650:12653   */\n      dup3\n        /* \"#utility.yul\":12561:12654   */\n      tag_247\n      jump\t// in\n    tag_372:\n        /* \"#utility.yul\":12679:12681   */\n      0x20\n        /* \"#utility.yul\":12674:12677   */\n      dup3\n        /* \"#utility.yul\":12670:12682   */\n      add\n        /* \"#utility.yul\":12663:12682   */\n      swap1\n      pop\n        /* \"#utility.yul\":12322:12688   */\n      swap2\n      swap1\n      pop\n      jump\t// out\n        /* \"#utility.yul\":12694:13113   */\n    tag_183:\n        /* \"#utility.yul\":12860:12864   */\n      0x00\n        /* \"#utility.yul\":12898:12900   */\n      0x20\n        /* \"#utility.yul\":12887:12896   */\n      dup3\n        /* \"#utility.yul\":12883:12901   */\n      add\n        /* \"#utility.yul\":12875:12901   */\n      swap1\n      pop\n        /* \"#utility.yul\":12947:12956   */\n      dup2\n        /* \"#utility.yul\":12941:12945   */\n      dup2\n        /* \"#utility.yul\":12937:12957   */\n      sub\n        /* \"#utility.yul\":12933:12934   */\n      0x00\n        /* \"#utility.yul\":12922:12931   */\n      dup4\n        /* \"#utility.yul\":12918:12935   */\n      add\n        /* \"#utility.yul\":12911:12958   */\n      mstore\n        /* \"#utility.yul\":12975:13106   */\n      tag_374\n        /* \"#utility.yul\":13101:13105   */\n      dup2\n        /* \"#utility.yul\":12975:13106   */\n      tag_248\n      jump\t// in\n    tag_374:\n        /* \"#utility.yul\":12967:13106   */\n      swap1\n      pop\n        /* \"#utility.yul\":12694:13113   */\n      swap2\n      swap1\n      pop\n      jump\t// out\n        /* \"#utility.yul\":13119:13451   */\n    tag_185:\n        /* \"#utility.yul\":13240:13244   */\n      0x00\n        /* \"#utility.yul\":13278:13280   */\n      0x40\n        /* \"#utility.yul\":13267:13276   */\n      dup3\n        /* \"#utility.yul\":13263:13281   */\n      add\n        /* \"#utility.yul\":13255:13281   */\n      swap1\n      pop\n        /* \"#utility.yul\":13291:13362   */\n      tag_376\n        /* \"#utility.yul\":13359:13360   */\n      0x00\n        /* \"#utility.yul\":13348:13357   */\n      dup4\n        /* \"#utility.yul\":13344:13361   */\n      add\n        /* \"#utility.yul\":13335:13341   */\n      dup6\n        /* \"#utility.yul\":13291:13362   */\n      tag_222\n      jump\t// in\n    tag_376:\n        /* \"#utility.yul\":13372:13444   */\n      tag_377\n        /* \"#utility.yul\":13440:13442   */\n      0x20\n        /* \"#utility.yul\":13429:13438   */\n      dup4\n        /* \"#utility.yul\":13425:13443   */\n      add\n        /* \"#utility.yul\":13416:13422   */\n      dup5\n        /* \"#utility.yul\":13372:13444   */\n      tag_222\n      jump\t// in\n    tag_377:\n        /* \"#utility.yul\":13119:13451   */\n      swap4\n      swap3\n      pop\n      pop\n      pop\n      jump\t// out\n        /* \"#utility.yul\":13457:13681   */\n    tag_249:\n        /* \"#utility.yul\":13597:13631   */\n      0x45524332303a207472616e736665722066726f6d20746865207a65726f206164\n        /* \"#utility.yul\":13593:13594   */\n      0x00\n        /* \"#utility.yul\":13585:13591   */\n      dup3\n        /* \"#utility.yul\":13581:13595   */\n      add\n        /* \"#utility.yul\":13574:13632   */\n      mstore\n        /* \"#utility.yul\":13666:13673   */\n      0x6472657373000000000000000000000000000000000000000000000000000000\n        /* \"#utility.yul\":13661:13663   */\n      0x20\n        /* \"#utility.yul\":13653:13659   */\n      dup3\n        /* \"#utility.yul\":13649:13664   */\n      add\n        /* \"#utility.yul\":13642:13674   */\n      mstore\n        /* \"#utility.yul\":13457:13681   */\n      pop\n      jump\t// out\n        /* \"#utility.yul\":13687:14053   */\n    tag_250:\n        /* \"#utility.yul\":13829:13832   */\n      0x00\n        /* \"#utility.yul\":13850:13917   */\n      tag_380\n        /* \"#utility.yul\":13914:13916   */\n      0x25\n        /* \"#utility.yul\":13909:13912   */\n      dup4\n        /* \"#utility.yul\":13850:13917   */\n      tag_224\n      jump\t// in\n    tag_380:\n        /* \"#utility.yul\":13843:13917   */\n      swap2\n      pop\n        /* \"#utility.yul\":13926:14019   */\n      tag_381\n        /* \"#utility.yul\":14015:14018   */\n      dup3\n        /* \"#utility.yul\":13926:14019   */\n      tag_249\n      jump\t// in\n    tag_381:\n        /* \"#utility.yul\":14044:14046   */\n      0x40\n        /* \"#utility.yul\":14039:14042   */\n      dup3\n        /* \"#utility.yul\":14035:14047   */\n      add\n        /* \"#utility.yul\":14028:14047   */\n      swap1\n      pop\n        /* \"#utility.yul\":13687:14053   */\n      swap2\n      swap1\n      pop\n      jump\t// out\n        /* \"#utility.yul\":14059:14478   */\n    tag_189:\n        /* \"#utility.yul\":14225:14229   */\n      0x00\n        /* \"#utility.yul\":14263:14265   */\n      0x20\n        /* \"#utility.yul\":14252:14261   */\n      dup3\n        /* \"#utility.yul\":14248:14266   */\n      add\n        /* \"#utility.yul\":14240:14266   */\n      swap1\n      pop\n        /* \"#utility.yul\":14312:14321   */\n      dup2\n        /* \"#utility.yul\":14306:14310   */\n      dup2\n        /* \"#utility.yul\":14302:14322   */\n      sub\n        /* \"#utility.yul\":14298:14299   */\n      0x00\n        /* \"#utility.yul\":14287:14296   */\n      dup4\n        /* \"#utility.yul\":14283:14300   */\n      add\n        /* \"#utility.yul\":14276:14323   */\n      mstore\n        /* \"#utility.yul\":14340:14471   */\n      tag_383\n        /* \"#utility.yul\":14466:14470   */\n      dup2\n        /* \"#utility.yul\":14340:14471   */\n      tag_250\n      jump\t// in\n    tag_383:\n        /* \"#utility.yul\":14332:14471   */\n      swap1\n      pop\n        /* \"#utility.yul\":14059:14478   */\n      swap2\n      swap1\n      pop\n      jump\t// out\n        /* \"#utility.yul\":14484:14706   */\n    tag_251:\n        /* \"#utility.yul\":14624:14658   */\n      0x45524332303a207472616e7366657220746f20746865207a65726f2061646472\n        /* \"#utility.yul\":14620:14621   */\n      0x00\n        /* \"#utility.yul\":14612:14618   */\n      dup3\n        /* \"#utility.yul\":14608:14622   */\n      add\n        /* \"#utility.yul\":14601:14659   */\n      mstore\n        /* \"#utility.yul\":14693:14698   */\n      0x6573730000000000000000000000000000000000000000000000000000000000\n        /* \"#utility.yul\":14688:14690   */\n      0x20\n        /* \"#utility.yul\":14680:14686   */\n      dup3\n        /* \"#utility.yul\":14676:14691   */\n      add\n        /* \"#utility.yul\":14669:14699   */\n      mstore\n        /* \"#utility.yul\":14484:14706   */\n      pop\n      jump\t// out\n        /* \"#utility.yul\":14712:15078   */\n    tag_252:\n        /* \"#utility.yul\":14854:14857   */\n      0x00\n        /* \"#utility.yul\":14875:14942   */\n      tag_386\n        /* \"#utility.yul\":14939:14941   */\n      0x23\n        /* \"#utility.yul\":14934:14937   */\n      dup4\n        /* \"#utility.yul\":14875:14942   */\n      tag_224\n      jump\t// in\n    tag_386:\n        /* \"#utility.yul\":14868:14942   */\n      swap2\n      pop\n        /* \"#utility.yul\":14951:15044   */\n      tag_387\n        /* \"#utility.yul\":15040:15043   */\n      dup3\n        /* \"#utility.yul\":14951:15044   */\n      tag_251\n      jump\t// in\n    tag_387:\n        /* \"#utility.yul\":15069:15071   */\n      0x40\n        /* \"#utility.yul\":15064:15067   */\n      dup3\n        /* \"#utility.yul\":15060:15072   */\n      add\n        /* \"#utility.yul\":15053:15072   */\n      swap1\n      pop\n        /* \"#utility.yul\":14712:15078   */\n      swap2\n      swap1\n      pop\n      jump\t// out\n        /* \"#utility.yul\":15084:15503   */\n    tag_192:\n        /* \"#utility.yul\":15250:15254   */\n      0x00\n        /* \"#utility.yul\":15288:15290   */\n      0x20\n        /* \"#utility.yul\":15277:15286   */\n      dup3\n        /* \"#utility.yul\":15273:15291   */\n      add\n        /* \"#utility.yul\":15265:15291   */\n      swap1\n      pop\n        /* \"#utility.yul\":15337:15346   */\n      dup2\n        /* \"#utility.yul\":15331:15335   */\n      dup2\n        /* \"#utility.yul\":15327:15347   */\n      sub\n        /* \"#utility.yul\":15323:15324   */\n      0x00\n        /* \"#utility.yul\":15312:15321   */\n      dup4\n        /* \"#utility.yul\":15308:15325   */\n      add\n        /* \"#utility.yul\":15301:15348   */\n      mstore\n        /* \"#utility.yul\":15365:15496   */\n      tag_389\n        /* \"#utility.yul\":15491:15495   */\n      dup2\n        /* \"#utility.yul\":15365:15496   */\n      tag_252\n      jump\t// in\n    tag_389:\n        /* \"#utility.yul\":15357:15496   */\n      swap1\n      pop\n        /* \"#utility.yul\":15084:15503   */\n      swap2\n      swap1\n      pop\n      jump\t// out\n        /* \"#utility.yul\":15509:15729   */\n    tag_253:\n        /* \"#utility.yul\":15649:15683   */\n      0x546f6b656e4c6f636b3a20696e76616c696420746f6b656e207472616e736665\n        /* \"#utility.yul\":15645:15646   */\n      0x00\n        /* \"#utility.yul\":15637:15643   */\n      dup3\n        /* \"#utility.yul\":15633:15647   */\n      add\n        /* \"#utility.yul\":15626:15684   */\n      mstore\n        /* \"#utility.yul\":15718:15721   */\n      0x7200000000000000000000000000000000000000000000000000000000000000\n        /* \"#utility.yul\":15713:15715   */\n      0x20\n        /* \"#utility.yul\":15705:15711   */\n      dup3\n        /* \"#utility.yul\":15701:15716   */\n      add\n        /* \"#utility.yul\":15694:15722   */\n      mstore\n        /* \"#utility.yul\":15509:15729   */\n      pop\n      jump\t// out\n        /* \"#utility.yul\":15735:16101   */\n    tag_254:\n        /* \"#utility.yul\":15877:15880   */\n      0x00\n        /* \"#utility.yul\":15898:15965   */\n      tag_392\n        /* \"#utility.yul\":15962:15964   */\n      0x21\n        /* \"#utility.yul\":15957:15960   */\n      dup4\n        /* \"#utility.yul\":15898:15965   */\n      tag_224\n      jump\t// in\n    tag_392:\n        /* \"#utility.yul\":15891:15965   */\n      swap2\n      pop\n        /* \"#utility.yul\":15974:16067   */\n      tag_393\n        /* \"#utility.yul\":16063:16066   */\n      dup3\n        /* \"#utility.yul\":15974:16067   */\n      tag_253\n      jump\t// in\n    tag_393:\n        /* \"#utility.yul\":16092:16094   */\n      0x40\n        /* \"#utility.yul\":16087:16090   */\n      dup3\n        /* \"#utility.yul\":16083:16095   */\n      add\n        /* \"#utility.yul\":16076:16095   */\n      swap1\n      pop\n        /* \"#utility.yul\":15735:16101   */\n      swap2\n      swap1\n      pop\n      jump\t// out\n        /* \"#utility.yul\":16107:16526   */\n    tag_196:\n        /* \"#utility.yul\":16273:16277   */\n      0x00\n        /* \"#utility.yul\":16311:16313   */\n      0x20\n        /* \"#utility.yul\":16300:16309   */\n      dup3\n        /* \"#utility.yul\":16296:16314   */\n      add\n        /* \"#utility.yul\":16288:16314   */\n      swap1\n      pop\n        /* \"#utility.yul\":16360:16369   */\n      dup2\n        /* \"#utility.yul\":16354:16358   */\n      dup2\n        /* \"#utility.yul\":16350:16370   */\n      sub\n        /* \"#utility.yul\":16346:16347   */\n      0x00\n        /* \"#utility.yul\":16335:16344   */\n      dup4\n        /* \"#utility.yul\":16331:16348   */\n      add\n        /* \"#utility.yul\":16324:16371   */\n      mstore\n        /* \"#utility.yul\":16388:16519   */\n      tag_395\n        /* \"#utility.yul\":16514:16518   */\n      dup2\n        /* \"#utility.yul\":16388:16519   */\n      tag_254\n      jump\t// in\n    tag_395:\n        /* \"#utility.yul\":16380:16519   */\n      swap1\n      pop\n        /* \"#utility.yul\":16107:16526   */\n      swap2\n      swap1\n      pop\n      jump\t// out\n        /* \"#utility.yul\":16532:16757   */\n    tag_255:\n        /* \"#utility.yul\":16672:16706   */\n      0x45524332303a207472616e7366657220616d6f756e7420657863656564732062\n        /* \"#utility.yul\":16668:16669   */\n      0x00\n        /* \"#utility.yul\":16660:16666   */\n      dup3\n        /* \"#utility.yul\":16656:16670   */\n      add\n        /* \"#utility.yul\":16649:16707   */\n      mstore\n        /* \"#utility.yul\":16741:16749   */\n      0x616c616e63650000000000000000000000000000000000000000000000000000\n        /* \"#utility.yul\":16736:16738   */\n      0x20\n        /* \"#utility.yul\":16728:16734   */\n      dup3\n        /* \"#utility.yul\":16724:16739   */\n      add\n        /* \"#utility.yul\":16717:16750   */\n      mstore\n        /* \"#utility.yul\":16532:16757   */\n      pop\n      jump\t// out\n        /* \"#utility.yul\":16763:17129   */\n    tag_256:\n        /* \"#utility.yul\":16905:16908   */\n      0x00\n        /* \"#utility.yul\":16926:16993   */\n      tag_398\n        /* \"#utility.yul\":16990:16992   */\n      0x26\n        /* \"#utility.yul\":16985:16988   */\n      dup4\n        /* \"#utility.yul\":16926:16993   */\n      tag_224\n      jump\t// in\n    tag_398:\n        /* \"#utility.yul\":16919:16993   */\n      swap2\n      pop\n        /* \"#utility.yul\":17002:17095   */\n      tag_399\n        /* \"#utility.yul\":17091:17094   */\n      dup3\n        /* \"#utility.yul\":17002:17095   */\n      tag_255\n      jump\t// in\n    tag_399:\n        /* \"#utility.yul\":17120:17122   */\n      0x40\n        /* \"#utility.yul\":17115:17118   */\n      dup3\n        /* \"#utility.yul\":17111:17123   */\n      add\n        /* \"#utility.yul\":17104:17123   */\n      swap1\n      pop\n        /* \"#utility.yul\":16763:17129   */\n      swap2\n      swap1\n      pop\n      jump\t// out\n        /* \"#utility.yul\":17135:17554   */\n    tag_199:\n        /* \"#utility.yul\":17301:17305   */\n      0x00\n        /* \"#utility.yul\":17339:17341   */\n      0x20\n        /* \"#utility.yul\":17328:17337   */\n      dup3\n        /* \"#utility.yul\":17324:17342   */\n      add\n        /* \"#utility.yul\":17316:17342   */\n      swap1\n      pop\n        /* \"#utility.yul\":17388:17397   */\n      dup2\n        /* \"#utility.yul\":17382:17386   */\n      dup2\n        /* \"#utility.yul\":17378:17398   */\n      sub\n        /* \"#utility.yul\":17374:17375   */\n      0x00\n        /* \"#utility.yul\":17363:17372   */\n      dup4\n        /* \"#utility.yul\":17359:17376   */\n      add\n        /* \"#utility.yul\":17352:17399   */\n      mstore\n        /* \"#utility.yul\":17416:17547   */\n      tag_401\n        /* \"#utility.yul\":17542:17546   */\n      dup2\n        /* \"#utility.yul\":17416:17547   */\n      tag_256\n      jump\t// in\n    tag_401:\n        /* \"#utility.yul\":17408:17547   */\n      swap1\n      pop\n        /* \"#utility.yul\":17135:17554   */\n      swap2\n      swap1\n      pop\n      jump\t// out\n        /* \"#utility.yul\":17560:17740   */\n    tag_207:\n        /* \"#utility.yul\":17608:17685   */\n      0x4e487b7100000000000000000000000000000000000000000000000000000000\n        /* \"#utility.yul\":17605:17606   */\n      0x00\n        /* \"#utility.yul\":17598:17686   */\n      mstore\n        /* \"#utility.yul\":17705:17709   */\n      0x01\n        /* \"#utility.yul\":17702:17703   */\n      0x04\n        /* \"#utility.yul\":17695:17710   */\n      mstore\n        /* \"#utility.yul\":17729:17733   */\n      0x24\n        /* \"#utility.yul\":17726:17727   */\n      0x00\n        /* \"#utility.yul\":17719:17734   */\n      revert\n        /* \"#utility.yul\":17746:18051   */\n    tag_211:\n        /* \"#utility.yul\":17786:17789   */\n      0x00\n        /* \"#utility.yul\":17805:17825   */\n      tag_404\n        /* \"#utility.yul\":17823:17824   */\n      dup3\n        /* \"#utility.yul\":17805:17825   */\n      tag_221\n      jump\t// in\n    tag_404:\n        /* \"#utility.yul\":17800:17825   */\n      swap2\n      pop\n        /* \"#utility.yul\":17839:17859   */\n      tag_405\n        /* \"#utility.yul\":17857:17858   */\n      dup4\n        /* \"#utility.yul\":17839:17859   */\n      tag_221\n      jump\t// in\n    tag_405:\n        /* \"#utility.yul\":17834:17859   */\n      swap3\n      pop\n        /* \"#utility.yul\":17993:17994   */\n      dup3\n        /* \"#utility.yul\":17925:17991   */\n      0xffffffffffffffffffffffffffffffffffffffffffffffffffffffffffffffff\n        /* \"#utility.yul\":17921:17995   */\n      sub\n        /* \"#utility.yul\":17918:17919   */\n      dup3\n        /* \"#utility.yul\":17915:17996   */\n      gt\n        /* \"#utility.yul\":17912:18019   */\n      iszero\n      tag_406\n      jumpi\n        /* \"#utility.yul\":17999:18017   */\n      tag_407\n      tag_242\n      jump\t// in\n    tag_407:\n        /* \"#utility.yul\":17912:18019   */\n    tag_406:\n        /* \"#utility.yul\":18043:18044   */\n      dup3\n        /* \"#utility.yul\":18040:18041   */\n      dup3\n        /* \"#utility.yul\":18036:18045   */\n      add\n        /* \"#utility.yul\":18029:18045   */\n      swap1\n      pop\n        /* \"#utility.yul\":17746:18051   */\n      swap3\n      swap2\n      pop\n      pop\n      jump\t// out\n\n    auxdata: 0xa26469706673582212203691bc88936645df3bd62212fc2b3e844af82a1900b8da1557b9313ab102f6a064736f6c634300080f0033\n}\n",
				"bytecode": {
					"linkReferences": {},
					"object": "60806040523480156200001157600080fd5b5060405162002634380380620026348339818101604052810190620000379190620002cf565b336000806101000a81548173ffffffffffffffffffffffffffffffffffffffff021916908373ffffffffffffffffffffffffffffffffffffffff16021790555081600490816200008891906200059f565b5080600590816200009a91906200059f565b506012600660006101000a81548160ff021916908360ff1602179055506a52b7d2dcc80cd2e4000000600381905550600354600160003373ffffffffffffffffffffffffffffffffffffffff1673ffffffffffffffffffffffffffffffffffffffff168152602001908152602001600020819055506001600660016101000a81548160ff021916908315150217905550505062000686565b6000604051905090565b600080fd5b600080fd5b600080fd5b600080fd5b6000601f19601f8301169050919050565b7f4e487b7100000000000000000000000000000000000000000000000000000000600052604160045260246000fd5b6200019b8262000150565b810181811067ffffffffffffffff82111715620001bd57620001bc62000161565b5b80604052505050565b6000620001d262000132565b9050620001e0828262000190565b919050565b600067ffffffffffffffff82111562000203576200020262000161565b5b6200020e8262000150565b9050602081019050919050565b60005b838110156200023b5780820151818401526020810190506200021e565b838111156200024b576000848401525b50505050565b6000620002686200026284620001e5565b620001c6565b9050828152602081018484840111156200028757620002866200014b565b5b620002948482856200021b565b509392505050565b600082601f830112620002b457620002b362000146565b5b8151620002c684826020860162000251565b91505092915050565b60008060408385031215620002e957620002e86200013c565b5b600083015167ffffffffffffffff8111156200030a576200030962000141565b5b62000318858286016200029c565b925050602083015167ffffffffffffffff8111156200033c576200033b62000141565b5b6200034a858286016200029c565b9150509250929050565b600081519050919050565b7f4e487b7100000000000000000000000000000000000000000000000000000000600052602260045260246000fd5b60006002820490506001821680620003a757607f821691505b602082108103620003bd57620003bc6200035f565b5b50919050565b60008190508160005260206000209050919050565b60006020601f8301049050919050565b600082821b905092915050565b600060088302620004277fffffffffffffffffffffffffffffffffffffffffffffffffffffffffffffffff82620003e8565b620004338683620003e8565b95508019841693508086168417925050509392505050565b6000819050919050565b6000819050919050565b6000620004806200047a62000474846200044b565b62000455565b6200044b565b9050919050565b6000819050919050565b6200049c836200045f565b620004b4620004ab8262000487565b848454620003f5565b825550505050565b600090565b620004cb620004bc565b620004d881848462000491565b505050565b5b818110156200050057620004f4600082620004c1565b600181019050620004de565b5050565b601f8211156200054f576200051981620003c3565b6200052484620003d8565b8101602085101562000534578190505b6200054c6200054385620003d8565b830182620004dd565b50505b505050565b600082821c905092915050565b6000620005746000198460080262000554565b1980831691505092915050565b60006200058f838362000561565b9150826002028217905092915050565b620005aa8262000354565b67ffffffffffffffff811115620005c657620005c562000161565b5b620005d282546200038e565b620005df82828562000504565b600060209050601f83116001811462000617576000841562000602578287015190505b6200060e858262000581565b8655506200067e565b601f1984166200062786620003c3565b60005b8281101562000651578489015182556001820191506020850194506020810190506200062a565b868310156200067157848901516200066d601f89168262000561565b8355505b6001600288020188555050505b505050505050565b611f9e80620006966000396000f3fe608060405234801561001057600080fd5b50600436106101375760003560e01c806369712ffa116100b8578063b09f12661161007c578063b09f126614610354578063d27ac65b14610372578063d28d8852146103a2578063dd62ed3e146103c0578063f2fde38b146103f0578063f9ca25611461040c57610137565b806369712ffa146102ae57806370a08231146102b85780638da5cb5b146102e857806395d89b4114610306578063a9059cbb1461032457610137565b806323b872dd116100ff57806323b872dd146101f4578063313ce5671461022457806332424aa3146102425780633eaaf86b1461026057806343e204b31461027e57610137565b8063024c2ddd1461013c57806306fdde031461016c578063095ea7b31461018a578063130a39b1146101ba57806318160ddd146101d6575b600080fd5b610156600480360381019061015191906115b7565b61042a565b6040516101639190611610565b60405180910390f35b61017461044f565b60405161018191906116c4565b60405180910390f35b6101a4600480360381019061019f9190611712565b6104e1565b6040516101b1919061176d565b60405180910390f35b6101d460048036038101906101cf9190611788565b6105fc565b005b6101de610742565b6040516101eb9190611610565b60405180910390f35b61020e600480360381019061020991906117b5565b61074c565b60405161021b919061176d565b60405180910390f35b61022c6108bc565b6040516102399190611824565b60405180910390f35b61024a6108d3565b6040516102579190611824565b60405180910390f35b6102686108e6565b6040516102759190611610565b60405180910390f35b610298600480360381019061029391906115b7565b6108ec565b6040516102a5919061176d565b60405180910390f35b6102b66109cd565b005b6102d260048036038101906102cd9190611788565b610a98565b6040516102df9190611610565b60405180910390f35b6102f0610ae1565b6040516102fd919061184e565b60405180910390f35b61030e610b0a565b60405161031b91906116c4565b60405180910390f35b61033e60048036038101906103399190611712565b610b9c565b60405161034b919061176d565b60405180910390f35b61035c610c18565b60405161036991906116c4565b60405180910390f35b61038c60048036038101906103879190611788565b610ca6565b604051610399919061176d565b60405180910390f35b6103aa610cc6565b6040516103b791906116c4565b60405180910390f35b6103da60048036038101906103d591906115b7565b610d54565b6040516103e79190611610565b60405180910390f35b61040a60048036038101906104059190611788565b610ddb565b005b610414610fbe565b604051610421919061176d565b60405180910390f35b6002602052816000526040600020602052806000526040600020600091509150505481565b60606004805461045e90611898565b80601f016020809104026020016040519081016040528092919081815260200182805461048a90611898565b80156104d75780601f106104ac576101008083540402835291602001916104d7565b820191906000526020600020905b8154815290600101906020018083116104ba57829003601f168201915b5050505050905090565b600080600260003373ffffffffffffffffffffffffffffffffffffffff1673ffffffffffffffffffffffffffffffffffffffff16815260200190815260200160002060008573ffffffffffffffffffffffffffffffffffffffff1673ffffffffffffffffffffffffffffffffffffffff16815260200190815260200160002054905082600160003373ffffffffffffffffffffffffffffffffffffffff1673ffffffffffffffffffffffffffffffffffffffff1681526020019081526020016000205410156105e5576040517f08c379a00000000000000000000000000000000000000000000000000000000081526004016105dc90611961565b60405180910390fd5b6105f133858386610fd1565b600191505092915050565b60008054906101000a900473ffffffffffffffffffffffffffffffffffffffff1673ffffffffffffffffffffffffffffffffffffffff163373ffffffffffffffffffffffffffffffffffffffff161461068a576040517f08c379a0000000000000000000000000000000000000000000000000000000008152600401610681906119cd565b60405180910390fd5b60011515600760008373ffffffffffffffffffffffffffffffffffffffff1673ffffffffffffffffffffffffffffffffffffffff16815260200190815260200160002060009054906101000a900460ff161515146106e757600080fd5b6000600760008373ffffffffffffffffffffffffffffffffffffffff1673ffffffffffffffffffffffffffffffffffffffff16815260200190815260200160002060006101000a81548160ff02191690831515021790555050565b6000600354905090565b600061075984848461125b565b8273ffffffffffffffffffffffffffffffffffffffff168473ffffffffffffffffffffffffffffffffffffffff163373ffffffffffffffffffffffffffffffffffffffff167fd1398bee19313d6bf672ccb116e51f4a1a947e91c757907f51fbb5b5e56c698f856040516107cd9190611610565b60405180910390a46000600260008673ffffffffffffffffffffffffffffffffffffffff1673ffffffffffffffffffffffffffffffffffffffff16815260200190815260200160002060003373ffffffffffffffffffffffffffffffffffffffff1673ffffffffffffffffffffffffffffffffffffffff16815260200190815260200160002054905082811015610899576040517f08c379a000000000000000000000000000000000000000000000000000000000815260040161089090611a5f565b60405180910390fd5b6108b085338386856108ab9190611aae565b610fd1565b60019150509392505050565b6000600660009054906101000a900460ff16905090565b600660009054906101000a900460ff1681565b60035481565b600060011515600660019054906101000a900460ff1615150361090e57600190505b60011515600760008573ffffffffffffffffffffffffffffffffffffffff1673ffffffffffffffffffffffffffffffffffffffff16815260200190815260200160002060009054906101000a900460ff16151514806109bd575060011515600760008473ffffffffffffffffffffffffffffffffffffffff1673ffffffffffffffffffffffffffffffffffffffff16815260200190815260200160002060009054906101000a900460ff161515145b156109c757600190505b92915050565b60008054906101000a900473ffffffffffffffffffffffffffffffffffffffff1673ffffffffffffffffffffffffffffffffffffffff163373ffffffffffffffffffffffffffffffffffffffff1614610a5b576040517f08c379a0000000000000000000000000000000000000000000000000000000008152600401610a52906119cd565b60405180910390fd5b60011515600660019054906101000a900460ff16151514610a7b57600080fd5b6000600660016101000a81548160ff021916908315150217905550565b6000600160008373ffffffffffffffffffffffffffffffffffffffff1673ffffffffffffffffffffffffffffffffffffffff168152602001908152602001600020549050919050565b60008060009054906101000a900473ffffffffffffffffffffffffffffffffffffffff16905090565b606060058054610b1990611898565b80601f0160208091040260200160405190810160405280929190818152602001828054610b4590611898565b8015610b925780601f10610b6757610100808354040283529160200191610b92565b820191906000526020600020905b815481529060010190602001808311610b7557829003601f168201915b5050505050905090565b6000610ba933848461125b565b8273ffffffffffffffffffffffffffffffffffffffff163373ffffffffffffffffffffffffffffffffffffffff167fddf252ad1be2c89b69c2b068fc378daa952ba7f163c4a11628f55a4df523b3ef84604051610c069190611610565b60405180910390a36001905092915050565b60058054610c2590611898565b80601f0160208091040260200160405190810160405280929190818152602001828054610c5190611898565b8015610c9e5780601f10610c7357610100808354040283529160200191610c9e565b820191906000526020600020905b815481529060010190602001808311610c8157829003601f168201915b505050505081565b60076020528060005260406000206000915054906101000a900460ff1681565b60048054610cd390611898565b80601f0160208091040260200160405190810160405280929190818152602001828054610cff90611898565b8015610d4c5780601f10610d2157610100808354040283529160200191610d4c565b820191906000526020600020905b815481529060010190602001808311610d2f57829003601f168201915b505050505081565b6000600260008473ffffffffffffffffffffffffffffffffffffffff1673ffffffffffffffffffffffffffffffffffffffff16815260200190815260200160002060008373ffffffffffffffffffffffffffffffffffffffff1673ffffffffffffffffffffffffffffffffffffffff16815260200190815260200160002054905092915050565b60008054906101000a900473ffffffffffffffffffffffffffffffffffffffff1673ffffffffffffffffffffffffffffffffffffffff163373ffffffffffffffffffffffffffffffffffffffff1614610e69576040517f08c379a0000000000000000000000000000000000000000000000000000000008152600401610e60906119cd565b60405180910390fd5b60008054906101000a900473ffffffffffffffffffffffffffffffffffffffff1673ffffffffffffffffffffffffffffffffffffffff168173ffffffffffffffffffffffffffffffffffffffff1603610ec157600080fd5b600073ffffffffffffffffffffffffffffffffffffffff168173ffffffffffffffffffffffffffffffffffffffff1603610efa57600080fd5b60008060009054906101000a900473ffffffffffffffffffffffffffffffffffffffff169050816000806101000a81548173ffffffffffffffffffffffffffffffffffffffff021916908373ffffffffffffffffffffffffffffffffffffffff1602179055508173ffffffffffffffffffffffffffffffffffffffff168173ffffffffffffffffffffffffffffffffffffffff167f8be0079c531659141344cd1fd0a4f28419497f9722a3daafe3b4186f6b6457e060405160405180910390a35050565b600660019054906101000a900460ff1681565b600073ffffffffffffffffffffffffffffffffffffffff168473ffffffffffffffffffffffffffffffffffffffff1603611040576040517f08c379a000000000000000000000000000000000000000000000000000000000815260040161103790611b54565b60405180910390fd5b600073ffffffffffffffffffffffffffffffffffffffff168373ffffffffffffffffffffffffffffffffffffffff16036110af576040517f08c379a00000000000000000000000000000000000000000000000000000000081526004016110a690611be6565b60405180910390fd5b600260008573ffffffffffffffffffffffffffffffffffffffff1673ffffffffffffffffffffffffffffffffffffffff16815260200190815260200160002060008473ffffffffffffffffffffffffffffffffffffffff1673ffffffffffffffffffffffffffffffffffffffff16815260200190815260200160002054821461116d576040517f08c379a000000000000000000000000000000000000000000000000000000000815260040161116490611c52565b60405180910390fd5b80600260008673ffffffffffffffffffffffffffffffffffffffff1673ffffffffffffffffffffffffffffffffffffffff16815260200190815260200160002060008573ffffffffffffffffffffffffffffffffffffffff1673ffffffffffffffffffffffffffffffffffffffff168152602001908152602001600020819055508273ffffffffffffffffffffffffffffffffffffffff168473ffffffffffffffffffffffffffffffffffffffff167fb3fd5071835887567a0671151121894ddccc2842f1d10bedad13e0d17cace9a7848460405161124d929190611c72565b60405180910390a350505050565b600073ffffffffffffffffffffffffffffffffffffffff168373ffffffffffffffffffffffffffffffffffffffff16036112ca576040517f08c379a00000000000000000000000000000000000000000000000000000000081526004016112c190611d0d565b60405180910390fd5b600073ffffffffffffffffffffffffffffffffffffffff168273ffffffffffffffffffffffffffffffffffffffff1603611339576040517f08c379a000000000000000000000000000000000000000000000000000000000815260040161133090611d9f565b60405180910390fd5b6000151561134784846108ec565b151514611389576040517f08c379a000000000000000000000000000000000000000000000000000000000815260040161138090611e31565b60405180910390fd5b6000600160008573ffffffffffffffffffffffffffffffffffffffff1673ffffffffffffffffffffffffffffffffffffffff16815260200190815260200160002054905081811015611410576040517f08c379a000000000000000000000000000000000000000000000000000000000815260040161140790611ec3565b60405180910390fd5b611423828261150190919063ffffffff16565b600160008673ffffffffffffffffffffffffffffffffffffffff1673ffffffffffffffffffffffffffffffffffffffff168152602001908152602001600020819055506114b882600160008673ffffffffffffffffffffffffffffffffffffffff1673ffffffffffffffffffffffffffffffffffffffff1681526020019081526020016000205461152890919063ffffffff16565b600160008573ffffffffffffffffffffffffffffffffffffffff1673ffffffffffffffffffffffffffffffffffffffff1681526020019081526020016000208190555050505050565b60008282111561151457611513611ee3565b5b81836115209190611aae565b905092915050565b60008082846115379190611f12565b90508381101561154a57611549611ee3565b5b8091505092915050565b600080fd5b600073ffffffffffffffffffffffffffffffffffffffff82169050919050565b600061158482611559565b9050919050565b61159481611579565b811461159f57600080fd5b50565b6000813590506115b18161158b565b92915050565b600080604083850312156115ce576115cd611554565b5b60006115dc858286016115a2565b92505060206115ed858286016115a2565b9150509250929050565b6000819050919050565b61160a816115f7565b82525050565b60006020820190506116256000830184611601565b92915050565b600081519050919050565b600082825260208201905092915050565b60005b8381101561166557808201518184015260208101905061164a565b83811115611674576000848401525b50505050565b6000601f19601f8301169050919050565b60006116968261162b565b6116a08185611636565b93506116b0818560208601611647565b6116b98161167a565b840191505092915050565b600060208201905081810360008301526116de818461168b565b905092915050565b6116ef816115f7565b81146116fa57600080fd5b50565b60008135905061170c816116e6565b92915050565b6000806040838503121561172957611728611554565b5b6000611737858286016115a2565b9250506020611748858286016116fd565b9150509250929050565b60008115159050919050565b61176781611752565b82525050565b6000602082019050611782600083018461175e565b92915050565b60006020828403121561179e5761179d611554565b5b60006117ac848285016115a2565b91505092915050565b6000806000606084860312156117ce576117cd611554565b5b60006117dc868287016115a2565b93505060206117ed868287016115a2565b92505060406117fe868287016116fd565b9150509250925092565b600060ff82169050919050565b61181e81611808565b82525050565b60006020820190506118396000830184611815565b92915050565b61184881611579565b82525050565b6000602082019050611863600083018461183f565b92915050565b7f4e487b7100000000000000000000000000000000000000000000000000000000600052602260045260246000fd5b600060028204905060018216806118b057607f821691505b6020821081036118c3576118c2611869565b5b50919050565b7f45524332303a2054686520616d6f756e7420746f206265207472616e7366657260008201527f72656420657863656564732074686520616d6f756e74206f6620746f6b656e7360208201527f2068656c6420627920746865206f776e65722e00000000000000000000000000604082015250565b600061194b605383611636565b9150611956826118c9565b606082019050919050565b6000602082019050818103600083015261197a8161193e565b9050919050565b7f4f776e657248656c7065723a2063616c6c6572206973206e6f74206f776e6572600082015250565b60006119b7602083611636565b91506119c282611981565b602082019050919050565b600060208201905081810360008301526119e6816119aa565b9050919050565b7f45524332303a207472616e7366657220616d6f756e742065786365656473206160008201527f6c6c6f77616e6365000000000000000000000000000000000000000000000000602082015250565b6000611a49602883611636565b9150611a54826119ed565b604082019050919050565b60006020820190508181036000830152611a7881611a3c565b9050919050565b7f4e487b7100000000000000000000000000000000000000000000000000000000600052601160045260246000fd5b6000611ab9826115f7565b9150611ac4836115f7565b925082821015611ad757611ad6611a7f565b5b828203905092915050565b7f45524332303a20617070726f76652066726f6d20746865207a65726f2061646460008201527f7265737300000000000000000000000000000000000000000000000000000000602082015250565b6000611b3e602483611636565b9150611b4982611ae2565b604082019050919050565b60006020820190508181036000830152611b6d81611b31565b9050919050565b7f45524332303a20617070726f766520746f20746865207a65726f20616464726560008201527f7373000000000000000000000000000000000000000000000000000000000000602082015250565b6000611bd0602283611636565b9150611bdb82611b74565b604082019050919050565b60006020820190508181036000830152611bff81611bc3565b9050919050565b7f45524332303a20696e76616c69642063757272656e74416d6f756e7400000000600082015250565b6000611c3c601c83611636565b9150611c4782611c06565b602082019050919050565b60006020820190508181036000830152611c6b81611c2f565b9050919050565b6000604082019050611c876000830185611601565b611c946020830184611601565b9392505050565b7f45524332303a207472616e736665722066726f6d20746865207a65726f20616460008201527f6472657373000000000000000000000000000000000000000000000000000000602082015250565b6000611cf7602583611636565b9150611d0282611c9b565b604082019050919050565b60006020820190508181036000830152611d2681611cea565b9050919050565b7f45524332303a207472616e7366657220746f20746865207a65726f206164647260008201527f6573730000000000000000000000000000000000000000000000000000000000602082015250565b6000611d89602383611636565b9150611d9482611d2d565b604082019050919050565b60006020820190508181036000830152611db881611d7c565b9050919050565b7f546f6b656e4c6f636b3a20696e76616c696420746f6b656e207472616e73666560008201527f7200000000000000000000000000000000000000000000000000000000000000602082015250565b6000611e1b602183611636565b9150611e2682611dbf565b604082019050919050565b60006020820190508181036000830152611e4a81611e0e565b9050919050565b7f45524332303a207472616e7366657220616d6f756e742065786365656473206260008201527f616c616e63650000000000000000000000000000000000000000000000000000602082015250565b6000611ead602683611636565b9150611eb882611e51565b604082019050919050565b60006020820190508181036000830152611edc81611ea0565b9050919050565b7f4e487b7100000000000000000000000000000000000000000000000000000000600052600160045260246000fd5b6000611f1d826115f7565b9150611f28836115f7565b9250827fffffffffffffffffffffffffffffffffffffffffffffffffffffffffffffffff03821115611f5d57611f5c611a7f565b5b82820190509291505056fea26469706673582212203691bc88936645df3bd62212fc2b3e844af82a1900b8da1557b9313ab102f6a064736f6c634300080f0033",
					"opcodes": "PUSH1 0x80 PUSH1 0x40 MSTORE CALLVALUE DUP1 ISZERO PUSH3 0x11 JUMPI PUSH1 0x0 DUP1 REVERT JUMPDEST POP PUSH1 0x40 MLOAD PUSH3 0x2634 CODESIZE SUB DUP1 PUSH3 0x2634 DUP4 CODECOPY DUP2 DUP2 ADD PUSH1 0x40 MSTORE DUP2 ADD SWAP1 PUSH3 0x37 SWAP2 SWAP1 PUSH3 0x2CF JUMP JUMPDEST CALLER PUSH1 0x0 DUP1 PUSH2 0x100 EXP DUP2 SLOAD DUP2 PUSH20 0xFFFFFFFFFFFFFFFFFFFFFFFFFFFFFFFFFFFFFFFF MUL NOT AND SWAP1 DUP4 PUSH20 0xFFFFFFFFFFFFFFFFFFFFFFFFFFFFFFFFFFFFFFFF AND MUL OR SWAP1 SSTORE POP DUP2 PUSH1 0x4 SWAP1 DUP2 PUSH3 0x88 SWAP2 SWAP1 PUSH3 0x59F JUMP JUMPDEST POP DUP1 PUSH1 0x5 SWAP1 DUP2 PUSH3 0x9A SWAP2 SWAP1 PUSH3 0x59F JUMP JUMPDEST POP PUSH1 0x12 PUSH1 0x6 PUSH1 0x0 PUSH2 0x100 EXP DUP2 SLOAD DUP2 PUSH1 0xFF MUL NOT AND SWAP1 DUP4 PUSH1 0xFF AND MUL OR SWAP1 SSTORE POP PUSH11 0x52B7D2DCC80CD2E4000000 PUSH1 0x3 DUP2 SWAP1 SSTORE POP PUSH1 0x3 SLOAD PUSH1 0x1 PUSH1 0x0 CALLER PUSH20 0xFFFFFFFFFFFFFFFFFFFFFFFFFFFFFFFFFFFFFFFF AND PUSH20 0xFFFFFFFFFFFFFFFFFFFFFFFFFFFFFFFFFFFFFFFF AND DUP2 MSTORE PUSH1 0x20 ADD SWAP1 DUP2 MSTORE PUSH1 0x20 ADD PUSH1 0x0 KECCAK256 DUP2 SWAP1 SSTORE POP PUSH1 0x1 PUSH1 0x6 PUSH1 0x1 PUSH2 0x100 EXP DUP2 SLOAD DUP2 PUSH1 0xFF MUL NOT AND SWAP1 DUP4 ISZERO ISZERO MUL OR SWAP1 SSTORE POP POP POP PUSH3 0x686 JUMP JUMPDEST PUSH1 0x0 PUSH1 0x40 MLOAD SWAP1 POP SWAP1 JUMP JUMPDEST PUSH1 0x0 DUP1 REVERT JUMPDEST PUSH1 0x0 DUP1 REVERT JUMPDEST PUSH1 0x0 DUP1 REVERT JUMPDEST PUSH1 0x0 DUP1 REVERT JUMPDEST PUSH1 0x0 PUSH1 0x1F NOT PUSH1 0x1F DUP4 ADD AND SWAP1 POP SWAP2 SWAP1 POP JUMP JUMPDEST PUSH32 0x4E487B7100000000000000000000000000000000000000000000000000000000 PUSH1 0x0 MSTORE PUSH1 0x41 PUSH1 0x4 MSTORE PUSH1 0x24 PUSH1 0x0 REVERT JUMPDEST PUSH3 0x19B DUP3 PUSH3 0x150 JUMP JUMPDEST DUP2 ADD DUP2 DUP2 LT PUSH8 0xFFFFFFFFFFFFFFFF DUP3 GT OR ISZERO PUSH3 0x1BD JUMPI PUSH3 0x1BC PUSH3 0x161 JUMP JUMPDEST JUMPDEST DUP1 PUSH1 0x40 MSTORE POP POP POP JUMP JUMPDEST PUSH1 0x0 PUSH3 0x1D2 PUSH3 0x132 JUMP JUMPDEST SWAP1 POP PUSH3 0x1E0 DUP3 DUP3 PUSH3 0x190 JUMP JUMPDEST SWAP2 SWAP1 POP JUMP JUMPDEST PUSH1 0x0 PUSH8 0xFFFFFFFFFFFFFFFF DUP3 GT ISZERO PUSH3 0x203 JUMPI PUSH3 0x202 PUSH3 0x161 JUMP JUMPDEST JUMPDEST PUSH3 0x20E DUP3 PUSH3 0x150 JUMP JUMPDEST SWAP1 POP PUSH1 0x20 DUP2 ADD SWAP1 POP SWAP2 SWAP1 POP JUMP JUMPDEST PUSH1 0x0 JUMPDEST DUP4 DUP2 LT ISZERO PUSH3 0x23B JUMPI DUP1 DUP3 ADD MLOAD DUP2 DUP5 ADD MSTORE PUSH1 0x20 DUP2 ADD SWAP1 POP PUSH3 0x21E JUMP JUMPDEST DUP4 DUP2 GT ISZERO PUSH3 0x24B JUMPI PUSH1 0x0 DUP5 DUP5 ADD MSTORE JUMPDEST POP POP POP POP JUMP JUMPDEST PUSH1 0x0 PUSH3 0x268 PUSH3 0x262 DUP5 PUSH3 0x1E5 JUMP JUMPDEST PUSH3 0x1C6 JUMP JUMPDEST SWAP1 POP DUP3 DUP2 MSTORE PUSH1 0x20 DUP2 ADD DUP5 DUP5 DUP5 ADD GT ISZERO PUSH3 0x287 JUMPI PUSH3 0x286 PUSH3 0x14B JUMP JUMPDEST JUMPDEST PUSH3 0x294 DUP5 DUP3 DUP6 PUSH3 0x21B JUMP JUMPDEST POP SWAP4 SWAP3 POP POP POP JUMP JUMPDEST PUSH1 0x0 DUP3 PUSH1 0x1F DUP4 ADD SLT PUSH3 0x2B4 JUMPI PUSH3 0x2B3 PUSH3 0x146 JUMP JUMPDEST JUMPDEST DUP2 MLOAD PUSH3 0x2C6 DUP5 DUP3 PUSH1 0x20 DUP7 ADD PUSH3 0x251 JUMP JUMPDEST SWAP2 POP POP SWAP3 SWAP2 POP POP JUMP JUMPDEST PUSH1 0x0 DUP1 PUSH1 0x40 DUP4 DUP6 SUB SLT ISZERO PUSH3 0x2E9 JUMPI PUSH3 0x2E8 PUSH3 0x13C JUMP JUMPDEST JUMPDEST PUSH1 0x0 DUP4 ADD MLOAD PUSH8 0xFFFFFFFFFFFFFFFF DUP2 GT ISZERO PUSH3 0x30A JUMPI PUSH3 0x309 PUSH3 0x141 JUMP JUMPDEST JUMPDEST PUSH3 0x318 DUP6 DUP3 DUP7 ADD PUSH3 0x29C JUMP JUMPDEST SWAP3 POP POP PUSH1 0x20 DUP4 ADD MLOAD PUSH8 0xFFFFFFFFFFFFFFFF DUP2 GT ISZERO PUSH3 0x33C JUMPI PUSH3 0x33B PUSH3 0x141 JUMP JUMPDEST JUMPDEST PUSH3 0x34A DUP6 DUP3 DUP7 ADD PUSH3 0x29C JUMP JUMPDEST SWAP2 POP POP SWAP3 POP SWAP3 SWAP1 POP JUMP JUMPDEST PUSH1 0x0 DUP2 MLOAD SWAP1 POP SWAP2 SWAP1 POP JUMP JUMPDEST PUSH32 0x4E487B7100000000000000000000000000000000000000000000000000000000 PUSH1 0x0 MSTORE PUSH1 0x22 PUSH1 0x4 MSTORE PUSH1 0x24 PUSH1 0x0 REVERT JUMPDEST PUSH1 0x0 PUSH1 0x2 DUP3 DIV SWAP1 POP PUSH1 0x1 DUP3 AND DUP1 PUSH3 0x3A7 JUMPI PUSH1 0x7F DUP3 AND SWAP2 POP JUMPDEST PUSH1 0x20 DUP3 LT DUP2 SUB PUSH3 0x3BD JUMPI PUSH3 0x3BC PUSH3 0x35F JUMP JUMPDEST JUMPDEST POP SWAP2 SWAP1 POP JUMP JUMPDEST PUSH1 0x0 DUP2 SWAP1 POP DUP2 PUSH1 0x0 MSTORE PUSH1 0x20 PUSH1 0x0 KECCAK256 SWAP1 POP SWAP2 SWAP1 POP JUMP JUMPDEST PUSH1 0x0 PUSH1 0x20 PUSH1 0x1F DUP4 ADD DIV SWAP1 POP SWAP2 SWAP1 POP JUMP JUMPDEST PUSH1 0x0 DUP3 DUP3 SHL SWAP1 POP SWAP3 SWAP2 POP POP JUMP JUMPDEST PUSH1 0x0 PUSH1 0x8 DUP4 MUL PUSH3 0x427 PUSH32 0xFFFFFFFFFFFFFFFFFFFFFFFFFFFFFFFFFFFFFFFFFFFFFFFFFFFFFFFFFFFFFFFF DUP3 PUSH3 0x3E8 JUMP JUMPDEST PUSH3 0x433 DUP7 DUP4 PUSH3 0x3E8 JUMP JUMPDEST SWAP6 POP DUP1 NOT DUP5 AND SWAP4 POP DUP1 DUP7 AND DUP5 OR SWAP3 POP POP POP SWAP4 SWAP3 POP POP POP JUMP JUMPDEST PUSH1 0x0 DUP2 SWAP1 POP SWAP2 SWAP1 POP JUMP JUMPDEST PUSH1 0x0 DUP2 SWAP1 POP SWAP2 SWAP1 POP JUMP JUMPDEST PUSH1 0x0 PUSH3 0x480 PUSH3 0x47A PUSH3 0x474 DUP5 PUSH3 0x44B JUMP JUMPDEST PUSH3 0x455 JUMP JUMPDEST PUSH3 0x44B JUMP JUMPDEST SWAP1 POP SWAP2 SWAP1 POP JUMP JUMPDEST PUSH1 0x0 DUP2 SWAP1 POP SWAP2 SWAP1 POP JUMP JUMPDEST PUSH3 0x49C DUP4 PUSH3 0x45F JUMP JUMPDEST PUSH3 0x4B4 PUSH3 0x4AB DUP3 PUSH3 0x487 JUMP JUMPDEST DUP5 DUP5 SLOAD PUSH3 0x3F5 JUMP JUMPDEST DUP3 SSTORE POP POP POP POP JUMP JUMPDEST PUSH1 0x0 SWAP1 JUMP JUMPDEST PUSH3 0x4CB PUSH3 0x4BC JUMP JUMPDEST PUSH3 0x4D8 DUP2 DUP5 DUP5 PUSH3 0x491 JUMP JUMPDEST POP POP POP JUMP JUMPDEST JUMPDEST DUP2 DUP2 LT ISZERO PUSH3 0x500 JUMPI PUSH3 0x4F4 PUSH1 0x0 DUP3 PUSH3 0x4C1 JUMP JUMPDEST PUSH1 0x1 DUP2 ADD SWAP1 POP PUSH3 0x4DE JUMP JUMPDEST POP POP JUMP JUMPDEST PUSH1 0x1F DUP3 GT ISZERO PUSH3 0x54F JUMPI PUSH3 0x519 DUP2 PUSH3 0x3C3 JUMP JUMPDEST PUSH3 0x524 DUP5 PUSH3 0x3D8 JUMP JUMPDEST DUP2 ADD PUSH1 0x20 DUP6 LT ISZERO PUSH3 0x534 JUMPI DUP2 SWAP1 POP JUMPDEST PUSH3 0x54C PUSH3 0x543 DUP6 PUSH3 0x3D8 JUMP JUMPDEST DUP4 ADD DUP3 PUSH3 0x4DD JUMP JUMPDEST POP POP JUMPDEST POP POP POP JUMP JUMPDEST PUSH1 0x0 DUP3 DUP3 SHR SWAP1 POP SWAP3 SWAP2 POP POP JUMP JUMPDEST PUSH1 0x0 PUSH3 0x574 PUSH1 0x0 NOT DUP5 PUSH1 0x8 MUL PUSH3 0x554 JUMP JUMPDEST NOT DUP1 DUP4 AND SWAP2 POP POP SWAP3 SWAP2 POP POP JUMP JUMPDEST PUSH1 0x0 PUSH3 0x58F DUP4 DUP4 PUSH3 0x561 JUMP JUMPDEST SWAP2 POP DUP3 PUSH1 0x2 MUL DUP3 OR SWAP1 POP SWAP3 SWAP2 POP POP JUMP JUMPDEST PUSH3 0x5AA DUP3 PUSH3 0x354 JUMP JUMPDEST PUSH8 0xFFFFFFFFFFFFFFFF DUP2 GT ISZERO PUSH3 0x5C6 JUMPI PUSH3 0x5C5 PUSH3 0x161 JUMP JUMPDEST JUMPDEST PUSH3 0x5D2 DUP3 SLOAD PUSH3 0x38E JUMP JUMPDEST PUSH3 0x5DF DUP3 DUP3 DUP6 PUSH3 0x504 JUMP JUMPDEST PUSH1 0x0 PUSH1 0x20 SWAP1 POP PUSH1 0x1F DUP4 GT PUSH1 0x1 DUP2 EQ PUSH3 0x617 JUMPI PUSH1 0x0 DUP5 ISZERO PUSH3 0x602 JUMPI DUP3 DUP8 ADD MLOAD SWAP1 POP JUMPDEST PUSH3 0x60E DUP6 DUP3 PUSH3 0x581 JUMP JUMPDEST DUP7 SSTORE POP PUSH3 0x67E JUMP JUMPDEST PUSH1 0x1F NOT DUP5 AND PUSH3 0x627 DUP7 PUSH3 0x3C3 JUMP JUMPDEST PUSH1 0x0 JUMPDEST DUP3 DUP2 LT ISZERO PUSH3 0x651 JUMPI DUP5 DUP10 ADD MLOAD DUP3 SSTORE PUSH1 0x1 DUP3 ADD SWAP2 POP PUSH1 0x20 DUP6 ADD SWAP5 POP PUSH1 0x20 DUP2 ADD SWAP1 POP PUSH3 0x62A JUMP JUMPDEST DUP7 DUP4 LT ISZERO PUSH3 0x671 JUMPI DUP5 DUP10 ADD MLOAD PUSH3 0x66D PUSH1 0x1F DUP10 AND DUP3 PUSH3 0x561 JUMP JUMPDEST DUP4 SSTORE POP JUMPDEST PUSH1 0x1 PUSH1 0x2 DUP9 MUL ADD DUP9 SSTORE POP POP POP JUMPDEST POP POP POP POP POP POP JUMP JUMPDEST PUSH2 0x1F9E DUP1 PUSH3 0x696 PUSH1 0x0 CODECOPY PUSH1 0x0 RETURN INVALID PUSH1 0x80 PUSH1 0x40 MSTORE CALLVALUE DUP1 ISZERO PUSH2 0x10 JUMPI PUSH1 0x0 DUP1 REVERT JUMPDEST POP PUSH1 0x4 CALLDATASIZE LT PUSH2 0x137 JUMPI PUSH1 0x0 CALLDATALOAD PUSH1 0xE0 SHR DUP1 PUSH4 0x69712FFA GT PUSH2 0xB8 JUMPI DUP1 PUSH4 0xB09F1266 GT PUSH2 0x7C JUMPI DUP1 PUSH4 0xB09F1266 EQ PUSH2 0x354 JUMPI DUP1 PUSH4 0xD27AC65B EQ PUSH2 0x372 JUMPI DUP1 PUSH4 0xD28D8852 EQ PUSH2 0x3A2 JUMPI DUP1 PUSH4 0xDD62ED3E EQ PUSH2 0x3C0 JUMPI DUP1 PUSH4 0xF2FDE38B EQ PUSH2 0x3F0 JUMPI DUP1 PUSH4 0xF9CA2561 EQ PUSH2 0x40C JUMPI PUSH2 0x137 JUMP JUMPDEST DUP1 PUSH4 0x69712FFA EQ PUSH2 0x2AE JUMPI DUP1 PUSH4 0x70A08231 EQ PUSH2 0x2B8 JUMPI DUP1 PUSH4 0x8DA5CB5B EQ PUSH2 0x2E8 JUMPI DUP1 PUSH4 0x95D89B41 EQ PUSH2 0x306 JUMPI DUP1 PUSH4 0xA9059CBB EQ PUSH2 0x324 JUMPI PUSH2 0x137 JUMP JUMPDEST DUP1 PUSH4 0x23B872DD GT PUSH2 0xFF JUMPI DUP1 PUSH4 0x23B872DD EQ PUSH2 0x1F4 JUMPI DUP1 PUSH4 0x313CE567 EQ PUSH2 0x224 JUMPI DUP1 PUSH4 0x32424AA3 EQ PUSH2 0x242 JUMPI DUP1 PUSH4 0x3EAAF86B EQ PUSH2 0x260 JUMPI DUP1 PUSH4 0x43E204B3 EQ PUSH2 0x27E JUMPI PUSH2 0x137 JUMP JUMPDEST DUP1 PUSH4 0x24C2DDD EQ PUSH2 0x13C JUMPI DUP1 PUSH4 0x6FDDE03 EQ PUSH2 0x16C JUMPI DUP1 PUSH4 0x95EA7B3 EQ PUSH2 0x18A JUMPI DUP1 PUSH4 0x130A39B1 EQ PUSH2 0x1BA JUMPI DUP1 PUSH4 0x18160DDD EQ PUSH2 0x1D6 JUMPI JUMPDEST PUSH1 0x0 DUP1 REVERT JUMPDEST PUSH2 0x156 PUSH1 0x4 DUP1 CALLDATASIZE SUB DUP2 ADD SWAP1 PUSH2 0x151 SWAP2 SWAP1 PUSH2 0x15B7 JUMP JUMPDEST PUSH2 0x42A JUMP JUMPDEST PUSH1 0x40 MLOAD PUSH2 0x163 SWAP2 SWAP1 PUSH2 0x1610 JUMP JUMPDEST PUSH1 0x40 MLOAD DUP1 SWAP2 SUB SWAP1 RETURN JUMPDEST PUSH2 0x174 PUSH2 0x44F JUMP JUMPDEST PUSH1 0x40 MLOAD PUSH2 0x181 SWAP2 SWAP1 PUSH2 0x16C4 JUMP JUMPDEST PUSH1 0x40 MLOAD DUP1 SWAP2 SUB SWAP1 RETURN JUMPDEST PUSH2 0x1A4 PUSH1 0x4 DUP1 CALLDATASIZE SUB DUP2 ADD SWAP1 PUSH2 0x19F SWAP2 SWAP1 PUSH2 0x1712 JUMP JUMPDEST PUSH2 0x4E1 JUMP JUMPDEST PUSH1 0x40 MLOAD PUSH2 0x1B1 SWAP2 SWAP1 PUSH2 0x176D JUMP JUMPDEST PUSH1 0x40 MLOAD DUP1 SWAP2 SUB SWAP1 RETURN JUMPDEST PUSH2 0x1D4 PUSH1 0x4 DUP1 CALLDATASIZE SUB DUP2 ADD SWAP1 PUSH2 0x1CF SWAP2 SWAP1 PUSH2 0x1788 JUMP JUMPDEST PUSH2 0x5FC JUMP JUMPDEST STOP JUMPDEST PUSH2 0x1DE PUSH2 0x742 JUMP JUMPDEST PUSH1 0x40 MLOAD PUSH2 0x1EB SWAP2 SWAP1 PUSH2 0x1610 JUMP JUMPDEST PUSH1 0x40 MLOAD DUP1 SWAP2 SUB SWAP1 RETURN JUMPDEST PUSH2 0x20E PUSH1 0x4 DUP1 CALLDATASIZE SUB DUP2 ADD SWAP1 PUSH2 0x209 SWAP2 SWAP1 PUSH2 0x17B5 JUMP JUMPDEST PUSH2 0x74C JUMP JUMPDEST PUSH1 0x40 MLOAD PUSH2 0x21B SWAP2 SWAP1 PUSH2 0x176D JUMP JUMPDEST PUSH1 0x40 MLOAD DUP1 SWAP2 SUB SWAP1 RETURN JUMPDEST PUSH2 0x22C PUSH2 0x8BC JUMP JUMPDEST PUSH1 0x40 MLOAD PUSH2 0x239 SWAP2 SWAP1 PUSH2 0x1824 JUMP JUMPDEST PUSH1 0x40 MLOAD DUP1 SWAP2 SUB SWAP1 RETURN JUMPDEST PUSH2 0x24A PUSH2 0x8D3 JUMP JUMPDEST PUSH1 0x40 MLOAD PUSH2 0x257 SWAP2 SWAP1 PUSH2 0x1824 JUMP JUMPDEST PUSH1 0x40 MLOAD DUP1 SWAP2 SUB SWAP1 RETURN JUMPDEST PUSH2 0x268 PUSH2 0x8E6 JUMP JUMPDEST PUSH1 0x40 MLOAD PUSH2 0x275 SWAP2 SWAP1 PUSH2 0x1610 JUMP JUMPDEST PUSH1 0x40 MLOAD DUP1 SWAP2 SUB SWAP1 RETURN JUMPDEST PUSH2 0x298 PUSH1 0x4 DUP1 CALLDATASIZE SUB DUP2 ADD SWAP1 PUSH2 0x293 SWAP2 SWAP1 PUSH2 0x15B7 JUMP JUMPDEST PUSH2 0x8EC JUMP JUMPDEST PUSH1 0x40 MLOAD PUSH2 0x2A5 SWAP2 SWAP1 PUSH2 0x176D JUMP JUMPDEST PUSH1 0x40 MLOAD DUP1 SWAP2 SUB SWAP1 RETURN JUMPDEST PUSH2 0x2B6 PUSH2 0x9CD JUMP JUMPDEST STOP JUMPDEST PUSH2 0x2D2 PUSH1 0x4 DUP1 CALLDATASIZE SUB DUP2 ADD SWAP1 PUSH2 0x2CD SWAP2 SWAP1 PUSH2 0x1788 JUMP JUMPDEST PUSH2 0xA98 JUMP JUMPDEST PUSH1 0x40 MLOAD PUSH2 0x2DF SWAP2 SWAP1 PUSH2 0x1610 JUMP JUMPDEST PUSH1 0x40 MLOAD DUP1 SWAP2 SUB SWAP1 RETURN JUMPDEST PUSH2 0x2F0 PUSH2 0xAE1 JUMP JUMPDEST PUSH1 0x40 MLOAD PUSH2 0x2FD SWAP2 SWAP1 PUSH2 0x184E JUMP JUMPDEST PUSH1 0x40 MLOAD DUP1 SWAP2 SUB SWAP1 RETURN JUMPDEST PUSH2 0x30E PUSH2 0xB0A JUMP JUMPDEST PUSH1 0x40 MLOAD PUSH2 0x31B SWAP2 SWAP1 PUSH2 0x16C4 JUMP JUMPDEST PUSH1 0x40 MLOAD DUP1 SWAP2 SUB SWAP1 RETURN JUMPDEST PUSH2 0x33E PUSH1 0x4 DUP1 CALLDATASIZE SUB DUP2 ADD SWAP1 PUSH2 0x339 SWAP2 SWAP1 PUSH2 0x1712 JUMP JUMPDEST PUSH2 0xB9C JUMP JUMPDEST PUSH1 0x40 MLOAD PUSH2 0x34B SWAP2 SWAP1 PUSH2 0x176D JUMP JUMPDEST PUSH1 0x40 MLOAD DUP1 SWAP2 SUB SWAP1 RETURN JUMPDEST PUSH2 0x35C PUSH2 0xC18 JUMP JUMPDEST PUSH1 0x40 MLOAD PUSH2 0x369 SWAP2 SWAP1 PUSH2 0x16C4 JUMP JUMPDEST PUSH1 0x40 MLOAD DUP1 SWAP2 SUB SWAP1 RETURN JUMPDEST PUSH2 0x38C PUSH1 0x4 DUP1 CALLDATASIZE SUB DUP2 ADD SWAP1 PUSH2 0x387 SWAP2 SWAP1 PUSH2 0x1788 JUMP JUMPDEST PUSH2 0xCA6 JUMP JUMPDEST PUSH1 0x40 MLOAD PUSH2 0x399 SWAP2 SWAP1 PUSH2 0x176D JUMP JUMPDEST PUSH1 0x40 MLOAD DUP1 SWAP2 SUB SWAP1 RETURN JUMPDEST PUSH2 0x3AA PUSH2 0xCC6 JUMP JUMPDEST PUSH1 0x40 MLOAD PUSH2 0x3B7 SWAP2 SWAP1 PUSH2 0x16C4 JUMP JUMPDEST PUSH1 0x40 MLOAD DUP1 SWAP2 SUB SWAP1 RETURN JUMPDEST PUSH2 0x3DA PUSH1 0x4 DUP1 CALLDATASIZE SUB DUP2 ADD SWAP1 PUSH2 0x3D5 SWAP2 SWAP1 PUSH2 0x15B7 JUMP JUMPDEST PUSH2 0xD54 JUMP JUMPDEST PUSH1 0x40 MLOAD PUSH2 0x3E7 SWAP2 SWAP1 PUSH2 0x1610 JUMP JUMPDEST PUSH1 0x40 MLOAD DUP1 SWAP2 SUB SWAP1 RETURN JUMPDEST PUSH2 0x40A PUSH1 0x4 DUP1 CALLDATASIZE SUB DUP2 ADD SWAP1 PUSH2 0x405 SWAP2 SWAP1 PUSH2 0x1788 JUMP JUMPDEST PUSH2 0xDDB JUMP JUMPDEST STOP JUMPDEST PUSH2 0x414 PUSH2 0xFBE JUMP JUMPDEST PUSH1 0x40 MLOAD PUSH2 0x421 SWAP2 SWAP1 PUSH2 0x176D JUMP JUMPDEST PUSH1 0x40 MLOAD DUP1 SWAP2 SUB SWAP1 RETURN JUMPDEST PUSH1 0x2 PUSH1 0x20 MSTORE DUP2 PUSH1 0x0 MSTORE PUSH1 0x40 PUSH1 0x0 KECCAK256 PUSH1 0x20 MSTORE DUP1 PUSH1 0x0 MSTORE PUSH1 0x40 PUSH1 0x0 KECCAK256 PUSH1 0x0 SWAP2 POP SWAP2 POP POP SLOAD DUP2 JUMP JUMPDEST PUSH1 0x60 PUSH1 0x4 DUP1 SLOAD PUSH2 0x45E SWAP1 PUSH2 0x1898 JUMP JUMPDEST DUP1 PUSH1 0x1F ADD PUSH1 0x20 DUP1 SWAP2 DIV MUL PUSH1 0x20 ADD PUSH1 0x40 MLOAD SWAP1 DUP2 ADD PUSH1 0x40 MSTORE DUP1 SWAP3 SWAP2 SWAP1 DUP2 DUP2 MSTORE PUSH1 0x20 ADD DUP3 DUP1 SLOAD PUSH2 0x48A SWAP1 PUSH2 0x1898 JUMP JUMPDEST DUP1 ISZERO PUSH2 0x4D7 JUMPI DUP1 PUSH1 0x1F LT PUSH2 0x4AC JUMPI PUSH2 0x100 DUP1 DUP4 SLOAD DIV MUL DUP4 MSTORE SWAP2 PUSH1 0x20 ADD SWAP2 PUSH2 0x4D7 JUMP JUMPDEST DUP3 ADD SWAP2 SWAP1 PUSH1 0x0 MSTORE PUSH1 0x20 PUSH1 0x0 KECCAK256 SWAP1 JUMPDEST DUP2 SLOAD DUP2 MSTORE SWAP1 PUSH1 0x1 ADD SWAP1 PUSH1 0x20 ADD DUP1 DUP4 GT PUSH2 0x4BA JUMPI DUP3 SWAP1 SUB PUSH1 0x1F AND DUP3 ADD SWAP2 JUMPDEST POP POP POP POP POP SWAP1 POP SWAP1 JUMP JUMPDEST PUSH1 0x0 DUP1 PUSH1 0x2 PUSH1 0x0 CALLER PUSH20 0xFFFFFFFFFFFFFFFFFFFFFFFFFFFFFFFFFFFFFFFF AND PUSH20 0xFFFFFFFFFFFFFFFFFFFFFFFFFFFFFFFFFFFFFFFF AND DUP2 MSTORE PUSH1 0x20 ADD SWAP1 DUP2 MSTORE PUSH1 0x20 ADD PUSH1 0x0 KECCAK256 PUSH1 0x0 DUP6 PUSH20 0xFFFFFFFFFFFFFFFFFFFFFFFFFFFFFFFFFFFFFFFF AND PUSH20 0xFFFFFFFFFFFFFFFFFFFFFFFFFFFFFFFFFFFFFFFF AND DUP2 MSTORE PUSH1 0x20 ADD SWAP1 DUP2 MSTORE PUSH1 0x20 ADD PUSH1 0x0 KECCAK256 SLOAD SWAP1 POP DUP3 PUSH1 0x1 PUSH1 0x0 CALLER PUSH20 0xFFFFFFFFFFFFFFFFFFFFFFFFFFFFFFFFFFFFFFFF AND PUSH20 0xFFFFFFFFFFFFFFFFFFFFFFFFFFFFFFFFFFFFFFFF AND DUP2 MSTORE PUSH1 0x20 ADD SWAP1 DUP2 MSTORE PUSH1 0x20 ADD PUSH1 0x0 KECCAK256 SLOAD LT ISZERO PUSH2 0x5E5 JUMPI PUSH1 0x40 MLOAD PUSH32 0x8C379A000000000000000000000000000000000000000000000000000000000 DUP2 MSTORE PUSH1 0x4 ADD PUSH2 0x5DC SWAP1 PUSH2 0x1961 JUMP JUMPDEST PUSH1 0x40 MLOAD DUP1 SWAP2 SUB SWAP1 REVERT JUMPDEST PUSH2 0x5F1 CALLER DUP6 DUP4 DUP7 PUSH2 0xFD1 JUMP JUMPDEST PUSH1 0x1 SWAP2 POP POP SWAP3 SWAP2 POP POP JUMP JUMPDEST PUSH1 0x0 DUP1 SLOAD SWAP1 PUSH2 0x100 EXP SWAP1 DIV PUSH20 0xFFFFFFFFFFFFFFFFFFFFFFFFFFFFFFFFFFFFFFFF AND PUSH20 0xFFFFFFFFFFFFFFFFFFFFFFFFFFFFFFFFFFFFFFFF AND CALLER PUSH20 0xFFFFFFFFFFFFFFFFFFFFFFFFFFFFFFFFFFFFFFFF AND EQ PUSH2 0x68A JUMPI PUSH1 0x40 MLOAD PUSH32 0x8C379A000000000000000000000000000000000000000000000000000000000 DUP2 MSTORE PUSH1 0x4 ADD PUSH2 0x681 SWAP1 PUSH2 0x19CD JUMP JUMPDEST PUSH1 0x40 MLOAD DUP1 SWAP2 SUB SWAP1 REVERT JUMPDEST PUSH1 0x1 ISZERO ISZERO PUSH1 0x7 PUSH1 0x0 DUP4 PUSH20 0xFFFFFFFFFFFFFFFFFFFFFFFFFFFFFFFFFFFFFFFF AND PUSH20 0xFFFFFFFFFFFFFFFFFFFFFFFFFFFFFFFFFFFFFFFF AND DUP2 MSTORE PUSH1 0x20 ADD SWAP1 DUP2 MSTORE PUSH1 0x20 ADD PUSH1 0x0 KECCAK256 PUSH1 0x0 SWAP1 SLOAD SWAP1 PUSH2 0x100 EXP SWAP1 DIV PUSH1 0xFF AND ISZERO ISZERO EQ PUSH2 0x6E7 JUMPI PUSH1 0x0 DUP1 REVERT JUMPDEST PUSH1 0x0 PUSH1 0x7 PUSH1 0x0 DUP4 PUSH20 0xFFFFFFFFFFFFFFFFFFFFFFFFFFFFFFFFFFFFFFFF AND PUSH20 0xFFFFFFFFFFFFFFFFFFFFFFFFFFFFFFFFFFFFFFFF AND DUP2 MSTORE PUSH1 0x20 ADD SWAP1 DUP2 MSTORE PUSH1 0x20 ADD PUSH1 0x0 KECCAK256 PUSH1 0x0 PUSH2 0x100 EXP DUP2 SLOAD DUP2 PUSH1 0xFF MUL NOT AND SWAP1 DUP4 ISZERO ISZERO MUL OR SWAP1 SSTORE POP POP JUMP JUMPDEST PUSH1 0x0 PUSH1 0x3 SLOAD SWAP1 POP SWAP1 JUMP JUMPDEST PUSH1 0x0 PUSH2 0x759 DUP5 DUP5 DUP5 PUSH2 0x125B JUMP JUMPDEST DUP3 PUSH20 0xFFFFFFFFFFFFFFFFFFFFFFFFFFFFFFFFFFFFFFFF AND DUP5 PUSH20 0xFFFFFFFFFFFFFFFFFFFFFFFFFFFFFFFFFFFFFFFF AND CALLER PUSH20 0xFFFFFFFFFFFFFFFFFFFFFFFFFFFFFFFFFFFFFFFF AND PUSH32 0xD1398BEE19313D6BF672CCB116E51F4A1A947E91C757907F51FBB5B5E56C698F DUP6 PUSH1 0x40 MLOAD PUSH2 0x7CD SWAP2 SWAP1 PUSH2 0x1610 JUMP JUMPDEST PUSH1 0x40 MLOAD DUP1 SWAP2 SUB SWAP1 LOG4 PUSH1 0x0 PUSH1 0x2 PUSH1 0x0 DUP7 PUSH20 0xFFFFFFFFFFFFFFFFFFFFFFFFFFFFFFFFFFFFFFFF AND PUSH20 0xFFFFFFFFFFFFFFFFFFFFFFFFFFFFFFFFFFFFFFFF AND DUP2 MSTORE PUSH1 0x20 ADD SWAP1 DUP2 MSTORE PUSH1 0x20 ADD PUSH1 0x0 KECCAK256 PUSH1 0x0 CALLER PUSH20 0xFFFFFFFFFFFFFFFFFFFFFFFFFFFFFFFFFFFFFFFF AND PUSH20 0xFFFFFFFFFFFFFFFFFFFFFFFFFFFFFFFFFFFFFFFF AND DUP2 MSTORE PUSH1 0x20 ADD SWAP1 DUP2 MSTORE PUSH1 0x20 ADD PUSH1 0x0 KECCAK256 SLOAD SWAP1 POP DUP3 DUP2 LT ISZERO PUSH2 0x899 JUMPI PUSH1 0x40 MLOAD PUSH32 0x8C379A000000000000000000000000000000000000000000000000000000000 DUP2 MSTORE PUSH1 0x4 ADD PUSH2 0x890 SWAP1 PUSH2 0x1A5F JUMP JUMPDEST PUSH1 0x40 MLOAD DUP1 SWAP2 SUB SWAP1 REVERT JUMPDEST PUSH2 0x8B0 DUP6 CALLER DUP4 DUP7 DUP6 PUSH2 0x8AB SWAP2 SWAP1 PUSH2 0x1AAE JUMP JUMPDEST PUSH2 0xFD1 JUMP JUMPDEST PUSH1 0x1 SWAP2 POP POP SWAP4 SWAP3 POP POP POP JUMP JUMPDEST PUSH1 0x0 PUSH1 0x6 PUSH1 0x0 SWAP1 SLOAD SWAP1 PUSH2 0x100 EXP SWAP1 DIV PUSH1 0xFF AND SWAP1 POP SWAP1 JUMP JUMPDEST PUSH1 0x6 PUSH1 0x0 SWAP1 SLOAD SWAP1 PUSH2 0x100 EXP SWAP1 DIV PUSH1 0xFF AND DUP2 JUMP JUMPDEST PUSH1 0x3 SLOAD DUP2 JUMP JUMPDEST PUSH1 0x0 PUSH1 0x1 ISZERO ISZERO PUSH1 0x6 PUSH1 0x1 SWAP1 SLOAD SWAP1 PUSH2 0x100 EXP SWAP1 DIV PUSH1 0xFF AND ISZERO ISZERO SUB PUSH2 0x90E JUMPI PUSH1 0x1 SWAP1 POP JUMPDEST PUSH1 0x1 ISZERO ISZERO PUSH1 0x7 PUSH1 0x0 DUP6 PUSH20 0xFFFFFFFFFFFFFFFFFFFFFFFFFFFFFFFFFFFFFFFF AND PUSH20 0xFFFFFFFFFFFFFFFFFFFFFFFFFFFFFFFFFFFFFFFF AND DUP2 MSTORE PUSH1 0x20 ADD SWAP1 DUP2 MSTORE PUSH1 0x20 ADD PUSH1 0x0 KECCAK256 PUSH1 0x0 SWAP1 SLOAD SWAP1 PUSH2 0x100 EXP SWAP1 DIV PUSH1 0xFF AND ISZERO ISZERO EQ DUP1 PUSH2 0x9BD JUMPI POP PUSH1 0x1 ISZERO ISZERO PUSH1 0x7 PUSH1 0x0 DUP5 PUSH20 0xFFFFFFFFFFFFFFFFFFFFFFFFFFFFFFFFFFFFFFFF AND PUSH20 0xFFFFFFFFFFFFFFFFFFFFFFFFFFFFFFFFFFFFFFFF AND DUP2 MSTORE PUSH1 0x20 ADD SWAP1 DUP2 MSTORE PUSH1 0x20 ADD PUSH1 0x0 KECCAK256 PUSH1 0x0 SWAP1 SLOAD SWAP1 PUSH2 0x100 EXP SWAP1 DIV PUSH1 0xFF AND ISZERO ISZERO EQ JUMPDEST ISZERO PUSH2 0x9C7 JUMPI PUSH1 0x1 SWAP1 POP JUMPDEST SWAP3 SWAP2 POP POP JUMP JUMPDEST PUSH1 0x0 DUP1 SLOAD SWAP1 PUSH2 0x100 EXP SWAP1 DIV PUSH20 0xFFFFFFFFFFFFFFFFFFFFFFFFFFFFFFFFFFFFFFFF AND PUSH20 0xFFFFFFFFFFFFFFFFFFFFFFFFFFFFFFFFFFFFFFFF AND CALLER PUSH20 0xFFFFFFFFFFFFFFFFFFFFFFFFFFFFFFFFFFFFFFFF AND EQ PUSH2 0xA5B JUMPI PUSH1 0x40 MLOAD PUSH32 0x8C379A000000000000000000000000000000000000000000000000000000000 DUP2 MSTORE PUSH1 0x4 ADD PUSH2 0xA52 SWAP1 PUSH2 0x19CD JUMP JUMPDEST PUSH1 0x40 MLOAD DUP1 SWAP2 SUB SWAP1 REVERT JUMPDEST PUSH1 0x1 ISZERO ISZERO PUSH1 0x6 PUSH1 0x1 SWAP1 SLOAD SWAP1 PUSH2 0x100 EXP SWAP1 DIV PUSH1 0xFF AND ISZERO ISZERO EQ PUSH2 0xA7B JUMPI PUSH1 0x0 DUP1 REVERT JUMPDEST PUSH1 0x0 PUSH1 0x6 PUSH1 0x1 PUSH2 0x100 EXP DUP2 SLOAD DUP2 PUSH1 0xFF MUL NOT AND SWAP1 DUP4 ISZERO ISZERO MUL OR SWAP1 SSTORE POP JUMP JUMPDEST PUSH1 0x0 PUSH1 0x1 PUSH1 0x0 DUP4 PUSH20 0xFFFFFFFFFFFFFFFFFFFFFFFFFFFFFFFFFFFFFFFF AND PUSH20 0xFFFFFFFFFFFFFFFFFFFFFFFFFFFFFFFFFFFFFFFF AND DUP2 MSTORE PUSH1 0x20 ADD SWAP1 DUP2 MSTORE PUSH1 0x20 ADD PUSH1 0x0 KECCAK256 SLOAD SWAP1 POP SWAP2 SWAP1 POP JUMP JUMPDEST PUSH1 0x0 DUP1 PUSH1 0x0 SWAP1 SLOAD SWAP1 PUSH2 0x100 EXP SWAP1 DIV PUSH20 0xFFFFFFFFFFFFFFFFFFFFFFFFFFFFFFFFFFFFFFFF AND SWAP1 POP SWAP1 JUMP JUMPDEST PUSH1 0x60 PUSH1 0x5 DUP1 SLOAD PUSH2 0xB19 SWAP1 PUSH2 0x1898 JUMP JUMPDEST DUP1 PUSH1 0x1F ADD PUSH1 0x20 DUP1 SWAP2 DIV MUL PUSH1 0x20 ADD PUSH1 0x40 MLOAD SWAP1 DUP2 ADD PUSH1 0x40 MSTORE DUP1 SWAP3 SWAP2 SWAP1 DUP2 DUP2 MSTORE PUSH1 0x20 ADD DUP3 DUP1 SLOAD PUSH2 0xB45 SWAP1 PUSH2 0x1898 JUMP JUMPDEST DUP1 ISZERO PUSH2 0xB92 JUMPI DUP1 PUSH1 0x1F LT PUSH2 0xB67 JUMPI PUSH2 0x100 DUP1 DUP4 SLOAD DIV MUL DUP4 MSTORE SWAP2 PUSH1 0x20 ADD SWAP2 PUSH2 0xB92 JUMP JUMPDEST DUP3 ADD SWAP2 SWAP1 PUSH1 0x0 MSTORE PUSH1 0x20 PUSH1 0x0 KECCAK256 SWAP1 JUMPDEST DUP2 SLOAD DUP2 MSTORE SWAP1 PUSH1 0x1 ADD SWAP1 PUSH1 0x20 ADD DUP1 DUP4 GT PUSH2 0xB75 JUMPI DUP3 SWAP1 SUB PUSH1 0x1F AND DUP3 ADD SWAP2 JUMPDEST POP POP POP POP POP SWAP1 POP SWAP1 JUMP JUMPDEST PUSH1 0x0 PUSH2 0xBA9 CALLER DUP5 DUP5 PUSH2 0x125B JUMP JUMPDEST DUP3 PUSH20 0xFFFFFFFFFFFFFFFFFFFFFFFFFFFFFFFFFFFFFFFF AND CALLER PUSH20 0xFFFFFFFFFFFFFFFFFFFFFFFFFFFFFFFFFFFFFFFF AND PUSH32 0xDDF252AD1BE2C89B69C2B068FC378DAA952BA7F163C4A11628F55A4DF523B3EF DUP5 PUSH1 0x40 MLOAD PUSH2 0xC06 SWAP2 SWAP1 PUSH2 0x1610 JUMP JUMPDEST PUSH1 0x40 MLOAD DUP1 SWAP2 SUB SWAP1 LOG3 PUSH1 0x1 SWAP1 POP SWAP3 SWAP2 POP POP JUMP JUMPDEST PUSH1 0x5 DUP1 SLOAD PUSH2 0xC25 SWAP1 PUSH2 0x1898 JUMP JUMPDEST DUP1 PUSH1 0x1F ADD PUSH1 0x20 DUP1 SWAP2 DIV MUL PUSH1 0x20 ADD PUSH1 0x40 MLOAD SWAP1 DUP2 ADD PUSH1 0x40 MSTORE DUP1 SWAP3 SWAP2 SWAP1 DUP2 DUP2 MSTORE PUSH1 0x20 ADD DUP3 DUP1 SLOAD PUSH2 0xC51 SWAP1 PUSH2 0x1898 JUMP JUMPDEST DUP1 ISZERO PUSH2 0xC9E JUMPI DUP1 PUSH1 0x1F LT PUSH2 0xC73 JUMPI PUSH2 0x100 DUP1 DUP4 SLOAD DIV MUL DUP4 MSTORE SWAP2 PUSH1 0x20 ADD SWAP2 PUSH2 0xC9E JUMP JUMPDEST DUP3 ADD SWAP2 SWAP1 PUSH1 0x0 MSTORE PUSH1 0x20 PUSH1 0x0 KECCAK256 SWAP1 JUMPDEST DUP2 SLOAD DUP2 MSTORE SWAP1 PUSH1 0x1 ADD SWAP1 PUSH1 0x20 ADD DUP1 DUP4 GT PUSH2 0xC81 JUMPI DUP3 SWAP1 SUB PUSH1 0x1F AND DUP3 ADD SWAP2 JUMPDEST POP POP POP POP POP DUP2 JUMP JUMPDEST PUSH1 0x7 PUSH1 0x20 MSTORE DUP1 PUSH1 0x0 MSTORE PUSH1 0x40 PUSH1 0x0 KECCAK256 PUSH1 0x0 SWAP2 POP SLOAD SWAP1 PUSH2 0x100 EXP SWAP1 DIV PUSH1 0xFF AND DUP2 JUMP JUMPDEST PUSH1 0x4 DUP1 SLOAD PUSH2 0xCD3 SWAP1 PUSH2 0x1898 JUMP JUMPDEST DUP1 PUSH1 0x1F ADD PUSH1 0x20 DUP1 SWAP2 DIV MUL PUSH1 0x20 ADD PUSH1 0x40 MLOAD SWAP1 DUP2 ADD PUSH1 0x40 MSTORE DUP1 SWAP3 SWAP2 SWAP1 DUP2 DUP2 MSTORE PUSH1 0x20 ADD DUP3 DUP1 SLOAD PUSH2 0xCFF SWAP1 PUSH2 0x1898 JUMP JUMPDEST DUP1 ISZERO PUSH2 0xD4C JUMPI DUP1 PUSH1 0x1F LT PUSH2 0xD21 JUMPI PUSH2 0x100 DUP1 DUP4 SLOAD DIV MUL DUP4 MSTORE SWAP2 PUSH1 0x20 ADD SWAP2 PUSH2 0xD4C JUMP JUMPDEST DUP3 ADD SWAP2 SWAP1 PUSH1 0x0 MSTORE PUSH1 0x20 PUSH1 0x0 KECCAK256 SWAP1 JUMPDEST DUP2 SLOAD DUP2 MSTORE SWAP1 PUSH1 0x1 ADD SWAP1 PUSH1 0x20 ADD DUP1 DUP4 GT PUSH2 0xD2F JUMPI DUP3 SWAP1 SUB PUSH1 0x1F AND DUP3 ADD SWAP2 JUMPDEST POP POP POP POP POP DUP2 JUMP JUMPDEST PUSH1 0x0 PUSH1 0x2 PUSH1 0x0 DUP5 PUSH20 0xFFFFFFFFFFFFFFFFFFFFFFFFFFFFFFFFFFFFFFFF AND PUSH20 0xFFFFFFFFFFFFFFFFFFFFFFFFFFFFFFFFFFFFFFFF AND DUP2 MSTORE PUSH1 0x20 ADD SWAP1 DUP2 MSTORE PUSH1 0x20 ADD PUSH1 0x0 KECCAK256 PUSH1 0x0 DUP4 PUSH20 0xFFFFFFFFFFFFFFFFFFFFFFFFFFFFFFFFFFFFFFFF AND PUSH20 0xFFFFFFFFFFFFFFFFFFFFFFFFFFFFFFFFFFFFFFFF AND DUP2 MSTORE PUSH1 0x20 ADD SWAP1 DUP2 MSTORE PUSH1 0x20 ADD PUSH1 0x0 KECCAK256 SLOAD SWAP1 POP SWAP3 SWAP2 POP POP JUMP JUMPDEST PUSH1 0x0 DUP1 SLOAD SWAP1 PUSH2 0x100 EXP SWAP1 DIV PUSH20 0xFFFFFFFFFFFFFFFFFFFFFFFFFFFFFFFFFFFFFFFF AND PUSH20 0xFFFFFFFFFFFFFFFFFFFFFFFFFFFFFFFFFFFFFFFF AND CALLER PUSH20 0xFFFFFFFFFFFFFFFFFFFFFFFFFFFFFFFFFFFFFFFF AND EQ PUSH2 0xE69 JUMPI PUSH1 0x40 MLOAD PUSH32 0x8C379A000000000000000000000000000000000000000000000000000000000 DUP2 MSTORE PUSH1 0x4 ADD PUSH2 0xE60 SWAP1 PUSH2 0x19CD JUMP JUMPDEST PUSH1 0x40 MLOAD DUP1 SWAP2 SUB SWAP1 REVERT JUMPDEST PUSH1 0x0 DUP1 SLOAD SWAP1 PUSH2 0x100 EXP SWAP1 DIV PUSH20 0xFFFFFFFFFFFFFFFFFFFFFFFFFFFFFFFFFFFFFFFF AND PUSH20 0xFFFFFFFFFFFFFFFFFFFFFFFFFFFFFFFFFFFFFFFF AND DUP2 PUSH20 0xFFFFFFFFFFFFFFFFFFFFFFFFFFFFFFFFFFFFFFFF AND SUB PUSH2 0xEC1 JUMPI PUSH1 0x0 DUP1 REVERT JUMPDEST PUSH1 0x0 PUSH20 0xFFFFFFFFFFFFFFFFFFFFFFFFFFFFFFFFFFFFFFFF AND DUP2 PUSH20 0xFFFFFFFFFFFFFFFFFFFFFFFFFFFFFFFFFFFFFFFF AND SUB PUSH2 0xEFA JUMPI PUSH1 0x0 DUP1 REVERT JUMPDEST PUSH1 0x0 DUP1 PUSH1 0x0 SWAP1 SLOAD SWAP1 PUSH2 0x100 EXP SWAP1 DIV PUSH20 0xFFFFFFFFFFFFFFFFFFFFFFFFFFFFFFFFFFFFFFFF AND SWAP1 POP DUP2 PUSH1 0x0 DUP1 PUSH2 0x100 EXP DUP2 SLOAD DUP2 PUSH20 0xFFFFFFFFFFFFFFFFFFFFFFFFFFFFFFFFFFFFFFFF MUL NOT AND SWAP1 DUP4 PUSH20 0xFFFFFFFFFFFFFFFFFFFFFFFFFFFFFFFFFFFFFFFF AND MUL OR SWAP1 SSTORE POP DUP2 PUSH20 0xFFFFFFFFFFFFFFFFFFFFFFFFFFFFFFFFFFFFFFFF AND DUP2 PUSH20 0xFFFFFFFFFFFFFFFFFFFFFFFFFFFFFFFFFFFFFFFF AND PUSH32 0x8BE0079C531659141344CD1FD0A4F28419497F9722A3DAAFE3B4186F6B6457E0 PUSH1 0x40 MLOAD PUSH1 0x40 MLOAD DUP1 SWAP2 SUB SWAP1 LOG3 POP POP JUMP JUMPDEST PUSH1 0x6 PUSH1 0x1 SWAP1 SLOAD SWAP1 PUSH2 0x100 EXP SWAP1 DIV PUSH1 0xFF AND DUP2 JUMP JUMPDEST PUSH1 0x0 PUSH20 0xFFFFFFFFFFFFFFFFFFFFFFFFFFFFFFFFFFFFFFFF AND DUP5 PUSH20 0xFFFFFFFFFFFFFFFFFFFFFFFFFFFFFFFFFFFFFFFF AND SUB PUSH2 0x1040 JUMPI PUSH1 0x40 MLOAD PUSH32 0x8C379A000000000000000000000000000000000000000000000000000000000 DUP2 MSTORE PUSH1 0x4 ADD PUSH2 0x1037 SWAP1 PUSH2 0x1B54 JUMP JUMPDEST PUSH1 0x40 MLOAD DUP1 SWAP2 SUB SWAP1 REVERT JUMPDEST PUSH1 0x0 PUSH20 0xFFFFFFFFFFFFFFFFFFFFFFFFFFFFFFFFFFFFFFFF AND DUP4 PUSH20 0xFFFFFFFFFFFFFFFFFFFFFFFFFFFFFFFFFFFFFFFF AND SUB PUSH2 0x10AF JUMPI PUSH1 0x40 MLOAD PUSH32 0x8C379A000000000000000000000000000000000000000000000000000000000 DUP2 MSTORE PUSH1 0x4 ADD PUSH2 0x10A6 SWAP1 PUSH2 0x1BE6 JUMP JUMPDEST PUSH1 0x40 MLOAD DUP1 SWAP2 SUB SWAP1 REVERT JUMPDEST PUSH1 0x2 PUSH1 0x0 DUP6 PUSH20 0xFFFFFFFFFFFFFFFFFFFFFFFFFFFFFFFFFFFFFFFF AND PUSH20 0xFFFFFFFFFFFFFFFFFFFFFFFFFFFFFFFFFFFFFFFF AND DUP2 MSTORE PUSH1 0x20 ADD SWAP1 DUP2 MSTORE PUSH1 0x20 ADD PUSH1 0x0 KECCAK256 PUSH1 0x0 DUP5 PUSH20 0xFFFFFFFFFFFFFFFFFFFFFFFFFFFFFFFFFFFFFFFF AND PUSH20 0xFFFFFFFFFFFFFFFFFFFFFFFFFFFFFFFFFFFFFFFF AND DUP2 MSTORE PUSH1 0x20 ADD SWAP1 DUP2 MSTORE PUSH1 0x20 ADD PUSH1 0x0 KECCAK256 SLOAD DUP3 EQ PUSH2 0x116D JUMPI PUSH1 0x40 MLOAD PUSH32 0x8C379A000000000000000000000000000000000000000000000000000000000 DUP2 MSTORE PUSH1 0x4 ADD PUSH2 0x1164 SWAP1 PUSH2 0x1C52 JUMP JUMPDEST PUSH1 0x40 MLOAD DUP1 SWAP2 SUB SWAP1 REVERT JUMPDEST DUP1 PUSH1 0x2 PUSH1 0x0 DUP7 PUSH20 0xFFFFFFFFFFFFFFFFFFFFFFFFFFFFFFFFFFFFFFFF AND PUSH20 0xFFFFFFFFFFFFFFFFFFFFFFFFFFFFFFFFFFFFFFFF AND DUP2 MSTORE PUSH1 0x20 ADD SWAP1 DUP2 MSTORE PUSH1 0x20 ADD PUSH1 0x0 KECCAK256 PUSH1 0x0 DUP6 PUSH20 0xFFFFFFFFFFFFFFFFFFFFFFFFFFFFFFFFFFFFFFFF AND PUSH20 0xFFFFFFFFFFFFFFFFFFFFFFFFFFFFFFFFFFFFFFFF AND DUP2 MSTORE PUSH1 0x20 ADD SWAP1 DUP2 MSTORE PUSH1 0x20 ADD PUSH1 0x0 KECCAK256 DUP2 SWAP1 SSTORE POP DUP3 PUSH20 0xFFFFFFFFFFFFFFFFFFFFFFFFFFFFFFFFFFFFFFFF AND DUP5 PUSH20 0xFFFFFFFFFFFFFFFFFFFFFFFFFFFFFFFFFFFFFFFF AND PUSH32 0xB3FD5071835887567A0671151121894DDCCC2842F1D10BEDAD13E0D17CACE9A7 DUP5 DUP5 PUSH1 0x40 MLOAD PUSH2 0x124D SWAP3 SWAP2 SWAP1 PUSH2 0x1C72 JUMP JUMPDEST PUSH1 0x40 MLOAD DUP1 SWAP2 SUB SWAP1 LOG3 POP POP POP POP JUMP JUMPDEST PUSH1 0x0 PUSH20 0xFFFFFFFFFFFFFFFFFFFFFFFFFFFFFFFFFFFFFFFF AND DUP4 PUSH20 0xFFFFFFFFFFFFFFFFFFFFFFFFFFFFFFFFFFFFFFFF AND SUB PUSH2 0x12CA JUMPI PUSH1 0x40 MLOAD PUSH32 0x8C379A000000000000000000000000000000000000000000000000000000000 DUP2 MSTORE PUSH1 0x4 ADD PUSH2 0x12C1 SWAP1 PUSH2 0x1D0D JUMP JUMPDEST PUSH1 0x40 MLOAD DUP1 SWAP2 SUB SWAP1 REVERT JUMPDEST PUSH1 0x0 PUSH20 0xFFFFFFFFFFFFFFFFFFFFFFFFFFFFFFFFFFFFFFFF AND DUP3 PUSH20 0xFFFFFFFFFFFFFFFFFFFFFFFFFFFFFFFFFFFFFFFF AND SUB PUSH2 0x1339 JUMPI PUSH1 0x40 MLOAD PUSH32 0x8C379A000000000000000000000000000000000000000000000000000000000 DUP2 MSTORE PUSH1 0x4 ADD PUSH2 0x1330 SWAP1 PUSH2 0x1D9F JUMP JUMPDEST PUSH1 0x40 MLOAD DUP1 SWAP2 SUB SWAP1 REVERT JUMPDEST PUSH1 0x0 ISZERO ISZERO PUSH2 0x1347 DUP5 DUP5 PUSH2 0x8EC JUMP JUMPDEST ISZERO ISZERO EQ PUSH2 0x1389 JUMPI PUSH1 0x40 MLOAD PUSH32 0x8C379A000000000000000000000000000000000000000000000000000000000 DUP2 MSTORE PUSH1 0x4 ADD PUSH2 0x1380 SWAP1 PUSH2 0x1E31 JUMP JUMPDEST PUSH1 0x40 MLOAD DUP1 SWAP2 SUB SWAP1 REVERT JUMPDEST PUSH1 0x0 PUSH1 0x1 PUSH1 0x0 DUP6 PUSH20 0xFFFFFFFFFFFFFFFFFFFFFFFFFFFFFFFFFFFFFFFF AND PUSH20 0xFFFFFFFFFFFFFFFFFFFFFFFFFFFFFFFFFFFFFFFF AND DUP2 MSTORE PUSH1 0x20 ADD SWAP1 DUP2 MSTORE PUSH1 0x20 ADD PUSH1 0x0 KECCAK256 SLOAD SWAP1 POP DUP2 DUP2 LT ISZERO PUSH2 0x1410 JUMPI PUSH1 0x40 MLOAD PUSH32 0x8C379A000000000000000000000000000000000000000000000000000000000 DUP2 MSTORE PUSH1 0x4 ADD PUSH2 0x1407 SWAP1 PUSH2 0x1EC3 JUMP JUMPDEST PUSH1 0x40 MLOAD DUP1 SWAP2 SUB SWAP1 REVERT JUMPDEST PUSH2 0x1423 DUP3 DUP3 PUSH2 0x1501 SWAP1 SWAP2 SWAP1 PUSH4 0xFFFFFFFF AND JUMP JUMPDEST PUSH1 0x1 PUSH1 0x0 DUP7 PUSH20 0xFFFFFFFFFFFFFFFFFFFFFFFFFFFFFFFFFFFFFFFF AND PUSH20 0xFFFFFFFFFFFFFFFFFFFFFFFFFFFFFFFFFFFFFFFF AND DUP2 MSTORE PUSH1 0x20 ADD SWAP1 DUP2 MSTORE PUSH1 0x20 ADD PUSH1 0x0 KECCAK256 DUP2 SWAP1 SSTORE POP PUSH2 0x14B8 DUP3 PUSH1 0x1 PUSH1 0x0 DUP7 PUSH20 0xFFFFFFFFFFFFFFFFFFFFFFFFFFFFFFFFFFFFFFFF AND PUSH20 0xFFFFFFFFFFFFFFFFFFFFFFFFFFFFFFFFFFFFFFFF AND DUP2 MSTORE PUSH1 0x20 ADD SWAP1 DUP2 MSTORE PUSH1 0x20 ADD PUSH1 0x0 KECCAK256 SLOAD PUSH2 0x1528 SWAP1 SWAP2 SWAP1 PUSH4 0xFFFFFFFF AND JUMP JUMPDEST PUSH1 0x1 PUSH1 0x0 DUP6 PUSH20 0xFFFFFFFFFFFFFFFFFFFFFFFFFFFFFFFFFFFFFFFF AND PUSH20 0xFFFFFFFFFFFFFFFFFFFFFFFFFFFFFFFFFFFFFFFF AND DUP2 MSTORE PUSH1 0x20 ADD SWAP1 DUP2 MSTORE PUSH1 0x20 ADD PUSH1 0x0 KECCAK256 DUP2 SWAP1 SSTORE POP POP POP POP POP JUMP JUMPDEST PUSH1 0x0 DUP3 DUP3 GT ISZERO PUSH2 0x1514 JUMPI PUSH2 0x1513 PUSH2 0x1EE3 JUMP JUMPDEST JUMPDEST DUP2 DUP4 PUSH2 0x1520 SWAP2 SWAP1 PUSH2 0x1AAE JUMP JUMPDEST SWAP1 POP SWAP3 SWAP2 POP POP JUMP JUMPDEST PUSH1 0x0 DUP1 DUP3 DUP5 PUSH2 0x1537 SWAP2 SWAP1 PUSH2 0x1F12 JUMP JUMPDEST SWAP1 POP DUP4 DUP2 LT ISZERO PUSH2 0x154A JUMPI PUSH2 0x1549 PUSH2 0x1EE3 JUMP JUMPDEST JUMPDEST DUP1 SWAP2 POP POP SWAP3 SWAP2 POP POP JUMP JUMPDEST PUSH1 0x0 DUP1 REVERT JUMPDEST PUSH1 0x0 PUSH20 0xFFFFFFFFFFFFFFFFFFFFFFFFFFFFFFFFFFFFFFFF DUP3 AND SWAP1 POP SWAP2 SWAP1 POP JUMP JUMPDEST PUSH1 0x0 PUSH2 0x1584 DUP3 PUSH2 0x1559 JUMP JUMPDEST SWAP1 POP SWAP2 SWAP1 POP JUMP JUMPDEST PUSH2 0x1594 DUP2 PUSH2 0x1579 JUMP JUMPDEST DUP2 EQ PUSH2 0x159F JUMPI PUSH1 0x0 DUP1 REVERT JUMPDEST POP JUMP JUMPDEST PUSH1 0x0 DUP2 CALLDATALOAD SWAP1 POP PUSH2 0x15B1 DUP2 PUSH2 0x158B JUMP JUMPDEST SWAP3 SWAP2 POP POP JUMP JUMPDEST PUSH1 0x0 DUP1 PUSH1 0x40 DUP4 DUP6 SUB SLT ISZERO PUSH2 0x15CE JUMPI PUSH2 0x15CD PUSH2 0x1554 JUMP JUMPDEST JUMPDEST PUSH1 0x0 PUSH2 0x15DC DUP6 DUP3 DUP7 ADD PUSH2 0x15A2 JUMP JUMPDEST SWAP3 POP POP PUSH1 0x20 PUSH2 0x15ED DUP6 DUP3 DUP7 ADD PUSH2 0x15A2 JUMP JUMPDEST SWAP2 POP POP SWAP3 POP SWAP3 SWAP1 POP JUMP JUMPDEST PUSH1 0x0 DUP2 SWAP1 POP SWAP2 SWAP1 POP JUMP JUMPDEST PUSH2 0x160A DUP2 PUSH2 0x15F7 JUMP JUMPDEST DUP3 MSTORE POP POP JUMP JUMPDEST PUSH1 0x0 PUSH1 0x20 DUP3 ADD SWAP1 POP PUSH2 0x1625 PUSH1 0x0 DUP4 ADD DUP5 PUSH2 0x1601 JUMP JUMPDEST SWAP3 SWAP2 POP POP JUMP JUMPDEST PUSH1 0x0 DUP2 MLOAD SWAP1 POP SWAP2 SWAP1 POP JUMP JUMPDEST PUSH1 0x0 DUP3 DUP3 MSTORE PUSH1 0x20 DUP3 ADD SWAP1 POP SWAP3 SWAP2 POP POP JUMP JUMPDEST PUSH1 0x0 JUMPDEST DUP4 DUP2 LT ISZERO PUSH2 0x1665 JUMPI DUP1 DUP3 ADD MLOAD DUP2 DUP5 ADD MSTORE PUSH1 0x20 DUP2 ADD SWAP1 POP PUSH2 0x164A JUMP JUMPDEST DUP4 DUP2 GT ISZERO PUSH2 0x1674 JUMPI PUSH1 0x0 DUP5 DUP5 ADD MSTORE JUMPDEST POP POP POP POP JUMP JUMPDEST PUSH1 0x0 PUSH1 0x1F NOT PUSH1 0x1F DUP4 ADD AND SWAP1 POP SWAP2 SWAP1 POP JUMP JUMPDEST PUSH1 0x0 PUSH2 0x1696 DUP3 PUSH2 0x162B JUMP JUMPDEST PUSH2 0x16A0 DUP2 DUP6 PUSH2 0x1636 JUMP JUMPDEST SWAP4 POP PUSH2 0x16B0 DUP2 DUP6 PUSH1 0x20 DUP7 ADD PUSH2 0x1647 JUMP JUMPDEST PUSH2 0x16B9 DUP2 PUSH2 0x167A JUMP JUMPDEST DUP5 ADD SWAP2 POP POP SWAP3 SWAP2 POP POP JUMP JUMPDEST PUSH1 0x0 PUSH1 0x20 DUP3 ADD SWAP1 POP DUP2 DUP2 SUB PUSH1 0x0 DUP4 ADD MSTORE PUSH2 0x16DE DUP2 DUP5 PUSH2 0x168B JUMP JUMPDEST SWAP1 POP SWAP3 SWAP2 POP POP JUMP JUMPDEST PUSH2 0x16EF DUP2 PUSH2 0x15F7 JUMP JUMPDEST DUP2 EQ PUSH2 0x16FA JUMPI PUSH1 0x0 DUP1 REVERT JUMPDEST POP JUMP JUMPDEST PUSH1 0x0 DUP2 CALLDATALOAD SWAP1 POP PUSH2 0x170C DUP2 PUSH2 0x16E6 JUMP JUMPDEST SWAP3 SWAP2 POP POP JUMP JUMPDEST PUSH1 0x0 DUP1 PUSH1 0x40 DUP4 DUP6 SUB SLT ISZERO PUSH2 0x1729 JUMPI PUSH2 0x1728 PUSH2 0x1554 JUMP JUMPDEST JUMPDEST PUSH1 0x0 PUSH2 0x1737 DUP6 DUP3 DUP7 ADD PUSH2 0x15A2 JUMP JUMPDEST SWAP3 POP POP PUSH1 0x20 PUSH2 0x1748 DUP6 DUP3 DUP7 ADD PUSH2 0x16FD JUMP JUMPDEST SWAP2 POP POP SWAP3 POP SWAP3 SWAP1 POP JUMP JUMPDEST PUSH1 0x0 DUP2 ISZERO ISZERO SWAP1 POP SWAP2 SWAP1 POP JUMP JUMPDEST PUSH2 0x1767 DUP2 PUSH2 0x1752 JUMP JUMPDEST DUP3 MSTORE POP POP JUMP JUMPDEST PUSH1 0x0 PUSH1 0x20 DUP3 ADD SWAP1 POP PUSH2 0x1782 PUSH1 0x0 DUP4 ADD DUP5 PUSH2 0x175E JUMP JUMPDEST SWAP3 SWAP2 POP POP JUMP JUMPDEST PUSH1 0x0 PUSH1 0x20 DUP3 DUP5 SUB SLT ISZERO PUSH2 0x179E JUMPI PUSH2 0x179D PUSH2 0x1554 JUMP JUMPDEST JUMPDEST PUSH1 0x0 PUSH2 0x17AC DUP5 DUP3 DUP6 ADD PUSH2 0x15A2 JUMP JUMPDEST SWAP2 POP POP SWAP3 SWAP2 POP POP JUMP JUMPDEST PUSH1 0x0 DUP1 PUSH1 0x0 PUSH1 0x60 DUP5 DUP7 SUB SLT ISZERO PUSH2 0x17CE JUMPI PUSH2 0x17CD PUSH2 0x1554 JUMP JUMPDEST JUMPDEST PUSH1 0x0 PUSH2 0x17DC DUP7 DUP3 DUP8 ADD PUSH2 0x15A2 JUMP JUMPDEST SWAP4 POP POP PUSH1 0x20 PUSH2 0x17ED DUP7 DUP3 DUP8 ADD PUSH2 0x15A2 JUMP JUMPDEST SWAP3 POP POP PUSH1 0x40 PUSH2 0x17FE DUP7 DUP3 DUP8 ADD PUSH2 0x16FD JUMP JUMPDEST SWAP2 POP POP SWAP3 POP SWAP3 POP SWAP3 JUMP JUMPDEST PUSH1 0x0 PUSH1 0xFF DUP3 AND SWAP1 POP SWAP2 SWAP1 POP JUMP JUMPDEST PUSH2 0x181E DUP2 PUSH2 0x1808 JUMP JUMPDEST DUP3 MSTORE POP POP JUMP JUMPDEST PUSH1 0x0 PUSH1 0x20 DUP3 ADD SWAP1 POP PUSH2 0x1839 PUSH1 0x0 DUP4 ADD DUP5 PUSH2 0x1815 JUMP JUMPDEST SWAP3 SWAP2 POP POP JUMP JUMPDEST PUSH2 0x1848 DUP2 PUSH2 0x1579 JUMP JUMPDEST DUP3 MSTORE POP POP JUMP JUMPDEST PUSH1 0x0 PUSH1 0x20 DUP3 ADD SWAP1 POP PUSH2 0x1863 PUSH1 0x0 DUP4 ADD DUP5 PUSH2 0x183F JUMP JUMPDEST SWAP3 SWAP2 POP POP JUMP JUMPDEST PUSH32 0x4E487B7100000000000000000000000000000000000000000000000000000000 PUSH1 0x0 MSTORE PUSH1 0x22 PUSH1 0x4 MSTORE PUSH1 0x24 PUSH1 0x0 REVERT JUMPDEST PUSH1 0x0 PUSH1 0x2 DUP3 DIV SWAP1 POP PUSH1 0x1 DUP3 AND DUP1 PUSH2 0x18B0 JUMPI PUSH1 0x7F DUP3 AND SWAP2 POP JUMPDEST PUSH1 0x20 DUP3 LT DUP2 SUB PUSH2 0x18C3 JUMPI PUSH2 0x18C2 PUSH2 0x1869 JUMP JUMPDEST JUMPDEST POP SWAP2 SWAP1 POP JUMP JUMPDEST PUSH32 0x45524332303A2054686520616D6F756E7420746F206265207472616E73666572 PUSH1 0x0 DUP3 ADD MSTORE PUSH32 0x72656420657863656564732074686520616D6F756E74206F6620746F6B656E73 PUSH1 0x20 DUP3 ADD MSTORE PUSH32 0x2068656C6420627920746865206F776E65722E00000000000000000000000000 PUSH1 0x40 DUP3 ADD MSTORE POP JUMP JUMPDEST PUSH1 0x0 PUSH2 0x194B PUSH1 0x53 DUP4 PUSH2 0x1636 JUMP JUMPDEST SWAP2 POP PUSH2 0x1956 DUP3 PUSH2 0x18C9 JUMP JUMPDEST PUSH1 0x60 DUP3 ADD SWAP1 POP SWAP2 SWAP1 POP JUMP JUMPDEST PUSH1 0x0 PUSH1 0x20 DUP3 ADD SWAP1 POP DUP2 DUP2 SUB PUSH1 0x0 DUP4 ADD MSTORE PUSH2 0x197A DUP2 PUSH2 0x193E JUMP JUMPDEST SWAP1 POP SWAP2 SWAP1 POP JUMP JUMPDEST PUSH32 0x4F776E657248656C7065723A2063616C6C6572206973206E6F74206F776E6572 PUSH1 0x0 DUP3 ADD MSTORE POP JUMP JUMPDEST PUSH1 0x0 PUSH2 0x19B7 PUSH1 0x20 DUP4 PUSH2 0x1636 JUMP JUMPDEST SWAP2 POP PUSH2 0x19C2 DUP3 PUSH2 0x1981 JUMP JUMPDEST PUSH1 0x20 DUP3 ADD SWAP1 POP SWAP2 SWAP1 POP JUMP JUMPDEST PUSH1 0x0 PUSH1 0x20 DUP3 ADD SWAP1 POP DUP2 DUP2 SUB PUSH1 0x0 DUP4 ADD MSTORE PUSH2 0x19E6 DUP2 PUSH2 0x19AA JUMP JUMPDEST SWAP1 POP SWAP2 SWAP1 POP JUMP JUMPDEST PUSH32 0x45524332303A207472616E7366657220616D6F756E7420657863656564732061 PUSH1 0x0 DUP3 ADD MSTORE PUSH32 0x6C6C6F77616E6365000000000000000000000000000000000000000000000000 PUSH1 0x20 DUP3 ADD MSTORE POP JUMP JUMPDEST PUSH1 0x0 PUSH2 0x1A49 PUSH1 0x28 DUP4 PUSH2 0x1636 JUMP JUMPDEST SWAP2 POP PUSH2 0x1A54 DUP3 PUSH2 0x19ED JUMP JUMPDEST PUSH1 0x40 DUP3 ADD SWAP1 POP SWAP2 SWAP1 POP JUMP JUMPDEST PUSH1 0x0 PUSH1 0x20 DUP3 ADD SWAP1 POP DUP2 DUP2 SUB PUSH1 0x0 DUP4 ADD MSTORE PUSH2 0x1A78 DUP2 PUSH2 0x1A3C JUMP JUMPDEST SWAP1 POP SWAP2 SWAP1 POP JUMP JUMPDEST PUSH32 0x4E487B7100000000000000000000000000000000000000000000000000000000 PUSH1 0x0 MSTORE PUSH1 0x11 PUSH1 0x4 MSTORE PUSH1 0x24 PUSH1 0x0 REVERT JUMPDEST PUSH1 0x0 PUSH2 0x1AB9 DUP3 PUSH2 0x15F7 JUMP JUMPDEST SWAP2 POP PUSH2 0x1AC4 DUP4 PUSH2 0x15F7 JUMP JUMPDEST SWAP3 POP DUP3 DUP3 LT ISZERO PUSH2 0x1AD7 JUMPI PUSH2 0x1AD6 PUSH2 0x1A7F JUMP JUMPDEST JUMPDEST DUP3 DUP3 SUB SWAP1 POP SWAP3 SWAP2 POP POP JUMP JUMPDEST PUSH32 0x45524332303A20617070726F76652066726F6D20746865207A65726F20616464 PUSH1 0x0 DUP3 ADD MSTORE PUSH32 0x7265737300000000000000000000000000000000000000000000000000000000 PUSH1 0x20 DUP3 ADD MSTORE POP JUMP JUMPDEST PUSH1 0x0 PUSH2 0x1B3E PUSH1 0x24 DUP4 PUSH2 0x1636 JUMP JUMPDEST SWAP2 POP PUSH2 0x1B49 DUP3 PUSH2 0x1AE2 JUMP JUMPDEST PUSH1 0x40 DUP3 ADD SWAP1 POP SWAP2 SWAP1 POP JUMP JUMPDEST PUSH1 0x0 PUSH1 0x20 DUP3 ADD SWAP1 POP DUP2 DUP2 SUB PUSH1 0x0 DUP4 ADD MSTORE PUSH2 0x1B6D DUP2 PUSH2 0x1B31 JUMP JUMPDEST SWAP1 POP SWAP2 SWAP1 POP JUMP JUMPDEST PUSH32 0x45524332303A20617070726F766520746F20746865207A65726F206164647265 PUSH1 0x0 DUP3 ADD MSTORE PUSH32 0x7373000000000000000000000000000000000000000000000000000000000000 PUSH1 0x20 DUP3 ADD MSTORE POP JUMP JUMPDEST PUSH1 0x0 PUSH2 0x1BD0 PUSH1 0x22 DUP4 PUSH2 0x1636 JUMP JUMPDEST SWAP2 POP PUSH2 0x1BDB DUP3 PUSH2 0x1B74 JUMP JUMPDEST PUSH1 0x40 DUP3 ADD SWAP1 POP SWAP2 SWAP1 POP JUMP JUMPDEST PUSH1 0x0 PUSH1 0x20 DUP3 ADD SWAP1 POP DUP2 DUP2 SUB PUSH1 0x0 DUP4 ADD MSTORE PUSH2 0x1BFF DUP2 PUSH2 0x1BC3 JUMP JUMPDEST SWAP1 POP SWAP2 SWAP1 POP JUMP JUMPDEST PUSH32 0x45524332303A20696E76616C69642063757272656E74416D6F756E7400000000 PUSH1 0x0 DUP3 ADD MSTORE POP JUMP JUMPDEST PUSH1 0x0 PUSH2 0x1C3C PUSH1 0x1C DUP4 PUSH2 0x1636 JUMP JUMPDEST SWAP2 POP PUSH2 0x1C47 DUP3 PUSH2 0x1C06 JUMP JUMPDEST PUSH1 0x20 DUP3 ADD SWAP1 POP SWAP2 SWAP1 POP JUMP JUMPDEST PUSH1 0x0 PUSH1 0x20 DUP3 ADD SWAP1 POP DUP2 DUP2 SUB PUSH1 0x0 DUP4 ADD MSTORE PUSH2 0x1C6B DUP2 PUSH2 0x1C2F JUMP JUMPDEST SWAP1 POP SWAP2 SWAP1 POP JUMP JUMPDEST PUSH1 0x0 PUSH1 0x40 DUP3 ADD SWAP1 POP PUSH2 0x1C87 PUSH1 0x0 DUP4 ADD DUP6 PUSH2 0x1601 JUMP JUMPDEST PUSH2 0x1C94 PUSH1 0x20 DUP4 ADD DUP5 PUSH2 0x1601 JUMP JUMPDEST SWAP4 SWAP3 POP POP POP JUMP JUMPDEST PUSH32 0x45524332303A207472616E736665722066726F6D20746865207A65726F206164 PUSH1 0x0 DUP3 ADD MSTORE PUSH32 0x6472657373000000000000000000000000000000000000000000000000000000 PUSH1 0x20 DUP3 ADD MSTORE POP JUMP JUMPDEST PUSH1 0x0 PUSH2 0x1CF7 PUSH1 0x25 DUP4 PUSH2 0x1636 JUMP JUMPDEST SWAP2 POP PUSH2 0x1D02 DUP3 PUSH2 0x1C9B JUMP JUMPDEST PUSH1 0x40 DUP3 ADD SWAP1 POP SWAP2 SWAP1 POP JUMP JUMPDEST PUSH1 0x0 PUSH1 0x20 DUP3 ADD SWAP1 POP DUP2 DUP2 SUB PUSH1 0x0 DUP4 ADD MSTORE PUSH2 0x1D26 DUP2 PUSH2 0x1CEA JUMP JUMPDEST SWAP1 POP SWAP2 SWAP1 POP JUMP JUMPDEST PUSH32 0x45524332303A207472616E7366657220746F20746865207A65726F2061646472 PUSH1 0x0 DUP3 ADD MSTORE PUSH32 0x6573730000000000000000000000000000000000000000000000000000000000 PUSH1 0x20 DUP3 ADD MSTORE POP JUMP JUMPDEST PUSH1 0x0 PUSH2 0x1D89 PUSH1 0x23 DUP4 PUSH2 0x1636 JUMP JUMPDEST SWAP2 POP PUSH2 0x1D94 DUP3 PUSH2 0x1D2D JUMP JUMPDEST PUSH1 0x40 DUP3 ADD SWAP1 POP SWAP2 SWAP1 POP JUMP JUMPDEST PUSH1 0x0 PUSH1 0x20 DUP3 ADD SWAP1 POP DUP2 DUP2 SUB PUSH1 0x0 DUP4 ADD MSTORE PUSH2 0x1DB8 DUP2 PUSH2 0x1D7C JUMP JUMPDEST SWAP1 POP SWAP2 SWAP1 POP JUMP JUMPDEST PUSH32 0x546F6B656E4C6F636B3A20696E76616C696420746F6B656E207472616E736665 PUSH1 0x0 DUP3 ADD MSTORE PUSH32 0x7200000000000000000000000000000000000000000000000000000000000000 PUSH1 0x20 DUP3 ADD MSTORE POP JUMP JUMPDEST PUSH1 0x0 PUSH2 0x1E1B PUSH1 0x21 DUP4 PUSH2 0x1636 JUMP JUMPDEST SWAP2 POP PUSH2 0x1E26 DUP3 PUSH2 0x1DBF JUMP JUMPDEST PUSH1 0x40 DUP3 ADD SWAP1 POP SWAP2 SWAP1 POP JUMP JUMPDEST PUSH1 0x0 PUSH1 0x20 DUP3 ADD SWAP1 POP DUP2 DUP2 SUB PUSH1 0x0 DUP4 ADD MSTORE PUSH2 0x1E4A DUP2 PUSH2 0x1E0E JUMP JUMPDEST SWAP1 POP SWAP2 SWAP1 POP JUMP JUMPDEST PUSH32 0x45524332303A207472616E7366657220616D6F756E7420657863656564732062 PUSH1 0x0 DUP3 ADD MSTORE PUSH32 0x616C616E63650000000000000000000000000000000000000000000000000000 PUSH1 0x20 DUP3 ADD MSTORE POP JUMP JUMPDEST PUSH1 0x0 PUSH2 0x1EAD PUSH1 0x26 DUP4 PUSH2 0x1636 JUMP JUMPDEST SWAP2 POP PUSH2 0x1EB8 DUP3 PUSH2 0x1E51 JUMP JUMPDEST PUSH1 0x40 DUP3 ADD SWAP1 POP SWAP2 SWAP1 POP JUMP JUMPDEST PUSH1 0x0 PUSH1 0x20 DUP3 ADD SWAP1 POP DUP2 DUP2 SUB PUSH1 0x0 DUP4 ADD MSTORE PUSH2 0x1EDC DUP2 PUSH2 0x1EA0 JUMP JUMPDEST SWAP1 POP SWAP2 SWAP1 POP JUMP JUMPDEST PUSH32 0x4E487B7100000000000000000000000000000000000000000000000000000000 PUSH1 0x0 MSTORE PUSH1 0x1 PUSH1 0x4 MSTORE PUSH1 0x24 PUSH1 0x0 REVERT JUMPDEST PUSH1 0x0 PUSH2 0x1F1D DUP3 PUSH2 0x15F7 JUMP JUMPDEST SWAP2 POP PUSH2 0x1F28 DUP4 PUSH2 0x15F7 JUMP JUMPDEST SWAP3 POP DUP3 PUSH32 0xFFFFFFFFFFFFFFFFFFFFFFFFFFFFFFFFFFFFFFFFFFFFFFFFFFFFFFFFFFFFFFFF SUB DUP3 GT ISZERO PUSH2 0x1F5D JUMPI PUSH2 0x1F5C PUSH2 0x1A7F JUMP JUMPDEST JUMPDEST DUP3 DUP3 ADD SWAP1 POP SWAP3 SWAP2 POP POP JUMP INVALID LOG2 PUSH5 0x6970667358 0x22 SLT KECCAK256 CALLDATASIZE SWAP2 0xBC DUP9 SWAP4 PUSH7 0x45DF3BD62212FC 0x2B RETURNDATACOPY DUP5 0x4A 0xF8 0x2A NOT STOP 0xB8 0xDA ISZERO JUMPI 0xB9 BALANCE GASPRICE 0xB1 MUL 0xF6 LOG0 PUSH5 0x736F6C6343 STOP ADDMOD 0xF STOP CALLER "
				},
				"gasEstimates": {
					"creation": {
						"codeDepositCost": "1618800",
						"executionCost": "infinite",
						"totalCost": "infinite"
					},
					"external": {
						"_allowances(address,address)": "infinite",
						"_decimals()": "2538",
						"_name()": "infinite",
						"_personalTokenLock(address)": "2889",
						"_symbol()": "infinite",
						"_tokenLock()": "2653",
						"_totalSupply()": "2518",
						"allowance(address,address)": "infinite",
						"approve(address,uint256)": "infinite",
						"balanceOf(address)": "2886",
						"decimals()": "2524",
						"isTokenLock(address,address)": "infinite",
						"name()": "infinite",
						"owner()": "2589",
						"removePersonalTokenLock(address)": "29330",
						"removeTokenLock()": "28872",
						"symbol()": "infinite",
						"totalSupply()": "2549",
						"transfer(address,uint256)": "7980",
						"transferFrom(address,address,uint256)": "infinite",
						"transferOwnership(address)": "32896"
					},
					"internal": {
						"_approve(address,address,uint256,uint256)": "infinite",
						"_transfer(address,address,uint256)": "infinite"
					}
				},
				"methodIdentifiers": {
					"_allowances(address,address)": "024c2ddd",
					"_decimals()": "32424aa3",
					"_name()": "d28d8852",
					"_personalTokenLock(address)": "d27ac65b",
					"_symbol()": "b09f1266",
					"_tokenLock()": "f9ca2561",
					"_totalSupply()": "3eaaf86b",
					"allowance(address,address)": "dd62ed3e",
					"approve(address,uint256)": "095ea7b3",
					"balanceOf(address)": "70a08231",
					"decimals()": "313ce567",
					"isTokenLock(address,address)": "43e204b3",
					"name()": "06fdde03",
					"owner()": "8da5cb5b",
					"removePersonalTokenLock(address)": "130a39b1",
					"removeTokenLock()": "69712ffa",
					"symbol()": "95d89b41",
					"totalSupply()": "18160ddd",
					"transfer(address,uint256)": "a9059cbb",
					"transferFrom(address,address,uint256)": "23b872dd",
					"transferOwnership(address)": "f2fde38b"
				}
			},
			"storageLayout": {
				"storage": [
					{
						"astId": 175,
						"contract": "simpleToken.sol:SimpleToken",
						"label": "_owner",
						"offset": 0,
						"slot": "0",
						"type": "t_address"
					},
					{
						"astId": 258,
						"contract": "simpleToken.sol:SimpleToken",
						"label": "_balances",
						"offset": 0,
						"slot": "1",
						"type": "t_mapping(t_address,t_uint256)"
					},
					{
						"astId": 264,
						"contract": "simpleToken.sol:SimpleToken",
						"label": "_allowances",
						"offset": 0,
						"slot": "2",
						"type": "t_mapping(t_address,t_mapping(t_address,t_uint256))"
					},
					{
						"astId": 266,
						"contract": "simpleToken.sol:SimpleToken",
						"label": "_totalSupply",
						"offset": 0,
						"slot": "3",
						"type": "t_uint256"
					},
					{
						"astId": 268,
						"contract": "simpleToken.sol:SimpleToken",
						"label": "_name",
						"offset": 0,
						"slot": "4",
						"type": "t_string_storage"
					},
					{
						"astId": 270,
						"contract": "simpleToken.sol:SimpleToken",
						"label": "_symbol",
						"offset": 0,
						"slot": "5",
						"type": "t_string_storage"
					},
					{
						"astId": 272,
						"contract": "simpleToken.sol:SimpleToken",
						"label": "_decimals",
						"offset": 0,
						"slot": "6",
						"type": "t_uint8"
					},
					{
						"astId": 274,
						"contract": "simpleToken.sol:SimpleToken",
						"label": "_tokenLock",
						"offset": 1,
						"slot": "6",
						"type": "t_bool"
					},
					{
						"astId": 278,
						"contract": "simpleToken.sol:SimpleToken",
						"label": "_personalTokenLock",
						"offset": 0,
						"slot": "7",
						"type": "t_mapping(t_address,t_bool)"
					}
				],
				"types": {
					"t_address": {
						"encoding": "inplace",
						"label": "address",
						"numberOfBytes": "20"
					},
					"t_bool": {
						"encoding": "inplace",
						"label": "bool",
						"numberOfBytes": "1"
					},
					"t_mapping(t_address,t_bool)": {
						"encoding": "mapping",
						"key": "t_address",
						"label": "mapping(address => bool)",
						"numberOfBytes": "32",
						"value": "t_bool"
					},
					"t_mapping(t_address,t_mapping(t_address,t_uint256))": {
						"encoding": "mapping",
						"key": "t_address",
						"label": "mapping(address => mapping(address => uint256))",
						"numberOfBytes": "32",
						"value": "t_mapping(t_address,t_uint256)"
					},
					"t_mapping(t_address,t_uint256)": {
						"encoding": "mapping",
						"key": "t_address",
						"label": "mapping(address => uint256)",
						"numberOfBytes": "32",
						"value": "t_uint256"
					},
					"t_string_storage": {
						"encoding": "bytes",
						"label": "string",
						"numberOfBytes": "32"
					},
					"t_uint256": {
						"encoding": "inplace",
						"label": "uint256",
						"numberOfBytes": "32"
					},
					"t_uint8": {
						"encoding": "inplace",
						"label": "uint8",
						"numberOfBytes": "1"
					}
				}
			},
			"userdoc": {
				"kind": "user",
				"methods": {},
				"version": 1
			}
		}
	}
}